{
  "contractName": "AddressSetLib",
  "abi": [
    {
      "constant": true,
      "inputs": [
        {
          "name": "self",
          "type": "AddressSetLib.AddressSet storage"
        },
        {
          "name": "index",
          "type": "uint256"
        }
      ],
      "name": "get",
      "outputs": [
        {
          "name": "",
          "type": "address"
        }
      ],
      "payable": false,
      "stateMutability": "view",
      "type": "function"
    },
    {
      "constant": false,
      "inputs": [
        {
          "name": "self",
          "type": "AddressSetLib.AddressSet storage"
        },
        {
          "name": "index",
          "type": "uint256"
        },
        {
          "name": "value",
          "type": "address"
        }
      ],
      "name": "set",
      "outputs": [
        {
          "name": "",
          "type": "bool"
        }
      ],
      "payable": false,
      "stateMutability": "nonpayable",
      "type": "function"
    },
    {
      "constant": false,
      "inputs": [
        {
          "name": "self",
          "type": "AddressSetLib.AddressSet storage"
        },
        {
          "name": "value",
          "type": "address"
        }
      ],
      "name": "add",
      "outputs": [
        {
          "name": "",
          "type": "bool"
        }
      ],
      "payable": false,
      "stateMutability": "nonpayable",
      "type": "function"
    },
    {
      "constant": false,
      "inputs": [
        {
          "name": "self",
          "type": "AddressSetLib.AddressSet storage"
        },
        {
          "name": "value",
          "type": "address"
        }
      ],
      "name": "remove",
      "outputs": [
        {
          "name": "",
          "type": "bool"
        }
      ],
      "payable": false,
      "stateMutability": "nonpayable",
      "type": "function"
    },
    {
      "constant": false,
      "inputs": [
        {
          "name": "self",
          "type": "AddressSetLib.AddressSet storage"
        },
        {
          "name": "index",
          "type": "uint256"
        }
      ],
      "name": "pop",
      "outputs": [
        {
          "name": "",
          "type": "address"
        }
      ],
      "payable": false,
      "stateMutability": "nonpayable",
      "type": "function"
    },
    {
      "constant": true,
      "inputs": [
        {
          "name": "self",
          "type": "AddressSetLib.AddressSet storage"
        }
      ],
      "name": "first",
      "outputs": [
        {
          "name": "",
          "type": "address"
        }
      ],
      "payable": false,
      "stateMutability": "view",
      "type": "function"
    },
    {
      "constant": true,
      "inputs": [
        {
          "name": "self",
          "type": "AddressSetLib.AddressSet storage"
        }
      ],
      "name": "last",
      "outputs": [
        {
          "name": "",
          "type": "address"
        }
      ],
      "payable": false,
      "stateMutability": "view",
      "type": "function"
    },
    {
      "constant": true,
      "inputs": [
        {
          "name": "self",
          "type": "AddressSetLib.AddressSet storage"
        },
        {
          "name": "value",
          "type": "address"
        }
      ],
      "name": "indexOf",
      "outputs": [
        {
          "name": "",
          "type": "uint256"
        }
      ],
      "payable": false,
      "stateMutability": "view",
      "type": "function"
    },
    {
      "constant": true,
      "inputs": [
        {
          "name": "self",
          "type": "AddressSetLib.AddressSet storage"
        },
        {
          "name": "value",
          "type": "address"
        }
      ],
      "name": "contains",
      "outputs": [
        {
          "name": "",
          "type": "bool"
        }
      ],
      "payable": false,
      "stateMutability": "view",
      "type": "function"
    },
    {
      "constant": true,
      "inputs": [
        {
          "name": "self",
          "type": "AddressSetLib.AddressSet storage"
        }
      ],
      "name": "size",
      "outputs": [
        {
          "name": "",
          "type": "uint256"
        }
      ],
      "payable": false,
      "stateMutability": "view",
      "type": "function"
    }
  ],
  "bytecode": "0x610be4610030600b82828239805160001a6073146000811461002057610022565bfe5b5030600052607381538281f30073000000000000000000000000000000000000000030146060604052600436106100bb576000357c0100000000000000000000000000000000000000000000000000000000900463ffffffff1680631d4cf6c4146100c05780631e401616146100ec578063499b67d914610146578063840d4d37146101a0578063af026a9014610203578063ba39f4a51461024e578063da5d2348146102a6578063dc02e70d14610307578063eae5496714610356578063efc33f1e146103ae575b600080fd5b6100d6600480803590602001909190505061041a565b6040518082815260200191505060405180910390f35b81156100f757600080fd5b61012c600480803590602001909190803573ffffffffffffffffffffffffffffffffffffffff1690602001909190505061042b565b604051808215151515815260200191505060405180910390f35b811561015157600080fd5b610186600480803590602001909190803573ffffffffffffffffffffffffffffffffffffffff169060200190919050506105a1565b604051808215151515815260200191505060405180910390f35b81156101ab57600080fd5b6101e9600480803590602001909190803590602001909190803573ffffffffffffffffffffffffffffffffffffffff16906020019091905050610625565b604051808215151515815260200191505060405180910390f35b610238600480803590602001909190803573ffffffffffffffffffffffffffffffffffffffff169060200190919050506107a4565b6040518082815260200191505060405180910390f35b610264600480803590602001909190505061086e565b604051808273ffffffffffffffffffffffffffffffffffffffff1673ffffffffffffffffffffffffffffffffffffffff16815260200191505060405180910390f35b6102c560048080359060200190919080359060200190919050506108a4565b604051808273ffffffffffffffffffffffffffffffffffffffff1673ffffffffffffffffffffffffffffffffffffffff16815260200191505060405180910390f35b61033c600480803590602001909190803573ffffffffffffffffffffffffffffffffffffffff16906020019091905050610904565b604051808215151515815260200191505060405180910390f35b61036c600480803590602001909190505061095d565b604051808273ffffffffffffffffffffffffffffffffffffffff1673ffffffffffffffffffffffffffffffffffffffff16815260200191505060405180910390f35b81156103b957600080fd5b6103d8600480803590602001909190803590602001909190505061098a565b604051808273ffffffffffffffffffffffffffffffffffffffff1673ffffffffffffffffffffffffffffffffffffffff16815260200191505060405180910390f35b600081600001805490509050919050565b60008260010160008373ffffffffffffffffffffffffffffffffffffffff1673ffffffffffffffffffffffffffffffffffffffff16815260200190815260200160002060009054906101000a900460ff161561048a576000905061059b565b82600001805490508360020160008473ffffffffffffffffffffffffffffffffffffffff1673ffffffffffffffffffffffffffffffffffffffff168152602001908152602001600020819055508260000180548060010182816104ed9190610b3b565b9160005260206000209001600084909190916101000a81548173ffffffffffffffffffffffffffffffffffffffff021916908373ffffffffffffffffffffffffffffffffffffffff1602179055505060018360010160008473ffffffffffffffffffffffffffffffffffffffff1673ffffffffffffffffffffffffffffffffffffffff16815260200190815260200160002060006101000a81548160ff021916908315150217905550600190505b92915050565b6000808360010160008473ffffffffffffffffffffffffffffffffffffffff1673ffffffffffffffffffffffffffffffffffffffff16815260200190815260200160002060009054906101000a900460ff161515610602576000915061061e565b61060c84846107a4565b9050610618848261098a565b50600191505b5092915050565b6000838381600001805490508110151561063e57600080fd5b8560010160008573ffffffffffffffffffffffffffffffffffffffff1673ffffffffffffffffffffffffffffffffffffffff16815260200190815260200160002060009054906101000a900460ff161561069b576000925061079b565b8386600001868154811015156106ad57fe5b906000526020600020900160006101000a81548173ffffffffffffffffffffffffffffffffffffffff021916908373ffffffffffffffffffffffffffffffffffffffff16021790555060018660010160008673ffffffffffffffffffffffffffffffffffffffff1673ffffffffffffffffffffffffffffffffffffffff16815260200190815260200160002060006101000a81548160ff021916908315150217905550848660020160008673ffffffffffffffffffffffffffffffffffffffff1673ffffffffffffffffffffffffffffffffffffffff16815260200190815260200160002081905550600192505b50509392505050565b60008260010160008373ffffffffffffffffffffffffffffffffffffffff1673ffffffffffffffffffffffffffffffffffffffff16815260200190815260200160002060009054906101000a900460ff161515610823577fffffffffffffffffffffffffffffffffffffffffffffffffffffffffffffffff9050610868565b8260020160008373ffffffffffffffffffffffffffffffffffffffff1673ffffffffffffffffffffffffffffffffffffffff1681526020019081526020016000205490505b92915050565b600081600081600001805490501415151561088857600080fd5b61089c8360018560000180549050036108a4565b915050919050565b600082828160000180549050811015156108bd57600080fd5b84600001848154811015156108ce57fe5b906000526020600020900160009054906101000a900473ffffffffffffffffffffffffffffffffffffffff169250505092915050565b60008260010160008373ffffffffffffffffffffffffffffffffffffffff1673ffffffffffffffffffffffffffffffffffffffff16815260200190815260200160002060009054906101000a900460ff16905092915050565b600081600081600001805490501415151561097757600080fd5b6109828360006108a4565b915050919050565b600080600084848160000180549050811015156109a657600080fd5b6109b087876108a4565b9350600187600001805490500386141515610a7d576109ce8761086e565b925060008760010160008573ffffffffffffffffffffffffffffffffffffffff1673ffffffffffffffffffffffffffffffffffffffff16815260200190815260200160002060006101000a81548160ff021916908315150217905550610a35878785610625565b50858760020160008573ffffffffffffffffffffffffffffffffffffffff1673ffffffffffffffffffffffffffffffffffffffff168152602001908152602001600020819055505b60018760000181818054905003915081610a979190610b67565b508660020160008573ffffffffffffffffffffffffffffffffffffffff1673ffffffffffffffffffffffffffffffffffffffff168152602001908152602001600020600090558660010160008573ffffffffffffffffffffffffffffffffffffffff1673ffffffffffffffffffffffffffffffffffffffff16815260200190815260200160002060006101000a81549060ff02191690558394505050505092915050565b815481835581811511610b6257818360005260206000209182019101610b619190610b93565b5b505050565b815481835581811511610b8e57818360005260206000209182019101610b8d9190610b93565b5b505050565b610bb591905b80821115610bb1576000816000905550600101610b99565b5090565b905600a165627a7a72305820dcb571191946e5428ca11e93732b3346edc3b68e2e9b5860abb855924d6f1b930029",
  "source": "pragma solidity ^0.4.15;\n\n/// @title Library implementing an array type which allows O(1) lookups on values.\n/// @author Piper Merriam <pipermerriam@gmail.com>, Eric Olszewski <eolszewski@gmail.com>\n/// Adapted from https://github.com/ethpm/ethereum-indexed-enumerable-set-lib/blob/master/contracts/IndexedEnumerableSetLib.sol\nlibrary AddressSetLib {\n\n    struct AddressSet {\n        address[] values;\n        mapping(address => bool) exists;\n        mapping(address => uint) indices;\n    }\n\n    modifier inBounds(AddressSet storage self, uint index) {\n        require(index < self.values.length);\n        _;\n    }\n\n    modifier notEmpty(AddressSet storage self) {\n        require(self.values.length != 0);\n        _;\n    }\n\n    function get(AddressSet storage self, uint index) public constant\n        inBounds(self, index)\n        returns (address)\n    {\n        return self.values[index];\n    }\n\n    function set(AddressSet storage self, uint index, address value) public\n        inBounds(self, index)\n        returns (bool)\n    {\n        if (self.exists[value])\n            return false;\n        self.values[index] = value;\n        self.exists[value] = true;\n        self.indices[value] = index;\n        return true;\n    }\n\n    function add(AddressSet storage self, address value) public\n        returns (bool)\n    {\n        if (self.exists[value])\n            return false;\n        self.indices[value] = self.values.length;\n        self.values.push(value);\n        self.exists[value] = true;\n        return true;\n    }\n\n    function remove(AddressSet storage self, address value) public\n        returns (bool)\n    {\n        if (!self.exists[value])\n            return false;\n        uint index = indexOf(self, value);\n        pop(self, index);\n        return true;\n    }\n\n    function pop(AddressSet storage self, uint index) public\n        inBounds(self, index)\n        returns (address)\n    {\n        address value = get(self, index);\n\n        if (index != self.values.length - 1) {\n            address lastValue = last(self);\n            self.exists[lastValue] = false;\n            set(self, index, lastValue);\n            self.indices[lastValue] = index;\n        }\n        self.values.length -= 1;\n\n        delete self.indices[value];\n        delete self.exists[value];\n\n        return value;\n    }\n\n    function first(AddressSet storage self) public constant\n        notEmpty(self)\n        returns (address)\n    {\n        return get(self, 0);\n    }\n\n    function last(AddressSet storage self) public constant\n        notEmpty(self)\n        returns (address)\n    {\n        return get(self, self.values.length - 1);\n    }\n\n    function indexOf(AddressSet storage self, address value) public constant\n        returns (uint)\n    {\n        if (!self.exists[value])\n            return uint(-1);\n        return self.indices[value];\n    }\n\n    function contains(AddressSet storage self, address value) public constant\n        returns (bool)\n    {\n        return self.exists[value];\n    }\n\n    function size(AddressSet storage self) public constant\n        returns (uint)\n    {\n        return self.values.length;\n    }\n}",
  "sourcePath": "/Users/punyampatnaik/Code Arena/Apps/abc-app/contracts/AddressSetLib.sol",
  "compiler": {
    "name": "solc",
    "version": "0.4.21+commit.dfe3193c.Emscripten.clang"
  },
  "schemaVersion": "2.0.0",
  "updatedAt": "2018-04-06T13:51:01.740Z"
}