{
  "contractName": "Haltable",
  "abi": [
    {
      "constant": true,
      "inputs": [],
      "name": "isHalted",
      "outputs": [
        {
          "name": "",
          "type": "bool"
        }
      ],
      "payable": false,
      "stateMutability": "view",
      "type": "function"
    },
    {
      "anonymous": false,
      "inputs": [
        {
          "indexed": false,
          "name": "who",
          "type": "address"
        },
        {
          "indexed": false,
          "name": "halted",
          "type": "bool"
        }
      ],
      "name": "LogHaltSwitch",
      "type": "event"
    }
  ],
  "bytecode": "0x6080604052348015600f57600080fd5b5060ae8061001e6000396000f300608060405260043610603f576000357c0100000000000000000000000000000000000000000000000000000000900463ffffffff168063c7ff1584146044575b600080fd5b348015604f57600080fd5b5060566070565b604051808215151515815260200191505060405180910390f35b6000809054906101000a900460ff16815600a165627a7a72305820440ad27e3bf5eea719a5f92ecc212204c33eb7ac965c0ee3435907f60ce080350029",
  "source": "pragma solidity ^0.4.15;\n\ncontract Haltable {\n    bool public isHalted;\n\n    event LogHaltSwitch(address who, bool halted);\n\n    // this is prefixed with an underscore so that contracts overriding it (to add extra access\n    // modifiers, etc.) don't run into TypeErrors if they need to change the function signature.\n    function _haltSwitch(address _who, bool _isHalted)\n        internal\n        returns (bool ok)\n    {\n        require(isHalted != _isHalted);\n        isHalted = _isHalted;\n        LogHaltSwitch(_who, _isHalted);\n        return true;\n    }\n\n    modifier onlyHalted {\n        require(isHalted);\n        _;\n    }\n\n    modifier onlyNotHalted {\n        require(!isHalted);\n        _;\n    }\n}",
  "sourcePath": "/home/nitesh_ns19/abc-ipl/contracts/Haltable.sol",
  "compiler": {
    "name": "solc",
    "version": "0.4.24+commit.e67f0147.Emscripten.clang"
  },
  "schemaVersion": "2.0.1",
  "updatedAt": "2018-06-30T14:18:55.185Z"
}