{
  "contractName": "Haltable",
  "abi": [
    {
      "constant": true,
      "inputs": [],
      "name": "isHalted",
      "outputs": [
        {
          "name": "",
          "type": "bool"
        }
      ],
      "payable": false,
      "stateMutability": "view",
      "type": "function"
    },
    {
      "anonymous": false,
      "inputs": [
        {
          "indexed": false,
          "name": "who",
          "type": "address"
        },
        {
          "indexed": false,
          "name": "halted",
          "type": "bool"
        }
      ],
      "name": "LogHaltSwitch",
      "type": "event"
    }
  ],
  "bytecode": "0x60606040523415600e57600080fd5b60ac8061001c6000396000f300606060405260043610603f576000357c0100000000000000000000000000000000000000000000000000000000900463ffffffff168063c7ff1584146044575b600080fd5b3415604e57600080fd5b6054606e565b604051808215151515815260200191505060405180910390f35b6000809054906101000a900460ff16815600a165627a7a72305820a799c99dd7a84d6b1227c53918d64639842c5f1ea1f5806ca6529367f5f5de690029",
  "source": "pragma solidity ^0.4.15;\n\ncontract Haltable {\n    bool public isHalted;\n\n    event LogHaltSwitch(address who, bool halted);\n\n    // this is prefixed with an underscore so that contracts overriding it (to add extra access\n    // modifiers, etc.) don't run into TypeErrors if they need to change the function signature.\n    function _haltSwitch(address _who, bool _isHalted)\n        internal\n        returns (bool ok)\n    {\n        require(isHalted != _isHalted);\n        isHalted = _isHalted;\n        LogHaltSwitch(_who, _isHalted);\n        return true;\n    }\n\n    modifier onlyHalted {\n        require(isHalted);\n        _;\n    }\n\n    modifier onlyNotHalted {\n        require(!isHalted);\n        _;\n    }\n}",
  "sourcePath": "/Users/punyampatnaik/Code Arena/Apps/abc-app/contracts/Haltable.sol",
  "compiler": {
    "name": "solc",
    "version": "0.4.21+commit.dfe3193c.Emscripten.clang"
  },
  "schemaVersion": "2.0.0",
  "updatedAt": "2018-04-04T09:15:48.071Z"
}