{
  "contractName": "Ipl",
  "abi": [
    {
      "constant": true,
      "inputs": [
        {
          "name": "",
          "type": "address"
        }
      ],
      "name": "isAdmin",
      "outputs": [
        {
          "name": "",
          "type": "bool"
        }
      ],
      "payable": false,
      "stateMutability": "view",
      "type": "function"
    },
    {
      "constant": true,
      "inputs": [
        {
          "name": "",
          "type": "address"
        }
      ],
      "name": "playerNames",
      "outputs": [
        {
          "name": "",
          "type": "string"
        }
      ],
      "payable": false,
      "stateMutability": "view",
      "type": "function"
    },
    {
      "constant": false,
      "inputs": [
        {
          "name": "admin",
          "type": "address"
        }
      ],
      "name": "addAdmin",
      "outputs": [
        {
          "name": "ok",
          "type": "bool"
        }
      ],
      "payable": false,
      "stateMutability": "nonpayable",
      "type": "function"
    },
    {
      "constant": true,
      "inputs": [
        {
          "name": "",
          "type": "address"
        }
      ],
      "name": "questionStats",
      "outputs": [
        {
          "name": "toalWinAmount",
          "type": "uint256"
        },
        {
          "name": "totalLooseAmount",
          "type": "uint256"
        },
        {
          "name": "totalWins",
          "type": "uint256"
        },
        {
          "name": "totalLoose",
          "type": "uint256"
        },
        {
          "name": "totalBets",
          "type": "uint256"
        }
      ],
      "payable": false,
      "stateMutability": "view",
      "type": "function"
    },
    {
      "constant": true,
      "inputs": [],
      "name": "tokenAddress",
      "outputs": [
        {
          "name": "",
          "type": "address"
        }
      ],
      "payable": false,
      "stateMutability": "view",
      "type": "function"
    },
    {
      "constant": true,
      "inputs": [
        {
          "name": "",
          "type": "address"
        }
      ],
      "name": "matchStats",
      "outputs": [
        {
          "name": "toalWinAmount",
          "type": "uint256"
        },
        {
          "name": "totalLooseAmount",
          "type": "uint256"
        },
        {
          "name": "totalWins",
          "type": "uint256"
        },
        {
          "name": "totalLoose",
          "type": "uint256"
        },
        {
          "name": "totalBets",
          "type": "uint256"
        }
      ],
      "payable": false,
      "stateMutability": "view",
      "type": "function"
    },
    {
      "constant": true,
      "inputs": [
        {
          "name": "",
          "type": "uint256"
        }
      ],
      "name": "playerList",
      "outputs": [
        {
          "name": "",
          "type": "address"
        }
      ],
      "payable": false,
      "stateMutability": "view",
      "type": "function"
    },
    {
      "constant": true,
      "inputs": [
        {
          "name": "",
          "type": "address"
        }
      ],
      "name": "playerRank",
      "outputs": [
        {
          "name": "",
          "type": "uint256"
        }
      ],
      "payable": false,
      "stateMutability": "view",
      "type": "function"
    },
    {
      "constant": true,
      "inputs": [],
      "name": "isHalted",
      "outputs": [
        {
          "name": "",
          "type": "bool"
        }
      ],
      "payable": false,
      "stateMutability": "view",
      "type": "function"
    },
    {
      "constant": true,
      "inputs": [
        {
          "name": "",
          "type": "address"
        }
      ],
      "name": "playerStats",
      "outputs": [
        {
          "name": "toalWinAmount",
          "type": "uint256"
        },
        {
          "name": "totalLooseAmount",
          "type": "uint256"
        },
        {
          "name": "totalWins",
          "type": "uint256"
        },
        {
          "name": "totalLoose",
          "type": "uint256"
        },
        {
          "name": "totalBets",
          "type": "uint256"
        }
      ],
      "payable": false,
      "stateMutability": "view",
      "type": "function"
    },
    {
      "constant": true,
      "inputs": [
        {
          "name": "",
          "type": "address"
        }
      ],
      "name": "isTrustedSource",
      "outputs": [
        {
          "name": "",
          "type": "bool"
        }
      ],
      "payable": false,
      "stateMutability": "view",
      "type": "function"
    },
    {
      "inputs": [
        {
          "name": "_token",
          "type": "address"
        }
      ],
      "payable": false,
      "stateMutability": "nonpayable",
      "type": "constructor"
    },
    {
      "anonymous": false,
      "inputs": [
        {
          "indexed": true,
          "name": "matchId",
          "type": "uint256"
        }
      ],
      "name": "LogMatchAdded",
      "type": "event"
    },
    {
      "anonymous": false,
      "inputs": [
        {
          "indexed": false,
          "name": "who",
          "type": "address"
        },
        {
          "indexed": false,
          "name": "halted",
          "type": "bool"
        }
      ],
      "name": "LogHaltSwitch",
      "type": "event"
    },
    {
      "anonymous": false,
      "inputs": [
        {
          "indexed": false,
          "name": "whoAdded",
          "type": "address"
        },
        {
          "indexed": false,
          "name": "newAdmin",
          "type": "address"
        }
      ],
      "name": "LogAddAdmin",
      "type": "event"
    },
    {
      "constant": false,
      "inputs": [
        {
          "name": "_isHalted",
          "type": "bool"
        }
      ],
      "name": "haltSwitch",
      "outputs": [
        {
          "name": "ok",
          "type": "bool"
        }
      ],
      "payable": false,
      "stateMutability": "nonpayable",
      "type": "function"
    },
    {
      "constant": false,
      "inputs": [
        {
          "name": "recipient",
          "type": "address"
        }
      ],
      "name": "kill",
      "outputs": [
        {
          "name": "ok",
          "type": "bool"
        }
      ],
      "payable": false,
      "stateMutability": "nonpayable",
      "type": "function"
    },
    {
      "constant": false,
      "inputs": [
        {
          "name": "_id",
          "type": "uint256"
        }
      ],
      "name": "addMatch",
      "outputs": [
        {
          "name": "ok",
          "type": "bool"
        },
        {
          "name": "questionAddr",
          "type": "address"
        }
      ],
      "payable": false,
      "stateMutability": "nonpayable",
      "type": "function"
    },
    {
      "constant": false,
      "inputs": [
        {
          "name": "_playerAddress",
          "type": "address"
        },
        {
          "name": "playerName",
          "type": "string"
        }
      ],
      "name": "addPlayer",
      "outputs": [
        {
          "name": "ok",
          "type": "bool"
        }
      ],
      "payable": false,
      "stateMutability": "nonpayable",
      "type": "function"
    },
    {
      "constant": false,
      "inputs": [
        {
          "name": "rankArray",
          "type": "uint256[]"
        },
        {
          "name": "addressArray",
          "type": "address[]"
        }
      ],
      "name": "setPlayerRank",
      "outputs": [
        {
          "name": "ok",
          "type": "bool"
        }
      ],
      "payable": false,
      "stateMutability": "nonpayable",
      "type": "function"
    },
    {
      "constant": true,
      "inputs": [],
      "name": "numMatches",
      "outputs": [
        {
          "name": "",
          "type": "uint256"
        }
      ],
      "payable": false,
      "stateMutability": "view",
      "type": "function"
    },
    {
      "constant": true,
      "inputs": [
        {
          "name": "i",
          "type": "uint256"
        }
      ],
      "name": "getMatchByIndex",
      "outputs": [
        {
          "name": "",
          "type": "address"
        }
      ],
      "payable": false,
      "stateMutability": "view",
      "type": "function"
    },
    {
      "constant": true,
      "inputs": [],
      "name": "getAllMatchAddresses",
      "outputs": [
        {
          "name": "",
          "type": "address[]"
        }
      ],
      "payable": false,
      "stateMutability": "view",
      "type": "function"
    },
    {
      "constant": true,
      "inputs": [],
      "name": "getPlayerList",
      "outputs": [
        {
          "name": "",
          "type": "address[]"
        }
      ],
      "payable": false,
      "stateMutability": "view",
      "type": "function"
    }
  ],
  "bytecode": "0x6060604052341561000f57600080fd5b6040516020806139f88339810160405280805190602001909190505060016000803373ffffffffffffffffffffffffffffffffffffffff1673ffffffffffffffffffffffffffffffffffffffff16815260200190815260200160002060006101000a81548160ff02191690831515021790555080600260006101000a81548173ffffffffffffffffffffffffffffffffffffffff021916908373ffffffffffffffffffffffffffffffffffffffff160217905550806001806101000a81548173ffffffffffffffffffffffffffffffffffffffff021916908373ffffffffffffffffffffffffffffffffffffffff160217905550506138e5806101136000396000f300606060405260043610610112576000357c0100000000000000000000000000000000000000000000000000000000900463ffffffff168063085e615e146101175780631af9ffdd1461015457806324d7806c146101be5780632c48a73d1461020f57806343b978b3146102a357806353088b941461035557806362a63e29146103c3578063704802751461042d578063854458291461047e57806386b73201146104a75780639d76ea5814610510578063abe9453a14610565578063ae6d9073146105ce578063c344b71014610631578063c7ff15841461067e578063cbf0b0c0146106ab578063cdafbbb6146106fc578063d85364b814610765578063e052a5c914610817578063ee4f240f14610868575b600080fd5b341561012257600080fd5b61013a600480803515159060200190919050506108cb565b604051808215151515815260200191505060405180910390f35b341561015f57600080fd5b610167610935565b6040518080602001828103825283818151815260200191508051906020019060200280838360005b838110156101aa57808201518184015260208101905061018f565b505050509050019250505060405180910390f35b34156101c957600080fd5b6101f5600480803573ffffffffffffffffffffffffffffffffffffffff169060200190919050506109cc565b604051808215151515815260200191505060405180910390f35b341561021a57600080fd5b610289600480803573ffffffffffffffffffffffffffffffffffffffff1690602001909190803590602001908201803590602001908080601f016020809104026020016040519081016040528093929190818152602001838380828437820191505050505050919050506109ec565b604051808215151515815260200191505060405180910390f35b34156102ae57600080fd5b6102da600480803573ffffffffffffffffffffffffffffffffffffffff16906020019091905050610c5a565b6040518080602001828103825283818151815260200191508051906020019080838360005b8381101561031a5780820151818401526020810190506102ff565b50505050905090810190601f1680156103475780820380516001836020036101000a031916815260200191505b509250505060405180910390f35b341561036057600080fd5b6103766004808035906020019091905050610d0a565b60405180831515151581526020018273ffffffffffffffffffffffffffffffffffffffff1673ffffffffffffffffffffffffffffffffffffffff1681526020019250505060405180910390f35b34156103ce57600080fd5b6103d661106a565b6040518080602001828103825283818151815260200191508051906020019060200280838360005b838110156104195780820151818401526020810190506103fe565b505050509050019250505060405180910390f35b341561043857600080fd5b610464600480803573ffffffffffffffffffffffffffffffffffffffff169060200190919050506110fe565b604051808215151515815260200191505060405180910390f35b341561048957600080fd5b6104916112ac565b6040518082815260200191505060405180910390f35b34156104b257600080fd5b6104de600480803573ffffffffffffffffffffffffffffffffffffffff16906020019091905050611337565b604051808681526020018581526020018481526020018381526020018281526020019550505050505060405180910390f35b341561051b57600080fd5b61052361136d565b604051808273ffffffffffffffffffffffffffffffffffffffff1673ffffffffffffffffffffffffffffffffffffffff16815260200191505060405180910390f35b341561057057600080fd5b61059c600480803573ffffffffffffffffffffffffffffffffffffffff16906020019091905050611392565b604051808681526020018581526020018481526020018381526020018281526020019550505050505060405180910390f35b34156105d957600080fd5b6105ef60048080359060200190919050506113c8565b604051808273ffffffffffffffffffffffffffffffffffffffff1673ffffffffffffffffffffffffffffffffffffffff16815260200191505060405180910390f35b341561063c57600080fd5b610668600480803573ffffffffffffffffffffffffffffffffffffffff16906020019091905050611407565b6040518082815260200191505060405180910390f35b341561068957600080fd5b61069161141f565b604051808215151515815260200191505060405180910390f35b34156106b657600080fd5b6106e2600480803573ffffffffffffffffffffffffffffffffffffffff16906020019091905050611432565b604051808215151515815260200191505060405180910390f35b341561070757600080fd5b610733600480803573ffffffffffffffffffffffffffffffffffffffff169060200190919050506114bf565b604051808681526020018581526020018481526020018381526020018281526020019550505050505060405180910390f35b341561077057600080fd5b6107fd600480803590602001908201803590602001908080602002602001604051908101604052809392919081815260200183836020028082843782019150505050505091908035906020019082018035906020019080806020026020016040519081016040528093929190818152602001838360200280828437820191505050505050919050506114f5565b604051808215151515815260200191505060405180910390f35b341561082257600080fd5b61084e600480803573ffffffffffffffffffffffffffffffffffffffff16906020019091905050611603565b604051808215151515815260200191505060405180910390f35b341561087357600080fd5b6108896004808035906020019091905050611623565b604051808273ffffffffffffffffffffffffffffffffffffffff1673ffffffffffffffffffffffffffffffffffffffff16815260200191505060405180910390f35b60008060003373ffffffffffffffffffffffffffffffffffffffff1673ffffffffffffffffffffffffffffffffffffffff16815260200190815260200160002060009054906101000a900460ff16151561092457600080fd5b61092e33836116b8565b9050919050565b61093d61176f565b600a6000018054806020026020016040519081016040528092919081815260200182805480156109c257602002820191906000526020600020905b8160009054906101000a900473ffffffffffffffffffffffffffffffffffffffff1673ffffffffffffffffffffffffffffffffffffffff1681526020019060010190808311610978575b5050505050905090565b60006020528060005260406000206000915054906101000a900460ff1681565b6000600160009054906101000a900460ff16151515610a0a57600080fd5b600360008473ffffffffffffffffffffffffffffffffffffffff1673ffffffffffffffffffffffffffffffffffffffff16815260200190815260200160002060009054906101000a900460ff16151515610a6357600080fd5b6001600360008573ffffffffffffffffffffffffffffffffffffffff1673ffffffffffffffffffffffffffffffffffffffff16815260200190815260200160002060006101000a81548160ff021916908315150217905550600260009054906101000a900473ffffffffffffffffffffffffffffffffffffffff1673ffffffffffffffffffffffffffffffffffffffff16636039fbdb846101f46040518363ffffffff167c0100000000000000000000000000000000000000000000000000000000028152600401808373ffffffffffffffffffffffffffffffffffffffff1673ffffffffffffffffffffffffffffffffffffffff16815260200182815260200192505050602060405180830381600087803b1515610b8157600080fd5b5af11515610b8e57600080fd5b505050604051805190505081600460008573ffffffffffffffffffffffffffffffffffffffff1673ffffffffffffffffffffffffffffffffffffffff1681526020019081526020016000209080519060200190610bec929190611783565b5060058054806001018281610c019190611803565b9160005260206000209001600085909190916101000a81548173ffffffffffffffffffffffffffffffffffffffff021916908373ffffffffffffffffffffffffffffffffffffffff160217905550506001905092915050565b60046020528060005260406000206000915090508054600181600116156101000203166002900480601f016020809104026020016040519081016040528092919081815260200182805460018160011615610100020316600290048015610d025780601f10610cd757610100808354040283529160200191610d02565b820191906000526020600020905b815481529060010190602001808311610ce557829003601f168201915b505050505081565b60008060008060003373ffffffffffffffffffffffffffffffffffffffff1673ffffffffffffffffffffffffffffffffffffffff16815260200190815260200160002060009054906101000a900460ff161515610d6657600080fd5b600160009054906101000a900460ff16151515610d8257600080fd5b836001600a73__AddressSetLib_________________________631d4cf6c490916040518263ffffffff167c01000000000000000000000000000000000000000000000000000000000281526004018082815260200191505060206040518083038186803b1515610df257600080fd5b5af41515610dff57600080fd5b5050506040518051905001141515610e1657600080fd5b836001809054906101000a900473ffffffffffffffffffffffffffffffffffffffff16610e4161182f565b808381526020018273ffffffffffffffffffffffffffffffffffffffff1673ffffffffffffffffffffffffffffffffffffffff16815260200192505050604051809103906000f0801515610e9457600080fd5b90508073ffffffffffffffffffffffffffffffffffffffff1663c517e81660c060405190810160405280600281526020016003815260200160048152602001600581526020016006815260200160078152506040518263ffffffff167c01000000000000000000000000000000000000000000000000000000000281526004018082600660200280838360005b83811015610f3c578082015181840152602081019050610f21565b50505050905001915050602060405180830381600087803b1515610f5f57600080fd5b5af11515610f6c57600080fd5b5050506040518051905050600a73__AddressSetLib_________________________631e4016169091836040518363ffffffff167c0100000000000000000000000000000000000000000000000000000000028152600401808381526020018273ffffffffffffffffffffffffffffffffffffffff1673ffffffffffffffffffffffffffffffffffffffff1681526020019250505060206040518083038186803b151561101857600080fd5b5af4151561102557600080fd5b5050506040518051905050837f25149f34758b468ff7945eb49c4a97d4c504f926d21f9d7f47051ca33b3107b560405160405180910390a26001819250925050915091565b61107261176f565b60058054806020026020016040519081016040528092919081815260200182805480156110f457602002820191906000526020600020905b8160009054906101000a900473ffffffffffffffffffffffffffffffffffffffff1673ffffffffffffffffffffffffffffffffffffffff16815260200190600101908083116110aa575b5050505050905090565b60008060003373ffffffffffffffffffffffffffffffffffffffff1673ffffffffffffffffffffffffffffffffffffffff16815260200190815260200160002060009054906101000a900460ff16151561115757600080fd5b600015156000808473ffffffffffffffffffffffffffffffffffffffff1673ffffffffffffffffffffffffffffffffffffffff16815260200190815260200160002060009054906101000a900460ff1615151415156111b557600080fd5b60016000808473ffffffffffffffffffffffffffffffffffffffff1673ffffffffffffffffffffffffffffffffffffffff16815260200190815260200160002060006101000a81548160ff0219169083151502179055507fdf593c01aa2f7c955ab35aee0623fe0744c2117efb32343667f5b9660e9d50493383604051808373ffffffffffffffffffffffffffffffffffffffff1673ffffffffffffffffffffffffffffffffffffffff1681526020018273ffffffffffffffffffffffffffffffffffffffff1673ffffffffffffffffffffffffffffffffffffffff1681526020019250505060405180910390a160019050919050565b6000600a73__AddressSetLib_________________________631d4cf6c490916040518263ffffffff167c01000000000000000000000000000000000000000000000000000000000281526004018082815260200191505060206040518083038186803b151561131b57600080fd5b5af4151561132857600080fd5b50505060405180519050905090565b60096020528060005260406000206000915090508060000154908060010154908060020154908060030154908060040154905085565b6001809054906101000a900473ffffffffffffffffffffffffffffffffffffffff1681565b60086020528060005260406000206000915090508060000154908060010154908060020154908060030154908060040154905085565b6005818154811015156113d757fe5b90600052602060002090016000915054906101000a900473ffffffffffffffffffffffffffffffffffffffff1681565b60066020528060005260406000206000915090505481565b600160009054906101000a900460ff1681565b60008060003373ffffffffffffffffffffffffffffffffffffffff1673ffffffffffffffffffffffffffffffffffffffff16815260200190815260200160002060009054906101000a900460ff16151561148b57600080fd5b600160009054906101000a900460ff1615156114a657600080fd5b8173ffffffffffffffffffffffffffffffffffffffff16ff5b60076020528060005260406000206000915090508060000154908060010154908060020154908060030154908060040154905085565b6000806000803373ffffffffffffffffffffffffffffffffffffffff1673ffffffffffffffffffffffffffffffffffffffff16815260200190815260200160002060009054906101000a900460ff16151561154f57600080fd5b600160009054906101000a900460ff1615151561156b57600080fd5b600090505b82518110156115f857838181518110151561158757fe5b906020019060200201516006600085848151811015156115a357fe5b9060200190602002015173ffffffffffffffffffffffffffffffffffffffff1673ffffffffffffffffffffffffffffffffffffffff168152602001908152602001600020819055508080600101915050611570565b600191505092915050565b60036020528060005260406000206000915054906101000a900460ff1681565b6000600a73__AddressSetLib_________________________63da5d23489091846040518363ffffffff167c0100000000000000000000000000000000000000000000000000000000028152600401808381526020018281526020019250505060206040518083038186803b151561169a57600080fd5b5af415156116a757600080fd5b505050604051805190509050919050565b6000811515600160009054906101000a900460ff161515141515156116dc57600080fd5b81600160006101000a81548160ff0219169083151502179055507f1b0104fe02d3ab3519db589a9d91b9958e95ecd3bea0bebac8e568ddf8157c238383604051808373ffffffffffffffffffffffffffffffffffffffff1673ffffffffffffffffffffffffffffffffffffffff168152602001821515151581526020019250505060405180910390a16001905092915050565b602060405190810160405280600081525090565b828054600181600116156101000203166002900490600052602060002090601f016020900481019282601f106117c457805160ff19168380011785556117f2565b828001600101855582156117f2579182015b828111156117f15782518255916020019190600101906117d6565b5b5090506117ff919061183f565b5090565b81548183558181151161182a57818360005260206000209182019101611829919061183f565b5b505050565b6040516120558061186583390190565b61186191905b8082111561185d576000816000905550600101611845565b5090565b9056006060604052341561000f57600080fd5b6040516040806120558339810160405280805190602001909190805190602001909190505033600060016101000a81548173ffffffffffffffffffffffffffffffffffffffff021916908373ffffffffffffffffffffffffffffffffffffffff1602179055508160028190555080600160006101000a81548173ffffffffffffffffffffffffffffffffffffffff021916908373ffffffffffffffffffffffffffffffffffffffff1602179055505050611f87806100ce6000396000f30060606040526004361061011d576000357c0100000000000000000000000000000000000000000000000000000000900463ffffffff16806305e30f51146101225780630d8053ca14610159578063102dd66b1461018257806323abbf10146101f257806324b570a914610207578063286051c1146102305780633812258c1461026757806338330a7c146102c35780633a5d9a30146103425780635903d60d146103935780636dddcf46146103c057806389a78f1a146103ed5780638da5cb5b1461043a57806399892e471461048f578063aacc388e146104b8578063ae6d907314610516578063c517e81614610579578063c7ff1584146105d7578063cbf0b0c014610604578063ef378f6214610655578063f4786c12146106a9575b600080fd5b341561012d57600080fd5b61014360048080359060200190919050506106fa565b6040518082815260200191505060405180910390f35b341561016457600080fd5b61016c610714565b6040518082815260200191505060405180910390f35b341561018d57600080fd5b6101d8600480803573ffffffffffffffffffffffffffffffffffffffff1690602001909190803573ffffffffffffffffffffffffffffffffffffffff16906020019091905050610721565b604051808215151515815260200191505060405180910390f35b34156101fd57600080fd5b610205610a52565b005b341561021257600080fd5b61021a610ab0565b6040518082815260200191505060405180910390f35b341561023b57600080fd5b6102516004808035906020019091905050610ab6565b6040518082815260200191505060405180910390f35b341561027257600080fd5b6102a9600480803573ffffffffffffffffffffffffffffffffffffffff169060200190919080351515906020019091905050610ad0565b604051808215151515815260200191505060405180910390f35b6103286004808060a001906005806020026040519081016040528092919082600560200280828437820191505050505091908060a001906005806020026040519081016040528092919082600560200280828437820191505050505091905050610bea565b604051808215151515815260200191505060405180910390f35b341561034d57600080fd5b61035561114f565b6040518082600660200280838360005b83811015610380578082015181840152602081019050610365565b5050505090500191505060405180910390f35b341561039e57600080fd5b6103a6611202565b604051808215151515815260200191505060405180910390f35b34156103cb57600080fd5b6103d3611215565b604051808215151515815260200191505060405180910390f35b34156103f857600080fd5b610424600480803573ffffffffffffffffffffffffffffffffffffffff16906020019091905050611228565b6040518082815260200191505060405180910390f35b341561044557600080fd5b61044d611246565b604051808273ffffffffffffffffffffffffffffffffffffffff1673ffffffffffffffffffffffffffffffffffffffff16815260200191505060405180910390f35b341561049a57600080fd5b6104a261126c565b6040518082815260200191505060405180910390f35b34156104c357600080fd5b6104fc6004808060a001906005806020026040519081016040528092919082600560200280828437820191505050505091905050611272565b604051808215151515815260200191505060405180910390f35b341561052157600080fd5b6105376004808035906020019091905050611cef565b604051808273ffffffffffffffffffffffffffffffffffffffff1673ffffffffffffffffffffffffffffffffffffffff16815260200191505060405180910390f35b341561058457600080fd5b6105bd6004808060c001906006806020026040519081016040528092919082600660200280828437820191505050505091905050611d2e565b604051808215151515815260200191505060405180910390f35b34156105e257600080fd5b6105ea611dd9565b604051808215151515815260200191505060405180910390f35b341561060f57600080fd5b61063b600480803573ffffffffffffffffffffffffffffffffffffffff16906020019091905050611deb565b604051808215151515815260200191505060405180910390f35b341561066057600080fd5b61068c600480803573ffffffffffffffffffffffffffffffffffffffff16906020019091905050611e7b565b604051808381526020018281526020019250505060405180910390f35b34156106b457600080fd5b6106e0600480803573ffffffffffffffffffffffffffffffffffffffff16906020019091905050611e9f565b604051808215151515815260200191505060405180910390f35b60038160068110151561070957fe5b016000915090505481565b6000601280549050905090565b60008060008060019054906101000a900473ffffffffffffffffffffffffffffffffffffffff1673ffffffffffffffffffffffffffffffffffffffff163373ffffffffffffffffffffffffffffffffffffffff1614151561078157600080fd5b601060008573ffffffffffffffffffffffffffffffffffffffff1673ffffffffffffffffffffffffffffffffffffffff168152602001908152602001600020600a01549050600091505b600582101561084f57601060008573ffffffffffffffffffffffffffffffffffffffff1673ffffffffffffffffffffffffffffffffffffffff1681526020019081526020016000206000018260058110151561082357fe5b015460098360058110151561083457fe5b016000828254039250508190555081806001019250506107cb565b601060008573ffffffffffffffffffffffffffffffffffffffff1673ffffffffffffffffffffffffffffffffffffffff1681526020019081526020016000206000808201600061089f9190611ebf565b6005820160006108af9190611ebf565b600a820160009055505080600e60008282540392505081905550600160009054906101000a900473ffffffffffffffffffffffffffffffffffffffff1673ffffffffffffffffffffffffffffffffffffffff16636039fbdb33836040518363ffffffff167c0100000000000000000000000000000000000000000000000000000000028152600401808373ffffffffffffffffffffffffffffffffffffffff1673ffffffffffffffffffffffffffffffffffffffff16815260200182815260200192505050602060405180830381600087803b151561098d57600080fd5b5af1151561099a57600080fd5b50505060405180519050507fc5d526ff4c62cd704d82ca8358af8e37305b99fc4a1ce2420592633397d0afa36002548587604051808481526020018373ffffffffffffffffffffffffffffffffffffffff1673ffffffffffffffffffffffffffffffffffffffff1681526020018273ffffffffffffffffffffffffffffffffffffffff1673ffffffffffffffffffffffffffffffffffffffff168152602001935050505060405180910390a160019250505092915050565b600060019054906101000a900473ffffffffffffffffffffffffffffffffffffffff1673ffffffffffffffffffffffffffffffffffffffff163373ffffffffffffffffffffffffffffffffffffffff16141515610aae57600080fd5b565b600e5481565b600981600581101515610ac557fe5b016000915090505481565b60008060019054906101000a900473ffffffffffffffffffffffffffffffffffffffff1673ffffffffffffffffffffffffffffffffffffffff163373ffffffffffffffffffffffffffffffffffffffff16141515610b2d57600080fd5b8115156000809054906101000a900460ff16151514151515610b4e57600080fd5b816000806101000a81548160ff0219169083151502179055507f254518872c4cc0703b5cd922d710cffd6d4551803a00d0f9ed81c99751d29e546002548484604051808481526020018373ffffffffffffffffffffffffffffffffffffffff1673ffffffffffffffffffffffffffffffffffffffff16815260200182151515158152602001935050505060405180910390a16001905092915050565b60008060008060009054906101000a900460ff16151515610c0a57600080fd5b6000601060003373ffffffffffffffffffffffffffffffffffffffff1673ffffffffffffffffffffffffffffffffffffffff168152602001908152602001600020600a0154141515610c5b57600080fd5b601360009054906101000a900460ff16151515610c7757600080fd5b600f60003373ffffffffffffffffffffffffffffffffffffffff1673ffffffffffffffffffffffffffffffffffffffff16815260200190815260200160002060009054906101000a900460ff161515610d2e5760128054806001018281610cde9190611ee2565b9160005260206000209001600033909190916101000a81548173ffffffffffffffffffffffffffffffffffffffff021916908373ffffffffffffffffffffffffffffffffffffffff160217905550505b60009150600090505b6005811015610e62578481600581101515610d4e57fe5b6020020151601060003373ffffffffffffffffffffffffffffffffffffffff1673ffffffffffffffffffffffffffffffffffffffff16815260200190815260200160002060000182600581101515610da257fe5b01819055508481600581101515610db557fe5b6020020151600982600581101515610dc957fe5b01600082825401925050819055508381600581101515610de557fe5b6020020151601060003373ffffffffffffffffffffffffffffffffffffffff1673ffffffffffffffffffffffffffffffffffffffff16815260200190815260200160002060050182600581101515610e3957fe5b01819055508481600581101515610e4c57fe5b6020020151820191508080600101915050610d37565b81601060003373ffffffffffffffffffffffffffffffffffffffff1673ffffffffffffffffffffffffffffffffffffffff168152602001908152602001600020600a018190555081600e6000828254019250508190555081600160009054906101000a900473ffffffffffffffffffffffffffffffffffffffff1673ffffffffffffffffffffffffffffffffffffffff166370a08231336040518263ffffffff167c0100000000000000000000000000000000000000000000000000000000028152600401808273ffffffffffffffffffffffffffffffffffffffff1673ffffffffffffffffffffffffffffffffffffffff168152602001915050602060405180830381600087803b1515610f7657600080fd5b5af11515610f8357600080fd5b5050506040518051905010151515610f9a57600080fd5b600160009054906101000a900473ffffffffffffffffffffffffffffffffffffffff1673ffffffffffffffffffffffffffffffffffffffff16635851a7fe33846040518363ffffffff167c0100000000000000000000000000000000000000000000000000000000028152600401808373ffffffffffffffffffffffffffffffffffffffff1673ffffffffffffffffffffffffffffffffffffffff16815260200182815260200192505050602060405180830381600087803b151561105e57600080fd5b5af1151561106b57600080fd5b50505060405180519050506001600f60003373ffffffffffffffffffffffffffffffffffffffff1673ffffffffffffffffffffffffffffffffffffffff16815260200190815260200160002060006101000a81548160ff0219169083151502179055507f865cdc8d1bf8b43c96548347220fc458c21f36cda4b5c2ff7646c5f88b78aac66002543384604051808481526020018373ffffffffffffffffffffffffffffffffffffffff1673ffffffffffffffffffffffffffffffffffffffff168152602001828152602001935050505060405180910390a160019250505092915050565b611157611f0e565b61115f611f0e565b600060019054906101000a900473ffffffffffffffffffffffffffffffffffffffff1673ffffffffffffffffffffffffffffffffffffffff163373ffffffffffffffffffffffffffffffffffffffff161415156111bb57600080fd5b60036006806020026040519081016040528092919082600680156111f4576020028201915b8154815260200190600101908083116111e0575b505050505090508091505090565b601360009054906101000a900460ff1681565b601360019054906101000a900460ff1681565b601060205280600052604060002060009150905080600a0154905081565b600060019054906101000a900473ffffffffffffffffffffffffffffffffffffffff1681565b60025481565b600080600080600080600080600060019054906101000a900473ffffffffffffffffffffffffffffffffffffffff1673ffffffffffffffffffffffffffffffffffffffff163373ffffffffffffffffffffffffffffffffffffffff161415156112da57600080fd5b6000809054906101000a900460ff1615156112f457600080fd5b600096505b601280549050871015611cdf5760128781548110151561131557fe5b906000526020600020900160009054906101000a900473ffffffffffffffffffffffffffffffffffffffff169550601060003373ffffffffffffffffffffffffffffffffffffffff1673ffffffffffffffffffffffffffffffffffffffff1681526020019081526020016000209350603b84600a01541115611398576064850194505b600096505b60058710156116825788876005811015156113b457fe5b602002015184600501886005811015156113ca57fe5b0154141561153d576003876006811015156113e157fe5b015484600001886005811015156113f457fe5b0154029250828501945082601160008873ffffffffffffffffffffffffffffffffffffffff1673ffffffffffffffffffffffffffffffffffffffff1681526020019081526020016000206000018860058110151561144e57fe5b018190555082601160008873ffffffffffffffffffffffffffffffffffffffff1673ffffffffffffffffffffffffffffffffffffffff168152602001908152602001600020600a01600082825401925050819055507fcf50bcfb6f613cfa9085db48f2c967cc48a51f186a1ddbb3e77d3af503e02adb60025488888660038c6006811015156114d957fe5b0154604051808681526020018581526020018473ffffffffffffffffffffffffffffffffffffffff1673ffffffffffffffffffffffffffffffffffffffff1681526020018381526020018281526020019550505050505060405180910390a1611675565b836000018760058110151561154e57fe5b0154915081601160008873ffffffffffffffffffffffffffffffffffffffff1673ffffffffffffffffffffffffffffffffffffffff168152602001908152602001600020600501886005811015156115a257fe5b018190555081601160008873ffffffffffffffffffffffffffffffffffffffff1673ffffffffffffffffffffffffffffffffffffffff168152602001908152602001600020600b01600082825401925050819055507f9e4454b637a654217390e81819a12743726f087860edbbbf466be0a49cb5b68a600254888885604051808581526020018481526020018373ffffffffffffffffffffffffffffffffffffffff1673ffffffffffffffffffffffffffffffffffffffff16815260200182815260200194505050505060405180910390a15b868060010197505061139d565b600a89600460058110151561169357fe5b6020020151038460050160046005811015156116ab57fe5b0154101580156116e45750600a8960046005811015156116c757fe5b6020020151018460050160046005811015156116df57fe5b015411155b801561171657508860046005811015156116fa57fe5b602002015184600501600460058110151561171157fe5b015414155b1561194a576003600560068110151561172b57fe5b015484600501600460058110151561173f57fe5b0154029050808501945080601160008873ffffffffffffffffffffffffffffffffffffffff1673ffffffffffffffffffffffffffffffffffffffff168152602001908152602001600020600001600460058110151561179a57fe5b016000828254019250508190555080601160008873ffffffffffffffffffffffffffffffffffffffff1673ffffffffffffffffffffffffffffffffffffffff168152602001908152602001600020600a01600082825401925050819055506000601160008873ffffffffffffffffffffffffffffffffffffffff1673ffffffffffffffffffffffffffffffffffffffff168152602001908152602001600020600501600460058110151561184a57fe5b018190555083600001600460058110151561186157fe5b0154601160008873ffffffffffffffffffffffffffffffffffffffff1673ffffffffffffffffffffffffffffffffffffffff168152602001908152602001600020600b01600082825403925050819055507fcf50bcfb6f613cfa9085db48f2c967cc48a51f186a1ddbb3e77d3af503e02adb60025460058884600360056006811015156118ea57fe5b0154604051808681526020018581526020018473ffffffffffffffffffffffffffffffffffffffff1673ffffffffffffffffffffffffffffffffffffffff1681526020018381526020018281526020019550505050505060405180910390a15b600160009054906101000a900473ffffffffffffffffffffffffffffffffffffffff1673ffffffffffffffffffffffffffffffffffffffff16636039fbdb87876040518363ffffffff167c0100000000000000000000000000000000000000000000000000000000028152600401808373ffffffffffffffffffffffffffffffffffffffff1673ffffffffffffffffffffffffffffffffffffffff16815260200182815260200192505050602060405180830381600087803b1515611a0e57600080fd5b5af11515611a1b57600080fd5b5050506040518051905050601160008773ffffffffffffffffffffffffffffffffffffffff1673ffffffffffffffffffffffffffffffffffffffff168152602001908152602001600020600b0154601160008873ffffffffffffffffffffffffffffffffffffffff1673ffffffffffffffffffffffffffffffffffffffff168152602001908152602001600020600a01541115611bc4577f4554c9f87a1d2778b5a0febaa76e512f0673fb87508bae2c5656e9eec45e5a3260025487601160008a73ffffffffffffffffffffffffffffffffffffffff1673ffffffffffffffffffffffffffffffffffffffff168152602001908152602001600020600a0154601160008b73ffffffffffffffffffffffffffffffffffffffff1673ffffffffffffffffffffffffffffffffffffffff168152602001908152602001600020600b015488600a0154604051808681526020018573ffffffffffffffffffffffffffffffffffffffff1673ffffffffffffffffffffffffffffffffffffffff1681526020018481526020018381526020018281526020019550505050505060405180910390a1611cd2565b7f99999717a93bce61a6eb58e25f13239ba0ac9c86b48db5cc35c51f253bbb384260025487601160008a73ffffffffffffffffffffffffffffffffffffffff1673ffffffffffffffffffffffffffffffffffffffff168152602001908152602001600020600a0154601160008b73ffffffffffffffffffffffffffffffffffffffff1673ffffffffffffffffffffffffffffffffffffffff168152602001908152602001600020600b015488600a0154604051808681526020018573ffffffffffffffffffffffffffffffffffffffff1673ffffffffffffffffffffffffffffffffffffffff1681526020018481526020018381526020018281526020019550505050505060405180910390a15b86806001019750506112f9565b6001975050505050505050919050565b601281815481101515611cfe57fe5b90600052602060002090016000915054906101000a900473ffffffffffffffffffffffffffffffffffffffff1681565b600080600060019054906101000a900473ffffffffffffffffffffffffffffffffffffffff1673ffffffffffffffffffffffffffffffffffffffff163373ffffffffffffffffffffffffffffffffffffffff16141515611d8d57600080fd5b600090505b6005811015611dcf578281600681101515611da957fe5b6020020151600382600681101515611dbd57fe5b01819055508080600101915050611d92565b6001915050919050565b6000809054906101000a900460ff1681565b60008060019054906101000a900473ffffffffffffffffffffffffffffffffffffffff1673ffffffffffffffffffffffffffffffffffffffff163373ffffffffffffffffffffffffffffffffffffffff16141515611e4857600080fd5b6000809054906101000a900460ff161515611e6257600080fd5b8173ffffffffffffffffffffffffffffffffffffffff16ff5b601160205280600052604060002060009150905080600a01549080600b0154905082565b600f6020528060005260406000206000915054906101000a900460ff1681565b506000815560010160008155600101600081556001016000815560010160009055565b815481835581811511611f0957818360005260206000209182019101611f089190611f36565b5b505050565b60c0604051908101604052806006905b6000815260200190600190039081611f1e5790505090565b611f5891905b80821115611f54576000816000905550600101611f3c565b5090565b905600a165627a7a723058209615a62dbee13eeba47930d941eb9180cda5449e10ac223582f72d1c6e0292ee0029a165627a7a723058201399b7add75995d8816ed7ba1720b6d4e8fff96c01b7f117db585e038f5ff9f40029",
  "source": "pragma solidity ^0.4.15;\n\nimport './IPLMatch.sol';\nimport './Haltable.sol';\nimport './MultiOwnable.sol';\nimport './AddressSetLib.sol';\nimport './EIP20Interface.sol';\n\n\ncontract Ipl is MultiOwnable, Haltable\n{\n    // libs\n    using AddressSetLib for AddressSetLib.AddressSet;\n    address public tokenAddress;\n    EIP20Interface token;\n    // state\n    mapping(address => bool) public isTrustedSource;\n    mapping(address => string) public playerNames;\n    address[] public playerList;\n    \n    struct PlayerStat {\n        uint256 toalWinAmount;\n        uint256 totalLooseAmount;\n        uint256 totalWins;\n        uint256 totalLoose;\n        uint256 totalBets;\n    }\n    \n    struct MatchStat {\n        uint256 toalWinAmount;\n        uint256 totalLooseAmount;\n        uint256 totalWins;\n        uint256 totalLoose;\n        uint256 totalBets;\n    }\n    \n    struct QuestionStat {\n        uint256 toalWinAmount;\n        uint256 totalLooseAmount;\n        uint256 totalWins;\n        uint256 totalLoose;\n        uint256 totalBets;\n    }\n    \n    mapping (address => uint) public playerRank;\n    mapping (address => PlayerStat) public playerStats;\n    mapping (address => MatchStat) public matchStats;\n    mapping (address => QuestionStat) public questionStats;\n\n    AddressSetLib.AddressSet matches;\n   \n    // events\n    \n    event LogMatchAdded(uint indexed matchId);\n\n    function Ipl(address _token) {\n        isAdmin[msg.sender] = true;\n        token =  EIP20Interface (_token);\n        tokenAddress = _token;\n    }\n\n    //\n    // administrative functions\n    //\n\n    function haltSwitch(bool _isHalted)\n        onlyAdmin\n        returns (bool ok)\n    {\n        return _haltSwitch(msg.sender, _isHalted);\n    }\n\n    // due to our multi-admin setup, it's probably useful to be able to specify the recipient\n    // of the destroyed contract's funds.\n    function kill(address recipient)\n        onlyAdmin\n        onlyHalted\n        returns (bool ok)\n    {\n        selfdestruct(recipient);\n        return true;\n    }\n\n    //\n    // business logic\n    //\n\n    function addMatch(uint _id)\n        onlyAdmin\n        onlyNotHalted\n        returns (bool ok, address questionAddr)\n    {\n        require(matches.size()+1 == _id);\n        \n        IPLMatch match1 = new IPLMatch(_id, tokenAddress);\n        match1.setMultiplier([uint256(2),uint256(3),uint256(4),uint256(5),uint256(6),uint256(7)]);\n        matches.add(address(match1));\n        \n        emit LogMatchAdded(_id);\n        \n        return (true, address(match1));\n    }\n\n    function addPlayer(address _playerAddress, string playerName) \n        onlyNotHalted\n        returns (bool ok)\n    {\n        \n        require(!isTrustedSource[_playerAddress]);\n        \n        isTrustedSource[_playerAddress] = true;\n        token.addTokens(_playerAddress,500);\n        playerNames[_playerAddress] = playerName;\n        playerList.push(_playerAddress);\n        \n        return true;\n    }\n    \n    function setPlayerRank(uint[] rankArray, address[] addressArray)\n        onlyAdmin\n        onlyNotHalted\n        returns (bool ok)\n    {\n        uint i;\n        for(i=0;i<addressArray.length;i++){\n            playerRank[addressArray[i]] = rankArray[i];\n        }\n        \n        return true;\n        \n    }\n    \n    \n    \n    //\n    // getters for the frontend\n    //\n    \n\n    function numMatches()\n        constant\n        returns (uint)\n    {\n        return matches.size();\n    }\n\n    function getMatchByIndex(uint i)\n        constant\n        returns (address)\n    {\n        return matches.get(i);\n    }\n\n    function getAllMatchAddresses()\n        constant\n        returns (address[])\n    {\n        return matches.values;\n    }\n    \n    function getPlayerList()\n        constant\n        returns (address[])\n    {\n        return playerList;\n    }\n   /* function getAllPlayerStats()\n        constant\n        returns(PlayerStat[])\n    {\n        uint i;\n        PlayerStat[] memory allPlayerStats;\n        for (i=0;i<playerList.length;i++)\n        {\n            allPlayerStats.push(playerStats[playerList[i]]);\n        }\n        \n        return allPlayerStats;\n    }*/\n    \n    /*function getAllMatchStats\n        constant\n    {\n        \n    }\n    function getAllQuestionStats\n        constant\n    {\n        \n    }\n    function getAllPlayerRanks\n        constant\n    {\n        \n    }*/\n}\n",
  "sourcePath": "/Users/punyampatnaik/Code Arena/Apps/abc-app/contracts/Ipl.sol",
  "compiler": {
    "name": "solc",
    "version": "0.4.21+commit.dfe3193c.Emscripten.clang"
  },
  "schemaVersion": "2.0.0",
  "updatedAt": "2018-04-05T06:45:50.344Z"
}