{
  "contractName": "Ipl",
  "abi": [
    {
      "constant": true,
      "inputs": [],
      "name": "register",
      "outputs": [
        {
          "name": "",
          "type": "address"
        }
      ],
      "payable": false,
      "stateMutability": "view",
      "type": "function"
    },
    {
      "constant": true,
      "inputs": [
        {
          "name": "",
          "type": "address"
        }
      ],
      "name": "isAdmin",
      "outputs": [
        {
          "name": "",
          "type": "bool"
        }
      ],
      "payable": false,
      "stateMutability": "view",
      "type": "function"
    },
    {
      "constant": true,
      "inputs": [],
      "name": "threshold",
      "outputs": [
        {
          "name": "",
          "type": "uint256"
        }
      ],
      "payable": false,
      "stateMutability": "view",
      "type": "function"
    },
    {
      "constant": false,
      "inputs": [
        {
          "name": "admin",
          "type": "address"
        }
      ],
      "name": "addAdmin",
      "outputs": [
        {
          "name": "ok",
          "type": "bool"
        }
      ],
      "payable": false,
      "stateMutability": "nonpayable",
      "type": "function"
    },
    {
      "constant": true,
      "inputs": [],
      "name": "isHalted",
      "outputs": [
        {
          "name": "",
          "type": "bool"
        }
      ],
      "payable": false,
      "stateMutability": "view",
      "type": "function"
    },
    {
      "constant": true,
      "inputs": [],
      "name": "dailyBonus",
      "outputs": [
        {
          "name": "",
          "type": "uint256"
        }
      ],
      "payable": false,
      "stateMutability": "view",
      "type": "function"
    },
    {
      "constant": true,
      "inputs": [],
      "name": "token",
      "outputs": [
        {
          "name": "",
          "type": "address"
        }
      ],
      "payable": false,
      "stateMutability": "view",
      "type": "function"
    },
    {
      "inputs": [
        {
          "name": "_register",
          "type": "address"
        }
      ],
      "payable": false,
      "stateMutability": "nonpayable",
      "type": "constructor"
    },
    {
      "anonymous": false,
      "inputs": [
        {
          "indexed": true,
          "name": "matchId",
          "type": "uint256"
        }
      ],
      "name": "LogMatchAdded",
      "type": "event"
    },
    {
      "anonymous": false,
      "inputs": [
        {
          "indexed": false,
          "name": "oldBonus",
          "type": "uint256"
        },
        {
          "indexed": false,
          "name": "newBonus",
          "type": "uint256"
        }
      ],
      "name": "LogDailyBonusChange",
      "type": "event"
    },
    {
      "anonymous": false,
      "inputs": [
        {
          "indexed": false,
          "name": "oldThreshold",
          "type": "uint256"
        },
        {
          "indexed": false,
          "name": "newThreshold",
          "type": "uint256"
        }
      ],
      "name": "LogThresholdChange",
      "type": "event"
    },
    {
      "anonymous": false,
      "inputs": [
        {
          "indexed": false,
          "name": "who",
          "type": "address"
        },
        {
          "indexed": false,
          "name": "halted",
          "type": "bool"
        }
      ],
      "name": "LogHaltSwitch",
      "type": "event"
    },
    {
      "anonymous": false,
      "inputs": [
        {
          "indexed": false,
          "name": "whoAdded",
          "type": "address"
        },
        {
          "indexed": false,
          "name": "newAdmin",
          "type": "address"
        }
      ],
      "name": "LogAddAdmin",
      "type": "event"
    },
    {
      "constant": false,
      "inputs": [
        {
          "name": "_isHalted",
          "type": "bool"
        }
      ],
      "name": "haltSwitch",
      "outputs": [
        {
          "name": "ok",
          "type": "bool"
        }
      ],
      "payable": false,
      "stateMutability": "nonpayable",
      "type": "function"
    },
    {
      "constant": false,
      "inputs": [
        {
          "name": "recipient",
          "type": "address"
        }
      ],
      "name": "kill",
      "outputs": [
        {
          "name": "ok",
          "type": "bool"
        }
      ],
      "payable": false,
      "stateMutability": "nonpayable",
      "type": "function"
    },
    {
      "constant": false,
      "inputs": [
        {
          "name": "_id",
          "type": "uint256"
        }
      ],
      "name": "addMatch",
      "outputs": [
        {
          "name": "ok",
          "type": "bool"
        },
        {
          "name": "questionAddr",
          "type": "address"
        }
      ],
      "payable": false,
      "stateMutability": "nonpayable",
      "type": "function"
    },
    {
      "constant": false,
      "inputs": [
        {
          "name": "_id",
          "type": "uint256"
        },
        {
          "name": "matchAddress",
          "type": "address"
        }
      ],
      "name": "addMatchManually",
      "outputs": [
        {
          "name": "ok",
          "type": "bool"
        }
      ],
      "payable": false,
      "stateMutability": "nonpayable",
      "type": "function"
    },
    {
      "constant": false,
      "inputs": [
        {
          "name": "_registerAddress",
          "type": "address"
        }
      ],
      "name": "setTregisterAddress",
      "outputs": [
        {
          "name": "ok",
          "type": "bool"
        }
      ],
      "payable": false,
      "stateMutability": "nonpayable",
      "type": "function"
    },
    {
      "constant": false,
      "inputs": [
        {
          "name": "_tokenAddress",
          "type": "address"
        }
      ],
      "name": "setTokenAddress",
      "outputs": [
        {
          "name": "ok",
          "type": "bool"
        }
      ],
      "payable": false,
      "stateMutability": "nonpayable",
      "type": "function"
    },
    {
      "constant": false,
      "inputs": [
        {
          "name": "newBonus",
          "type": "uint256"
        }
      ],
      "name": "changeDailyBonus",
      "outputs": [
        {
          "name": "ok",
          "type": "bool"
        }
      ],
      "payable": false,
      "stateMutability": "nonpayable",
      "type": "function"
    },
    {
      "constant": false,
      "inputs": [
        {
          "name": "newThreshold",
          "type": "uint256"
        }
      ],
      "name": "changeThreshold",
      "outputs": [
        {
          "name": "ok",
          "type": "bool"
        }
      ],
      "payable": false,
      "stateMutability": "nonpayable",
      "type": "function"
    },
    {
      "constant": true,
      "inputs": [],
      "name": "numMatches",
      "outputs": [
        {
          "name": "",
          "type": "uint256"
        }
      ],
      "payable": false,
      "stateMutability": "view",
      "type": "function"
    },
    {
      "constant": true,
      "inputs": [
        {
          "name": "i",
          "type": "uint256"
        }
      ],
      "name": "getMatchByIndex",
      "outputs": [
        {
          "name": "",
          "type": "address"
        }
      ],
      "payable": false,
      "stateMutability": "view",
      "type": "function"
    },
    {
      "constant": true,
      "inputs": [],
      "name": "getAllMatchAddresses",
      "outputs": [
        {
          "name": "",
          "type": "address[]"
        }
      ],
      "payable": false,
      "stateMutability": "view",
      "type": "function"
    }
  ],
  "bytecode": "0x6060604052341561000f57600080fd5b604051602080613c428339810160405280805190602001909190505060016000803373ffffffffffffffffffffffffffffffffffffffff1673ffffffffffffffffffffffffffffffffffffffff16815260200190815260200160002060006101000a81548160ff02191690831515021790555080600260006101000a81548173ffffffffffffffffffffffffffffffffffffffff021916908373ffffffffffffffffffffffffffffffffffffffff160217905550600260009054906101000a900473ffffffffffffffffffffffffffffffffffffffff1673ffffffffffffffffffffffffffffffffffffffff166001806101000a81548173ffffffffffffffffffffffffffffffffffffffff021916908373ffffffffffffffffffffffffffffffffffffffff16021790555050613af78061014b6000396000f3006060604052600436106100fc576000357c0100000000000000000000000000000000000000000000000000000000900463ffffffff168063085e615e146101015780631aa3a0081461013e5780631af9ffdd1461019357806324d7806c146101fd57806326a4e8d21461024e57806342cde4e81461029f57806353088b94146102c8578063629ad62014610336578063694e80c31461038757806370480275146103c25780638544582914610413578063929652cc1461043c578063b4a2355714610496578063c7ff1584146104d1578063ca6f1b97146104fe578063cbf0b0c014610527578063ee4f240f14610578578063fc0c546a146105db575b600080fd5b341561010c57600080fd5b61012460048080351515906020019091905050610630565b604051808215151515815260200191505060405180910390f35b341561014957600080fd5b61015161069a565b604051808273ffffffffffffffffffffffffffffffffffffffff1673ffffffffffffffffffffffffffffffffffffffff16815260200191505060405180910390f35b341561019e57600080fd5b6101a66106c0565b6040518080602001828103825283818151815260200191508051906020019060200280838360005b838110156101e95780820151818401526020810190506101ce565b505050509050019250505060405180910390f35b341561020857600080fd5b610234600480803573ffffffffffffffffffffffffffffffffffffffff16906020019091905050610757565b604051808215151515815260200191505060405180910390f35b341561025957600080fd5b610285600480803573ffffffffffffffffffffffffffffffffffffffff16906020019091905050610777565b604051808215151515815260200191505060405180910390f35b34156102aa57600080fd5b6102b2610819565b6040518082815260200191505060405180910390f35b34156102d357600080fd5b6102e9600480803590602001909190505061081f565b60405180831515151581526020018273ffffffffffffffffffffffffffffffffffffffff1673ffffffffffffffffffffffffffffffffffffffff1681526020019250505060405180910390f35b341561034157600080fd5b61036d600480803573ffffffffffffffffffffffffffffffffffffffff16906020019091905050610c67565b604051808215151515815260200191505060405180910390f35b341561039257600080fd5b6103a86004808035906020019091905050610d0a565b604051808215151515815260200191505060405180910390f35b34156103cd57600080fd5b6103f9600480803573ffffffffffffffffffffffffffffffffffffffff16906020019091905050610db4565b604051808215151515815260200191505060405180910390f35b341561041e57600080fd5b610426610f62565b6040518082815260200191505060405180910390f35b341561044757600080fd5b61047c600480803590602001909190803573ffffffffffffffffffffffffffffffffffffffff16906020019091905050610fed565b604051808215151515815260200191505060405180910390f35b34156104a157600080fd5b6104b760048080359060200190919050506112b9565b604051808215151515815260200191505060405180910390f35b34156104dc57600080fd5b6104e4611363565b604051808215151515815260200191505060405180910390f35b341561050957600080fd5b610511611376565b6040518082815260200191505060405180910390f35b341561053257600080fd5b61055e600480803573ffffffffffffffffffffffffffffffffffffffff1690602001909190505061137c565b604051808215151515815260200191505060405180910390f35b341561058357600080fd5b6105996004808035906020019091905050611409565b604051808273ffffffffffffffffffffffffffffffffffffffff1673ffffffffffffffffffffffffffffffffffffffff16815260200191505060405180910390f35b34156105e657600080fd5b6105ee61149e565b604051808273ffffffffffffffffffffffffffffffffffffffff1673ffffffffffffffffffffffffffffffffffffffff16815260200191505060405180910390f35b60008060003373ffffffffffffffffffffffffffffffffffffffff1673ffffffffffffffffffffffffffffffffffffffff16815260200190815260200160002060009054906101000a900460ff16151561068957600080fd5b61069333836114c3565b9050919050565b600260009054906101000a900473ffffffffffffffffffffffffffffffffffffffff1681565b6106c861157a565b600560000180548060200260200160405190810160405280929190818152602001828054801561074d57602002820191906000526020600020905b8160009054906101000a900473ffffffffffffffffffffffffffffffffffffffff1673ffffffffffffffffffffffffffffffffffffffff1681526020019060010190808311610703575b5050505050905090565b60006020528060005260406000206000915054906101000a900460ff1681565b60008060003373ffffffffffffffffffffffffffffffffffffffff1673ffffffffffffffffffffffffffffffffffffffff16815260200190815260200160002060009054906101000a900460ff1615156107d057600080fd5b816001806101000a81548173ffffffffffffffffffffffffffffffffffffffff021916908373ffffffffffffffffffffffffffffffffffffffff16021790555060019050919050565b60045481565b60008060008060003373ffffffffffffffffffffffffffffffffffffffff1673ffffffffffffffffffffffffffffffffffffffff16815260200190815260200160002060009054906101000a900460ff16151561087b57600080fd5b600160009054906101000a900460ff1615151561089757600080fd5b836001600573__AddressSetLib_________________________631d4cf6c490916040518263ffffffff167c01000000000000000000000000000000000000000000000000000000000281526004018082815260200191505060206040518083038186803b151561090757600080fd5b5af4151561091457600080fd5b505050604051805190500114151561092b57600080fd5b83600260009054906101000a900473ffffffffffffffffffffffffffffffffffffffff1660035460045461095d61158e565b808581526020018473ffffffffffffffffffffffffffffffffffffffff1673ffffffffffffffffffffffffffffffffffffffff168152602001838152602001828152602001945050505050604051809103906000f08015156109be57600080fd5b90508073ffffffffffffffffffffffffffffffffffffffff1663c517e81660c060405190810160405280600281526020016003815260200160048152602001600581526020016006815260200160078152506040518263ffffffff167c01000000000000000000000000000000000000000000000000000000000281526004018082600660200280838360005b83811015610a66578082015181840152602081019050610a4b565b50505050905001915050602060405180830381600087803b1515610a8957600080fd5b5af11515610a9657600080fd5b50505060405180519050506001809054906101000a900473ffffffffffffffffffffffffffffffffffffffff1673ffffffffffffffffffffffffffffffffffffffff166372cf59de826040518263ffffffff167c0100000000000000000000000000000000000000000000000000000000028152600401808273ffffffffffffffffffffffffffffffffffffffff1673ffffffffffffffffffffffffffffffffffffffff168152602001915050602060405180830381600087803b1515610b5c57600080fd5b5af11515610b6957600080fd5b5050506040518051905050600573__AddressSetLib_________________________631e4016169091836040518363ffffffff167c0100000000000000000000000000000000000000000000000000000000028152600401808381526020018273ffffffffffffffffffffffffffffffffffffffff1673ffffffffffffffffffffffffffffffffffffffff1681526020019250505060206040518083038186803b1515610c1557600080fd5b5af41515610c2257600080fd5b5050506040518051905050837f25149f34758b468ff7945eb49c4a97d4c504f926d21f9d7f47051ca33b3107b560405160405180910390a26001819250925050915091565b60008060003373ffffffffffffffffffffffffffffffffffffffff1673ffffffffffffffffffffffffffffffffffffffff16815260200190815260200160002060009054906101000a900460ff161515610cc057600080fd5b81600260006101000a81548173ffffffffffffffffffffffffffffffffffffffff021916908373ffffffffffffffffffffffffffffffffffffffff16021790555060019050919050565b60008060003373ffffffffffffffffffffffffffffffffffffffff1673ffffffffffffffffffffffffffffffffffffffff16815260200190815260200160002060009054906101000a900460ff161515610d6357600080fd5b7ffafc07974964887846e3898427aaab8d2baebafb2a0ca21dbba5f8fa604d71b760045483604051808381526020018281526020019250505060405180910390a18160048190555060019050919050565b60008060003373ffffffffffffffffffffffffffffffffffffffff1673ffffffffffffffffffffffffffffffffffffffff16815260200190815260200160002060009054906101000a900460ff161515610e0d57600080fd5b600015156000808473ffffffffffffffffffffffffffffffffffffffff1673ffffffffffffffffffffffffffffffffffffffff16815260200190815260200160002060009054906101000a900460ff161515141515610e6b57600080fd5b60016000808473ffffffffffffffffffffffffffffffffffffffff1673ffffffffffffffffffffffffffffffffffffffff16815260200190815260200160002060006101000a81548160ff0219169083151502179055507fdf593c01aa2f7c955ab35aee0623fe0744c2117efb32343667f5b9660e9d50493383604051808373ffffffffffffffffffffffffffffffffffffffff1673ffffffffffffffffffffffffffffffffffffffff1681526020018273ffffffffffffffffffffffffffffffffffffffff1673ffffffffffffffffffffffffffffffffffffffff1681526020019250505060405180910390a160019050919050565b6000600573__AddressSetLib_________________________631d4cf6c490916040518263ffffffff167c01000000000000000000000000000000000000000000000000000000000281526004018082815260200191505060206040518083038186803b1515610fd157600080fd5b5af41515610fde57600080fd5b50505060405180519050905090565b60008060003373ffffffffffffffffffffffffffffffffffffffff1673ffffffffffffffffffffffffffffffffffffffff16815260200190815260200160002060009054906101000a900460ff16151561104657600080fd5b600160009054906101000a900460ff1615151561106257600080fd5b826001600573__AddressSetLib_________________________631d4cf6c490916040518263ffffffff167c01000000000000000000000000000000000000000000000000000000000281526004018082815260200191505060206040518083038186803b15156110d257600080fd5b5af415156110df57600080fd5b50505060405180519050011415156110f657600080fd5b600573__AddressSetLib_________________________631e4016169091846040518363ffffffff167c0100000000000000000000000000000000000000000000000000000000028152600401808381526020018273ffffffffffffffffffffffffffffffffffffffff1673ffffffffffffffffffffffffffffffffffffffff1681526020019250505060206040518083038186803b151561119757600080fd5b5af415156111a457600080fd5b50505060405180519050506001809054906101000a900473ffffffffffffffffffffffffffffffffffffffff1673ffffffffffffffffffffffffffffffffffffffff166372cf59de836040518263ffffffff167c0100000000000000000000000000000000000000000000000000000000028152600401808273ffffffffffffffffffffffffffffffffffffffff1673ffffffffffffffffffffffffffffffffffffffff168152602001915050602060405180830381600087803b151561126a57600080fd5b5af1151561127757600080fd5b5050506040518051905050827f25149f34758b468ff7945eb49c4a97d4c504f926d21f9d7f47051ca33b3107b560405160405180910390a26001905092915050565b60008060003373ffffffffffffffffffffffffffffffffffffffff1673ffffffffffffffffffffffffffffffffffffffff16815260200190815260200160002060009054906101000a900460ff16151561131257600080fd5b7fc5cfa007467839a1fe5c6977b767a07297b496bb9172cf83639bf72fd11b2d4360035483604051808381526020018281526020019250505060405180910390a18160038190555060019050919050565b600160009054906101000a900460ff1681565b60035481565b60008060003373ffffffffffffffffffffffffffffffffffffffff1673ffffffffffffffffffffffffffffffffffffffff16815260200190815260200160002060009054906101000a900460ff1615156113d557600080fd5b600160009054906101000a900460ff1615156113f057600080fd5b8173ffffffffffffffffffffffffffffffffffffffff16ff5b6000600573__AddressSetLib_________________________63da5d23489091846040518363ffffffff167c0100000000000000000000000000000000000000000000000000000000028152600401808381526020018281526020019250505060206040518083038186803b151561148057600080fd5b5af4151561148d57600080fd5b505050604051805190509050919050565b6001809054906101000a900473ffffffffffffffffffffffffffffffffffffffff1681565b6000811515600160009054906101000a900460ff161515141515156114e757600080fd5b81600160006101000a81548160ff0219169083151502179055507f1b0104fe02d3ab3519db589a9d91b9958e95ecd3bea0bebac8e568ddf8157c238383604051808373ffffffffffffffffffffffffffffffffffffffff1673ffffffffffffffffffffffffffffffffffffffff168152602001821515151581526020019250505060405180910390a16001905092915050565b602060405190810160405280600081525090565b60405161252d8061159f8339019056006060604052341561000f57600080fd5b60405160808061252d8339810160405280805190602001909190805190602001909190805190602001909190805190602001909190505033600060016101000a81548173ffffffffffffffffffffffffffffffffffffffff021916908373ffffffffffffffffffffffffffffffffffffffff1602179055508360058190555082600260006101000a81548173ffffffffffffffffffffffffffffffffffffffff021916908373ffffffffffffffffffffffffffffffffffffffff160217905550600260009054906101000a900473ffffffffffffffffffffffffffffffffffffffff1673ffffffffffffffffffffffffffffffffffffffff16600160006101000a81548173ffffffffffffffffffffffffffffffffffffffff021916908373ffffffffffffffffffffffffffffffffffffffff1602179055508160038190555080600481905550505050506123c4806101696000396000f30060606040526004361061016a576000357c0100000000000000000000000000000000000000000000000000000000900463ffffffff16806305e30f511461016f578063085e615e146101a65780630d8053ca146101e3578063102dd66b1461020c5780631aa3a0081461027c57806323abbf10146102d157806324b570a9146102e657806326a4e8d21461030f578063286051c1146103605780633a5d9a301461039757806342cde4e8146103e85780635903d60d146104115780635e8306ca1461043e5780636dddcf461461049c57806389a78f1a146104c95780638da5cb5b1461051657806399892e471461056b5780639a007e3a14610594578063a5e1a62d14610613578063ae6d907314610640578063c517e816146106a3578063c7ff158414610701578063ca6f1b971461072e578063cbf0b0c014610757578063db4f0def146107a8578063ef378f62146107d5578063f4786c1214610829578063fc0c546a1461087a575b600080fd5b341561017a57600080fd5b61019060048080359060200190919050506108cf565b6040518082815260200191505060405180910390f35b34156101b157600080fd5b6101c9600480803515159060200190919050506108e9565b604051808215151515815260200191505060405180910390f35b34156101ee57600080fd5b6101f6610a83565b6040518082815260200191505060405180910390f35b341561021757600080fd5b610262600480803573ffffffffffffffffffffffffffffffffffffffff1690602001909190803573ffffffffffffffffffffffffffffffffffffffff16906020019091905050610a90565b604051808215151515815260200191505060405180910390f35b341561028757600080fd5b61028f610e25565b604051808273ffffffffffffffffffffffffffffffffffffffff1673ffffffffffffffffffffffffffffffffffffffff16815260200191505060405180910390f35b34156102dc57600080fd5b6102e4610e4b565b005b34156102f157600080fd5b6102f9610f30565b6040518082815260200191505060405180910390f35b341561031a57600080fd5b610346600480803573ffffffffffffffffffffffffffffffffffffffff16906020019091905050610f36565b604051808215151515815260200191505060405180910390f35b341561036b57600080fd5b6103816004808035906020019091905050611065565b6040518082815260200191505060405180910390f35b34156103a257600080fd5b6103aa61107f565b6040518082600660200280838360005b838110156103d55780820151818401526020810190506103ba565b5050505090500191505060405180910390f35b34156103f357600080fd5b6103fb6110d5565b6040518082815260200191505060405180910390f35b341561041c57600080fd5b6104246110db565b604051808215151515815260200191505060405180910390f35b341561044957600080fd5b6104826004808060a0019060058060200260405190810160405280929190826005602002808284378201915050505050919050506110ee565b604051808215151515815260200191505060405180910390f35b34156104a757600080fd5b6104af6114ac565b604051808215151515815260200191505060405180910390f35b34156104d457600080fd5b610500600480803573ffffffffffffffffffffffffffffffffffffffff169060200190919050506114bf565b6040518082815260200191505060405180910390f35b341561052157600080fd5b6105296114dd565b604051808273ffffffffffffffffffffffffffffffffffffffff1673ffffffffffffffffffffffffffffffffffffffff16815260200191505060405180910390f35b341561057657600080fd5b61057e611503565b6040518082815260200191505060405180910390f35b6105f96004808060a001906005806020026040519081016040528092919082600560200280828437820191505050505091908060a001906005806020026040519081016040528092919082600560200280828437820191505050505091905050611509565b604051808215151515815260200191505060405180910390f35b341561061e57600080fd5b610626611b7a565b604051808215151515815260200191505060405180910390f35b341561064b57600080fd5b6106616004808035906020019091905050611fdf565b604051808273ffffffffffffffffffffffffffffffffffffffff1673ffffffffffffffffffffffffffffffffffffffff16815260200191505060405180910390f35b34156106ae57600080fd5b6106e76004808060c00190600680602002604051908101604052809291908260066020028082843782019150505050509190505061201e565b604051808215151515815260200191505060405180910390f35b341561070c57600080fd5b610714612150565b604051808215151515815260200191505060405180910390f35b341561073957600080fd5b610741612162565b6040518082815260200191505060405180910390f35b341561076257600080fd5b61078e600480803573ffffffffffffffffffffffffffffffffffffffff16906020019091905050612168565b604051808215151515815260200191505060405180910390f35b34156107b357600080fd5b6107bb61227f565b604051808215151515815260200191505060405180910390f35b34156107e057600080fd5b61080c600480803573ffffffffffffffffffffffffffffffffffffffff16906020019091905050612292565b604051808381526020018281526020019250505060405180910390f35b341561083457600080fd5b610860600480803573ffffffffffffffffffffffffffffffffffffffff169060200190919050506122b6565b604051808215151515815260200191505060405180910390f35b341561088557600080fd5b61088d6122d6565b604051808273ffffffffffffffffffffffffffffffffffffffff1673ffffffffffffffffffffffffffffffffffffffff16815260200191505060405180910390f35b6006816006811015156108de57fe5b016000915090505481565b600080600060019054906101000a900473ffffffffffffffffffffffffffffffffffffffff1690508073ffffffffffffffffffffffffffffffffffffffff166324d7806c336040518263ffffffff167c0100000000000000000000000000000000000000000000000000000000028152600401808273ffffffffffffffffffffffffffffffffffffffff1673ffffffffffffffffffffffffffffffffffffffff168152602001915050602060405180830381600087803b15156109ab57600080fd5b5af115156109b857600080fd5b5050506040518051905015156109cd57600080fd5b8215156000809054906101000a900460ff161515141515156109ee57600080fd5b826000806101000a81548160ff0219169083151502179055506005547f254518872c4cc0703b5cd922d710cffd6d4551803a00d0f9ed81c99751d29e543385604051808373ffffffffffffffffffffffffffffffffffffffff1673ffffffffffffffffffffffffffffffffffffffff168152602001821515151581526020019250505060405180910390a26001915050919050565b6000603080549050905090565b600080600080600060019054906101000a900473ffffffffffffffffffffffffffffffffffffffff1690508073ffffffffffffffffffffffffffffffffffffffff166324d7806c336040518263ffffffff167c0100000000000000000000000000000000000000000000000000000000028152600401808273ffffffffffffffffffffffffffffffffffffffff1673ffffffffffffffffffffffffffffffffffffffff168152602001915050602060405180830381600087803b1515610b5557600080fd5b5af11515610b6257600080fd5b505050604051805190501515610b7757600080fd5b602e60008673ffffffffffffffffffffffffffffffffffffffff1673ffffffffffffffffffffffffffffffffffffffff168152602001908152602001600020600a01549150600092505b6005831015610c4557602e60008673ffffffffffffffffffffffffffffffffffffffff1673ffffffffffffffffffffffffffffffffffffffff16815260200190815260200160002060000183600581101515610c1957fe5b0154602784600581101515610c2a57fe5b01600082825403925050819055508280600101935050610bc1565b602e60008673ffffffffffffffffffffffffffffffffffffffff1673ffffffffffffffffffffffffffffffffffffffff16815260200190815260200160002060008082016000610c9591906122fc565b600582016000610ca591906122fc565b600a820160009055505081602c60008282540392505081905550600160009054906101000a900473ffffffffffffffffffffffffffffffffffffffff1673ffffffffffffffffffffffffffffffffffffffff16636039fbdb33846040518363ffffffff167c0100000000000000000000000000000000000000000000000000000000028152600401808373ffffffffffffffffffffffffffffffffffffffff1673ffffffffffffffffffffffffffffffffffffffff16815260200182815260200192505050602060405180830381600087803b1515610d8357600080fd5b5af11515610d9057600080fd5b50505060405180519050508473ffffffffffffffffffffffffffffffffffffffff166005547fc5d526ff4c62cd704d82ca8358af8e37305b99fc4a1ce2420592633397d0afa388604051808273ffffffffffffffffffffffffffffffffffffffff1673ffffffffffffffffffffffffffffffffffffffff16815260200191505060405180910390a36001935050505092915050565b600260009054906101000a900473ffffffffffffffffffffffffffffffffffffffff1681565b60008060019054906101000a900473ffffffffffffffffffffffffffffffffffffffff1690508073ffffffffffffffffffffffffffffffffffffffff166324d7806c336040518263ffffffff167c0100000000000000000000000000000000000000000000000000000000028152600401808273ffffffffffffffffffffffffffffffffffffffff1673ffffffffffffffffffffffffffffffffffffffff168152602001915050602060405180830381600087803b1515610f0b57600080fd5b5af11515610f1857600080fd5b505050604051805190501515610f2d57600080fd5b50565b602c5481565b600080600060019054906101000a900473ffffffffffffffffffffffffffffffffffffffff1690508073ffffffffffffffffffffffffffffffffffffffff166324d7806c336040518263ffffffff167c0100000000000000000000000000000000000000000000000000000000028152600401808273ffffffffffffffffffffffffffffffffffffffff1673ffffffffffffffffffffffffffffffffffffffff168152602001915050602060405180830381600087803b1515610ff857600080fd5b5af1151561100557600080fd5b50505060405180519050151561101a57600080fd5b82600160006101000a81548173ffffffffffffffffffffffffffffffffffffffff021916908373ffffffffffffffffffffffffffffffffffffffff1602179055506001915050919050565b60278160058110151561107457fe5b016000915090505481565b61108761231f565b61108f61231f565b600680806020026040519081016040528092919082600680156110c7576020028201915b8154815260200190600101908083116110b3575b505050505090508091505090565b60045481565b603160009054906101000a900460ff1681565b60008060008060008060019054906101000a900473ffffffffffffffffffffffffffffffffffffffff1690508073ffffffffffffffffffffffffffffffffffffffff166324d7806c336040518263ffffffff167c0100000000000000000000000000000000000000000000000000000000028152600401808273ffffffffffffffffffffffffffffffffffffffff1673ffffffffffffffffffffffffffffffffffffffff168152602001915050602060405180830381600087803b15156111b457600080fd5b5af115156111c157600080fd5b5050506040518051905015156111d657600080fd5b6000809054906101000a900460ff1615156111f057600080fd5b600093505b6030805490508410156114845760308481548110151561121157fe5b906000526020600020900160009054906101000a900473ffffffffffffffffffffffffffffffffffffffff169250602e60008473ffffffffffffffffffffffffffffffffffffffff1673ffffffffffffffffffffffffffffffffffffffff1681526020019081526020016000209150600093505b600584101561135157858460058110151561129c57fe5b602002015182600501856005811015156112b257fe5b01541415611344576001602f60008573ffffffffffffffffffffffffffffffffffffffff1673ffffffffffffffffffffffffffffffffffffffff1681526020019081526020016000206000018560058110151561130b57fe5b0181905550816000018460058110151561132157fe5b0154600c6014018560058110151561133557fe5b01600082825401925050819055505b8380600101945050611285565b600a86600460058110151561136257fe5b60200201510382600501600460058110151561137a57fe5b0154101580156113b35750600a86600460058110151561139657fe5b6020020151018260050160046005811015156113ae57fe5b015411155b80156113e557508560046005811015156113c957fe5b60200201518260050160046005811015156113e057fe5b015414155b15611477576002602f60008573ffffffffffffffffffffffffffffffffffffffff1673ffffffffffffffffffffffffffffffffffffffff168152602001908152602001600020600001600460058110151561143c57fe5b018190555081600001600460058110151561145357fe5b0154600c601401600460058110151561146857fe5b01600082825401925050819055505b83806001019450506111f5565b6001603160026101000a81548160ff0219169083151502179055506001945050505050919050565b603160019054906101000a900460ff1681565b602e60205280600052604060002060009150905080600a0154905081565b600060019054906101000a900473ffffffffffffffffffffffffffffffffffffffff1681565b60055481565b60008060008060009054906101000a900460ff1615151561152957600080fd5b6000602e60003373ffffffffffffffffffffffffffffffffffffffff1673ffffffffffffffffffffffffffffffffffffffff168152602001908152602001600020600a015414151561157a57600080fd5b603160009054906101000a900460ff1615151561159657600080fd5b602d60003373ffffffffffffffffffffffffffffffffffffffff1673ffffffffffffffffffffffffffffffffffffffff16815260200190815260200160002060009054906101000a900460ff16151561164d57603080548060010182816115fd9190612347565b9160005260206000209001600033909190916101000a81548173ffffffffffffffffffffffffffffffffffffffff021916908373ffffffffffffffffffffffffffffffffffffffff160217905550505b60009150600090505b600581101561178157848160058110151561166d57fe5b6020020151602e60003373ffffffffffffffffffffffffffffffffffffffff1673ffffffffffffffffffffffffffffffffffffffff168152602001908152602001600020600001826005811015156116c157fe5b018190555084816005811015156116d457fe5b60200201516027826005811015156116e857fe5b0160008282540192505081905550838160058110151561170457fe5b6020020151602e60003373ffffffffffffffffffffffffffffffffffffffff1673ffffffffffffffffffffffffffffffffffffffff1681526020019081526020016000206005018260058110151561175857fe5b0181905550848160058110151561176b57fe5b6020020151820191508080600101915050611656565b81602e60003373ffffffffffffffffffffffffffffffffffffffff1673ffffffffffffffffffffffffffffffffffffffff168152602001908152602001600020600a018190555081602c6000828254019250508190555081600160009054906101000a900473ffffffffffffffffffffffffffffffffffffffff1673ffffffffffffffffffffffffffffffffffffffff166370a08231336040518263ffffffff167c0100000000000000000000000000000000000000000000000000000000028152600401808273ffffffffffffffffffffffffffffffffffffffff1673ffffffffffffffffffffffffffffffffffffffff168152602001915050602060405180830381600087803b151561189557600080fd5b5af115156118a257600080fd5b50505060405180519050101515156118b957600080fd5b600160009054906101000a900473ffffffffffffffffffffffffffffffffffffffff1673ffffffffffffffffffffffffffffffffffffffff16635851a7fe33846040518363ffffffff167c0100000000000000000000000000000000000000000000000000000000028152600401808373ffffffffffffffffffffffffffffffffffffffff1673ffffffffffffffffffffffffffffffffffffffff16815260200182815260200192505050602060405180830381600087803b151561197d57600080fd5b5af1151561198a57600080fd5b50505060405180519050506001602d60003373ffffffffffffffffffffffffffffffffffffffff1673ffffffffffffffffffffffffffffffffffffffff16815260200190815260200160002060006101000a81548160ff02191690831515021790555060045482101515611b1d57600160009054906101000a900473ffffffffffffffffffffffffffffffffffffffff1673ffffffffffffffffffffffffffffffffffffffff16636039fbdb336003546040518363ffffffff167c0100000000000000000000000000000000000000000000000000000000028152600401808373ffffffffffffffffffffffffffffffffffffffff1673ffffffffffffffffffffffffffffffffffffffff16815260200182815260200192505050602060405180830381600087803b1515611abe57600080fd5b5af11515611acb57600080fd5b50505060405180519050503373ffffffffffffffffffffffffffffffffffffffff166005547f71fa040dbe511ab6c57a43ca3fbeb249e32256d7755110f0ba88c9c92056db7c60405160405180910390a35b3373ffffffffffffffffffffffffffffffffffffffff166005547f865cdc8d1bf8b43c96548347220fc458c21f36cda4b5c2ff7646c5f88b78aac6846040518082815260200191505060405180910390a360019250505092915050565b600080600080600080600080600080600060019054906101000a900473ffffffffffffffffffffffffffffffffffffffff1690508073ffffffffffffffffffffffffffffffffffffffff166324d7806c336040518263ffffffff167c0100000000000000000000000000000000000000000000000000000000028152600401808273ffffffffffffffffffffffffffffffffffffffff1673ffffffffffffffffffffffffffffffffffffffff168152602001915050602060405180830381600087803b1515611c4857600080fd5b5af11515611c5557600080fd5b505050604051805190501515611c6a57600080fd5b6000809054906101000a900460ff161515611c8457600080fd5b603160029054906101000a900460ff161515611c9f57600080fd5b600098505b603080549050891015611fd357603089815481101515611cc057fe5b906000526020600020900160009054906101000a900473ffffffffffffffffffffffffffffffffffffffff169750602e60008973ffffffffffffffffffffffffffffffffffffffff1673ffffffffffffffffffffffffffffffffffffffff168152602001908152602001600020965060009550600098505b6005891015611e1b576001602f60008a73ffffffffffffffffffffffffffffffffffffffff1673ffffffffffffffffffffffffffffffffffffffff1681526020019081526020016000206000018a600581101515611d9257fe5b01541415611e0e578660000189600581101515611dab57fe5b0154935060009450602789600581101515611dc257fe5b0154600c6014018a600581101515611dd657fe5b015485811515611de257fe5b040284600a60068c600681101515611df657fe5b01548702811515611e0357fe5b040101945084860195505b8880600101995050611d38565b6002602f60008a73ffffffffffffffffffffffffffffffffffffffff1673ffffffffffffffffffffffffffffffffffffffff1681526020019081526020016000206000016004600581101515611e6d57fe5b01541415611eea578660000189600581101515611e8657fe5b0154915060009250602789600581101515611e9d57fe5b0154600c6014018a600581101515611eb157fe5b015483811515611ebd57fe5b040282600a60066005600681101515611ed257fe5b01548502811515611edf57fe5b040101925082860195505b600160009054906101000a900473ffffffffffffffffffffffffffffffffffffffff1673ffffffffffffffffffffffffffffffffffffffff16636039fbdb89886040518363ffffffff167c0100000000000000000000000000000000000000000000000000000000028152600401808373ffffffffffffffffffffffffffffffffffffffff1673ffffffffffffffffffffffffffffffffffffffff16815260200182815260200192505050602060405180830381600087803b1515611fae57600080fd5b5af11515611fbb57600080fd5b50505060405180519050508880600101995050611ca4565b50505050505050505090565b603081815481101515611fee57fe5b90600052602060002090016000915054906101000a900473ffffffffffffffffffffffffffffffffffffffff1681565b60008060008060019054906101000a900473ffffffffffffffffffffffffffffffffffffffff1690508073ffffffffffffffffffffffffffffffffffffffff166324d7806c336040518263ffffffff167c0100000000000000000000000000000000000000000000000000000000028152600401808273ffffffffffffffffffffffffffffffffffffffff1673ffffffffffffffffffffffffffffffffffffffff168152602001915050602060405180830381600087803b15156120e157600080fd5b5af115156120ee57600080fd5b50505060405180519050151561210357600080fd5b600091505b600682101561214557838260068110151561211f57fe5b602002015160068360068110151561213357fe5b01819055508180600101925050612108565b600192505050919050565b6000809054906101000a900460ff1681565b60035481565b600080600060019054906101000a900473ffffffffffffffffffffffffffffffffffffffff1690508073ffffffffffffffffffffffffffffffffffffffff166324d7806c336040518263ffffffff167c0100000000000000000000000000000000000000000000000000000000028152600401808273ffffffffffffffffffffffffffffffffffffffff1673ffffffffffffffffffffffffffffffffffffffff168152602001915050602060405180830381600087803b151561222a57600080fd5b5af1151561223757600080fd5b50505060405180519050151561224c57600080fd5b6000809054906101000a900460ff16151561226657600080fd5b8273ffffffffffffffffffffffffffffffffffffffff16ff5b603160029054906101000a900460ff1681565b602f60205280600052604060002060009150905080600f0154908060100154905082565b602d6020528060005260406000206000915054906101000a900460ff1681565b600160009054906101000a900473ffffffffffffffffffffffffffffffffffffffff1681565b506000815560010160008155600101600081556001016000815560010160009055565b60c0604051908101604052806006905b600081526020019060019003908161232f5790505090565b81548183558181151161236e5781836000526020600020918201910161236d9190612373565b5b505050565b61239591905b80821115612391576000816000905550600101612379565b5090565b905600a165627a7a72305820981ef4558a75fedc3e535385727c7420f6b7898a3c0925a16aebf065734a98e00029a165627a7a72305820bdaafd181590b218bda0e38ed99b182733c052012155c7aa73ffa0d68c956dc90029",
  "source": "pragma solidity ^0.4.15;\n\nimport './IPLMatch.sol';\nimport './Haltable.sol';\nimport './MultiOwnable.sol';\nimport './AddressSetLib.sol';\nimport './EIP20Interface.sol';\nimport './RegistrationInterface.sol';\n\ncontract Ipl is MultiOwnable, Haltable\n{\n    // libs\n    using AddressSetLib for AddressSetLib.AddressSet;\n    EIP20Interface public token;\n    RegistrationInterface public register;\n    \n    uint256 public dailyBonus;\n    uint256 public threshold;\n\n    // state\n    AddressSetLib.AddressSet matches;\n   \n    // events\n    \n    event LogMatchAdded(uint indexed matchId);\n    event LogDailyBonusChange(uint256 oldBonus, uint256 newBonus);\n    event LogThresholdChange(uint256 oldThreshold,uint256 newThreshold);\n\n    function Ipl(address _register) {\n        isAdmin[msg.sender] = true;\n        register = RegistrationInterface(_register);\n        token =  EIP20Interface (address(register.tokenAddress));\n    }\n\n    //\n    // administrative functions\n    //\n\n    function haltSwitch(bool _isHalted)\n        onlyAdmin\n        returns (bool ok)\n    {\n        return _haltSwitch(msg.sender, _isHalted);\n    }\n\n    // due to our multi-admin setup, it's probably useful to be able to specify the recipient\n    // of the destroyed contract's funds.\n    function kill(address recipient)\n        onlyAdmin\n        onlyHalted\n        returns (bool ok)\n    {\n        selfdestruct(recipient);\n        return true;\n    }\n\n    //\n    // business logic\n    //\n\n    function addMatch(uint _id)\n        onlyAdmin\n        onlyNotHalted\n        returns (bool ok, address questionAddr)\n    {\n        require(matches.size()+1 == _id);\n        \n        IPLMatch match1 = new IPLMatch(_id, address(register), dailyBonus, threshold);\n        match1.setMultiplier([uint256(2),uint256(3),uint256(4),uint256(5),uint256(6),uint256(7)]);\n        token.addAdminX(address(match1));\n        matches.add(address(match1));\n        \n        emit LogMatchAdded(_id);\n        \n        return (true, address(match1));\n    }\n    \n    function addMatchManually(uint _id, address matchAddress)\n        onlyAdmin\n        onlyNotHalted\n        returns(bool ok)\n    {\n        require(matches.size()+1 == _id);\n        matches.add(matchAddress);\n        token.addAdminX(matchAddress);\n        \n        emit LogMatchAdded(_id);\n        \n        return true;\n    \n    }\n\n    \n    \n   function setTregisterAddress(address _registerAddress) onlyAdmin returns(bool ok){\n        register = RegistrationInterface(_registerAddress);\n        return true;\n    }\n    \n    function setTokenAddress(address _tokenAddress) onlyAdmin returns(bool ok){\n        token = EIP20Interface(_tokenAddress);\n        return true;\n    }\n    \n     function changeDailyBonus(uint256 newBonus) public onlyAdmin returns(bool ok){\n        \n        emit LogDailyBonusChange(dailyBonus,newBonus);\n        dailyBonus = newBonus;\n        return true;\n    }\n    \n      function changeThreshold(uint256 newThreshold) public onlyAdmin returns(bool ok){\n        \n        emit LogThresholdChange(threshold,newThreshold);\n        threshold = newThreshold;\n        return true;\n    }\n    \n    //\n    // getters for the frontend\n    //\n    \n\n    function numMatches()\n        public\n        constant\n        returns (uint)\n    {\n        return matches.size();\n    }\n\n    function getMatchByIndex(uint i)\n        public\n        constant\n        returns (address)\n    {\n        return matches.get(i);\n    }\n\n    function getAllMatchAddresses()\n        public\n        constant\n        returns (address[])\n    {\n        return matches.values;\n    }\n    \n  \n}\n",
  "sourcePath": "/Users/punyampatnaik/Code Arena/Apps/abc-app/contracts/Ipl.sol",
  "compiler": {
    "name": "solc",
    "version": "0.4.21+commit.dfe3193c.Emscripten.clang"
  },
  "schemaVersion": "2.0.0",
  "updatedAt": "2018-04-05T15:59:22.673Z"
}