{
  "contractName": "Ipl",
  "abi": [
    {
      "constant": true,
      "inputs": [],
      "name": "register",
      "outputs": [
        {
          "name": "",
          "type": "address"
        }
      ],
      "payable": false,
      "stateMutability": "view",
      "type": "function"
    },
    {
      "constant": true,
      "inputs": [
        {
          "name": "",
          "type": "address"
        }
      ],
      "name": "isAdmin",
      "outputs": [
        {
          "name": "",
          "type": "bool"
        }
      ],
      "payable": false,
      "stateMutability": "view",
      "type": "function"
    },
    {
      "constant": true,
      "inputs": [],
      "name": "threshold",
      "outputs": [
        {
          "name": "",
          "type": "uint256"
        }
      ],
      "payable": false,
      "stateMutability": "view",
      "type": "function"
    },
    {
      "constant": false,
      "inputs": [
        {
          "name": "admin",
          "type": "address"
        }
      ],
      "name": "addAdmin",
      "outputs": [
        {
          "name": "ok",
          "type": "bool"
        }
      ],
      "payable": false,
      "stateMutability": "nonpayable",
      "type": "function"
    },
    {
      "constant": true,
      "inputs": [],
      "name": "isHalted",
      "outputs": [
        {
          "name": "",
          "type": "bool"
        }
      ],
      "payable": false,
      "stateMutability": "view",
      "type": "function"
    },
    {
      "constant": true,
      "inputs": [],
      "name": "dailyBonus",
      "outputs": [
        {
          "name": "",
          "type": "uint256"
        }
      ],
      "payable": false,
      "stateMutability": "view",
      "type": "function"
    },
    {
      "constant": true,
      "inputs": [],
      "name": "token",
      "outputs": [
        {
          "name": "",
          "type": "address"
        }
      ],
      "payable": false,
      "stateMutability": "view",
      "type": "function"
    },
    {
      "inputs": [
        {
          "name": "_register",
          "type": "address"
        },
        {
          "name": "_tokenAddress",
          "type": "address"
        }
      ],
      "payable": false,
      "stateMutability": "nonpayable",
      "type": "constructor"
    },
    {
      "anonymous": false,
      "inputs": [
        {
          "indexed": true,
          "name": "matchId",
          "type": "uint256"
        }
      ],
      "name": "LogMatchAdded",
      "type": "event"
    },
    {
      "anonymous": false,
      "inputs": [
        {
          "indexed": false,
          "name": "oldBonus",
          "type": "uint256"
        },
        {
          "indexed": false,
          "name": "newBonus",
          "type": "uint256"
        }
      ],
      "name": "LogDailyBonusChange",
      "type": "event"
    },
    {
      "anonymous": false,
      "inputs": [
        {
          "indexed": false,
          "name": "oldThreshold",
          "type": "uint256"
        },
        {
          "indexed": false,
          "name": "newThreshold",
          "type": "uint256"
        }
      ],
      "name": "LogThresholdChange",
      "type": "event"
    },
    {
      "anonymous": false,
      "inputs": [
        {
          "indexed": false,
          "name": "who",
          "type": "address"
        },
        {
          "indexed": false,
          "name": "halted",
          "type": "bool"
        }
      ],
      "name": "LogHaltSwitch",
      "type": "event"
    },
    {
      "anonymous": false,
      "inputs": [
        {
          "indexed": false,
          "name": "whoAdded",
          "type": "address"
        },
        {
          "indexed": false,
          "name": "newAdmin",
          "type": "address"
        }
      ],
      "name": "LogAddAdmin",
      "type": "event"
    },
    {
      "constant": false,
      "inputs": [
        {
          "name": "_isHalted",
          "type": "bool"
        }
      ],
      "name": "haltSwitch",
      "outputs": [
        {
          "name": "ok",
          "type": "bool"
        }
      ],
      "payable": false,
      "stateMutability": "nonpayable",
      "type": "function"
    },
    {
      "constant": false,
      "inputs": [
        {
          "name": "recipient",
          "type": "address"
        }
      ],
      "name": "kill",
      "outputs": [
        {
          "name": "ok",
          "type": "bool"
        }
      ],
      "payable": false,
      "stateMutability": "nonpayable",
      "type": "function"
    },
    {
      "constant": false,
      "inputs": [
        {
          "name": "_id",
          "type": "uint256"
        }
      ],
      "name": "addMatch",
      "outputs": [
        {
          "name": "ok",
          "type": "bool"
        },
        {
          "name": "questionAddr",
          "type": "address"
        }
      ],
      "payable": false,
      "stateMutability": "nonpayable",
      "type": "function"
    },
    {
      "constant": false,
      "inputs": [
        {
          "name": "_id",
          "type": "uint256"
        },
        {
          "name": "matchAddress",
          "type": "address"
        }
      ],
      "name": "addMatchManually",
      "outputs": [
        {
          "name": "ok",
          "type": "bool"
        }
      ],
      "payable": false,
      "stateMutability": "nonpayable",
      "type": "function"
    },
    {
      "constant": false,
      "inputs": [
        {
          "name": "_registerAddress",
          "type": "address"
        }
      ],
      "name": "setTregisterAddress",
      "outputs": [
        {
          "name": "ok",
          "type": "bool"
        }
      ],
      "payable": false,
      "stateMutability": "nonpayable",
      "type": "function"
    },
    {
      "constant": false,
      "inputs": [
        {
          "name": "_tokenAddress",
          "type": "address"
        }
      ],
      "name": "setTokenAddress",
      "outputs": [
        {
          "name": "ok",
          "type": "bool"
        }
      ],
      "payable": false,
      "stateMutability": "nonpayable",
      "type": "function"
    },
    {
      "constant": false,
      "inputs": [
        {
          "name": "newBonus",
          "type": "uint256"
        }
      ],
      "name": "changeDailyBonus",
      "outputs": [
        {
          "name": "ok",
          "type": "bool"
        }
      ],
      "payable": false,
      "stateMutability": "nonpayable",
      "type": "function"
    },
    {
      "constant": false,
      "inputs": [
        {
          "name": "newThreshold",
          "type": "uint256"
        }
      ],
      "name": "changeThreshold",
      "outputs": [
        {
          "name": "ok",
          "type": "bool"
        }
      ],
      "payable": false,
      "stateMutability": "nonpayable",
      "type": "function"
    },
    {
      "constant": true,
      "inputs": [],
      "name": "numMatches",
      "outputs": [
        {
          "name": "",
          "type": "uint256"
        }
      ],
      "payable": false,
      "stateMutability": "view",
      "type": "function"
    },
    {
      "constant": true,
      "inputs": [
        {
          "name": "i",
          "type": "uint256"
        }
      ],
      "name": "getMatchByIndex",
      "outputs": [
        {
          "name": "",
          "type": "address"
        }
      ],
      "payable": false,
      "stateMutability": "view",
      "type": "function"
    },
    {
      "constant": true,
      "inputs": [],
      "name": "getAllMatchAddresses",
      "outputs": [
        {
          "name": "",
          "type": "address[]"
        }
      ],
      "payable": false,
      "stateMutability": "view",
      "type": "function"
    }
  ],
  "bytecode": "0x6060604052341561000f57600080fd5b6040516040806142708339810160405280805190602001909190805190602001909190505060016000803373ffffffffffffffffffffffffffffffffffffffff1673ffffffffffffffffffffffffffffffffffffffff16815260200190815260200160002060006101000a81548160ff02191690831515021790555081600260006101000a81548173ffffffffffffffffffffffffffffffffffffffff021916908373ffffffffffffffffffffffffffffffffffffffff160217905550806001806101000a81548173ffffffffffffffffffffffffffffffffffffffff021916908373ffffffffffffffffffffffffffffffffffffffff1602179055506064600381905550603c60048190555050506141438061012d6000396000f3006060604052600436106100fc576000357c0100000000000000000000000000000000000000000000000000000000900463ffffffff168063085e615e146101015780631aa3a0081461013e5780631af9ffdd1461019357806324d7806c146101fd57806326a4e8d21461024e57806342cde4e81461029f57806353088b94146102c8578063629ad62014610336578063694e80c31461038757806370480275146103c25780638544582914610413578063929652cc1461043c578063b4a2355714610496578063c7ff1584146104d1578063ca6f1b97146104fe578063cbf0b0c014610527578063ee4f240f14610578578063fc0c546a146105db575b600080fd5b341561010c57600080fd5b61012460048080351515906020019091905050610630565b604051808215151515815260200191505060405180910390f35b341561014957600080fd5b61015161069a565b604051808273ffffffffffffffffffffffffffffffffffffffff1673ffffffffffffffffffffffffffffffffffffffff16815260200191505060405180910390f35b341561019e57600080fd5b6101a66106c0565b6040518080602001828103825283818151815260200191508051906020019060200280838360005b838110156101e95780820151818401526020810190506101ce565b505050509050019250505060405180910390f35b341561020857600080fd5b610234600480803573ffffffffffffffffffffffffffffffffffffffff16906020019091905050610757565b604051808215151515815260200191505060405180910390f35b341561025957600080fd5b610285600480803573ffffffffffffffffffffffffffffffffffffffff16906020019091905050610777565b604051808215151515815260200191505060405180910390f35b34156102aa57600080fd5b6102b2610819565b6040518082815260200191505060405180910390f35b34156102d357600080fd5b6102e9600480803590602001909190505061081f565b60405180831515151581526020018273ffffffffffffffffffffffffffffffffffffffff1673ffffffffffffffffffffffffffffffffffffffff1681526020019250505060405180910390f35b341561034157600080fd5b61036d600480803573ffffffffffffffffffffffffffffffffffffffff16906020019091905050610cbc565b604051808215151515815260200191505060405180910390f35b341561039257600080fd5b6103a86004808035906020019091905050610d5f565b604051808215151515815260200191505060405180910390f35b34156103cd57600080fd5b6103f9600480803573ffffffffffffffffffffffffffffffffffffffff16906020019091905050610e09565b604051808215151515815260200191505060405180910390f35b341561041e57600080fd5b610426610fb7565b6040518082815260200191505060405180910390f35b341561044757600080fd5b61047c600480803590602001909190803573ffffffffffffffffffffffffffffffffffffffff16906020019091905050611042565b604051808215151515815260200191505060405180910390f35b34156104a157600080fd5b6104b7600480803590602001909190505061130e565b604051808215151515815260200191505060405180910390f35b34156104dc57600080fd5b6104e46113b8565b604051808215151515815260200191505060405180910390f35b341561050957600080fd5b6105116113cb565b6040518082815260200191505060405180910390f35b341561053257600080fd5b61055e600480803573ffffffffffffffffffffffffffffffffffffffff169060200190919050506113d1565b604051808215151515815260200191505060405180910390f35b341561058357600080fd5b610599600480803590602001909190505061145e565b604051808273ffffffffffffffffffffffffffffffffffffffff1673ffffffffffffffffffffffffffffffffffffffff16815260200191505060405180910390f35b34156105e657600080fd5b6105ee6114f3565b604051808273ffffffffffffffffffffffffffffffffffffffff1673ffffffffffffffffffffffffffffffffffffffff16815260200191505060405180910390f35b60008060003373ffffffffffffffffffffffffffffffffffffffff1673ffffffffffffffffffffffffffffffffffffffff16815260200190815260200160002060009054906101000a900460ff16151561068957600080fd5b6106933383611518565b9050919050565b600260009054906101000a900473ffffffffffffffffffffffffffffffffffffffff1681565b6106c86115cf565b600560000180548060200260200160405190810160405280929190818152602001828054801561074d57602002820191906000526020600020905b8160009054906101000a900473ffffffffffffffffffffffffffffffffffffffff1673ffffffffffffffffffffffffffffffffffffffff1681526020019060010190808311610703575b5050505050905090565b60006020528060005260406000206000915054906101000a900460ff1681565b60008060003373ffffffffffffffffffffffffffffffffffffffff1673ffffffffffffffffffffffffffffffffffffffff16815260200190815260200160002060009054906101000a900460ff1615156107d057600080fd5b816001806101000a81548173ffffffffffffffffffffffffffffffffffffffff021916908373ffffffffffffffffffffffffffffffffffffffff16021790555060019050919050565b60045481565b60008060008060003373ffffffffffffffffffffffffffffffffffffffff1673ffffffffffffffffffffffffffffffffffffffff16815260200190815260200160002060009054906101000a900460ff16151561087b57600080fd5b600160009054906101000a900460ff1615151561089757600080fd5b836001600573__AddressSetLib_________________________631d4cf6c490916040518263ffffffff167c01000000000000000000000000000000000000000000000000000000000281526004018082815260200191505060206040518083038186803b151561090757600080fd5b5af4151561091457600080fd5b505050604051805190500114151561092b57600080fd5b83600260009054906101000a900473ffffffffffffffffffffffffffffffffffffffff166003546004546001809054906101000a900473ffffffffffffffffffffffffffffffffffffffff1661097f6115e3565b808681526020018573ffffffffffffffffffffffffffffffffffffffff1673ffffffffffffffffffffffffffffffffffffffff1681526020018481526020018381526020018273ffffffffffffffffffffffffffffffffffffffff1673ffffffffffffffffffffffffffffffffffffffff16815260200195505050505050604051809103906000f0801515610a1357600080fd5b90508073ffffffffffffffffffffffffffffffffffffffff1663c517e81660c060405190810160405280600a81526020016028815260200160288152602001603c8152602001605a815260200160288152506040518263ffffffff167c01000000000000000000000000000000000000000000000000000000000281526004018082600660200280838360005b83811015610abb578082015181840152602081019050610aa0565b50505050905001915050602060405180830381600087803b1515610ade57600080fd5b5af11515610aeb57600080fd5b50505060405180519050506001809054906101000a900473ffffffffffffffffffffffffffffffffffffffff1673ffffffffffffffffffffffffffffffffffffffff166372cf59de826040518263ffffffff167c0100000000000000000000000000000000000000000000000000000000028152600401808273ffffffffffffffffffffffffffffffffffffffff1673ffffffffffffffffffffffffffffffffffffffff168152602001915050602060405180830381600087803b1515610bb157600080fd5b5af11515610bbe57600080fd5b5050506040518051905050600573__AddressSetLib_________________________631e4016169091836040518363ffffffff167c0100000000000000000000000000000000000000000000000000000000028152600401808381526020018273ffffffffffffffffffffffffffffffffffffffff1673ffffffffffffffffffffffffffffffffffffffff1681526020019250505060206040518083038186803b1515610c6a57600080fd5b5af41515610c7757600080fd5b5050506040518051905050837f25149f34758b468ff7945eb49c4a97d4c504f926d21f9d7f47051ca33b3107b560405160405180910390a26001819250925050915091565b60008060003373ffffffffffffffffffffffffffffffffffffffff1673ffffffffffffffffffffffffffffffffffffffff16815260200190815260200160002060009054906101000a900460ff161515610d1557600080fd5b81600260006101000a81548173ffffffffffffffffffffffffffffffffffffffff021916908373ffffffffffffffffffffffffffffffffffffffff16021790555060019050919050565b60008060003373ffffffffffffffffffffffffffffffffffffffff1673ffffffffffffffffffffffffffffffffffffffff16815260200190815260200160002060009054906101000a900460ff161515610db857600080fd5b7ffafc07974964887846e3898427aaab8d2baebafb2a0ca21dbba5f8fa604d71b760045483604051808381526020018281526020019250505060405180910390a18160048190555060019050919050565b60008060003373ffffffffffffffffffffffffffffffffffffffff1673ffffffffffffffffffffffffffffffffffffffff16815260200190815260200160002060009054906101000a900460ff161515610e6257600080fd5b600015156000808473ffffffffffffffffffffffffffffffffffffffff1673ffffffffffffffffffffffffffffffffffffffff16815260200190815260200160002060009054906101000a900460ff161515141515610ec057600080fd5b60016000808473ffffffffffffffffffffffffffffffffffffffff1673ffffffffffffffffffffffffffffffffffffffff16815260200190815260200160002060006101000a81548160ff0219169083151502179055507fdf593c01aa2f7c955ab35aee0623fe0744c2117efb32343667f5b9660e9d50493383604051808373ffffffffffffffffffffffffffffffffffffffff1673ffffffffffffffffffffffffffffffffffffffff1681526020018273ffffffffffffffffffffffffffffffffffffffff1673ffffffffffffffffffffffffffffffffffffffff1681526020019250505060405180910390a160019050919050565b6000600573__AddressSetLib_________________________631d4cf6c490916040518263ffffffff167c01000000000000000000000000000000000000000000000000000000000281526004018082815260200191505060206040518083038186803b151561102657600080fd5b5af4151561103357600080fd5b50505060405180519050905090565b60008060003373ffffffffffffffffffffffffffffffffffffffff1673ffffffffffffffffffffffffffffffffffffffff16815260200190815260200160002060009054906101000a900460ff16151561109b57600080fd5b600160009054906101000a900460ff161515156110b757600080fd5b826001600573__AddressSetLib_________________________631d4cf6c490916040518263ffffffff167c01000000000000000000000000000000000000000000000000000000000281526004018082815260200191505060206040518083038186803b151561112757600080fd5b5af4151561113457600080fd5b505050604051805190500114151561114b57600080fd5b600573__AddressSetLib_________________________631e4016169091846040518363ffffffff167c0100000000000000000000000000000000000000000000000000000000028152600401808381526020018273ffffffffffffffffffffffffffffffffffffffff1673ffffffffffffffffffffffffffffffffffffffff1681526020019250505060206040518083038186803b15156111ec57600080fd5b5af415156111f957600080fd5b50505060405180519050506001809054906101000a900473ffffffffffffffffffffffffffffffffffffffff1673ffffffffffffffffffffffffffffffffffffffff166372cf59de836040518263ffffffff167c0100000000000000000000000000000000000000000000000000000000028152600401808273ffffffffffffffffffffffffffffffffffffffff1673ffffffffffffffffffffffffffffffffffffffff168152602001915050602060405180830381600087803b15156112bf57600080fd5b5af115156112cc57600080fd5b5050506040518051905050827f25149f34758b468ff7945eb49c4a97d4c504f926d21f9d7f47051ca33b3107b560405160405180910390a26001905092915050565b60008060003373ffffffffffffffffffffffffffffffffffffffff1673ffffffffffffffffffffffffffffffffffffffff16815260200190815260200160002060009054906101000a900460ff16151561136757600080fd5b7fc5cfa007467839a1fe5c6977b767a07297b496bb9172cf83639bf72fd11b2d4360035483604051808381526020018281526020019250505060405180910390a18160038190555060019050919050565b600160009054906101000a900460ff1681565b60035481565b60008060003373ffffffffffffffffffffffffffffffffffffffff1673ffffffffffffffffffffffffffffffffffffffff16815260200190815260200160002060009054906101000a900460ff16151561142a57600080fd5b600160009054906101000a900460ff16151561144557600080fd5b8173ffffffffffffffffffffffffffffffffffffffff16ff5b6000600573__AddressSetLib_________________________63da5d23489091846040518363ffffffff167c0100000000000000000000000000000000000000000000000000000000028152600401808381526020018281526020019250505060206040518083038186803b15156114d557600080fd5b5af415156114e257600080fd5b505050604051805190509050919050565b6001809054906101000a900473ffffffffffffffffffffffffffffffffffffffff1681565b6000811515600160009054906101000a900460ff1615151415151561153c57600080fd5b81600160006101000a81548160ff0219169083151502179055507f1b0104fe02d3ab3519db589a9d91b9958e95ecd3bea0bebac8e568ddf8157c238383604051808373ffffffffffffffffffffffffffffffffffffffff1673ffffffffffffffffffffffffffffffffffffffff168152602001821515151581526020019250505060405180910390a16001905092915050565b602060405190810160405280600081525090565b604051612b24806115f48339019056006060604052341561000f57600080fd5b60405160a080612b248339810160405280805190602001909190805190602001909190805190602001909190805190602001909190805190602001909190505033600060016101000a81548173ffffffffffffffffffffffffffffffffffffffff021916908373ffffffffffffffffffffffffffffffffffffffff1602179055508460058190555083600260006101000a81548173ffffffffffffffffffffffffffffffffffffffff021916908373ffffffffffffffffffffffffffffffffffffffff16021790555080600160006101000a81548173ffffffffffffffffffffffffffffffffffffffff021916908373ffffffffffffffffffffffffffffffffffffffff160217905550826003819055508160048190555050505050506129e98061013b6000396000f3006060604052600436106101ac576000357c0100000000000000000000000000000000000000000000000000000000900463ffffffff16806305e30f51146101b1578063085e615e146101e85780630d8053ca14610225578063102dd66b1461024e57806317599cc5146102be5780631aa3a008146102f557806323abbf101461034a57806324b570a91461035f57806326a4e8d214610388578063286051c1146103d957806338330a7c146104105780633a5d9a301461048f57806342cde4e8146104e05780635903d60d146105095780635e8306ca1461053657806362a63e29146105945780636dddcf46146105fe5780637c645c211461062b57806389a78f1a146106545780638da5cb5b146106a157806399892e47146106f6578063a5e1a62d1461071f578063ae6d90731461074c578063c137d643146107af578063c517e8161461085a578063c793fcf9146108b8578063c7ff158414610909578063ca6f1b9714610936578063cbf0b0c01461095f578063db4f0def146109b0578063df7bf704146109dd578063ef378f6214610a0d578063f4786c1214610a61578063fc0c546a14610ab2575b600080fd5b34156101bc57600080fd5b6101d26004808035906020019091905050610b07565b6040518082815260200191505060405180910390f35b34156101f357600080fd5b61020b60048080351515906020019091905050610b21565b604051808215151515815260200191505060405180910390f35b341561023057600080fd5b610238610cbb565b6040518082815260200191505060405180910390f35b341561025957600080fd5b6102a4600480803573ffffffffffffffffffffffffffffffffffffffff1690602001909190803573ffffffffffffffffffffffffffffffffffffffff16906020019091905050610cc8565b604051808215151515815260200191505060405180910390f35b34156102c957600080fd5b6102df600480803590602001909190505061105d565b6040518082815260200191505060405180910390f35b341561030057600080fd5b610308611077565b604051808273ffffffffffffffffffffffffffffffffffffffff1673ffffffffffffffffffffffffffffffffffffffff16815260200191505060405180910390f35b341561035557600080fd5b61035d61109d565b005b341561036a57600080fd5b610372611322565b6040518082815260200191505060405180910390f35b341561039357600080fd5b6103bf600480803573ffffffffffffffffffffffffffffffffffffffff16906020019091905050611328565b604051808215151515815260200191505060405180910390f35b34156103e457600080fd5b6103fa6004808035906020019091905050611457565b6040518082815260200191505060405180910390f35b6104756004808060a001906005806020026040519081016040528092919082600560200280828437820191505050505091908060a001906005806020026040519081016040528092919082600560200280828437820191505050505091905050611471565b604051808215151515815260200191505060405180910390f35b341561049a57600080fd5b6104a2611ae2565b6040518082600660200280838360005b838110156104cd5780820151818401526020810190506104b2565b5050505090500191505060405180910390f35b34156104eb57600080fd5b6104f3611b38565b6040518082815260200191505060405180910390f35b341561051457600080fd5b61051c611b3e565b604051808215151515815260200191505060405180910390f35b341561054157600080fd5b61057a6004808060a001906005806020026040519081016040528092919082600560200280828437820191505050505091905050611b51565b604051808215151515815260200191505060405180910390f35b341561059f57600080fd5b6105a7611fbf565b6040518080602001828103825283818151815260200191508051906020019060200280838360005b838110156105ea5780820151818401526020810190506105cf565b505050509050019250505060405180910390f35b341561060957600080fd5b610611611fcd565b604051808215151515815260200191505060405180910390f35b341561063657600080fd5b61063e611fe0565b6040518082815260200191505060405180910390f35b341561065f57600080fd5b61068b600480803573ffffffffffffffffffffffffffffffffffffffff16906020019091905050611fed565b6040518082815260200191505060405180910390f35b34156106ac57600080fd5b6106b461200b565b604051808273ffffffffffffffffffffffffffffffffffffffff1673ffffffffffffffffffffffffffffffffffffffff16815260200191505060405180910390f35b341561070157600080fd5b610709612031565b6040518082815260200191505060405180910390f35b341561072a57600080fd5b610732612037565b604051808215151515815260200191505060405180910390f35b341561075757600080fd5b61076d60048080359060200190919050506124d8565b604051808273ffffffffffffffffffffffffffffffffffffffff1673ffffffffffffffffffffffffffffffffffffffff16815260200191505060405180910390f35b34156107ba57600080fd5b6107e6600480803573ffffffffffffffffffffffffffffffffffffffff16906020019091905050612517565b6040518084600560200280838360005b838110156108115780820151818401526020810190506107f6565b5050505090500183600560200280838360005b8381101561083f578082015181840152602081019050610824565b50505050905001828152602001935050505060405180910390f35b341561086557600080fd5b61089e6004808060c00190600680602002604051908101604052809291908260066020028082843782019150505050509190505061268d565b604051808215151515815260200191505060405180910390f35b34156108c357600080fd5b6108cb6126dc565b6040518082600560200280838360005b838110156108f65780820151818401526020810190506108db565b5050505090500191505060405180910390f35b341561091457600080fd5b61091c612727565b604051808215151515815260200191505060405180910390f35b341561094157600080fd5b610949612739565b6040518082815260200191505060405180910390f35b341561096a57600080fd5b610996600480803573ffffffffffffffffffffffffffffffffffffffff1690602001909190505061273f565b604051808215151515815260200191505060405180910390f35b34156109bb57600080fd5b6109c3612856565b604051808215151515815260200191505060405180910390f35b34156109e857600080fd5b6109f0612869565b604051808381526020018281526020019250505060405180910390f35b3415610a1857600080fd5b610a44600480803573ffffffffffffffffffffffffffffffffffffffff1690602001909190505061287b565b604051808381526020018281526020019250505060405180910390f35b3415610a6c57600080fd5b610a98600480803573ffffffffffffffffffffffffffffffffffffffff1690602001909190505061289f565b604051808215151515815260200191505060405180910390f35b3415610abd57600080fd5b610ac56128bf565b604051808273ffffffffffffffffffffffffffffffffffffffff1673ffffffffffffffffffffffffffffffffffffffff16815260200191505060405180910390f35b600681600681101515610b1657fe5b016000915090505481565b600080600060019054906101000a900473ffffffffffffffffffffffffffffffffffffffff1690508073ffffffffffffffffffffffffffffffffffffffff166324d7806c336040518263ffffffff167c0100000000000000000000000000000000000000000000000000000000028152600401808273ffffffffffffffffffffffffffffffffffffffff1673ffffffffffffffffffffffffffffffffffffffff168152602001915050602060405180830381600087803b1515610be357600080fd5b5af11515610bf057600080fd5b505050604051805190501515610c0557600080fd5b8215156000809054906101000a900460ff16151514151515610c2657600080fd5b826000806101000a81548160ff0219169083151502179055506005547f254518872c4cc0703b5cd922d710cffd6d4551803a00d0f9ed81c99751d29e543385604051808373ffffffffffffffffffffffffffffffffffffffff1673ffffffffffffffffffffffffffffffffffffffff168152602001821515151581526020019250505060405180910390a26001915050919050565b6000603580549050905090565b600080600080600060019054906101000a900473ffffffffffffffffffffffffffffffffffffffff1690508073ffffffffffffffffffffffffffffffffffffffff166324d7806c336040518263ffffffff167c0100000000000000000000000000000000000000000000000000000000028152600401808273ffffffffffffffffffffffffffffffffffffffff1673ffffffffffffffffffffffffffffffffffffffff168152602001915050602060405180830381600087803b1515610d8d57600080fd5b5af11515610d9a57600080fd5b505050604051805190501515610daf57600080fd5b603360008673ffffffffffffffffffffffffffffffffffffffff1673ffffffffffffffffffffffffffffffffffffffff168152602001908152602001600020600a01549150600092505b6005831015610e7d57603360008673ffffffffffffffffffffffffffffffffffffffff1673ffffffffffffffffffffffffffffffffffffffff16815260200190815260200160002060000183600581101515610e5157fe5b0154602c84600581101515610e6257fe5b01600082825403925050819055508280600101935050610df9565b603360008673ffffffffffffffffffffffffffffffffffffffff1673ffffffffffffffffffffffffffffffffffffffff16815260200190815260200160002060008082016000610ecd91906128e5565b600582016000610edd91906128e5565b600a820160009055505081603160008282540392505081905550600160009054906101000a900473ffffffffffffffffffffffffffffffffffffffff1673ffffffffffffffffffffffffffffffffffffffff16636039fbdb33846040518363ffffffff167c0100000000000000000000000000000000000000000000000000000000028152600401808373ffffffffffffffffffffffffffffffffffffffff1673ffffffffffffffffffffffffffffffffffffffff16815260200182815260200192505050602060405180830381600087803b1515610fbb57600080fd5b5af11515610fc857600080fd5b50505060405180519050508473ffffffffffffffffffffffffffffffffffffffff166005547fc5d526ff4c62cd704d82ca8358af8e37305b99fc4a1ce2420592633397d0afa388604051808273ffffffffffffffffffffffffffffffffffffffff1673ffffffffffffffffffffffffffffffffffffffff16815260200191505060405180910390a36001935050505092915050565b600c8160058110151561106c57fe5b016000915090505481565b600260009054906101000a900473ffffffffffffffffffffffffffffffffffffffff1681565b600080600080600060019054906101000a900473ffffffffffffffffffffffffffffffffffffffff1690508073ffffffffffffffffffffffffffffffffffffffff166324d7806c336040518263ffffffff167c0100000000000000000000000000000000000000000000000000000000028152600401808273ffffffffffffffffffffffffffffffffffffffff1673ffffffffffffffffffffffffffffffffffffffff168152602001915050602060405180830381600087803b151561116257600080fd5b5af1151561116f57600080fd5b50505060405180519050151561118457600080fd5b600093505b603580549050841015611301576035848154811015156111a557fe5b906000526020600020900160009054906101000a900473ffffffffffffffffffffffffffffffffffffffff169250603360008473ffffffffffffffffffffffffffffffffffffffff1673ffffffffffffffffffffffffffffffffffffffff1681526020019081526020016000209150600160009054906101000a900473ffffffffffffffffffffffffffffffffffffffff1673ffffffffffffffffffffffffffffffffffffffff16636039fbdb8484600a01546040518363ffffffff167c0100000000000000000000000000000000000000000000000000000000028152600401808373ffffffffffffffffffffffffffffffffffffffff1673ffffffffffffffffffffffffffffffffffffffff16815260200182815260200192505050602060405180830381600087803b15156112dc57600080fd5b5af115156112e957600080fd5b50505060405180519050508380600101945050611189565b6001603660006101000a81548160ff02191690831515021790555050505050565b60315481565b600080600060019054906101000a900473ffffffffffffffffffffffffffffffffffffffff1690508073ffffffffffffffffffffffffffffffffffffffff166324d7806c336040518263ffffffff167c0100000000000000000000000000000000000000000000000000000000028152600401808273ffffffffffffffffffffffffffffffffffffffff1673ffffffffffffffffffffffffffffffffffffffff168152602001915050602060405180830381600087803b15156113ea57600080fd5b5af115156113f757600080fd5b50505060405180519050151561140c57600080fd5b82600160006101000a81548173ffffffffffffffffffffffffffffffffffffffff021916908373ffffffffffffffffffffffffffffffffffffffff1602179055506001915050919050565b602c8160058110151561146657fe5b016000915090505481565b60008060008060009054906101000a900460ff1615151561149157600080fd5b6000603360003373ffffffffffffffffffffffffffffffffffffffff1673ffffffffffffffffffffffffffffffffffffffff168152602001908152602001600020600a01541415156114e257600080fd5b603660009054906101000a900460ff161515156114fe57600080fd5b603260003373ffffffffffffffffffffffffffffffffffffffff1673ffffffffffffffffffffffffffffffffffffffff16815260200190815260200160002060009054906101000a900460ff1615156115b557603580548060010182816115659190612908565b9160005260206000209001600033909190916101000a81548173ffffffffffffffffffffffffffffffffffffffff021916908373ffffffffffffffffffffffffffffffffffffffff160217905550505b60009150600090505b60058110156116e95784816005811015156115d557fe5b6020020151603360003373ffffffffffffffffffffffffffffffffffffffff1673ffffffffffffffffffffffffffffffffffffffff1681526020019081526020016000206000018260058110151561162957fe5b0181905550848160058110151561163c57fe5b6020020151602c8260058110151561165057fe5b0160008282540192505081905550838160058110151561166c57fe5b6020020151603360003373ffffffffffffffffffffffffffffffffffffffff1673ffffffffffffffffffffffffffffffffffffffff168152602001908152602001600020600501826005811015156116c057fe5b018190555084816005811015156116d357fe5b60200201518201915080806001019150506115be565b81603360003373ffffffffffffffffffffffffffffffffffffffff1673ffffffffffffffffffffffffffffffffffffffff168152602001908152602001600020600a01819055508160316000828254019250508190555081600160009054906101000a900473ffffffffffffffffffffffffffffffffffffffff1673ffffffffffffffffffffffffffffffffffffffff166370a08231336040518263ffffffff167c0100000000000000000000000000000000000000000000000000000000028152600401808273ffffffffffffffffffffffffffffffffffffffff1673ffffffffffffffffffffffffffffffffffffffff168152602001915050602060405180830381600087803b15156117fd57600080fd5b5af1151561180a57600080fd5b505050604051805190501015151561182157600080fd5b600160009054906101000a900473ffffffffffffffffffffffffffffffffffffffff1673ffffffffffffffffffffffffffffffffffffffff16635851a7fe33846040518363ffffffff167c0100000000000000000000000000000000000000000000000000000000028152600401808373ffffffffffffffffffffffffffffffffffffffff1673ffffffffffffffffffffffffffffffffffffffff16815260200182815260200192505050602060405180830381600087803b15156118e557600080fd5b5af115156118f257600080fd5b50505060405180519050506001603260003373ffffffffffffffffffffffffffffffffffffffff1673ffffffffffffffffffffffffffffffffffffffff16815260200190815260200160002060006101000a81548160ff02191690831515021790555060045482101515611a8557600160009054906101000a900473ffffffffffffffffffffffffffffffffffffffff1673ffffffffffffffffffffffffffffffffffffffff16636039fbdb336003546040518363ffffffff167c0100000000000000000000000000000000000000000000000000000000028152600401808373ffffffffffffffffffffffffffffffffffffffff1673ffffffffffffffffffffffffffffffffffffffff16815260200182815260200192505050602060405180830381600087803b1515611a2657600080fd5b5af11515611a3357600080fd5b50505060405180519050503373ffffffffffffffffffffffffffffffffffffffff166005547f71fa040dbe511ab6c57a43ca3fbeb249e32256d7755110f0ba88c9c92056db7c60405160405180910390a35b3373ffffffffffffffffffffffffffffffffffffffff166005547f865cdc8d1bf8b43c96548347220fc458c21f36cda4b5c2ff7646c5f88b78aac6846040518082815260200191505060405180910390a360019250505092915050565b611aea612934565b611af2612934565b60068080602002604051908101604052809291908260068015611b2a576020028201915b815481526020019060010190808311611b16575b505050505090508091505090565b60045481565b603660009054906101000a900460ff1681565b60008060008060008060008060019054906101000a900473ffffffffffffffffffffffffffffffffffffffff1690508073ffffffffffffffffffffffffffffffffffffffff166324d7806c336040518263ffffffff167c0100000000000000000000000000000000000000000000000000000000028152600401808273ffffffffffffffffffffffffffffffffffffffff1673ffffffffffffffffffffffffffffffffffffffff168152602001915050602060405180830381600087803b1515611c1a57600080fd5b5af11515611c2757600080fd5b505050604051805190501515611c3c57600080fd5b6000809054906101000a900460ff161515611c5657600080fd5b603660019054906101000a900460ff16151515611c7257600080fd5b603660009054906101000a900460ff16151515611c8e57600080fd5b603660029054906101000a900460ff16151515611caa57600080fd5b600095505b6005861015611cec578786600581101515611cc657fe5b6020020151600c87600581101515611cda57fe5b01819055508580600101965050611caf565b600094505b603580549050851015611f9557603585815481101515611d0d57fe5b906000526020600020900160009054906101000a900473ffffffffffffffffffffffffffffffffffffffff169350603360008573ffffffffffffffffffffffffffffffffffffffff1673ffffffffffffffffffffffffffffffffffffffff1681526020019081526020016000209250600091505b6005821015611e62578782600581101515611d9857fe5b60200201518360050183600581101515611dae57fe5b01541415611e55576001603460008673ffffffffffffffffffffffffffffffffffffffff1673ffffffffffffffffffffffffffffffffffffffff16815260200190815260200160002060000183600581101515611e0757fe5b01819055508260000182600581101515611e1d57fe5b0154601160140183600581101515611e3157fe5b01600082825401925050819055506011601901600081548092919060010191905055505b8180600101925050611d81565b600a886004600581101515611e7357fe5b602002015103836005016004600581101515611e8b57fe5b015410158015611ec45750600a886004600581101515611ea757fe5b602002015101836005016004600581101515611ebf57fe5b015411155b8015611ef65750876004600581101515611eda57fe5b6020020151836005016004600581101515611ef157fe5b015414155b15611f88576002603460008673ffffffffffffffffffffffffffffffffffffffff1673ffffffffffffffffffffffffffffffffffffffff1681526020019081526020016000206000016004600581101515611f4d57fe5b0181905550826000016004600581101515611f6457fe5b015460116014016004600581101515611f7957fe5b01600082825401925050819055505b8480600101955050611cf1565b6001603660026101000a81548160ff02191690831515021790555060019650505050505050919050565b611fc761295c565b80905090565b603660019054906101000a900460ff1681565b6000603580549050905090565b603360205280600052604060002060009150905080600a0154905081565b600060019054906101000a900473ffffffffffffffffffffffffffffffffffffffff1681565b60055481565b60008060008060008060008060008060008060019054906101000a900473ffffffffffffffffffffffffffffffffffffffff1690508073ffffffffffffffffffffffffffffffffffffffff166324d7806c336040518263ffffffff167c0100000000000000000000000000000000000000000000000000000000028152600401808273ffffffffffffffffffffffffffffffffffffffff1673ffffffffffffffffffffffffffffffffffffffff168152602001915050602060405180830381600087803b151561210657600080fd5b5af1151561211357600080fd5b50505060405180519050151561212857600080fd5b6000809054906101000a900460ff16151561214257600080fd5b603660029054906101000a900460ff16151561215d57600080fd5b603660009054906101000a900460ff1615151561217957600080fd5b600099505b6035805490508a10156124b05760358a81548110151561219a57fe5b906000526020600020900160009054906101000a900473ffffffffffffffffffffffffffffffffffffffff169850603360008a73ffffffffffffffffffffffffffffffffffffffff1673ffffffffffffffffffffffffffffffffffffffff168152602001908152602001600020975060009650600095505b60058610156122f5576001603460008b73ffffffffffffffffffffffffffffffffffffffff1673ffffffffffffffffffffffffffffffffffffffff1681526020019081526020016000206000018760058110151561226c57fe5b015414156122e857876000018660058110151561228557fe5b015493506000945060116014018660058110151561229f57fe5b0154602c876005811015156122b057fe5b015485028115156122bd57fe5b0484600a6006896006811015156122d057fe5b015487028115156122dd57fe5b040101945084870196505b8580600101965050612212565b6002603460008b73ffffffffffffffffffffffffffffffffffffffff1673ffffffffffffffffffffffffffffffffffffffff168152602001908152602001600020600001600460058110151561234757fe5b015414156123c75787600001600460058110151561236157fe5b01549150600092506011601401600460058110151561237c57fe5b0154602c600460058110151561238e57fe5b0154830281151561239b57fe5b0482600a600660056006811015156123af57fe5b015485028115156123bc57fe5b040101925082870196505b600160009054906101000a900473ffffffffffffffffffffffffffffffffffffffff1673ffffffffffffffffffffffffffffffffffffffff16636039fbdb8a896040518363ffffffff167c0100000000000000000000000000000000000000000000000000000000028152600401808373ffffffffffffffffffffffffffffffffffffffff1673ffffffffffffffffffffffffffffffffffffffff16815260200182815260200192505050602060405180830381600087803b151561248b57600080fd5b5af1151561249857600080fd5b505050604051805190505089806001019a505061217e565b6001603660016101000a81548160ff0219169083151502179055505050505050505050505090565b6035818154811015156124e757fe5b90600052602060002090016000915054906101000a900473ffffffffffffffffffffffffffffffffffffffff1681565b61251f612970565b612527612970565b6000612531612970565b612539612970565b603360008773ffffffffffffffffffffffffffffffffffffffff1673ffffffffffffffffffffffffffffffffffffffff1681526020019081526020016000206000016005806020026040519081016040528092919082600580156125b2576020028201915b81548152602001906001019080831161259e575b50505050509150603360008773ffffffffffffffffffffffffffffffffffffffff1673ffffffffffffffffffffffffffffffffffffffff168152602001908152602001600020600501600580602002604051908101604052809291908260058015612632576020028201915b81548152602001906001019080831161261e575b505050505090508181603360008973ffffffffffffffffffffffffffffffffffffffff1673ffffffffffffffffffffffffffffffffffffffff168152602001908152602001600020600a015494509450945050509193909250565b600080600090505b60068110156126d25782816006811015156126ac57fe5b60200201516006826006811015156126c057fe5b01819055508080600101915050612695565b6001915050919050565b6126e4612970565b600c60058060200260405190810160405280929190826005801561271d576020028201915b815481526020019060010190808311612709575b5050505050905090565b6000809054906101000a900460ff1681565b60035481565b600080600060019054906101000a900473ffffffffffffffffffffffffffffffffffffffff1690508073ffffffffffffffffffffffffffffffffffffffff166324d7806c336040518263ffffffff167c0100000000000000000000000000000000000000000000000000000000028152600401808273ffffffffffffffffffffffffffffffffffffffff1673ffffffffffffffffffffffffffffffffffffffff168152602001915050602060405180830381600087803b151561280157600080fd5b5af1151561280e57600080fd5b50505060405180519050151561282357600080fd5b6000809054906101000a900460ff16151561283d57600080fd5b8273ffffffffffffffffffffffffffffffffffffffff16ff5b603660029054906101000a900460ff1681565b601180601901549080601a0154905082565b603460205280600052604060002060009150905080600f0154908060100154905082565b60326020528060005260406000206000915054906101000a900460ff1681565b600160009054906101000a900473ffffffffffffffffffffffffffffffffffffffff1681565b506000815560010160008155600101600081556001016000815560010160009055565b81548183558181151161292f5781836000526020600020918201910161292e9190612998565b5b505050565b60c0604051908101604052806006905b60008152602001906001900390816129445790505090565b602060405190810160405280600081525090565b60a0604051908101604052806005905b60008152602001906001900390816129805790505090565b6129ba91905b808211156129b657600081600090555060010161299e565b5090565b905600a165627a7a723058205935494e1f98bc11afa7f569b35b050b90ffbf15e61cbaa61e265932788e991e0029a165627a7a723058205759376cbb658c701ddcc6ec239401995ab0cc7ef1727f464e3a029c37a2ca8b0029",
  "source": "pragma solidity ^0.4.15;\n\nimport './IPLMatch.sol';\nimport './Haltable.sol';\nimport './MultiOwnable.sol';\nimport './AddressSetLib.sol';\nimport './EIP20Interface.sol';\nimport './RegistrationInterface.sol';\n\ncontract Ipl is MultiOwnable, Haltable\n{\n    // libs\n    using AddressSetLib for AddressSetLib.AddressSet;\n    EIP20Interface public token;\n    RegistrationInterface public register;\n    \n    uint256 public dailyBonus;\n    uint256 public threshold;\n\n    // state\n    AddressSetLib.AddressSet matches;\n   \n    // events\n    \n    event LogMatchAdded(uint indexed matchId);\n    event LogDailyBonusChange(uint256 oldBonus, uint256 newBonus);\n    event LogThresholdChange(uint256 oldThreshold,uint256 newThreshold);\n\n    function Ipl(address _register, address _tokenAddress) {\n        isAdmin[msg.sender] = true;\n        register = RegistrationInterface(_register);\n        token =  EIP20Interface (_tokenAddress);\n        dailyBonus = 100;\n        threshold = 60;\n    }\n\n    //\n    // administrative functions\n    //\n\n    function haltSwitch(bool _isHalted)\n        onlyAdmin\n        returns (bool ok)\n    {\n        return _haltSwitch(msg.sender, _isHalted);\n    }\n\n    // due to our multi-admin setup, it's probably useful to be able to specify the recipient\n    // of the destroyed contract's funds.\n    function kill(address recipient)\n        onlyAdmin\n        onlyHalted\n        returns (bool ok)\n    {\n        selfdestruct(recipient);\n        return true;\n    }\n\n    //\n    // business logic\n    //\n\n    function addMatch(uint _id)\n        onlyAdmin\n        onlyNotHalted\n        returns (bool ok, address questionAddr)\n    {\n        require(matches.size()+1 == _id);\n        \n        \n        IPLMatch match1 = new IPLMatch(_id, address(register), dailyBonus, threshold, address(token));\n        match1.setMultiplier([uint256(10),uint256(40),uint256(40),uint256(60),uint256(90),uint256(40)]);\n        token.addAdminX(address(match1));\n        matches.add(address(match1));\n        \n        emit LogMatchAdded(_id);\n        \n        return (true, address(match1));\n    }\n    \n    function addMatchManually(uint _id, address matchAddress)\n        onlyAdmin\n        onlyNotHalted\n        returns(bool ok)\n    {\n        require(matches.size()+1 == _id);\n        matches.add(matchAddress);\n        token.addAdminX(matchAddress);\n        \n        emit LogMatchAdded(_id);\n        \n        return true;\n    \n    }\n\n   /* function resetPlayerBalance() onlyAdmin public returns(bool ok){\n        uint i;\n        address[] memory myPlayerList = register.getPlayerList();\n        for(i=0;i<register.getNumberPlayers();i++){\n            uint balance;\n            balance = token.balanceOf(myPlayerList[i]);\n            if (balance > 100)\n            {\n                token.minusTokens(myPlayerList[i],balance-100);\n            }\n            else if (balance < 100)\n            {\n                token.addTokens(myPlayerList[i],100-balance);\n            }\n            \n        }\n        \n        return (true);\n        \n    }*/\n    \n   function setTregisterAddress(address _registerAddress) onlyAdmin returns(bool ok){\n        register = RegistrationInterface(_registerAddress);\n        return true;\n    }\n    \n    function setTokenAddress(address _tokenAddress) onlyAdmin returns(bool ok){\n        token = EIP20Interface(_tokenAddress);\n        return true;\n    }\n    \n     function changeDailyBonus(uint256 newBonus) public onlyAdmin returns(bool ok){\n        \n        emit LogDailyBonusChange(dailyBonus,newBonus);\n        dailyBonus = newBonus;\n        return true;\n    }\n    \n      function changeThreshold(uint256 newThreshold) public onlyAdmin returns(bool ok){\n        \n        emit LogThresholdChange(threshold,newThreshold);\n        threshold = newThreshold;\n        return true;\n    }\n    \n    //\n    // getters for the frontend\n    //\n    \n\n    function numMatches()\n        public\n        constant\n        returns (uint)\n    {\n        return matches.size();\n    }\n\n    function getMatchByIndex(uint i)\n        public\n        constant\n        returns (address)\n    {\n        return matches.get(i);\n    }\n\n    function getAllMatchAddresses()\n        public\n        constant\n        returns (address[])\n    {\n        return matches.values;\n    }\n    \n  \n}\n",
  "sourcePath": "/Users/punyampatnaik/Code Arena/Apps/abc-app/contracts/Ipl.sol",
  "compiler": {
    "name": "solc",
    "version": "0.4.21+commit.dfe3193c.Emscripten.clang"
  },
  "schemaVersion": "2.0.0",
  "updatedAt": "2018-04-11T17:13:05.357Z"
}