{
  "contractName": "IPLMatch",
  "abi": [
    {
      "constant": true,
      "inputs": [
        {
          "name": "",
          "type": "uint256"
        }
      ],
      "name": "multiplier",
      "outputs": [
        {
          "name": "",
          "type": "uint256"
        }
      ],
      "payable": false,
      "stateMutability": "view",
      "type": "function"
    },
    {
      "constant": true,
      "inputs": [
        {
          "name": "",
          "type": "uint256"
        }
      ],
      "name": "answers",
      "outputs": [
        {
          "name": "",
          "type": "uint256"
        }
      ],
      "payable": false,
      "stateMutability": "view",
      "type": "function"
    },
    {
      "constant": true,
      "inputs": [],
      "name": "register",
      "outputs": [
        {
          "name": "",
          "type": "address"
        }
      ],
      "payable": false,
      "stateMutability": "view",
      "type": "function"
    },
    {
      "constant": true,
      "inputs": [],
      "name": "totalPot",
      "outputs": [
        {
          "name": "",
          "type": "uint256"
        }
      ],
      "payable": false,
      "stateMutability": "view",
      "type": "function"
    },
    {
      "constant": true,
      "inputs": [
        {
          "name": "",
          "type": "uint256"
        }
      ],
      "name": "qPot",
      "outputs": [
        {
          "name": "",
          "type": "uint256"
        }
      ],
      "payable": false,
      "stateMutability": "view",
      "type": "function"
    },
    {
      "constant": true,
      "inputs": [],
      "name": "threshold",
      "outputs": [
        {
          "name": "",
          "type": "uint256"
        }
      ],
      "payable": false,
      "stateMutability": "view",
      "type": "function"
    },
    {
      "constant": true,
      "inputs": [],
      "name": "matchAbandon",
      "outputs": [
        {
          "name": "",
          "type": "bool"
        }
      ],
      "payable": false,
      "stateMutability": "view",
      "type": "function"
    },
    {
      "constant": true,
      "inputs": [],
      "name": "matchEnd",
      "outputs": [
        {
          "name": "",
          "type": "bool"
        }
      ],
      "payable": false,
      "stateMutability": "view",
      "type": "function"
    },
    {
      "constant": true,
      "inputs": [
        {
          "name": "",
          "type": "address"
        }
      ],
      "name": "bets",
      "outputs": [
        {
          "name": "totalBet",
          "type": "uint256"
        }
      ],
      "payable": false,
      "stateMutability": "view",
      "type": "function"
    },
    {
      "constant": true,
      "inputs": [],
      "name": "owner",
      "outputs": [
        {
          "name": "",
          "type": "address"
        }
      ],
      "payable": false,
      "stateMutability": "view",
      "type": "function"
    },
    {
      "constant": true,
      "inputs": [],
      "name": "matchId",
      "outputs": [
        {
          "name": "",
          "type": "uint256"
        }
      ],
      "payable": false,
      "stateMutability": "view",
      "type": "function"
    },
    {
      "constant": true,
      "inputs": [
        {
          "name": "",
          "type": "uint256"
        }
      ],
      "name": "playerList",
      "outputs": [
        {
          "name": "",
          "type": "address"
        }
      ],
      "payable": false,
      "stateMutability": "view",
      "type": "function"
    },
    {
      "constant": true,
      "inputs": [],
      "name": "isHalted",
      "outputs": [
        {
          "name": "",
          "type": "bool"
        }
      ],
      "payable": false,
      "stateMutability": "view",
      "type": "function"
    },
    {
      "constant": true,
      "inputs": [],
      "name": "dailyBonus",
      "outputs": [
        {
          "name": "",
          "type": "uint256"
        }
      ],
      "payable": false,
      "stateMutability": "view",
      "type": "function"
    },
    {
      "constant": true,
      "inputs": [],
      "name": "calculateWinLost",
      "outputs": [
        {
          "name": "",
          "type": "bool"
        }
      ],
      "payable": false,
      "stateMutability": "view",
      "type": "function"
    },
    {
      "constant": true,
      "inputs": [],
      "name": "matchResult",
      "outputs": [
        {
          "name": "totalWin",
          "type": "uint256"
        },
        {
          "name": "totalLoose",
          "type": "uint256"
        }
      ],
      "payable": false,
      "stateMutability": "view",
      "type": "function"
    },
    {
      "constant": true,
      "inputs": [
        {
          "name": "",
          "type": "address"
        }
      ],
      "name": "results",
      "outputs": [
        {
          "name": "totalWon",
          "type": "uint256"
        },
        {
          "name": "totalLost",
          "type": "uint256"
        }
      ],
      "payable": false,
      "stateMutability": "view",
      "type": "function"
    },
    {
      "constant": true,
      "inputs": [
        {
          "name": "",
          "type": "address"
        }
      ],
      "name": "isBet",
      "outputs": [
        {
          "name": "",
          "type": "bool"
        }
      ],
      "payable": false,
      "stateMutability": "view",
      "type": "function"
    },
    {
      "constant": true,
      "inputs": [],
      "name": "token",
      "outputs": [
        {
          "name": "",
          "type": "address"
        }
      ],
      "payable": false,
      "stateMutability": "view",
      "type": "function"
    },
    {
      "inputs": [
        {
          "name": "_id",
          "type": "uint256"
        },
        {
          "name": "_register",
          "type": "address"
        },
        {
          "name": "_dailyBonus",
          "type": "uint256"
        },
        {
          "name": "_threshold",
          "type": "uint256"
        },
        {
          "name": "_tokenAddress",
          "type": "address"
        }
      ],
      "payable": false,
      "stateMutability": "nonpayable",
      "type": "constructor"
    },
    {
      "anonymous": false,
      "inputs": [
        {
          "indexed": true,
          "name": "matchId",
          "type": "uint256"
        },
        {
          "indexed": true,
          "name": "bettor",
          "type": "address"
        },
        {
          "indexed": false,
          "name": "betAmount",
          "type": "uint256"
        }
      ],
      "name": "LogBet",
      "type": "event"
    },
    {
      "anonymous": false,
      "inputs": [
        {
          "indexed": true,
          "name": "matchId",
          "type": "uint256"
        },
        {
          "indexed": true,
          "name": "bettor",
          "type": "address"
        },
        {
          "indexed": false,
          "name": "adminAddress",
          "type": "address"
        }
      ],
      "name": "LogBetReset",
      "type": "event"
    },
    {
      "anonymous": false,
      "inputs": [
        {
          "indexed": true,
          "name": "matchId",
          "type": "uint256"
        },
        {
          "indexed": false,
          "name": "adminAddress",
          "type": "address"
        },
        {
          "indexed": false,
          "name": "isHalted",
          "type": "bool"
        }
      ],
      "name": "LogBetSwitch",
      "type": "event"
    },
    {
      "anonymous": false,
      "inputs": [
        {
          "indexed": true,
          "name": "matchId",
          "type": "uint256"
        },
        {
          "indexed": true,
          "name": "questionId",
          "type": "uint256"
        },
        {
          "indexed": false,
          "name": "playerAddress",
          "type": "address"
        },
        {
          "indexed": false,
          "name": "winningAmount",
          "type": "uint256"
        },
        {
          "indexed": false,
          "name": "multiplier",
          "type": "uint256"
        }
      ],
      "name": "LogQuestionBetWin",
      "type": "event"
    },
    {
      "anonymous": false,
      "inputs": [
        {
          "indexed": true,
          "name": "matchId",
          "type": "uint256"
        },
        {
          "indexed": true,
          "name": "questionId",
          "type": "uint256"
        },
        {
          "indexed": true,
          "name": "playerAddress",
          "type": "address"
        },
        {
          "indexed": false,
          "name": "loosingAmount",
          "type": "uint256"
        }
      ],
      "name": "LogQuestionBetLoose",
      "type": "event"
    },
    {
      "anonymous": false,
      "inputs": [
        {
          "indexed": true,
          "name": "matchId",
          "type": "uint256"
        },
        {
          "indexed": true,
          "name": "playerAddress",
          "type": "address"
        },
        {
          "indexed": false,
          "name": "winningAmount",
          "type": "uint256"
        },
        {
          "indexed": false,
          "name": "loosingAmount",
          "type": "uint256"
        },
        {
          "indexed": false,
          "name": "toalBet",
          "type": "uint256"
        }
      ],
      "name": "LogWin",
      "type": "event"
    },
    {
      "anonymous": false,
      "inputs": [
        {
          "indexed": true,
          "name": "matchId",
          "type": "uint256"
        },
        {
          "indexed": true,
          "name": "playerAddress",
          "type": "address"
        },
        {
          "indexed": false,
          "name": "winningAmount",
          "type": "uint256"
        },
        {
          "indexed": false,
          "name": "loosingAmount",
          "type": "uint256"
        },
        {
          "indexed": false,
          "name": "toalBet",
          "type": "uint256"
        }
      ],
      "name": "LogLoose",
      "type": "event"
    },
    {
      "anonymous": false,
      "inputs": [
        {
          "indexed": true,
          "name": "matchId",
          "type": "uint256"
        },
        {
          "indexed": true,
          "name": "playerAddress",
          "type": "address"
        }
      ],
      "name": "LogDailyBonus",
      "type": "event"
    },
    {
      "anonymous": false,
      "inputs": [
        {
          "indexed": false,
          "name": "who",
          "type": "address"
        },
        {
          "indexed": false,
          "name": "halted",
          "type": "bool"
        }
      ],
      "name": "LogHaltSwitch",
      "type": "event"
    },
    {
      "constant": false,
      "inputs": [
        {
          "name": "_weight",
          "type": "uint256[5]"
        },
        {
          "name": "_option",
          "type": "uint256[5]"
        }
      ],
      "name": "bet",
      "outputs": [
        {
          "name": "ok",
          "type": "bool"
        }
      ],
      "payable": true,
      "stateMutability": "payable",
      "type": "function"
    },
    {
      "constant": true,
      "inputs": [],
      "name": "getBetLength",
      "outputs": [
        {
          "name": "betLength",
          "type": "uint256"
        }
      ],
      "payable": false,
      "stateMutability": "view",
      "type": "function"
    },
    {
      "constant": false,
      "inputs": [
        {
          "name": "options",
          "type": "uint256[5]"
        }
      ],
      "name": "calculateWinLoss",
      "outputs": [
        {
          "name": "ok",
          "type": "bool"
        }
      ],
      "payable": false,
      "stateMutability": "nonpayable",
      "type": "function"
    },
    {
      "constant": false,
      "inputs": [],
      "name": "endMatch",
      "outputs": [
        {
          "name": "ok",
          "type": "bool"
        }
      ],
      "payable": false,
      "stateMutability": "nonpayable",
      "type": "function"
    },
    {
      "constant": false,
      "inputs": [],
      "name": "abandonMatch",
      "outputs": [],
      "payable": false,
      "stateMutability": "nonpayable",
      "type": "function"
    },
    {
      "constant": true,
      "inputs": [],
      "name": "getPlayerLength",
      "outputs": [
        {
          "name": "len",
          "type": "uint256"
        }
      ],
      "payable": false,
      "stateMutability": "view",
      "type": "function"
    },
    {
      "constant": true,
      "inputs": [],
      "name": "getPlayerList",
      "outputs": [
        {
          "name": "playerList",
          "type": "address[]"
        }
      ],
      "payable": false,
      "stateMutability": "view",
      "type": "function"
    },
    {
      "constant": true,
      "inputs": [
        {
          "name": "_playerAddress",
          "type": "address"
        }
      ],
      "name": "getPlayerBet",
      "outputs": [
        {
          "name": "weight",
          "type": "uint256[5]"
        },
        {
          "name": "option",
          "type": "uint256[5]"
        },
        {
          "name": "totalBet",
          "type": "uint256"
        }
      ],
      "payable": false,
      "stateMutability": "view",
      "type": "function"
    },
    {
      "constant": true,
      "inputs": [],
      "name": "getAnswers",
      "outputs": [
        {
          "name": "_answers",
          "type": "uint256[5]"
        }
      ],
      "payable": false,
      "stateMutability": "view",
      "type": "function"
    },
    {
      "constant": false,
      "inputs": [
        {
          "name": "_who",
          "type": "address"
        },
        {
          "name": "_bettor",
          "type": "address"
        }
      ],
      "name": "resetBet",
      "outputs": [
        {
          "name": "ok",
          "type": "bool"
        }
      ],
      "payable": false,
      "stateMutability": "nonpayable",
      "type": "function"
    },
    {
      "constant": false,
      "inputs": [
        {
          "name": "_isHalted",
          "type": "bool"
        }
      ],
      "name": "haltSwitch",
      "outputs": [
        {
          "name": "ok",
          "type": "bool"
        }
      ],
      "payable": false,
      "stateMutability": "nonpayable",
      "type": "function"
    },
    {
      "constant": false,
      "inputs": [
        {
          "name": "recipient",
          "type": "address"
        }
      ],
      "name": "kill",
      "outputs": [
        {
          "name": "ok",
          "type": "bool"
        }
      ],
      "payable": false,
      "stateMutability": "nonpayable",
      "type": "function"
    },
    {
      "constant": true,
      "inputs": [],
      "name": "getMultipler",
      "outputs": [
        {
          "name": "mulx",
          "type": "uint256[6]"
        }
      ],
      "payable": false,
      "stateMutability": "view",
      "type": "function"
    },
    {
      "constant": false,
      "inputs": [
        {
          "name": "mul",
          "type": "uint256[6]"
        }
      ],
      "name": "setMultiplier",
      "outputs": [
        {
          "name": "ok",
          "type": "bool"
        }
      ],
      "payable": false,
      "stateMutability": "nonpayable",
      "type": "function"
    },
    {
      "constant": false,
      "inputs": [
        {
          "name": "_tokenAddress",
          "type": "address"
        }
      ],
      "name": "setTokenAddress",
      "outputs": [
        {
          "name": "ok",
          "type": "bool"
        }
      ],
      "payable": false,
      "stateMutability": "nonpayable",
      "type": "function"
    }
  ],
  "bytecode": "0x6060604052341561000f57600080fd5b60405160a080612b248339810160405280805190602001909190805190602001909190805190602001909190805190602001909190805190602001909190505033600060016101000a81548173ffffffffffffffffffffffffffffffffffffffff021916908373ffffffffffffffffffffffffffffffffffffffff1602179055508460058190555083600260006101000a81548173ffffffffffffffffffffffffffffffffffffffff021916908373ffffffffffffffffffffffffffffffffffffffff16021790555080600160006101000a81548173ffffffffffffffffffffffffffffffffffffffff021916908373ffffffffffffffffffffffffffffffffffffffff160217905550826003819055508160048190555050505050506129e98061013b6000396000f3006060604052600436106101ac576000357c0100000000000000000000000000000000000000000000000000000000900463ffffffff16806305e30f51146101b1578063085e615e146101e85780630d8053ca14610225578063102dd66b1461024e57806317599cc5146102be5780631aa3a008146102f557806323abbf101461034a57806324b570a91461035f57806326a4e8d214610388578063286051c1146103d957806338330a7c146104105780633a5d9a301461048f57806342cde4e8146104e05780635903d60d146105095780635e8306ca1461053657806362a63e29146105945780636dddcf46146105fe5780637c645c211461062b57806389a78f1a146106545780638da5cb5b146106a157806399892e47146106f6578063a5e1a62d1461071f578063ae6d90731461074c578063c137d643146107af578063c517e8161461085a578063c793fcf9146108b8578063c7ff158414610909578063ca6f1b9714610936578063cbf0b0c01461095f578063db4f0def146109b0578063df7bf704146109dd578063ef378f6214610a0d578063f4786c1214610a61578063fc0c546a14610ab2575b600080fd5b34156101bc57600080fd5b6101d26004808035906020019091905050610b07565b6040518082815260200191505060405180910390f35b34156101f357600080fd5b61020b60048080351515906020019091905050610b21565b604051808215151515815260200191505060405180910390f35b341561023057600080fd5b610238610cbb565b6040518082815260200191505060405180910390f35b341561025957600080fd5b6102a4600480803573ffffffffffffffffffffffffffffffffffffffff1690602001909190803573ffffffffffffffffffffffffffffffffffffffff16906020019091905050610cc8565b604051808215151515815260200191505060405180910390f35b34156102c957600080fd5b6102df600480803590602001909190505061105d565b6040518082815260200191505060405180910390f35b341561030057600080fd5b610308611077565b604051808273ffffffffffffffffffffffffffffffffffffffff1673ffffffffffffffffffffffffffffffffffffffff16815260200191505060405180910390f35b341561035557600080fd5b61035d61109d565b005b341561036a57600080fd5b610372611322565b6040518082815260200191505060405180910390f35b341561039357600080fd5b6103bf600480803573ffffffffffffffffffffffffffffffffffffffff16906020019091905050611328565b604051808215151515815260200191505060405180910390f35b34156103e457600080fd5b6103fa6004808035906020019091905050611457565b6040518082815260200191505060405180910390f35b6104756004808060a001906005806020026040519081016040528092919082600560200280828437820191505050505091908060a001906005806020026040519081016040528092919082600560200280828437820191505050505091905050611471565b604051808215151515815260200191505060405180910390f35b341561049a57600080fd5b6104a2611ae2565b6040518082600660200280838360005b838110156104cd5780820151818401526020810190506104b2565b5050505090500191505060405180910390f35b34156104eb57600080fd5b6104f3611b38565b6040518082815260200191505060405180910390f35b341561051457600080fd5b61051c611b3e565b604051808215151515815260200191505060405180910390f35b341561054157600080fd5b61057a6004808060a001906005806020026040519081016040528092919082600560200280828437820191505050505091905050611b51565b604051808215151515815260200191505060405180910390f35b341561059f57600080fd5b6105a7611fbf565b6040518080602001828103825283818151815260200191508051906020019060200280838360005b838110156105ea5780820151818401526020810190506105cf565b505050509050019250505060405180910390f35b341561060957600080fd5b610611611fcd565b604051808215151515815260200191505060405180910390f35b341561063657600080fd5b61063e611fe0565b6040518082815260200191505060405180910390f35b341561065f57600080fd5b61068b600480803573ffffffffffffffffffffffffffffffffffffffff16906020019091905050611fed565b6040518082815260200191505060405180910390f35b34156106ac57600080fd5b6106b461200b565b604051808273ffffffffffffffffffffffffffffffffffffffff1673ffffffffffffffffffffffffffffffffffffffff16815260200191505060405180910390f35b341561070157600080fd5b610709612031565b6040518082815260200191505060405180910390f35b341561072a57600080fd5b610732612037565b604051808215151515815260200191505060405180910390f35b341561075757600080fd5b61076d60048080359060200190919050506124d8565b604051808273ffffffffffffffffffffffffffffffffffffffff1673ffffffffffffffffffffffffffffffffffffffff16815260200191505060405180910390f35b34156107ba57600080fd5b6107e6600480803573ffffffffffffffffffffffffffffffffffffffff16906020019091905050612517565b6040518084600560200280838360005b838110156108115780820151818401526020810190506107f6565b5050505090500183600560200280838360005b8381101561083f578082015181840152602081019050610824565b50505050905001828152602001935050505060405180910390f35b341561086557600080fd5b61089e6004808060c00190600680602002604051908101604052809291908260066020028082843782019150505050509190505061268d565b604051808215151515815260200191505060405180910390f35b34156108c357600080fd5b6108cb6126dc565b6040518082600560200280838360005b838110156108f65780820151818401526020810190506108db565b5050505090500191505060405180910390f35b341561091457600080fd5b61091c612727565b604051808215151515815260200191505060405180910390f35b341561094157600080fd5b610949612739565b6040518082815260200191505060405180910390f35b341561096a57600080fd5b610996600480803573ffffffffffffffffffffffffffffffffffffffff1690602001909190505061273f565b604051808215151515815260200191505060405180910390f35b34156109bb57600080fd5b6109c3612856565b604051808215151515815260200191505060405180910390f35b34156109e857600080fd5b6109f0612869565b604051808381526020018281526020019250505060405180910390f35b3415610a1857600080fd5b610a44600480803573ffffffffffffffffffffffffffffffffffffffff1690602001909190505061287b565b604051808381526020018281526020019250505060405180910390f35b3415610a6c57600080fd5b610a98600480803573ffffffffffffffffffffffffffffffffffffffff1690602001909190505061289f565b604051808215151515815260200191505060405180910390f35b3415610abd57600080fd5b610ac56128bf565b604051808273ffffffffffffffffffffffffffffffffffffffff1673ffffffffffffffffffffffffffffffffffffffff16815260200191505060405180910390f35b600681600681101515610b1657fe5b016000915090505481565b600080600060019054906101000a900473ffffffffffffffffffffffffffffffffffffffff1690508073ffffffffffffffffffffffffffffffffffffffff166324d7806c336040518263ffffffff167c0100000000000000000000000000000000000000000000000000000000028152600401808273ffffffffffffffffffffffffffffffffffffffff1673ffffffffffffffffffffffffffffffffffffffff168152602001915050602060405180830381600087803b1515610be357600080fd5b5af11515610bf057600080fd5b505050604051805190501515610c0557600080fd5b8215156000809054906101000a900460ff16151514151515610c2657600080fd5b826000806101000a81548160ff0219169083151502179055506005547f254518872c4cc0703b5cd922d710cffd6d4551803a00d0f9ed81c99751d29e543385604051808373ffffffffffffffffffffffffffffffffffffffff1673ffffffffffffffffffffffffffffffffffffffff168152602001821515151581526020019250505060405180910390a26001915050919050565b6000603580549050905090565b600080600080600060019054906101000a900473ffffffffffffffffffffffffffffffffffffffff1690508073ffffffffffffffffffffffffffffffffffffffff166324d7806c336040518263ffffffff167c0100000000000000000000000000000000000000000000000000000000028152600401808273ffffffffffffffffffffffffffffffffffffffff1673ffffffffffffffffffffffffffffffffffffffff168152602001915050602060405180830381600087803b1515610d8d57600080fd5b5af11515610d9a57600080fd5b505050604051805190501515610daf57600080fd5b603360008673ffffffffffffffffffffffffffffffffffffffff1673ffffffffffffffffffffffffffffffffffffffff168152602001908152602001600020600a01549150600092505b6005831015610e7d57603360008673ffffffffffffffffffffffffffffffffffffffff1673ffffffffffffffffffffffffffffffffffffffff16815260200190815260200160002060000183600581101515610e5157fe5b0154602c84600581101515610e6257fe5b01600082825403925050819055508280600101935050610df9565b603360008673ffffffffffffffffffffffffffffffffffffffff1673ffffffffffffffffffffffffffffffffffffffff16815260200190815260200160002060008082016000610ecd91906128e5565b600582016000610edd91906128e5565b600a820160009055505081603160008282540392505081905550600160009054906101000a900473ffffffffffffffffffffffffffffffffffffffff1673ffffffffffffffffffffffffffffffffffffffff16636039fbdb33846040518363ffffffff167c0100000000000000000000000000000000000000000000000000000000028152600401808373ffffffffffffffffffffffffffffffffffffffff1673ffffffffffffffffffffffffffffffffffffffff16815260200182815260200192505050602060405180830381600087803b1515610fbb57600080fd5b5af11515610fc857600080fd5b50505060405180519050508473ffffffffffffffffffffffffffffffffffffffff166005547fc5d526ff4c62cd704d82ca8358af8e37305b99fc4a1ce2420592633397d0afa388604051808273ffffffffffffffffffffffffffffffffffffffff1673ffffffffffffffffffffffffffffffffffffffff16815260200191505060405180910390a36001935050505092915050565b600c8160058110151561106c57fe5b016000915090505481565b600260009054906101000a900473ffffffffffffffffffffffffffffffffffffffff1681565b600080600080600060019054906101000a900473ffffffffffffffffffffffffffffffffffffffff1690508073ffffffffffffffffffffffffffffffffffffffff166324d7806c336040518263ffffffff167c0100000000000000000000000000000000000000000000000000000000028152600401808273ffffffffffffffffffffffffffffffffffffffff1673ffffffffffffffffffffffffffffffffffffffff168152602001915050602060405180830381600087803b151561116257600080fd5b5af1151561116f57600080fd5b50505060405180519050151561118457600080fd5b600093505b603580549050841015611301576035848154811015156111a557fe5b906000526020600020900160009054906101000a900473ffffffffffffffffffffffffffffffffffffffff169250603360008473ffffffffffffffffffffffffffffffffffffffff1673ffffffffffffffffffffffffffffffffffffffff1681526020019081526020016000209150600160009054906101000a900473ffffffffffffffffffffffffffffffffffffffff1673ffffffffffffffffffffffffffffffffffffffff16636039fbdb8484600a01546040518363ffffffff167c0100000000000000000000000000000000000000000000000000000000028152600401808373ffffffffffffffffffffffffffffffffffffffff1673ffffffffffffffffffffffffffffffffffffffff16815260200182815260200192505050602060405180830381600087803b15156112dc57600080fd5b5af115156112e957600080fd5b50505060405180519050508380600101945050611189565b6001603660006101000a81548160ff02191690831515021790555050505050565b60315481565b600080600060019054906101000a900473ffffffffffffffffffffffffffffffffffffffff1690508073ffffffffffffffffffffffffffffffffffffffff166324d7806c336040518263ffffffff167c0100000000000000000000000000000000000000000000000000000000028152600401808273ffffffffffffffffffffffffffffffffffffffff1673ffffffffffffffffffffffffffffffffffffffff168152602001915050602060405180830381600087803b15156113ea57600080fd5b5af115156113f757600080fd5b50505060405180519050151561140c57600080fd5b82600160006101000a81548173ffffffffffffffffffffffffffffffffffffffff021916908373ffffffffffffffffffffffffffffffffffffffff1602179055506001915050919050565b602c8160058110151561146657fe5b016000915090505481565b60008060008060009054906101000a900460ff1615151561149157600080fd5b6000603360003373ffffffffffffffffffffffffffffffffffffffff1673ffffffffffffffffffffffffffffffffffffffff168152602001908152602001600020600a01541415156114e257600080fd5b603660009054906101000a900460ff161515156114fe57600080fd5b603260003373ffffffffffffffffffffffffffffffffffffffff1673ffffffffffffffffffffffffffffffffffffffff16815260200190815260200160002060009054906101000a900460ff1615156115b557603580548060010182816115659190612908565b9160005260206000209001600033909190916101000a81548173ffffffffffffffffffffffffffffffffffffffff021916908373ffffffffffffffffffffffffffffffffffffffff160217905550505b60009150600090505b60058110156116e95784816005811015156115d557fe5b6020020151603360003373ffffffffffffffffffffffffffffffffffffffff1673ffffffffffffffffffffffffffffffffffffffff1681526020019081526020016000206000018260058110151561162957fe5b0181905550848160058110151561163c57fe5b6020020151602c8260058110151561165057fe5b0160008282540192505081905550838160058110151561166c57fe5b6020020151603360003373ffffffffffffffffffffffffffffffffffffffff1673ffffffffffffffffffffffffffffffffffffffff168152602001908152602001600020600501826005811015156116c057fe5b018190555084816005811015156116d357fe5b60200201518201915080806001019150506115be565b81603360003373ffffffffffffffffffffffffffffffffffffffff1673ffffffffffffffffffffffffffffffffffffffff168152602001908152602001600020600a01819055508160316000828254019250508190555081600160009054906101000a900473ffffffffffffffffffffffffffffffffffffffff1673ffffffffffffffffffffffffffffffffffffffff166370a08231336040518263ffffffff167c0100000000000000000000000000000000000000000000000000000000028152600401808273ffffffffffffffffffffffffffffffffffffffff1673ffffffffffffffffffffffffffffffffffffffff168152602001915050602060405180830381600087803b15156117fd57600080fd5b5af1151561180a57600080fd5b505050604051805190501015151561182157600080fd5b600160009054906101000a900473ffffffffffffffffffffffffffffffffffffffff1673ffffffffffffffffffffffffffffffffffffffff16635851a7fe33846040518363ffffffff167c0100000000000000000000000000000000000000000000000000000000028152600401808373ffffffffffffffffffffffffffffffffffffffff1673ffffffffffffffffffffffffffffffffffffffff16815260200182815260200192505050602060405180830381600087803b15156118e557600080fd5b5af115156118f257600080fd5b50505060405180519050506001603260003373ffffffffffffffffffffffffffffffffffffffff1673ffffffffffffffffffffffffffffffffffffffff16815260200190815260200160002060006101000a81548160ff02191690831515021790555060045482101515611a8557600160009054906101000a900473ffffffffffffffffffffffffffffffffffffffff1673ffffffffffffffffffffffffffffffffffffffff16636039fbdb336003546040518363ffffffff167c0100000000000000000000000000000000000000000000000000000000028152600401808373ffffffffffffffffffffffffffffffffffffffff1673ffffffffffffffffffffffffffffffffffffffff16815260200182815260200192505050602060405180830381600087803b1515611a2657600080fd5b5af11515611a3357600080fd5b50505060405180519050503373ffffffffffffffffffffffffffffffffffffffff166005547f71fa040dbe511ab6c57a43ca3fbeb249e32256d7755110f0ba88c9c92056db7c60405160405180910390a35b3373ffffffffffffffffffffffffffffffffffffffff166005547f865cdc8d1bf8b43c96548347220fc458c21f36cda4b5c2ff7646c5f88b78aac6846040518082815260200191505060405180910390a360019250505092915050565b611aea612934565b611af2612934565b60068080602002604051908101604052809291908260068015611b2a576020028201915b815481526020019060010190808311611b16575b505050505090508091505090565b60045481565b603660009054906101000a900460ff1681565b60008060008060008060008060019054906101000a900473ffffffffffffffffffffffffffffffffffffffff1690508073ffffffffffffffffffffffffffffffffffffffff166324d7806c336040518263ffffffff167c0100000000000000000000000000000000000000000000000000000000028152600401808273ffffffffffffffffffffffffffffffffffffffff1673ffffffffffffffffffffffffffffffffffffffff168152602001915050602060405180830381600087803b1515611c1a57600080fd5b5af11515611c2757600080fd5b505050604051805190501515611c3c57600080fd5b6000809054906101000a900460ff161515611c5657600080fd5b603660019054906101000a900460ff16151515611c7257600080fd5b603660009054906101000a900460ff16151515611c8e57600080fd5b603660029054906101000a900460ff16151515611caa57600080fd5b600095505b6005861015611cec578786600581101515611cc657fe5b6020020151600c87600581101515611cda57fe5b01819055508580600101965050611caf565b600094505b603580549050851015611f9557603585815481101515611d0d57fe5b906000526020600020900160009054906101000a900473ffffffffffffffffffffffffffffffffffffffff169350603360008573ffffffffffffffffffffffffffffffffffffffff1673ffffffffffffffffffffffffffffffffffffffff1681526020019081526020016000209250600091505b6005821015611e62578782600581101515611d9857fe5b60200201518360050183600581101515611dae57fe5b01541415611e55576001603460008673ffffffffffffffffffffffffffffffffffffffff1673ffffffffffffffffffffffffffffffffffffffff16815260200190815260200160002060000183600581101515611e0757fe5b01819055508260000182600581101515611e1d57fe5b0154601160140183600581101515611e3157fe5b01600082825401925050819055506011601901600081548092919060010191905055505b8180600101925050611d81565b600a886004600581101515611e7357fe5b602002015103836005016004600581101515611e8b57fe5b015410158015611ec45750600a886004600581101515611ea757fe5b602002015101836005016004600581101515611ebf57fe5b015411155b8015611ef65750876004600581101515611eda57fe5b6020020151836005016004600581101515611ef157fe5b015414155b15611f88576002603460008673ffffffffffffffffffffffffffffffffffffffff1673ffffffffffffffffffffffffffffffffffffffff1681526020019081526020016000206000016004600581101515611f4d57fe5b0181905550826000016004600581101515611f6457fe5b015460116014016004600581101515611f7957fe5b01600082825401925050819055505b8480600101955050611cf1565b6001603660026101000a81548160ff02191690831515021790555060019650505050505050919050565b611fc761295c565b80905090565b603660019054906101000a900460ff1681565b6000603580549050905090565b603360205280600052604060002060009150905080600a0154905081565b600060019054906101000a900473ffffffffffffffffffffffffffffffffffffffff1681565b60055481565b60008060008060008060008060008060008060019054906101000a900473ffffffffffffffffffffffffffffffffffffffff1690508073ffffffffffffffffffffffffffffffffffffffff166324d7806c336040518263ffffffff167c0100000000000000000000000000000000000000000000000000000000028152600401808273ffffffffffffffffffffffffffffffffffffffff1673ffffffffffffffffffffffffffffffffffffffff168152602001915050602060405180830381600087803b151561210657600080fd5b5af1151561211357600080fd5b50505060405180519050151561212857600080fd5b6000809054906101000a900460ff16151561214257600080fd5b603660029054906101000a900460ff16151561215d57600080fd5b603660009054906101000a900460ff1615151561217957600080fd5b600099505b6035805490508a10156124b05760358a81548110151561219a57fe5b906000526020600020900160009054906101000a900473ffffffffffffffffffffffffffffffffffffffff169850603360008a73ffffffffffffffffffffffffffffffffffffffff1673ffffffffffffffffffffffffffffffffffffffff168152602001908152602001600020975060009650600095505b60058610156122f5576001603460008b73ffffffffffffffffffffffffffffffffffffffff1673ffffffffffffffffffffffffffffffffffffffff1681526020019081526020016000206000018760058110151561226c57fe5b015414156122e857876000018660058110151561228557fe5b015493506000945060116014018660058110151561229f57fe5b0154602c876005811015156122b057fe5b015485028115156122bd57fe5b0484600a6006896006811015156122d057fe5b015487028115156122dd57fe5b040101945084870196505b8580600101965050612212565b6002603460008b73ffffffffffffffffffffffffffffffffffffffff1673ffffffffffffffffffffffffffffffffffffffff168152602001908152602001600020600001600460058110151561234757fe5b015414156123c75787600001600460058110151561236157fe5b01549150600092506011601401600460058110151561237c57fe5b0154602c600460058110151561238e57fe5b0154830281151561239b57fe5b0482600a600660056006811015156123af57fe5b015485028115156123bc57fe5b040101925082870196505b600160009054906101000a900473ffffffffffffffffffffffffffffffffffffffff1673ffffffffffffffffffffffffffffffffffffffff16636039fbdb8a896040518363ffffffff167c0100000000000000000000000000000000000000000000000000000000028152600401808373ffffffffffffffffffffffffffffffffffffffff1673ffffffffffffffffffffffffffffffffffffffff16815260200182815260200192505050602060405180830381600087803b151561248b57600080fd5b5af1151561249857600080fd5b505050604051805190505089806001019a505061217e565b6001603660016101000a81548160ff0219169083151502179055505050505050505050505090565b6035818154811015156124e757fe5b90600052602060002090016000915054906101000a900473ffffffffffffffffffffffffffffffffffffffff1681565b61251f612970565b612527612970565b6000612531612970565b612539612970565b603360008773ffffffffffffffffffffffffffffffffffffffff1673ffffffffffffffffffffffffffffffffffffffff1681526020019081526020016000206000016005806020026040519081016040528092919082600580156125b2576020028201915b81548152602001906001019080831161259e575b50505050509150603360008773ffffffffffffffffffffffffffffffffffffffff1673ffffffffffffffffffffffffffffffffffffffff168152602001908152602001600020600501600580602002604051908101604052809291908260058015612632576020028201915b81548152602001906001019080831161261e575b505050505090508181603360008973ffffffffffffffffffffffffffffffffffffffff1673ffffffffffffffffffffffffffffffffffffffff168152602001908152602001600020600a015494509450945050509193909250565b600080600090505b60068110156126d25782816006811015156126ac57fe5b60200201516006826006811015156126c057fe5b01819055508080600101915050612695565b6001915050919050565b6126e4612970565b600c60058060200260405190810160405280929190826005801561271d576020028201915b815481526020019060010190808311612709575b5050505050905090565b6000809054906101000a900460ff1681565b60035481565b600080600060019054906101000a900473ffffffffffffffffffffffffffffffffffffffff1690508073ffffffffffffffffffffffffffffffffffffffff166324d7806c336040518263ffffffff167c0100000000000000000000000000000000000000000000000000000000028152600401808273ffffffffffffffffffffffffffffffffffffffff1673ffffffffffffffffffffffffffffffffffffffff168152602001915050602060405180830381600087803b151561280157600080fd5b5af1151561280e57600080fd5b50505060405180519050151561282357600080fd5b6000809054906101000a900460ff16151561283d57600080fd5b8273ffffffffffffffffffffffffffffffffffffffff16ff5b603660029054906101000a900460ff1681565b601180601901549080601a0154905082565b603460205280600052604060002060009150905080600f0154908060100154905082565b60326020528060005260406000206000915054906101000a900460ff1681565b600160009054906101000a900473ffffffffffffffffffffffffffffffffffffffff1681565b506000815560010160008155600101600081556001016000815560010160009055565b81548183558181151161292f5781836000526020600020918201910161292e9190612998565b5b505050565b60c0604051908101604052806006905b60008152602001906001900390816129445790505090565b602060405190810160405280600081525090565b60a0604051908101604052806005905b60008152602001906001900390816129805790505090565b6129ba91905b808211156129b657600081600090555060010161299e565b5090565b905600a165627a7a723058205935494e1f98bc11afa7f569b35b050b90ffbf15e61cbaa61e265932788e991e0029",
  "source": "pragma solidity ^0.4.15;\n\nimport './Interfaces.sol';\nimport './Ownable.sol';\nimport './Haltable.sol';\nimport './EIP20Interface.sol';\nimport './RegistrationInterface.sol';\n\n\ncontract IPLMatch is Haltable, Ownable\n{\n    //using SafeMath for uint;\n\n    EIP20Interface public token;\n    RegistrationInterface public register;\n    \n    uint256 public dailyBonus;\n    uint256 public threshold;\n    \n    uint public matchId;\n    uint256[6] public multiplier;\n\n    struct Bet {\n       uint256[5] weight;\n       uint256[5] option;\n       uint256 totalBet;\n    }\n    \n    struct Result {\n        uint[5] wonLost;\n        uint256[5] amtWon;\n        uint256[5] amtLost;\n        uint256 totalWon;\n        uint256 totalLost;\n        \n    }\n    \n    struct MatchResult{\n        uint256[5] numquestionWon;\n        uint256[5] numquestionLost;\n        uint256[5] amtQuestionWins;\n        uint256[5] amtQuestionLost;\n        uint256[5] amtQuestionWinBet;\n        uint256 totalWin;\n        uint256 totalLoose;\n        \n        \n    }\n    \n    uint256[5] public answers;\n    \n    MatchResult public matchResult;\n\n    uint256[5] public qPot;\n    uint256 public totalPot;\n    mapping(address => bool) public isBet;\n    mapping(address => Bet) public bets;\n    mapping(address => Result) public results;\n    \n    address[] public playerList;\n   \n    \n    bool public matchAbandon;\n    bool public matchEnd;\n    bool public calculateWinLost;\n    \n    event LogBet(uint indexed matchId,address indexed bettor, uint256 betAmount);\n    event LogBetReset(uint indexed matchId, address indexed bettor, address adminAddress);\n    event LogBetSwitch(uint indexed matchId, address adminAddress, bool isHalted);\n    event LogQuestionBetWin(uint indexed matchId,uint indexed questionId,address playerAddress,uint256 winningAmount,uint256 multiplier);\n    event LogQuestionBetLoose(uint indexed matchId,uint indexed questionId,address indexed playerAddress,uint256 loosingAmount);\n    event LogWin(uint indexed matchId,address indexed playerAddress,uint256 winningAmount,uint256 loosingAmount,uint256 toalBet);\n    event LogLoose(uint indexed matchId,address indexed playerAddress,uint256 winningAmount,uint256 loosingAmount,uint256 toalBet);\n    event LogDailyBonus(uint indexed matchId,address indexed playerAddress);\n    \n    function IPLMatch(uint _id, address _register, uint256 _dailyBonus, uint256 _threshold,address _tokenAddress){\n        matchId = _id;\n        register = RegistrationInterface(_register);\n        token =  EIP20Interface (_tokenAddress);\n        dailyBonus=_dailyBonus;\n        threshold=_threshold;\n        \n        \n    }\n\n    function bet(uint[5] _weight, uint[5] _option)\n        payable\n        onlyNotHalted\n        canBet\n        returns (bool ok)\n    {\n        require (!matchAbandon);\n        \n        if(!isBet[msg.sender]){\n            playerList.push(msg.sender);\n        }\n        \n        uint256 sum = 0;\n        uint i;\n        for(i=0;i<5;i++){\n            bets[msg.sender].weight[i] = _weight[i];\n            qPot[i] += _weight[i];\n            bets[msg.sender].option[i] = _option[i];\n            sum += _weight[i];\n        }\n        bets[msg.sender].totalBet = sum;\n        totalPot+= sum;\n        \n        require(token.balanceOf(msg.sender) >= sum);\n        token.minusTokens(msg.sender,sum);\n        isBet[msg.sender] = true;\n        \n        if(sum >= threshold)\n        {\n         token.addTokens(msg.sender,dailyBonus);\n         emit LogDailyBonus(matchId,msg.sender);\n        }\n        emit LogBet(matchId,msg.sender,sum);\n    \n        return true;\n    }\n   \n    \n    //\n    // frontend convenience getters\n    //\n\n   \n    function getBetLength()\n        constant\n        returns (uint betLength)\n    {\n        return playerList.length;\n    }\n    \n    //\n    // Utility Functions\n    //\n    \n    function calculateWinLoss(uint256[5] options) onlyAdmin onlyHalted returns (bool ok){\n        require(!matchEnd);\n        require(!matchAbandon);\n        require(!calculateWinLost);\n        \n        uint k;\n        for(k=0;k<5;k++){\n            answers[k] = options[k];\n        }\n        uint j;\n        for(j=0;j<playerList.length;j++){\n            address playerAddress = playerList[j];\n            Bet storage myBet = bets[playerAddress];\n            uint i;\n            for(i=0;i<5;i++){\n                if(myBet.option[i] == options[i]){\n                    results[playerAddress].wonLost[i]=1;\n                    matchResult.amtQuestionWinBet[i] += myBet.weight[i];\n                    matchResult.totalWin++;\n                }\n            }\n            if ((myBet.option[4] >= (options[4]-10)) && (myBet.option[4] <= (options[4]+10)) && (myBet.option[4] != options[4])){\n            \n                results[playerAddress].wonLost[4]=2;\n                matchResult.amtQuestionWinBet[4] += myBet.weight[4];\n            }\n        }\n        calculateWinLost = true;\n        return true;\n    }\n    \n    function endMatch() onlyAdmin onlyHalted returns (bool ok){\n        require(calculateWinLost);\n        require(!matchAbandon);\n        uint j;\n        for(j=0;j<playerList.length;j++){\n            address playerAddress = playerList[j];\n            Bet storage myBet = bets[playerAddress];\n            uint profitTokens;\n            profitTokens = 0;\n            uint i;\n            for(i=0; i<5;i++)\n            {\n                if(results[playerAddress].wonLost[i] == 1){\n                    uint amt;\n                    uint bet = myBet.weight[i];\n                    amt = 0;\n                    amt = ((bet * multiplier[i]) / 10) + bet + ((bet * qPot[i])/ matchResult.amtQuestionWinBet[i]);\n                    profitTokens+=amt;\n                }\n                \n            }\n            if(results[playerAddress].wonLost[4] == 2){\n                    uint amt1;\n                    uint bet1 = myBet.weight[4];\n                    amt1 = 0;\n                    amt1 = ((bet1 * multiplier[5]) / 10) + bet1 + ((bet1 * qPot[4])/ matchResult.amtQuestionWinBet[4]);\n                    profitTokens+=amt1;\n                }\n            token.addTokens(playerAddress,profitTokens);\n        \n        }\n        matchEnd = true;\n    }   \n    \n    /*\n            uint i;\n            \n            for (i=0; i<playerList.length; i++){\n                address playerAddress = playerList[i];\n                uint profitTokens;\n                Bet storage myBet = bets[msg.sender];\n                \n                for(i=0; i<5;i++){\n                    if(myBet.option[i] == options[i])\n                    {\n                        uint amt;\n                        amt = myBet.weight[i] * multiplier[i];\n                        profitTokens+=amt;\n                        results[playerAddress].win[i]=amt;\n                        results[playerAddress].totalWin+=amt;\n                       // emit LogQuestionBetWin(matchId,i,playerAddress,amt,multiplier[i]);\n                    }\n                    else\n                    {\n                        uint amt1 = myBet.weight[i];\n                        results[playerAddress].loose[i]=amt1;\n                        results[playerAddress].totalLoose += amt1;\n                        //emit LogQuestionBetLoose(matchId,i,playerAddress,amt1);\n                    }\n                }\n                if ((myBet.option[4] >= (options[4]-10)) && (myBet.option[4] <= (options[4]+10)) && (myBet.option[4] != options[4])){\n                    uint amt2 = myBet.option[4] * multiplier[5];\n                    profitTokens+= amt2;\n                    results[playerAddress].win[4]+=amt2;\n                    results[playerAddress].totalWin+=amt2;\n                    results[playerAddress].loose[4]=0;\n                        results[playerAddress].totalLoose -= myBet.weight[4];\n                   //emit LogQuestionBetWin(matchId,5,playerAddress,amt2,multiplier[5]);\n                    \n                }\n            }\n                //token.addTokens(playerAddress,profitTokens);\n                if(results[playerAddress].totalWin > results[playerAddress].totalLoose){\n                    emit LogWin(matchId,playerAddress,results[playerAddress].totalWin,results[playerAddress].totalLoose,myBet.totalBet);\n                }\n                else{\n                    emit LogLoose(matchId,playerAddress,results[playerAddress].totalWin,results[playerAddress].totalLoose,myBet.totalBet);\n                }\n                \n                \n            }\n                   \n           return true;\n    }\n    */\n    function abandonMatch() onlyAdmin {\n          \n        uint j;\n        for(j=0;j<playerList.length;j++){\n            address playerAddress = playerList[j];\n            Bet storage myBet = bets[playerAddress];\n            token.addTokens(playerAddress,myBet.totalBet);\n        }\n        matchAbandon = true;\n    }\n    \n    function getPlayerLength() view returns (uint len){\n        return playerList.length;\n    }\n    \n    function getPlayerList() view returns(address[] playerList){\n        return playerList;\n    }\n    \n    function getPlayerBet(address _playerAddress) view returns(  uint256[5] weight, uint256[5] option,uint256 totalBet){\n        uint256[5] memory _weight;\n        uint[5] memory _option;\n        _weight = bets[_playerAddress].weight;\n        _option = bets[_playerAddress].option;\n        return (_weight, _option, bets[_playerAddress].totalBet);\n    }\n    \n    function getAnswers() view returns(uint256[5] _answers){\n        return answers;\n    }\n    function resetBet(address _who,address _bettor) onlyAdmin returns (bool ok){\n        uint i;\n        uint256 sum;\n        \n        sum = bets[_bettor].totalBet;\n        for(i=0;i<5;i++){\n            qPot[i] -= bets[_bettor].weight[i];\n        }\n        delete bets[_bettor];\n        totalPot -= sum ;\n        token.addTokens(msg.sender,sum);\n        \n        emit LogBetReset (matchId, _bettor, _who);\n        return true;\n        \n        \n    }\n    function haltSwitch(bool _isHalted)\n        onlyAdmin\n        returns (bool ok)\n    {\n        require(isHalted != _isHalted);\n        isHalted = _isHalted;\n        emit LogBetSwitch(matchId,msg.sender, _isHalted);\n        return true;\n    }\n    \n    \n\n    // due to our multi-admin setup, it's probably useful to be able to specify the recipient\n    // of the destroyed contract's funds.\n    function kill(address recipient)\n        onlyAdmin\n        onlyHalted\n        returns (bool ok)\n    {\n        selfdestruct(recipient);\n        return true;\n    }\n\n    function getMultipler() view returns(uint[6] mulx){\n        uint[6] memory mult;\n        mult = multiplier;\n        return mult;\n    }\n    \n\n    function setMultiplier(uint256[6] mul) returns(bool ok){\n        uint i;\n        for(i=0;i<6;i++){\n            multiplier[i] = mul[i];\n        }\n        return true;\n    }\n    \n    function setTokenAddress(address _tokenAddress) onlyAdmin returns(bool ok){\n        token = EIP20Interface(_tokenAddress);\n        return true;\n    }\n    //\n    // modifiers\n    //\n\n    modifier onlyAdmin {\n        IPredictionMarket mkt = IPredictionMarket(owner);\n        require(mkt.isAdmin(msg.sender));\n        _;\n    }\n    \n    modifier canBet {\n        require(bets[msg.sender].totalBet == 0);\n        _;\n    }\n\n   \n}",
  "sourcePath": "/Users/punyampatnaik/Code Arena/Apps/abc-app/contracts/IPLMatch.sol",
  "compiler": {
    "name": "solc",
    "version": "0.4.21+commit.dfe3193c.Emscripten.clang"
  },
  "schemaVersion": "2.0.0",
  "updatedAt": "2018-04-11T17:13:05.346Z"
}