{
  "contractName": "IPLMatch",
  "abi": [
    {
      "constant": true,
      "inputs": [
        {
          "name": "",
          "type": "uint256"
        }
      ],
      "name": "multiplier",
      "outputs": [
        {
          "name": "",
          "type": "uint256"
        }
      ],
      "payable": false,
      "stateMutability": "view",
      "type": "function"
    },
    {
      "constant": true,
      "inputs": [],
      "name": "register",
      "outputs": [
        {
          "name": "",
          "type": "address"
        }
      ],
      "payable": false,
      "stateMutability": "view",
      "type": "function"
    },
    {
      "constant": true,
      "inputs": [],
      "name": "totalPot",
      "outputs": [
        {
          "name": "",
          "type": "uint256"
        }
      ],
      "payable": false,
      "stateMutability": "view",
      "type": "function"
    },
    {
      "constant": true,
      "inputs": [
        {
          "name": "",
          "type": "uint256"
        }
      ],
      "name": "qPot",
      "outputs": [
        {
          "name": "",
          "type": "uint256"
        }
      ],
      "payable": false,
      "stateMutability": "view",
      "type": "function"
    },
    {
      "constant": true,
      "inputs": [],
      "name": "threshold",
      "outputs": [
        {
          "name": "",
          "type": "uint256"
        }
      ],
      "payable": false,
      "stateMutability": "view",
      "type": "function"
    },
    {
      "constant": true,
      "inputs": [],
      "name": "matchAbandon",
      "outputs": [
        {
          "name": "",
          "type": "bool"
        }
      ],
      "payable": false,
      "stateMutability": "view",
      "type": "function"
    },
    {
      "constant": true,
      "inputs": [],
      "name": "matchEnd",
      "outputs": [
        {
          "name": "",
          "type": "bool"
        }
      ],
      "payable": false,
      "stateMutability": "view",
      "type": "function"
    },
    {
      "constant": true,
      "inputs": [
        {
          "name": "",
          "type": "address"
        }
      ],
      "name": "bets",
      "outputs": [
        {
          "name": "totalBet",
          "type": "uint256"
        }
      ],
      "payable": false,
      "stateMutability": "view",
      "type": "function"
    },
    {
      "constant": true,
      "inputs": [],
      "name": "owner",
      "outputs": [
        {
          "name": "",
          "type": "address"
        }
      ],
      "payable": false,
      "stateMutability": "view",
      "type": "function"
    },
    {
      "constant": true,
      "inputs": [],
      "name": "matchId",
      "outputs": [
        {
          "name": "",
          "type": "uint256"
        }
      ],
      "payable": false,
      "stateMutability": "view",
      "type": "function"
    },
    {
      "constant": true,
      "inputs": [
        {
          "name": "",
          "type": "uint256"
        }
      ],
      "name": "playerList",
      "outputs": [
        {
          "name": "",
          "type": "address"
        }
      ],
      "payable": false,
      "stateMutability": "view",
      "type": "function"
    },
    {
      "constant": true,
      "inputs": [],
      "name": "isHalted",
      "outputs": [
        {
          "name": "",
          "type": "bool"
        }
      ],
      "payable": false,
      "stateMutability": "view",
      "type": "function"
    },
    {
      "constant": true,
      "inputs": [],
      "name": "dailyBonus",
      "outputs": [
        {
          "name": "",
          "type": "uint256"
        }
      ],
      "payable": false,
      "stateMutability": "view",
      "type": "function"
    },
    {
      "constant": true,
      "inputs": [],
      "name": "calculateWinLost",
      "outputs": [
        {
          "name": "",
          "type": "bool"
        }
      ],
      "payable": false,
      "stateMutability": "view",
      "type": "function"
    },
    {
      "constant": true,
      "inputs": [],
      "name": "matchResult",
      "outputs": [
        {
          "name": "totalWin",
          "type": "uint256"
        },
        {
          "name": "totalLoose",
          "type": "uint256"
        }
      ],
      "payable": false,
      "stateMutability": "view",
      "type": "function"
    },
    {
      "constant": true,
      "inputs": [
        {
          "name": "",
          "type": "address"
        }
      ],
      "name": "results",
      "outputs": [
        {
          "name": "totalWon",
          "type": "uint256"
        },
        {
          "name": "totalLost",
          "type": "uint256"
        }
      ],
      "payable": false,
      "stateMutability": "view",
      "type": "function"
    },
    {
      "constant": true,
      "inputs": [
        {
          "name": "",
          "type": "address"
        }
      ],
      "name": "isBet",
      "outputs": [
        {
          "name": "",
          "type": "bool"
        }
      ],
      "payable": false,
      "stateMutability": "view",
      "type": "function"
    },
    {
      "constant": true,
      "inputs": [],
      "name": "token",
      "outputs": [
        {
          "name": "",
          "type": "address"
        }
      ],
      "payable": false,
      "stateMutability": "view",
      "type": "function"
    },
    {
      "inputs": [
        {
          "name": "_id",
          "type": "uint256"
        },
        {
          "name": "_register",
          "type": "address"
        },
        {
          "name": "_dailyBonus",
          "type": "uint256"
        },
        {
          "name": "_threshold",
          "type": "uint256"
        },
        {
          "name": "_tokenAddress",
          "type": "address"
        }
      ],
      "payable": false,
      "stateMutability": "nonpayable",
      "type": "constructor"
    },
    {
      "anonymous": false,
      "inputs": [
        {
          "indexed": true,
          "name": "matchId",
          "type": "uint256"
        },
        {
          "indexed": true,
          "name": "bettor",
          "type": "address"
        },
        {
          "indexed": false,
          "name": "betAmount",
          "type": "uint256"
        }
      ],
      "name": "LogBet",
      "type": "event"
    },
    {
      "anonymous": false,
      "inputs": [
        {
          "indexed": true,
          "name": "matchId",
          "type": "uint256"
        },
        {
          "indexed": true,
          "name": "bettor",
          "type": "address"
        },
        {
          "indexed": false,
          "name": "adminAddress",
          "type": "address"
        }
      ],
      "name": "LogBetReset",
      "type": "event"
    },
    {
      "anonymous": false,
      "inputs": [
        {
          "indexed": true,
          "name": "matchId",
          "type": "uint256"
        },
        {
          "indexed": false,
          "name": "adminAddress",
          "type": "address"
        },
        {
          "indexed": false,
          "name": "isHalted",
          "type": "bool"
        }
      ],
      "name": "LogBetSwitch",
      "type": "event"
    },
    {
      "anonymous": false,
      "inputs": [
        {
          "indexed": true,
          "name": "matchId",
          "type": "uint256"
        },
        {
          "indexed": true,
          "name": "questionId",
          "type": "uint256"
        },
        {
          "indexed": false,
          "name": "playerAddress",
          "type": "address"
        },
        {
          "indexed": false,
          "name": "winningAmount",
          "type": "uint256"
        },
        {
          "indexed": false,
          "name": "multiplier",
          "type": "uint256"
        }
      ],
      "name": "LogQuestionBetWin",
      "type": "event"
    },
    {
      "anonymous": false,
      "inputs": [
        {
          "indexed": true,
          "name": "matchId",
          "type": "uint256"
        },
        {
          "indexed": true,
          "name": "questionId",
          "type": "uint256"
        },
        {
          "indexed": true,
          "name": "playerAddress",
          "type": "address"
        },
        {
          "indexed": false,
          "name": "loosingAmount",
          "type": "uint256"
        }
      ],
      "name": "LogQuestionBetLoose",
      "type": "event"
    },
    {
      "anonymous": false,
      "inputs": [
        {
          "indexed": true,
          "name": "matchId",
          "type": "uint256"
        },
        {
          "indexed": true,
          "name": "playerAddress",
          "type": "address"
        },
        {
          "indexed": false,
          "name": "winningAmount",
          "type": "uint256"
        },
        {
          "indexed": false,
          "name": "loosingAmount",
          "type": "uint256"
        },
        {
          "indexed": false,
          "name": "toalBet",
          "type": "uint256"
        }
      ],
      "name": "LogWin",
      "type": "event"
    },
    {
      "anonymous": false,
      "inputs": [
        {
          "indexed": true,
          "name": "matchId",
          "type": "uint256"
        },
        {
          "indexed": true,
          "name": "playerAddress",
          "type": "address"
        },
        {
          "indexed": false,
          "name": "winningAmount",
          "type": "uint256"
        },
        {
          "indexed": false,
          "name": "loosingAmount",
          "type": "uint256"
        },
        {
          "indexed": false,
          "name": "toalBet",
          "type": "uint256"
        }
      ],
      "name": "LogLoose",
      "type": "event"
    },
    {
      "anonymous": false,
      "inputs": [
        {
          "indexed": true,
          "name": "matchId",
          "type": "uint256"
        },
        {
          "indexed": true,
          "name": "playerAddress",
          "type": "address"
        }
      ],
      "name": "LogDailyBonus",
      "type": "event"
    },
    {
      "anonymous": false,
      "inputs": [
        {
          "indexed": false,
          "name": "who",
          "type": "address"
        },
        {
          "indexed": false,
          "name": "halted",
          "type": "bool"
        }
      ],
      "name": "LogHaltSwitch",
      "type": "event"
    },
    {
      "constant": false,
      "inputs": [
        {
          "name": "_weight",
          "type": "uint256[5]"
        },
        {
          "name": "_option",
          "type": "uint256[5]"
        }
      ],
      "name": "bet",
      "outputs": [
        {
          "name": "ok",
          "type": "bool"
        }
      ],
      "payable": true,
      "stateMutability": "payable",
      "type": "function"
    },
    {
      "constant": true,
      "inputs": [],
      "name": "getBetLength",
      "outputs": [
        {
          "name": "betLength",
          "type": "uint256"
        }
      ],
      "payable": false,
      "stateMutability": "view",
      "type": "function"
    },
    {
      "constant": false,
      "inputs": [
        {
          "name": "options",
          "type": "uint256[5]"
        }
      ],
      "name": "calculateWinLoss",
      "outputs": [
        {
          "name": "ok",
          "type": "bool"
        }
      ],
      "payable": false,
      "stateMutability": "nonpayable",
      "type": "function"
    },
    {
      "constant": false,
      "inputs": [],
      "name": "endMatch",
      "outputs": [
        {
          "name": "ok",
          "type": "bool"
        }
      ],
      "payable": false,
      "stateMutability": "nonpayable",
      "type": "function"
    },
    {
      "constant": false,
      "inputs": [],
      "name": "abandonMatch",
      "outputs": [],
      "payable": false,
      "stateMutability": "nonpayable",
      "type": "function"
    },
    {
      "constant": true,
      "inputs": [],
      "name": "getPlayerLength",
      "outputs": [
        {
          "name": "len",
          "type": "uint256"
        }
      ],
      "payable": false,
      "stateMutability": "view",
      "type": "function"
    },
    {
      "constant": false,
      "inputs": [
        {
          "name": "_who",
          "type": "address"
        },
        {
          "name": "_bettor",
          "type": "address"
        }
      ],
      "name": "resetBet",
      "outputs": [
        {
          "name": "ok",
          "type": "bool"
        }
      ],
      "payable": false,
      "stateMutability": "nonpayable",
      "type": "function"
    },
    {
      "constant": false,
      "inputs": [
        {
          "name": "_isHalted",
          "type": "bool"
        }
      ],
      "name": "haltSwitch",
      "outputs": [
        {
          "name": "ok",
          "type": "bool"
        }
      ],
      "payable": false,
      "stateMutability": "nonpayable",
      "type": "function"
    },
    {
      "constant": false,
      "inputs": [
        {
          "name": "recipient",
          "type": "address"
        }
      ],
      "name": "kill",
      "outputs": [
        {
          "name": "ok",
          "type": "bool"
        }
      ],
      "payable": false,
      "stateMutability": "nonpayable",
      "type": "function"
    },
    {
      "constant": true,
      "inputs": [],
      "name": "getMultipler",
      "outputs": [
        {
          "name": "mulx",
          "type": "uint256[6]"
        }
      ],
      "payable": false,
      "stateMutability": "view",
      "type": "function"
    },
    {
      "constant": false,
      "inputs": [
        {
          "name": "mul",
          "type": "uint256[6]"
        }
      ],
      "name": "setMultiplier",
      "outputs": [
        {
          "name": "ok",
          "type": "bool"
        }
      ],
      "payable": false,
      "stateMutability": "nonpayable",
      "type": "function"
    },
    {
      "constant": false,
      "inputs": [
        {
          "name": "_tokenAddress",
          "type": "address"
        }
      ],
      "name": "setTokenAddress",
      "outputs": [
        {
          "name": "ok",
          "type": "bool"
        }
      ],
      "payable": false,
      "stateMutability": "nonpayable",
      "type": "function"
    }
  ],
  "bytecode": "0x6060604052341561000f57600080fd5b60405160a0806124c48339810160405280805190602001909190805190602001909190805190602001909190805190602001909190805190602001909190505033600060016101000a81548173ffffffffffffffffffffffffffffffffffffffff021916908373ffffffffffffffffffffffffffffffffffffffff1602179055508460058190555083600260006101000a81548173ffffffffffffffffffffffffffffffffffffffff021916908373ffffffffffffffffffffffffffffffffffffffff16021790555080600160006101000a81548173ffffffffffffffffffffffffffffffffffffffff021916908373ffffffffffffffffffffffffffffffffffffffff160217905550826003819055508160048190555050505050506123898061013b6000396000f300606060405260043610610180576000357c0100000000000000000000000000000000000000000000000000000000900463ffffffff16806305e30f5114610185578063085e615e146101bc5780630d8053ca146101f9578063102dd66b146102225780631aa3a0081461029257806323abbf10146102e757806324b570a9146102fc57806326a4e8d214610325578063286051c11461037657806338330a7c146103ad5780633a5d9a301461042c57806342cde4e81461047d5780635903d60d146104a65780635e8306ca146104d35780636dddcf46146105315780637c645c211461055e57806389a78f1a146105875780638da5cb5b146105d457806399892e4714610629578063a5e1a62d14610652578063ae6d90731461067f578063c517e816146106e2578063c7ff158414610740578063ca6f1b971461076d578063cbf0b0c014610796578063db4f0def146107e7578063df7bf70414610814578063ef378f6214610844578063f4786c1214610898578063fc0c546a146108e9575b600080fd5b341561019057600080fd5b6101a6600480803590602001909190505061093e565b6040518082815260200191505060405180910390f35b34156101c757600080fd5b6101df60048080351515906020019091905050610958565b604051808215151515815260200191505060405180910390f35b341561020457600080fd5b61020c610af2565b6040518082815260200191505060405180910390f35b341561022d57600080fd5b610278600480803573ffffffffffffffffffffffffffffffffffffffff1690602001909190803573ffffffffffffffffffffffffffffffffffffffff16906020019091905050610aff565b604051808215151515815260200191505060405180910390f35b341561029d57600080fd5b6102a5610e94565b604051808273ffffffffffffffffffffffffffffffffffffffff1673ffffffffffffffffffffffffffffffffffffffff16815260200191505060405180910390f35b34156102f257600080fd5b6102fa610eba565b005b341561030757600080fd5b61030f610f9f565b6040518082815260200191505060405180910390f35b341561033057600080fd5b61035c600480803573ffffffffffffffffffffffffffffffffffffffff16906020019091905050610fa5565b604051808215151515815260200191505060405180910390f35b341561038157600080fd5b61039760048080359060200190919050506110d4565b6040518082815260200191505060405180910390f35b6104126004808060a001906005806020026040519081016040528092919082600560200280828437820191505050505091908060a0019060058060200260405190810160405280929190826005602002808284378201915050505050919050506110ee565b604051808215151515815260200191505060405180910390f35b341561043757600080fd5b61043f61175f565b6040518082600660200280838360005b8381101561046a57808201518184015260208101905061044f565b5050505090500191505060405180910390f35b341561048857600080fd5b6104906117b5565b6040518082815260200191505060405180910390f35b34156104b157600080fd5b6104b96117bb565b604051808215151515815260200191505060405180910390f35b34156104de57600080fd5b6105176004808060a0019060058060200260405190810160405280929190826005602002808284378201915050505050919050506117ce565b604051808215151515815260200191505060405180910390f35b341561053c57600080fd5b610544611ba4565b604051808215151515815260200191505060405180910390f35b341561056957600080fd5b610571611bb7565b6040518082815260200191505060405180910390f35b341561059257600080fd5b6105be600480803573ffffffffffffffffffffffffffffffffffffffff16906020019091905050611bc4565b6040518082815260200191505060405180910390f35b34156105df57600080fd5b6105e7611be2565b604051808273ffffffffffffffffffffffffffffffffffffffff1673ffffffffffffffffffffffffffffffffffffffff16815260200191505060405180910390f35b341561063457600080fd5b61063c611c08565b6040518082815260200191505060405180910390f35b341561065d57600080fd5b610665611c0e565b604051808215151515815260200191505060405180910390f35b341561068a57600080fd5b6106a06004808035906020019091905050612075565b604051808273ffffffffffffffffffffffffffffffffffffffff1673ffffffffffffffffffffffffffffffffffffffff16815260200191505060405180910390f35b34156106ed57600080fd5b6107266004808060c0019060068060200260405190810160405280929190826006602002808284378201915050505050919050506120b4565b604051808215151515815260200191505060405180910390f35b341561074b57600080fd5b610753612103565b604051808215151515815260200191505060405180910390f35b341561077857600080fd5b610780612115565b6040518082815260200191505060405180910390f35b34156107a157600080fd5b6107cd600480803573ffffffffffffffffffffffffffffffffffffffff1690602001909190505061211b565b604051808215151515815260200191505060405180910390f35b34156107f257600080fd5b6107fa612232565b604051808215151515815260200191505060405180910390f35b341561081f57600080fd5b610827612245565b604051808381526020018281526020019250505060405180910390f35b341561084f57600080fd5b61087b600480803573ffffffffffffffffffffffffffffffffffffffff16906020019091905050612257565b604051808381526020018281526020019250505060405180910390f35b34156108a357600080fd5b6108cf600480803573ffffffffffffffffffffffffffffffffffffffff1690602001909190505061227b565b604051808215151515815260200191505060405180910390f35b34156108f457600080fd5b6108fc61229b565b604051808273ffffffffffffffffffffffffffffffffffffffff1673ffffffffffffffffffffffffffffffffffffffff16815260200191505060405180910390f35b60068160068110151561094d57fe5b016000915090505481565b600080600060019054906101000a900473ffffffffffffffffffffffffffffffffffffffff1690508073ffffffffffffffffffffffffffffffffffffffff166324d7806c336040518263ffffffff167c0100000000000000000000000000000000000000000000000000000000028152600401808273ffffffffffffffffffffffffffffffffffffffff1673ffffffffffffffffffffffffffffffffffffffff168152602001915050602060405180830381600087803b1515610a1a57600080fd5b5af11515610a2757600080fd5b505050604051805190501515610a3c57600080fd5b8215156000809054906101000a900460ff16151514151515610a5d57600080fd5b826000806101000a81548160ff0219169083151502179055506005547f254518872c4cc0703b5cd922d710cffd6d4551803a00d0f9ed81c99751d29e543385604051808373ffffffffffffffffffffffffffffffffffffffff1673ffffffffffffffffffffffffffffffffffffffff168152602001821515151581526020019250505060405180910390a26001915050919050565b6000603080549050905090565b600080600080600060019054906101000a900473ffffffffffffffffffffffffffffffffffffffff1690508073ffffffffffffffffffffffffffffffffffffffff166324d7806c336040518263ffffffff167c0100000000000000000000000000000000000000000000000000000000028152600401808273ffffffffffffffffffffffffffffffffffffffff1673ffffffffffffffffffffffffffffffffffffffff168152602001915050602060405180830381600087803b1515610bc457600080fd5b5af11515610bd157600080fd5b505050604051805190501515610be657600080fd5b602e60008673ffffffffffffffffffffffffffffffffffffffff1673ffffffffffffffffffffffffffffffffffffffff168152602001908152602001600020600a01549150600092505b6005831015610cb457602e60008673ffffffffffffffffffffffffffffffffffffffff1673ffffffffffffffffffffffffffffffffffffffff16815260200190815260200160002060000183600581101515610c8857fe5b0154602784600581101515610c9957fe5b01600082825403925050819055508280600101935050610c30565b602e60008673ffffffffffffffffffffffffffffffffffffffff1673ffffffffffffffffffffffffffffffffffffffff16815260200190815260200160002060008082016000610d0491906122c1565b600582016000610d1491906122c1565b600a820160009055505081602c60008282540392505081905550600160009054906101000a900473ffffffffffffffffffffffffffffffffffffffff1673ffffffffffffffffffffffffffffffffffffffff16636039fbdb33846040518363ffffffff167c0100000000000000000000000000000000000000000000000000000000028152600401808373ffffffffffffffffffffffffffffffffffffffff1673ffffffffffffffffffffffffffffffffffffffff16815260200182815260200192505050602060405180830381600087803b1515610df257600080fd5b5af11515610dff57600080fd5b50505060405180519050508473ffffffffffffffffffffffffffffffffffffffff166005547fc5d526ff4c62cd704d82ca8358af8e37305b99fc4a1ce2420592633397d0afa388604051808273ffffffffffffffffffffffffffffffffffffffff1673ffffffffffffffffffffffffffffffffffffffff16815260200191505060405180910390a36001935050505092915050565b600260009054906101000a900473ffffffffffffffffffffffffffffffffffffffff1681565b60008060019054906101000a900473ffffffffffffffffffffffffffffffffffffffff1690508073ffffffffffffffffffffffffffffffffffffffff166324d7806c336040518263ffffffff167c0100000000000000000000000000000000000000000000000000000000028152600401808273ffffffffffffffffffffffffffffffffffffffff1673ffffffffffffffffffffffffffffffffffffffff168152602001915050602060405180830381600087803b1515610f7a57600080fd5b5af11515610f8757600080fd5b505050604051805190501515610f9c57600080fd5b50565b602c5481565b600080600060019054906101000a900473ffffffffffffffffffffffffffffffffffffffff1690508073ffffffffffffffffffffffffffffffffffffffff166324d7806c336040518263ffffffff167c0100000000000000000000000000000000000000000000000000000000028152600401808273ffffffffffffffffffffffffffffffffffffffff1673ffffffffffffffffffffffffffffffffffffffff168152602001915050602060405180830381600087803b151561106757600080fd5b5af1151561107457600080fd5b50505060405180519050151561108957600080fd5b82600160006101000a81548173ffffffffffffffffffffffffffffffffffffffff021916908373ffffffffffffffffffffffffffffffffffffffff1602179055506001915050919050565b6027816005811015156110e357fe5b016000915090505481565b60008060008060009054906101000a900460ff1615151561110e57600080fd5b6000602e60003373ffffffffffffffffffffffffffffffffffffffff1673ffffffffffffffffffffffffffffffffffffffff168152602001908152602001600020600a015414151561115f57600080fd5b603160009054906101000a900460ff1615151561117b57600080fd5b602d60003373ffffffffffffffffffffffffffffffffffffffff1673ffffffffffffffffffffffffffffffffffffffff16815260200190815260200160002060009054906101000a900460ff16151561123257603080548060010182816111e291906122e4565b9160005260206000209001600033909190916101000a81548173ffffffffffffffffffffffffffffffffffffffff021916908373ffffffffffffffffffffffffffffffffffffffff160217905550505b60009150600090505b600581101561136657848160058110151561125257fe5b6020020151602e60003373ffffffffffffffffffffffffffffffffffffffff1673ffffffffffffffffffffffffffffffffffffffff168152602001908152602001600020600001826005811015156112a657fe5b018190555084816005811015156112b957fe5b60200201516027826005811015156112cd57fe5b016000828254019250508190555083816005811015156112e957fe5b6020020151602e60003373ffffffffffffffffffffffffffffffffffffffff1673ffffffffffffffffffffffffffffffffffffffff1681526020019081526020016000206005018260058110151561133d57fe5b0181905550848160058110151561135057fe5b602002015182019150808060010191505061123b565b81602e60003373ffffffffffffffffffffffffffffffffffffffff1673ffffffffffffffffffffffffffffffffffffffff168152602001908152602001600020600a018190555081602c6000828254019250508190555081600160009054906101000a900473ffffffffffffffffffffffffffffffffffffffff1673ffffffffffffffffffffffffffffffffffffffff166370a08231336040518263ffffffff167c0100000000000000000000000000000000000000000000000000000000028152600401808273ffffffffffffffffffffffffffffffffffffffff1673ffffffffffffffffffffffffffffffffffffffff168152602001915050602060405180830381600087803b151561147a57600080fd5b5af1151561148757600080fd5b505050604051805190501015151561149e57600080fd5b600160009054906101000a900473ffffffffffffffffffffffffffffffffffffffff1673ffffffffffffffffffffffffffffffffffffffff16635851a7fe33846040518363ffffffff167c0100000000000000000000000000000000000000000000000000000000028152600401808373ffffffffffffffffffffffffffffffffffffffff1673ffffffffffffffffffffffffffffffffffffffff16815260200182815260200192505050602060405180830381600087803b151561156257600080fd5b5af1151561156f57600080fd5b50505060405180519050506001602d60003373ffffffffffffffffffffffffffffffffffffffff1673ffffffffffffffffffffffffffffffffffffffff16815260200190815260200160002060006101000a81548160ff0219169083151502179055506004548210151561170257600160009054906101000a900473ffffffffffffffffffffffffffffffffffffffff1673ffffffffffffffffffffffffffffffffffffffff16636039fbdb336003546040518363ffffffff167c0100000000000000000000000000000000000000000000000000000000028152600401808373ffffffffffffffffffffffffffffffffffffffff1673ffffffffffffffffffffffffffffffffffffffff16815260200182815260200192505050602060405180830381600087803b15156116a357600080fd5b5af115156116b057600080fd5b50505060405180519050503373ffffffffffffffffffffffffffffffffffffffff166005547f71fa040dbe511ab6c57a43ca3fbeb249e32256d7755110f0ba88c9c92056db7c60405160405180910390a35b3373ffffffffffffffffffffffffffffffffffffffff166005547f865cdc8d1bf8b43c96548347220fc458c21f36cda4b5c2ff7646c5f88b78aac6846040518082815260200191505060405180910390a360019250505092915050565b611767612310565b61176f612310565b600680806020026040519081016040528092919082600680156117a7576020028201915b815481526020019060010190808311611793575b505050505090508091505090565b60045481565b603160009054906101000a900460ff1681565b600080600080600080600060019054906101000a900473ffffffffffffffffffffffffffffffffffffffff1690508073ffffffffffffffffffffffffffffffffffffffff166324d7806c336040518263ffffffff167c0100000000000000000000000000000000000000000000000000000000028152600401808273ffffffffffffffffffffffffffffffffffffffff1673ffffffffffffffffffffffffffffffffffffffff168152602001915050602060405180830381600087803b151561189657600080fd5b5af115156118a357600080fd5b5050506040518051905015156118b857600080fd5b6000809054906101000a900460ff1615156118d257600080fd5b600094505b603080549050851015611b7b576030858154811015156118f357fe5b906000526020600020900160009054906101000a900473ffffffffffffffffffffffffffffffffffffffff169350602e60008573ffffffffffffffffffffffffffffffffffffffff1673ffffffffffffffffffffffffffffffffffffffff1681526020019081526020016000209250600091505b6005821015611a4857868260058110151561197e57fe5b6020020151836005018360058110151561199457fe5b01541415611a3b576001602f60008673ffffffffffffffffffffffffffffffffffffffff1673ffffffffffffffffffffffffffffffffffffffff168152602001908152602001600020600001836005811015156119ed57fe5b01819055508260000182600581101515611a0357fe5b0154600c60140183600581101515611a1757fe5b0160008282540192505081905550600c601901600081548092919060010191905055505b8180600101925050611967565b600a876004600581101515611a5957fe5b602002015103836005016004600581101515611a7157fe5b015410158015611aaa5750600a876004600581101515611a8d57fe5b602002015101836005016004600581101515611aa557fe5b015411155b8015611adc5750866004600581101515611ac057fe5b6020020151836005016004600581101515611ad757fe5b015414155b15611b6e576002602f60008673ffffffffffffffffffffffffffffffffffffffff1673ffffffffffffffffffffffffffffffffffffffff1681526020019081526020016000206000016004600581101515611b3357fe5b0181905550826000016004600581101515611b4a57fe5b0154600c6014016004600581101515611b5f57fe5b01600082825401925050819055505b84806001019550506118d7565b6001603160026101000a81548160ff021916908315150217905550600195505050505050919050565b603160019054906101000a900460ff1681565b6000603080549050905090565b602e60205280600052604060002060009150905080600a0154905081565b600060019054906101000a900473ffffffffffffffffffffffffffffffffffffffff1681565b60055481565b60008060008060008060008060008060008060019054906101000a900473ffffffffffffffffffffffffffffffffffffffff1690508073ffffffffffffffffffffffffffffffffffffffff166324d7806c336040518263ffffffff167c0100000000000000000000000000000000000000000000000000000000028152600401808273ffffffffffffffffffffffffffffffffffffffff1673ffffffffffffffffffffffffffffffffffffffff168152602001915050602060405180830381600087803b1515611cdd57600080fd5b5af11515611cea57600080fd5b505050604051805190501515611cff57600080fd5b6000809054906101000a900460ff161515611d1957600080fd5b603160029054906101000a900460ff161515611d3457600080fd5b600099505b6030805490508a10156120685760308a815481101515611d5557fe5b906000526020600020900160009054906101000a900473ffffffffffffffffffffffffffffffffffffffff169850602e60008a73ffffffffffffffffffffffffffffffffffffffff1673ffffffffffffffffffffffffffffffffffffffff168152602001908152602001600020975060009650600095505b6005861015611eb0576001602f60008b73ffffffffffffffffffffffffffffffffffffffff1673ffffffffffffffffffffffffffffffffffffffff16815260200190815260200160002060000187600581101515611e2757fe5b01541415611ea3578760000186600581101515611e4057fe5b0154935060009450602786600581101515611e5757fe5b0154600c60140187600581101515611e6b57fe5b015485811515611e7757fe5b040284600a600689600681101515611e8b57fe5b01548702811515611e9857fe5b040101945084870196505b8580600101965050611dcd565b6002602f60008b73ffffffffffffffffffffffffffffffffffffffff1673ffffffffffffffffffffffffffffffffffffffff1681526020019081526020016000206000016004600581101515611f0257fe5b01541415611f7f578760000186600581101515611f1b57fe5b0154915060009250602786600581101515611f3257fe5b0154600c60140187600581101515611f4657fe5b015483811515611f5257fe5b040282600a60066005600681101515611f6757fe5b01548502811515611f7457fe5b040101925082870196505b600160009054906101000a900473ffffffffffffffffffffffffffffffffffffffff1673ffffffffffffffffffffffffffffffffffffffff16636039fbdb8a896040518363ffffffff167c0100000000000000000000000000000000000000000000000000000000028152600401808373ffffffffffffffffffffffffffffffffffffffff1673ffffffffffffffffffffffffffffffffffffffff16815260200182815260200192505050602060405180830381600087803b151561204357600080fd5b5af1151561205057600080fd5b505050604051805190505089806001019a5050611d39565b5050505050505050505090565b60308181548110151561208457fe5b90600052602060002090016000915054906101000a900473ffffffffffffffffffffffffffffffffffffffff1681565b600080600090505b60068110156120f95782816006811015156120d357fe5b60200201516006826006811015156120e757fe5b018190555080806001019150506120bc565b6001915050919050565b6000809054906101000a900460ff1681565b60035481565b600080600060019054906101000a900473ffffffffffffffffffffffffffffffffffffffff1690508073ffffffffffffffffffffffffffffffffffffffff166324d7806c336040518263ffffffff167c0100000000000000000000000000000000000000000000000000000000028152600401808273ffffffffffffffffffffffffffffffffffffffff1673ffffffffffffffffffffffffffffffffffffffff168152602001915050602060405180830381600087803b15156121dd57600080fd5b5af115156121ea57600080fd5b5050506040518051905015156121ff57600080fd5b6000809054906101000a900460ff16151561221957600080fd5b8273ffffffffffffffffffffffffffffffffffffffff16ff5b603160029054906101000a900460ff1681565b600c80601901549080601a0154905082565b602f60205280600052604060002060009150905080600f0154908060100154905082565b602d6020528060005260406000206000915054906101000a900460ff1681565b600160009054906101000a900473ffffffffffffffffffffffffffffffffffffffff1681565b506000815560010160008155600101600081556001016000815560010160009055565b81548183558181151161230b5781836000526020600020918201910161230a9190612338565b5b505050565b60c0604051908101604052806006905b60008152602001906001900390816123205790505090565b61235a91905b8082111561235657600081600090555060010161233e565b5090565b905600a165627a7a7230582057a6f04d19754f1fdec6d4895a6fab584fcac290971fc2058f2c43df1f7106c40029",
  "source": "pragma solidity ^0.4.15;\n\nimport './Interfaces.sol';\nimport './Ownable.sol';\nimport './Haltable.sol';\nimport './EIP20Interface.sol';\nimport './RegistrationInterface.sol';\n\n\ncontract IPLMatch is Haltable, Ownable\n{\n    //using SafeMath for uint;\n\n    EIP20Interface public token;\n    RegistrationInterface public register;\n    \n    uint256 public dailyBonus;\n    uint256 public threshold;\n    \n    uint public matchId;\n    uint256[6] public multiplier;\n\n    struct Bet {\n       uint256[5] weight;\n       uint256[5] option;\n       uint256 totalBet;\n    }\n    \n    struct Result {\n        uint[5] wonLost;\n        uint256[5] amtWon;\n        uint256[5] amtLost;\n        uint256 totalWon;\n        uint256 totalLost;\n        \n    }\n    \n    struct MatchResult{\n        uint256[5] numquestionWon;\n        uint256[5] numquestionLost;\n        uint256[5] amtQuestionWins;\n        uint256[5] amtQuestionLost;\n        uint256[5] amtQuestionWinBet;\n        uint256 totalWin;\n        uint256 totalLoose;\n        \n        \n    }\n    \n    MatchResult public matchResult;\n\n    uint256[5] public qPot;\n    uint256 public totalPot;\n    mapping(address => bool) public isBet;\n    mapping(address => Bet) public bets;\n    mapping(address => Result) public results;\n    \n    address[] public playerList;\n   \n    \n    bool public matchAbandon;\n    bool public matchEnd;\n    bool public calculateWinLost;\n    \n    event LogBet(uint indexed matchId,address indexed bettor, uint256 betAmount);\n    event LogBetReset(uint indexed matchId, address indexed bettor, address adminAddress);\n    event LogBetSwitch(uint indexed matchId, address adminAddress, bool isHalted);\n    event LogQuestionBetWin(uint indexed matchId,uint indexed questionId,address playerAddress,uint256 winningAmount,uint256 multiplier);\n    event LogQuestionBetLoose(uint indexed matchId,uint indexed questionId,address indexed playerAddress,uint256 loosingAmount);\n    event LogWin(uint indexed matchId,address indexed playerAddress,uint256 winningAmount,uint256 loosingAmount,uint256 toalBet);\n    event LogLoose(uint indexed matchId,address indexed playerAddress,uint256 winningAmount,uint256 loosingAmount,uint256 toalBet);\n    event LogDailyBonus(uint indexed matchId,address indexed playerAddress);\n    \n    function IPLMatch(uint _id, address _register, uint256 _dailyBonus, uint256 _threshold,address _tokenAddress){\n        matchId = _id;\n        register = RegistrationInterface(_register);\n        token =  EIP20Interface (_tokenAddress);\n        dailyBonus=_dailyBonus;\n        threshold=_threshold;\n        \n        \n    }\n\n    function bet(uint[5] _weight, uint[5] _option)\n        payable\n        onlyNotHalted\n        canBet\n        returns (bool ok)\n    {\n        require (!matchAbandon);\n        \n        if(!isBet[msg.sender]){\n            playerList.push(msg.sender);\n        }\n        \n        uint256 sum = 0;\n        uint i;\n        for(i=0;i<5;i++){\n            bets[msg.sender].weight[i] = _weight[i];\n            qPot[i] += _weight[i];\n            bets[msg.sender].option[i] = _option[i];\n            sum += _weight[i];\n        }\n        bets[msg.sender].totalBet = sum;\n        totalPot+= sum;\n        \n        require(token.balanceOf(msg.sender) >= sum);\n        token.minusTokens(msg.sender,sum);\n        isBet[msg.sender] = true;\n        \n        if(sum >= threshold)\n        {\n         token.addTokens(msg.sender,dailyBonus);\n         emit LogDailyBonus(matchId,msg.sender);\n        }\n        emit LogBet(matchId,msg.sender,sum);\n    \n        return true;\n    }\n   \n    \n    //\n    // frontend convenience getters\n    //\n\n   \n    function getBetLength()\n        constant\n        returns (uint betLength)\n    {\n        return playerList.length;\n    }\n    \n    //\n    // Utility Functions\n    //\n    \n    function calculateWinLoss(uint256[5] options) onlyAdmin onlyHalted returns (bool ok){\n        \n        uint j;\n        for(j=0;j<playerList.length;j++){\n            address playerAddress = playerList[j];\n            Bet storage myBet = bets[playerAddress];\n            uint i;\n            for(i=0;i<5;i++){\n                if(myBet.option[i] == options[i]){\n                    results[playerAddress].wonLost[i]=1;\n                    matchResult.amtQuestionWinBet[i] += myBet.weight[i];\n                    matchResult.totalWin++;\n                }\n            }\n            if ((myBet.option[4] >= (options[4]-10)) && (myBet.option[4] <= (options[4]+10)) && (myBet.option[4] != options[4])){\n            \n                results[playerAddress].wonLost[4]=2;\n                matchResult.amtQuestionWinBet[4] += myBet.weight[4];\n            }\n        }\n        calculateWinLost = true;\n        return true;\n    }\n    \n    function endMatch() onlyAdmin onlyHalted returns (bool ok){\n        require(calculateWinLost);\n        uint j;\n        for(j=0;j<playerList.length;j++){\n            address playerAddress = playerList[j];\n            Bet storage myBet = bets[playerAddress];\n            uint profitTokens;\n            profitTokens = 0;\n            uint i;\n            for(i=0; i<5;i++)\n            {\n                if(results[playerAddress].wonLost[i] == 1){\n                    uint amt;\n                    uint bet = myBet.weight[i];\n                    amt = 0;\n                    amt = (bet * multiplier[i] / 10) + bet + ((bet / matchResult.amtQuestionWinBet[i]) * qPot[i]);\n                    profitTokens+=amt;\n                }\n                \n            }\n            if(results[playerAddress].wonLost[4] == 2){\n                    uint amt1;\n                    uint bet1 = myBet.weight[i];\n                    amt1 = 0;\n                    amt1 = (bet1 * multiplier[5] / 10) + bet1 + ((bet1 / matchResult.amtQuestionWinBet[i]) * qPot[i]);\n                    profitTokens+=amt1;\n                }\n            token.addTokens(playerAddress,profitTokens);\n        \n        }\n    }   \n    \n    /*\n            uint i;\n            \n            for (i=0; i<playerList.length; i++){\n                address playerAddress = playerList[i];\n                uint profitTokens;\n                Bet storage myBet = bets[msg.sender];\n                \n                for(i=0; i<5;i++){\n                    if(myBet.option[i] == options[i])\n                    {\n                        uint amt;\n                        amt = myBet.weight[i] * multiplier[i];\n                        profitTokens+=amt;\n                        results[playerAddress].win[i]=amt;\n                        results[playerAddress].totalWin+=amt;\n                       // emit LogQuestionBetWin(matchId,i,playerAddress,amt,multiplier[i]);\n                    }\n                    else\n                    {\n                        uint amt1 = myBet.weight[i];\n                        results[playerAddress].loose[i]=amt1;\n                        results[playerAddress].totalLoose += amt1;\n                        //emit LogQuestionBetLoose(matchId,i,playerAddress,amt1);\n                    }\n                }\n                if ((myBet.option[4] >= (options[4]-10)) && (myBet.option[4] <= (options[4]+10)) && (myBet.option[4] != options[4])){\n                    uint amt2 = myBet.option[4] * multiplier[5];\n                    profitTokens+= amt2;\n                    results[playerAddress].win[4]+=amt2;\n                    results[playerAddress].totalWin+=amt2;\n                    results[playerAddress].loose[4]=0;\n                        results[playerAddress].totalLoose -= myBet.weight[4];\n                   //emit LogQuestionBetWin(matchId,5,playerAddress,amt2,multiplier[5]);\n                    \n                }\n            }\n                //token.addTokens(playerAddress,profitTokens);\n                if(results[playerAddress].totalWin > results[playerAddress].totalLoose){\n                    emit LogWin(matchId,playerAddress,results[playerAddress].totalWin,results[playerAddress].totalLoose,myBet.totalBet);\n                }\n                else{\n                    emit LogLoose(matchId,playerAddress,results[playerAddress].totalWin,results[playerAddress].totalLoose,myBet.totalBet);\n                }\n                \n                \n            }\n                   \n           return true;\n    }\n    */\n    function abandonMatch() onlyAdmin {\n        \n    }\n    \n    function getPlayerLength() view returns (uint len){\n        return playerList.length;\n    }\n    function resetBet(address _who,address _bettor) onlyAdmin returns (bool ok){\n        uint i;\n        uint256 sum;\n        \n        sum = bets[_bettor].totalBet;\n        for(i=0;i<5;i++){\n            qPot[i] -= bets[_bettor].weight[i];\n        }\n        delete bets[_bettor];\n        totalPot -= sum ;\n        token.addTokens(msg.sender,sum);\n        \n        emit LogBetReset (matchId, _bettor, _who);\n        return true;\n        \n        \n    }\n    function haltSwitch(bool _isHalted)\n        onlyAdmin\n        returns (bool ok)\n    {\n        require(isHalted != _isHalted);\n        isHalted = _isHalted;\n        emit LogBetSwitch(matchId,msg.sender, _isHalted);\n        return true;\n    }\n    \n    \n\n    // due to our multi-admin setup, it's probably useful to be able to specify the recipient\n    // of the destroyed contract's funds.\n    function kill(address recipient)\n        onlyAdmin\n        onlyHalted\n        returns (bool ok)\n    {\n        selfdestruct(recipient);\n        return true;\n    }\n\n    function getMultipler() view returns(uint[6] mulx){\n        uint[6] memory mult;\n        mult = multiplier;\n        return mult;\n    }\n    \n\n    function setMultiplier(uint256[6] mul) returns(bool ok){\n        uint i;\n        for(i=0;i<6;i++){\n            multiplier[i] = mul[i];\n        }\n        return true;\n    }\n    \n    function setTokenAddress(address _tokenAddress) onlyAdmin returns(bool ok){\n        token = EIP20Interface(_tokenAddress);\n        return true;\n    }\n    //\n    // modifiers\n    //\n\n    modifier onlyAdmin {\n        IPredictionMarket mkt = IPredictionMarket(owner);\n        require(mkt.isAdmin(msg.sender));\n        _;\n    }\n    \n    modifier canBet {\n        require(bets[msg.sender].totalBet == 0);\n        _;\n    }\n\n   \n}",
  "sourcePath": "/Users/punyampatnaik/Code Arena/Apps/abc-app/contracts/IPLMatch.sol",
  "compiler": {
    "name": "solc",
    "version": "0.4.21+commit.dfe3193c.Emscripten.clang"
  },
  "schemaVersion": "2.0.0",
  "updatedAt": "2018-04-06T15:52:11.862Z"
}