{
  "contractName": "IPLMatch",
  "abi": [
    {
      "constant": true,
      "inputs": [
        {
          "name": "",
          "type": "uint256"
        }
      ],
      "name": "multiplier",
      "outputs": [
        {
          "name": "",
          "type": "uint256"
        }
      ],
      "payable": false,
      "stateMutability": "view",
      "type": "function"
    },
    {
      "constant": true,
      "inputs": [
        {
          "name": "",
          "type": "uint256"
        }
      ],
      "name": "answers",
      "outputs": [
        {
          "name": "",
          "type": "uint256"
        }
      ],
      "payable": false,
      "stateMutability": "view",
      "type": "function"
    },
    {
      "constant": true,
      "inputs": [],
      "name": "register",
      "outputs": [
        {
          "name": "",
          "type": "address"
        }
      ],
      "payable": false,
      "stateMutability": "view",
      "type": "function"
    },
    {
      "constant": true,
      "inputs": [],
      "name": "totalPot",
      "outputs": [
        {
          "name": "",
          "type": "uint256"
        }
      ],
      "payable": false,
      "stateMutability": "view",
      "type": "function"
    },
    {
      "constant": true,
      "inputs": [
        {
          "name": "",
          "type": "uint256"
        }
      ],
      "name": "qPot",
      "outputs": [
        {
          "name": "",
          "type": "uint256"
        }
      ],
      "payable": false,
      "stateMutability": "view",
      "type": "function"
    },
    {
      "constant": true,
      "inputs": [],
      "name": "threshold",
      "outputs": [
        {
          "name": "",
          "type": "uint256"
        }
      ],
      "payable": false,
      "stateMutability": "view",
      "type": "function"
    },
    {
      "constant": true,
      "inputs": [],
      "name": "matchAbandon",
      "outputs": [
        {
          "name": "",
          "type": "bool"
        }
      ],
      "payable": false,
      "stateMutability": "view",
      "type": "function"
    },
    {
      "constant": true,
      "inputs": [],
      "name": "matchEnd",
      "outputs": [
        {
          "name": "",
          "type": "bool"
        }
      ],
      "payable": false,
      "stateMutability": "view",
      "type": "function"
    },
    {
      "constant": true,
      "inputs": [
        {
          "name": "",
          "type": "address"
        }
      ],
      "name": "bets",
      "outputs": [
        {
          "name": "totalBet",
          "type": "uint256"
        }
      ],
      "payable": false,
      "stateMutability": "view",
      "type": "function"
    },
    {
      "constant": true,
      "inputs": [],
      "name": "owner",
      "outputs": [
        {
          "name": "",
          "type": "address"
        }
      ],
      "payable": false,
      "stateMutability": "view",
      "type": "function"
    },
    {
      "constant": true,
      "inputs": [],
      "name": "matchId",
      "outputs": [
        {
          "name": "",
          "type": "uint256"
        }
      ],
      "payable": false,
      "stateMutability": "view",
      "type": "function"
    },
    {
      "constant": true,
      "inputs": [
        {
          "name": "",
          "type": "uint256"
        }
      ],
      "name": "playerList",
      "outputs": [
        {
          "name": "",
          "type": "address"
        }
      ],
      "payable": false,
      "stateMutability": "view",
      "type": "function"
    },
    {
      "constant": true,
      "inputs": [],
      "name": "isHalted",
      "outputs": [
        {
          "name": "",
          "type": "bool"
        }
      ],
      "payable": false,
      "stateMutability": "view",
      "type": "function"
    },
    {
      "constant": true,
      "inputs": [],
      "name": "dailyBonus",
      "outputs": [
        {
          "name": "",
          "type": "uint256"
        }
      ],
      "payable": false,
      "stateMutability": "view",
      "type": "function"
    },
    {
      "constant": true,
      "inputs": [],
      "name": "calculateWinLost",
      "outputs": [
        {
          "name": "",
          "type": "bool"
        }
      ],
      "payable": false,
      "stateMutability": "view",
      "type": "function"
    },
    {
      "constant": true,
      "inputs": [],
      "name": "matchResult",
      "outputs": [
        {
          "name": "totalWin",
          "type": "uint256"
        },
        {
          "name": "totalLoose",
          "type": "uint256"
        }
      ],
      "payable": false,
      "stateMutability": "view",
      "type": "function"
    },
    {
      "constant": true,
      "inputs": [
        {
          "name": "",
          "type": "address"
        }
      ],
      "name": "results",
      "outputs": [
        {
          "name": "totalWon",
          "type": "uint256"
        },
        {
          "name": "totalLost",
          "type": "uint256"
        }
      ],
      "payable": false,
      "stateMutability": "view",
      "type": "function"
    },
    {
      "constant": true,
      "inputs": [
        {
          "name": "",
          "type": "address"
        }
      ],
      "name": "isBet",
      "outputs": [
        {
          "name": "",
          "type": "bool"
        }
      ],
      "payable": false,
      "stateMutability": "view",
      "type": "function"
    },
    {
      "constant": true,
      "inputs": [],
      "name": "token",
      "outputs": [
        {
          "name": "",
          "type": "address"
        }
      ],
      "payable": false,
      "stateMutability": "view",
      "type": "function"
    },
    {
      "inputs": [
        {
          "name": "_id",
          "type": "uint256"
        },
        {
          "name": "_register",
          "type": "address"
        },
        {
          "name": "_dailyBonus",
          "type": "uint256"
        },
        {
          "name": "_threshold",
          "type": "uint256"
        },
        {
          "name": "_tokenAddress",
          "type": "address"
        }
      ],
      "payable": false,
      "stateMutability": "nonpayable",
      "type": "constructor"
    },
    {
      "anonymous": false,
      "inputs": [
        {
          "indexed": true,
          "name": "matchId",
          "type": "uint256"
        },
        {
          "indexed": true,
          "name": "bettor",
          "type": "address"
        },
        {
          "indexed": false,
          "name": "betAmount",
          "type": "uint256"
        }
      ],
      "name": "LogBet",
      "type": "event"
    },
    {
      "anonymous": false,
      "inputs": [
        {
          "indexed": true,
          "name": "matchId",
          "type": "uint256"
        },
        {
          "indexed": true,
          "name": "bettor",
          "type": "address"
        },
        {
          "indexed": false,
          "name": "adminAddress",
          "type": "address"
        }
      ],
      "name": "LogBetReset",
      "type": "event"
    },
    {
      "anonymous": false,
      "inputs": [
        {
          "indexed": true,
          "name": "matchId",
          "type": "uint256"
        },
        {
          "indexed": false,
          "name": "adminAddress",
          "type": "address"
        },
        {
          "indexed": false,
          "name": "isHalted",
          "type": "bool"
        }
      ],
      "name": "LogBetSwitch",
      "type": "event"
    },
    {
      "anonymous": false,
      "inputs": [
        {
          "indexed": true,
          "name": "matchId",
          "type": "uint256"
        },
        {
          "indexed": true,
          "name": "questionId",
          "type": "uint256"
        },
        {
          "indexed": false,
          "name": "playerAddress",
          "type": "address"
        },
        {
          "indexed": false,
          "name": "winningAmount",
          "type": "uint256"
        },
        {
          "indexed": false,
          "name": "multiplier",
          "type": "uint256"
        }
      ],
      "name": "LogQuestionBetWin",
      "type": "event"
    },
    {
      "anonymous": false,
      "inputs": [
        {
          "indexed": true,
          "name": "matchId",
          "type": "uint256"
        },
        {
          "indexed": true,
          "name": "questionId",
          "type": "uint256"
        },
        {
          "indexed": true,
          "name": "playerAddress",
          "type": "address"
        },
        {
          "indexed": false,
          "name": "loosingAmount",
          "type": "uint256"
        }
      ],
      "name": "LogQuestionBetLoose",
      "type": "event"
    },
    {
      "anonymous": false,
      "inputs": [
        {
          "indexed": true,
          "name": "matchId",
          "type": "uint256"
        },
        {
          "indexed": true,
          "name": "playerAddress",
          "type": "address"
        },
        {
          "indexed": false,
          "name": "winningAmount",
          "type": "uint256"
        },
        {
          "indexed": false,
          "name": "loosingAmount",
          "type": "uint256"
        },
        {
          "indexed": false,
          "name": "toalBet",
          "type": "uint256"
        }
      ],
      "name": "LogWin",
      "type": "event"
    },
    {
      "anonymous": false,
      "inputs": [
        {
          "indexed": true,
          "name": "matchId",
          "type": "uint256"
        },
        {
          "indexed": true,
          "name": "playerAddress",
          "type": "address"
        },
        {
          "indexed": false,
          "name": "winningAmount",
          "type": "uint256"
        },
        {
          "indexed": false,
          "name": "loosingAmount",
          "type": "uint256"
        },
        {
          "indexed": false,
          "name": "toalBet",
          "type": "uint256"
        }
      ],
      "name": "LogLoose",
      "type": "event"
    },
    {
      "anonymous": false,
      "inputs": [
        {
          "indexed": true,
          "name": "matchId",
          "type": "uint256"
        },
        {
          "indexed": true,
          "name": "playerAddress",
          "type": "address"
        }
      ],
      "name": "LogDailyBonus",
      "type": "event"
    },
    {
      "anonymous": false,
      "inputs": [
        {
          "indexed": false,
          "name": "who",
          "type": "address"
        },
        {
          "indexed": false,
          "name": "halted",
          "type": "bool"
        }
      ],
      "name": "LogHaltSwitch",
      "type": "event"
    },
    {
      "constant": false,
      "inputs": [
        {
          "name": "_weight",
          "type": "uint256[5]"
        },
        {
          "name": "_option",
          "type": "uint256[5]"
        }
      ],
      "name": "bet",
      "outputs": [
        {
          "name": "ok",
          "type": "bool"
        }
      ],
      "payable": true,
      "stateMutability": "payable",
      "type": "function"
    },
    {
      "constant": true,
      "inputs": [],
      "name": "getBetLength",
      "outputs": [
        {
          "name": "betLength",
          "type": "uint256"
        }
      ],
      "payable": false,
      "stateMutability": "view",
      "type": "function"
    },
    {
      "constant": false,
      "inputs": [
        {
          "name": "options",
          "type": "uint256[5]"
        }
      ],
      "name": "calculateWinLoss",
      "outputs": [
        {
          "name": "ok",
          "type": "bool"
        }
      ],
      "payable": false,
      "stateMutability": "nonpayable",
      "type": "function"
    },
    {
      "constant": false,
      "inputs": [],
      "name": "endMatch",
      "outputs": [
        {
          "name": "ok",
          "type": "bool"
        }
      ],
      "payable": false,
      "stateMutability": "nonpayable",
      "type": "function"
    },
    {
      "constant": false,
      "inputs": [],
      "name": "abandonMatch",
      "outputs": [],
      "payable": false,
      "stateMutability": "nonpayable",
      "type": "function"
    },
    {
      "constant": true,
      "inputs": [],
      "name": "getPlayerLength",
      "outputs": [
        {
          "name": "len",
          "type": "uint256"
        }
      ],
      "payable": false,
      "stateMutability": "view",
      "type": "function"
    },
    {
      "constant": true,
      "inputs": [],
      "name": "getPlayerList",
      "outputs": [
        {
          "name": "playerList",
          "type": "address[]"
        }
      ],
      "payable": false,
      "stateMutability": "view",
      "type": "function"
    },
    {
      "constant": true,
      "inputs": [
        {
          "name": "_playerAddress",
          "type": "address"
        }
      ],
      "name": "getPlayerBet",
      "outputs": [
        {
          "name": "weight",
          "type": "uint256[5]"
        },
        {
          "name": "option",
          "type": "uint256[5]"
        },
        {
          "name": "totalBet",
          "type": "uint256"
        }
      ],
      "payable": false,
      "stateMutability": "view",
      "type": "function"
    },
    {
      "constant": true,
      "inputs": [],
      "name": "getAnswers",
      "outputs": [
        {
          "name": "_answers",
          "type": "uint256[5]"
        }
      ],
      "payable": false,
      "stateMutability": "view",
      "type": "function"
    },
    {
      "constant": false,
      "inputs": [
        {
          "name": "_who",
          "type": "address"
        },
        {
          "name": "_bettor",
          "type": "address"
        }
      ],
      "name": "resetBet",
      "outputs": [
        {
          "name": "ok",
          "type": "bool"
        }
      ],
      "payable": false,
      "stateMutability": "nonpayable",
      "type": "function"
    },
    {
      "constant": false,
      "inputs": [
        {
          "name": "_isHalted",
          "type": "bool"
        }
      ],
      "name": "haltSwitch",
      "outputs": [
        {
          "name": "ok",
          "type": "bool"
        }
      ],
      "payable": false,
      "stateMutability": "nonpayable",
      "type": "function"
    },
    {
      "constant": false,
      "inputs": [
        {
          "name": "recipient",
          "type": "address"
        }
      ],
      "name": "kill",
      "outputs": [
        {
          "name": "ok",
          "type": "bool"
        }
      ],
      "payable": false,
      "stateMutability": "nonpayable",
      "type": "function"
    },
    {
      "constant": true,
      "inputs": [],
      "name": "getMultipler",
      "outputs": [
        {
          "name": "mulx",
          "type": "uint256[6]"
        }
      ],
      "payable": false,
      "stateMutability": "view",
      "type": "function"
    },
    {
      "constant": false,
      "inputs": [
        {
          "name": "mul",
          "type": "uint256[6]"
        }
      ],
      "name": "setMultiplier",
      "outputs": [
        {
          "name": "ok",
          "type": "bool"
        }
      ],
      "payable": false,
      "stateMutability": "nonpayable",
      "type": "function"
    },
    {
      "constant": false,
      "inputs": [
        {
          "name": "_tokenAddress",
          "type": "address"
        }
      ],
      "name": "setTokenAddress",
      "outputs": [
        {
          "name": "ok",
          "type": "bool"
        }
      ],
      "payable": false,
      "stateMutability": "nonpayable",
      "type": "function"
    }
  ],
  "bytecode": "0x608060405234801561001057600080fd5b5060405160a080612d5f833981018060405281019080805190602001909291908051906020019092919080519060200190929190805190602001909291908051906020019092919050505033600060016101000a81548173ffffffffffffffffffffffffffffffffffffffff021916908373ffffffffffffffffffffffffffffffffffffffff1602179055508460058190555083600260006101000a81548173ffffffffffffffffffffffffffffffffffffffff021916908373ffffffffffffffffffffffffffffffffffffffff16021790555080600160006101000a81548173ffffffffffffffffffffffffffffffffffffffff021916908373ffffffffffffffffffffffffffffffffffffffff16021790555082600381905550816004819055505050505050612c18806101476000396000f3006080604052600436106101ac576000357c0100000000000000000000000000000000000000000000000000000000900463ffffffff16806305e30f51146101b1578063085e615e146101f25780630d8053ca14610239578063102dd66b1461026457806317599cc5146102df5780631aa3a0081461032057806323abbf101461037757806324b570a91461038e57806326a4e8d2146103b9578063286051c11461041457806338330a7c146104555780633a5d9a30146104e157806342cde4e8146105345780635903d60d1461055f5780635e8306ca1461058e57806362a63e29146105f85780636dddcf46146106645780637c645c211461069357806389a78f1a146106be5780638da5cb5b1461071557806399892e471461076c578063a5e1a62d14610797578063ae6d9073146107c6578063c137d64314610833578063c517e816146108e8578063c793fcf914610952578063c7ff1584146109a5578063ca6f1b97146109d4578063cbf0b0c0146109ff578063db4f0def14610a5a578063df7bf70414610a89578063ef378f6214610abb578063f4786c1214610b19578063fc0c546a14610b74575b600080fd5b3480156101bd57600080fd5b506101dc60048036038101908080359060200190929190505050610bcb565b6040518082815260200191505060405180910390f35b3480156101fe57600080fd5b5061021f600480360381019080803515159060200190929190505050610be5565b604051808215151515815260200191505060405180910390f35b34801561024557600080fd5b5061024e610da4565b6040518082815260200191505060405180910390f35b34801561027057600080fd5b506102c5600480360381019080803573ffffffffffffffffffffffffffffffffffffffff169060200190929190803573ffffffffffffffffffffffffffffffffffffffff169060200190929190505050610db1565b604051808215151515815260200191505060405180910390f35b3480156102eb57600080fd5b5061030a60048036038101908080359060200190929190505050611190565b6040518082815260200191505060405180910390f35b34801561032c57600080fd5b506103356111aa565b604051808273ffffffffffffffffffffffffffffffffffffffff1673ffffffffffffffffffffffffffffffffffffffff16815260200191505060405180910390f35b34801561038357600080fd5b5061038c6111d0565b005b34801561039a57600080fd5b506103a361149e565b6040518082815260200191505060405180910390f35b3480156103c557600080fd5b506103fa600480360381019080803573ffffffffffffffffffffffffffffffffffffffff1690602001909291905050506114a4565b604051808215151515815260200191505060405180910390f35b34801561042057600080fd5b5061043f600480360381019080803590602001909291905050506115f8565b6040518082815260200191505060405180910390f35b6104c76004803603810190808060a001906005806020026040519081016040528092919082600560200280828437820191505050505091929192908060a00190600580602002604051908101604052809291908260056020028082843782019150505050509192919290505050611612565b604051808215151515815260200191505060405180910390f35b3480156104ed57600080fd5b506104f6611cf5565b6040518082600660200280838360005b83811015610521578082015181840152602081019050610506565b5050505090500191505060405180910390f35b34801561054057600080fd5b50610549611d4b565b6040518082815260200191505060405180910390f35b34801561056b57600080fd5b50610574611d51565b604051808215151515815260200191505060405180910390f35b34801561059a57600080fd5b506105de6004803603810190808060a00190600580602002604051908101604052809291908260056020028082843782019150505050509192919290505050611d64565b604051808215151515815260200191505060405180910390f35b34801561060457600080fd5b5061060d6121f6565b6040518080602001828103825283818151815260200191508051906020019060200280838360005b83811015610650578082015181840152602081019050610635565b505050509050019250505060405180910390f35b34801561067057600080fd5b506106796121fe565b604051808215151515815260200191505060405180910390f35b34801561069f57600080fd5b506106a8612211565b6040518082815260200191505060405180910390f35b3480156106ca57600080fd5b506106ff600480360381019080803573ffffffffffffffffffffffffffffffffffffffff16906020019092919050505061221e565b6040518082815260200191505060405180910390f35b34801561072157600080fd5b5061072a61223c565b604051808273ffffffffffffffffffffffffffffffffffffffff1673ffffffffffffffffffffffffffffffffffffffff16815260200191505060405180910390f35b34801561077857600080fd5b50610781612262565b6040518082815260200191505060405180910390f35b3480156107a357600080fd5b506107ac612268565b604051808215151515815260200191505060405180910390f35b3480156107d257600080fd5b506107f160048036038101908080359060200190929190505050612752565b604051808273ffffffffffffffffffffffffffffffffffffffff1673ffffffffffffffffffffffffffffffffffffffff16815260200191505060405180910390f35b34801561083f57600080fd5b50610874600480360381019080803573ffffffffffffffffffffffffffffffffffffffff169060200190929190505050612790565b6040518084600560200280838360005b8381101561089f578082015181840152602081019050610884565b5050505090500183600560200280838360005b838110156108cd5780820151818401526020810190506108b2565b50505050905001828152602001935050505060405180910390f35b3480156108f457600080fd5b506109386004803603810190808060c00190600680602002604051908101604052809291908260066020028082843782019150505050509192919290505050612906565b604051808215151515815260200191505060405180910390f35b34801561095e57600080fd5b50610967612955565b6040518082600560200280838360005b83811015610992578082015181840152602081019050610977565b5050505090500191505060405180910390f35b3480156109b157600080fd5b506109ba6129a0565b604051808215151515815260200191505060405180910390f35b3480156109e057600080fd5b506109e96129b2565b6040518082815260200191505060405180910390f35b348015610a0b57600080fd5b50610a40600480360381019080803573ffffffffffffffffffffffffffffffffffffffff1690602001909291905050506129b8565b604051808215151515815260200191505060405180910390f35b348015610a6657600080fd5b50610a6f612af4565b604051808215151515815260200191505060405180910390f35b348015610a9557600080fd5b50610a9e612b07565b604051808381526020018281526020019250505060405180910390f35b348015610ac757600080fd5b50610afc600480360381019080803573ffffffffffffffffffffffffffffffffffffffff169060200190929190505050612b19565b604051808381526020018281526020019250505060405180910390f35b348015610b2557600080fd5b50610b5a600480360381019080803573ffffffffffffffffffffffffffffffffffffffff169060200190929190505050612b3d565b604051808215151515815260200191505060405180910390f35b348015610b8057600080fd5b50610b89612b5d565b604051808273ffffffffffffffffffffffffffffffffffffffff1673ffffffffffffffffffffffffffffffffffffffff16815260200191505060405180910390f35b600681600681101515610bda57fe5b016000915090505481565b600080600060019054906101000a900473ffffffffffffffffffffffffffffffffffffffff1690508073ffffffffffffffffffffffffffffffffffffffff166324d7806c336040518263ffffffff167c0100000000000000000000000000000000000000000000000000000000028152600401808273ffffffffffffffffffffffffffffffffffffffff1673ffffffffffffffffffffffffffffffffffffffff168152602001915050602060405180830381600087803b158015610ca857600080fd5b505af1158015610cbc573d6000803e3d6000fd5b505050506040513d6020811015610cd257600080fd5b81019080805190602001909291905050501515610cee57600080fd5b8215156000809054906101000a900460ff16151514151515610d0f57600080fd5b826000806101000a81548160ff0219169083151502179055506005547f254518872c4cc0703b5cd922d710cffd6d4551803a00d0f9ed81c99751d29e543385604051808373ffffffffffffffffffffffffffffffffffffffff1673ffffffffffffffffffffffffffffffffffffffff168152602001821515151581526020019250505060405180910390a26001915050919050565b6000603580549050905090565b600080600080600060019054906101000a900473ffffffffffffffffffffffffffffffffffffffff1690508073ffffffffffffffffffffffffffffffffffffffff166324d7806c336040518263ffffffff167c0100000000000000000000000000000000000000000000000000000000028152600401808273ffffffffffffffffffffffffffffffffffffffff1673ffffffffffffffffffffffffffffffffffffffff168152602001915050602060405180830381600087803b158015610e7757600080fd5b505af1158015610e8b573d6000803e3d6000fd5b505050506040513d6020811015610ea157600080fd5b81019080805190602001909291905050501515610ebd57600080fd5b603360008673ffffffffffffffffffffffffffffffffffffffff1673ffffffffffffffffffffffffffffffffffffffff168152602001908152602001600020600a01549150600092505b6005831015610f8b57603360008673ffffffffffffffffffffffffffffffffffffffff1673ffffffffffffffffffffffffffffffffffffffff16815260200190815260200160002060000183600581101515610f5f57fe5b0154602c84600581101515610f7057fe5b01600082825403925050819055508280600101935050610f07565b603360008673ffffffffffffffffffffffffffffffffffffffff1673ffffffffffffffffffffffffffffffffffffffff16815260200190815260200160002060008082016000610fdb9190612b83565b600582016000610feb9190612b83565b600a820160009055505081603160008282540392505081905550600160009054906101000a900473ffffffffffffffffffffffffffffffffffffffff1673ffffffffffffffffffffffffffffffffffffffff16636039fbdb33846040518363ffffffff167c0100000000000000000000000000000000000000000000000000000000028152600401808373ffffffffffffffffffffffffffffffffffffffff1673ffffffffffffffffffffffffffffffffffffffff16815260200182815260200192505050602060405180830381600087803b1580156110ca57600080fd5b505af11580156110de573d6000803e3d6000fd5b505050506040513d60208110156110f457600080fd5b8101908080519060200190929190505050508473ffffffffffffffffffffffffffffffffffffffff166005547fc5d526ff4c62cd704d82ca8358af8e37305b99fc4a1ce2420592633397d0afa388604051808273ffffffffffffffffffffffffffffffffffffffff1673ffffffffffffffffffffffffffffffffffffffff16815260200191505060405180910390a36001935050505092915050565b600c8160058110151561119f57fe5b016000915090505481565b600260009054906101000a900473ffffffffffffffffffffffffffffffffffffffff1681565b600080600080600060019054906101000a900473ffffffffffffffffffffffffffffffffffffffff1690508073ffffffffffffffffffffffffffffffffffffffff166324d7806c336040518263ffffffff167c0100000000000000000000000000000000000000000000000000000000028152600401808273ffffffffffffffffffffffffffffffffffffffff1673ffffffffffffffffffffffffffffffffffffffff168152602001915050602060405180830381600087803b15801561129657600080fd5b505af11580156112aa573d6000803e3d6000fd5b505050506040513d60208110156112c057600080fd5b810190808051906020019092919050505015156112dc57600080fd5b600093505b60358054905084101561147d576035848154811015156112fd57fe5b9060005260206000200160009054906101000a900473ffffffffffffffffffffffffffffffffffffffff169250603360008473ffffffffffffffffffffffffffffffffffffffff1673ffffffffffffffffffffffffffffffffffffffff1681526020019081526020016000209150600160009054906101000a900473ffffffffffffffffffffffffffffffffffffffff1673ffffffffffffffffffffffffffffffffffffffff16636039fbdb8484600a01546040518363ffffffff167c0100000000000000000000000000000000000000000000000000000000028152600401808373ffffffffffffffffffffffffffffffffffffffff1673ffffffffffffffffffffffffffffffffffffffff16815260200182815260200192505050602060405180830381600087803b15801561143457600080fd5b505af1158015611448573d6000803e3d6000fd5b505050506040513d602081101561145e57600080fd5b81019080805190602001909291905050505083806001019450506112e1565b6001603660006101000a81548160ff02191690831515021790555050505050565b60315481565b600080600060019054906101000a900473ffffffffffffffffffffffffffffffffffffffff1690508073ffffffffffffffffffffffffffffffffffffffff166324d7806c336040518263ffffffff167c0100000000000000000000000000000000000000000000000000000000028152600401808273ffffffffffffffffffffffffffffffffffffffff1673ffffffffffffffffffffffffffffffffffffffff168152602001915050602060405180830381600087803b15801561156757600080fd5b505af115801561157b573d6000803e3d6000fd5b505050506040513d602081101561159157600080fd5b810190808051906020019092919050505015156115ad57600080fd5b82600160006101000a81548173ffffffffffffffffffffffffffffffffffffffff021916908373ffffffffffffffffffffffffffffffffffffffff1602179055506001915050919050565b602c8160058110151561160757fe5b016000915090505481565b60008060008060009054906101000a900460ff1615151561163257600080fd5b6000603360003373ffffffffffffffffffffffffffffffffffffffff1673ffffffffffffffffffffffffffffffffffffffff168152602001908152602001600020600a015414151561168357600080fd5b603660009054906101000a900460ff1615151561169f57600080fd5b603260003373ffffffffffffffffffffffffffffffffffffffff1673ffffffffffffffffffffffffffffffffffffffff16815260200190815260200160002060009054906101000a900460ff1615156117595760353390806001815401808255809150509060018203906000526020600020016000909192909190916101000a81548173ffffffffffffffffffffffffffffffffffffffff021916908373ffffffffffffffffffffffffffffffffffffffff160217905550505b60009150600090505b600581101561188d57848160058110151561177957fe5b6020020151603360003373ffffffffffffffffffffffffffffffffffffffff1673ffffffffffffffffffffffffffffffffffffffff168152602001908152602001600020600001826005811015156117cd57fe5b018190555084816005811015156117e057fe5b6020020151602c826005811015156117f457fe5b0160008282540192505081905550838160058110151561181057fe5b6020020151603360003373ffffffffffffffffffffffffffffffffffffffff1673ffffffffffffffffffffffffffffffffffffffff1681526020019081526020016000206005018260058110151561186457fe5b0181905550848160058110151561187757fe5b6020020151820191508080600101915050611762565b81603360003373ffffffffffffffffffffffffffffffffffffffff1673ffffffffffffffffffffffffffffffffffffffff168152602001908152602001600020600a01819055508160316000828254019250508190555081600160009054906101000a900473ffffffffffffffffffffffffffffffffffffffff1673ffffffffffffffffffffffffffffffffffffffff166370a08231336040518263ffffffff167c0100000000000000000000000000000000000000000000000000000000028152600401808273ffffffffffffffffffffffffffffffffffffffff1673ffffffffffffffffffffffffffffffffffffffff168152602001915050602060405180830381600087803b1580156119a257600080fd5b505af11580156119b6573d6000803e3d6000fd5b505050506040513d60208110156119cc57600080fd5b8101908080519060200190929190505050101515156119ea57600080fd5b600160009054906101000a900473ffffffffffffffffffffffffffffffffffffffff1673ffffffffffffffffffffffffffffffffffffffff16635851a7fe33846040518363ffffffff167c0100000000000000000000000000000000000000000000000000000000028152600401808373ffffffffffffffffffffffffffffffffffffffff1673ffffffffffffffffffffffffffffffffffffffff16815260200182815260200192505050602060405180830381600087803b158015611aaf57600080fd5b505af1158015611ac3573d6000803e3d6000fd5b505050506040513d6020811015611ad957600080fd5b8101908080519060200190929190505050506001603260003373ffffffffffffffffffffffffffffffffffffffff1673ffffffffffffffffffffffffffffffffffffffff16815260200190815260200160002060006101000a81548160ff02191690831515021790555060045482101515611c9857600160009054906101000a900473ffffffffffffffffffffffffffffffffffffffff1673ffffffffffffffffffffffffffffffffffffffff16636039fbdb336003546040518363ffffffff167c0100000000000000000000000000000000000000000000000000000000028152600401808373ffffffffffffffffffffffffffffffffffffffff1673ffffffffffffffffffffffffffffffffffffffff16815260200182815260200192505050602060405180830381600087803b158015611c1557600080fd5b505af1158015611c29573d6000803e3d6000fd5b505050506040513d6020811015611c3f57600080fd5b8101908080519060200190929190505050503373ffffffffffffffffffffffffffffffffffffffff166005547f71fa040dbe511ab6c57a43ca3fbeb249e32256d7755110f0ba88c9c92056db7c60405160405180910390a35b3373ffffffffffffffffffffffffffffffffffffffff166005547f865cdc8d1bf8b43c96548347220fc458c21f36cda4b5c2ff7646c5f88b78aac6846040518082815260200191505060405180910390a360019250505092915050565b611cfd612ba6565b611d05612ba6565b60068080602002604051908101604052809291908260068015611d3d576020028201915b815481526020019060010190808311611d29575b505050505090508091505090565b60045481565b603660009054906101000a900460ff1681565b60008060008060008060008060019054906101000a900473ffffffffffffffffffffffffffffffffffffffff1690508073ffffffffffffffffffffffffffffffffffffffff166324d7806c336040518263ffffffff167c0100000000000000000000000000000000000000000000000000000000028152600401808273ffffffffffffffffffffffffffffffffffffffff1673ffffffffffffffffffffffffffffffffffffffff168152602001915050602060405180830381600087803b158015611e2e57600080fd5b505af1158015611e42573d6000803e3d6000fd5b505050506040513d6020811015611e5857600080fd5b81019080805190602001909291905050501515611e7457600080fd5b6000809054906101000a900460ff161515611e8e57600080fd5b603660019054906101000a900460ff16151515611eaa57600080fd5b603660009054906101000a900460ff16151515611ec657600080fd5b603660029054906101000a900460ff16151515611ee257600080fd5b600095505b6005861015611f24578786600581101515611efe57fe5b6020020151600c87600581101515611f1257fe5b01819055508580600101965050611ee7565b600094505b6035805490508510156121cc57603585815481101515611f4557fe5b9060005260206000200160009054906101000a900473ffffffffffffffffffffffffffffffffffffffff169350603360008573ffffffffffffffffffffffffffffffffffffffff1673ffffffffffffffffffffffffffffffffffffffff1681526020019081526020016000209250600091505b6005821015612099578782600581101515611fcf57fe5b60200201518360050183600581101515611fe557fe5b0154141561208c576001603460008673ffffffffffffffffffffffffffffffffffffffff1673ffffffffffffffffffffffffffffffffffffffff1681526020019081526020016000206000018360058110151561203e57fe5b0181905550826000018260058110151561205457fe5b015460116014018360058110151561206857fe5b01600082825401925050819055506011601901600081548092919060010191905055505b8180600101925050611fb8565b600a8860046005811015156120aa57fe5b6020020151038360050160046005811015156120c257fe5b0154101580156120fb5750600a8860046005811015156120de57fe5b6020020151018360050160046005811015156120f657fe5b015411155b801561212d575087600460058110151561211157fe5b602002015183600501600460058110151561212857fe5b015414155b156121bf576002603460008673ffffffffffffffffffffffffffffffffffffffff1673ffffffffffffffffffffffffffffffffffffffff168152602001908152602001600020600001600460058110151561218457fe5b018190555082600001600460058110151561219b57fe5b0154601160140160046005811015156121b057fe5b01600082825401925050819055505b8480600101955050611f29565b6001603660026101000a81548160ff02191690831515021790555060019650505050505050919050565b606080905090565b603660019054906101000a900460ff1681565b6000603580549050905090565b603360205280600052604060002060009150905080600a0154905081565b600060019054906101000a900473ffffffffffffffffffffffffffffffffffffffff1681565b60055481565b60008060008060008060008060008060008060019054906101000a900473ffffffffffffffffffffffffffffffffffffffff1690508073ffffffffffffffffffffffffffffffffffffffff166324d7806c336040518263ffffffff167c0100000000000000000000000000000000000000000000000000000000028152600401808273ffffffffffffffffffffffffffffffffffffffff1673ffffffffffffffffffffffffffffffffffffffff168152602001915050602060405180830381600087803b15801561233857600080fd5b505af115801561234c573d6000803e3d6000fd5b505050506040513d602081101561236257600080fd5b8101908080519060200190929190505050151561237e57600080fd5b6000809054906101000a900460ff16151561239857600080fd5b603660029054906101000a900460ff1615156123b357600080fd5b603660009054906101000a900460ff161515156123cf57600080fd5b600099505b6035805490508a101561272a5760358a8154811015156123f057fe5b9060005260206000200160009054906101000a900473ffffffffffffffffffffffffffffffffffffffff169850603360008a73ffffffffffffffffffffffffffffffffffffffff1673ffffffffffffffffffffffffffffffffffffffff168152602001908152602001600020975060009650600095505b600586101561254a576001603460008b73ffffffffffffffffffffffffffffffffffffffff1673ffffffffffffffffffffffffffffffffffffffff168152602001908152602001600020600001876005811015156124c157fe5b0154141561253d5787600001866005811015156124da57fe5b01549350600094506011601401866005811015156124f457fe5b0154602c8760058110151561250557fe5b0154850281151561251257fe5b0484600a60068960068110151561252557fe5b0154870281151561253257fe5b040101945084870196505b8580600101965050612467565b6002603460008b73ffffffffffffffffffffffffffffffffffffffff1673ffffffffffffffffffffffffffffffffffffffff168152602001908152602001600020600001600460058110151561259c57fe5b0154141561261c578760000160046005811015156125b657fe5b0154915060009250601160140160046005811015156125d157fe5b0154602c60046005811015156125e357fe5b015483028115156125f057fe5b0482600a6006600560068110151561260457fe5b0154850281151561261157fe5b040101925082870196505b600160009054906101000a900473ffffffffffffffffffffffffffffffffffffffff1673ffffffffffffffffffffffffffffffffffffffff16636039fbdb8a896040518363ffffffff167c0100000000000000000000000000000000000000000000000000000000028152600401808373ffffffffffffffffffffffffffffffffffffffff1673ffffffffffffffffffffffffffffffffffffffff16815260200182815260200192505050602060405180830381600087803b1580156126e157600080fd5b505af11580156126f5573d6000803e3d6000fd5b505050506040513d602081101561270b57600080fd5b81019080805190602001909291905050505089806001019a50506123d4565b6001603660016101000a81548160ff0219169083151502179055505050505050505050505090565b60358181548110151561276157fe5b906000526020600020016000915054906101000a900473ffffffffffffffffffffffffffffffffffffffff1681565b612798612bc9565b6127a0612bc9565b60006127aa612bc9565b6127b2612bc9565b603360008773ffffffffffffffffffffffffffffffffffffffff1673ffffffffffffffffffffffffffffffffffffffff16815260200190815260200160002060000160058060200260405190810160405280929190826005801561282b576020028201915b815481526020019060010190808311612817575b50505050509150603360008773ffffffffffffffffffffffffffffffffffffffff1673ffffffffffffffffffffffffffffffffffffffff1681526020019081526020016000206005016005806020026040519081016040528092919082600580156128ab576020028201915b815481526020019060010190808311612897575b505050505090508181603360008973ffffffffffffffffffffffffffffffffffffffff1673ffffffffffffffffffffffffffffffffffffffff168152602001908152602001600020600a015494509450945050509193909250565b600080600090505b600681101561294b57828160068110151561292557fe5b602002015160068260068110151561293957fe5b0181905550808060010191505061290e565b6001915050919050565b61295d612bc9565b600c600580602002604051908101604052809291908260058015612996576020028201915b815481526020019060010190808311612982575b5050505050905090565b6000809054906101000a900460ff1681565b60035481565b600080600060019054906101000a900473ffffffffffffffffffffffffffffffffffffffff1690508073ffffffffffffffffffffffffffffffffffffffff166324d7806c336040518263ffffffff167c0100000000000000000000000000000000000000000000000000000000028152600401808273ffffffffffffffffffffffffffffffffffffffff1673ffffffffffffffffffffffffffffffffffffffff168152602001915050602060405180830381600087803b158015612a7b57600080fd5b505af1158015612a8f573d6000803e3d6000fd5b505050506040513d6020811015612aa557600080fd5b81019080805190602001909291905050501515612ac157600080fd5b6000809054906101000a900460ff161515612adb57600080fd5b8273ffffffffffffffffffffffffffffffffffffffff16ff5b603660029054906101000a900460ff1681565b601180601901549080601a0154905082565b603460205280600052604060002060009150905080600f0154908060100154905082565b60326020528060005260406000206000915054906101000a900460ff1681565b600160009054906101000a900473ffffffffffffffffffffffffffffffffffffffff1681565b506000815560010160008155600101600081556001016000815560010160009055565b60c060405190810160405280600690602082028038833980820191505090505090565b60a0604051908101604052806005906020820280388339808201915050905050905600a165627a7a72305820e7af3b0b3953f771a2612d03dacf3a2f5e8453e5dcac0f844d4f014f3116dd880029",
  "source": "pragma solidity ^0.4.15;\n\nimport './Interfaces.sol';\nimport './Ownable.sol';\nimport './Haltable.sol';\nimport './EIP20Interface.sol';\nimport './RegistrationInterface.sol';\n\n\ncontract IPLMatch is Haltable, Ownable\n{\n    //using SafeMath for uint;\n\n    EIP20Interface public token;\n    RegistrationInterface public register;\n    \n    uint256 public dailyBonus;\n    uint256 public threshold;\n    \n    uint public matchId;\n    uint256[6] public multiplier;\n\n    struct Bet {\n       uint256[5] weight;\n       uint256[5] option;\n       uint256 totalBet;\n    }\n    \n    struct Result {\n        uint[5] wonLost;\n        uint256[5] amtWon;\n        uint256[5] amtLost;\n        uint256 totalWon;\n        uint256 totalLost;\n        \n    }\n    \n    struct MatchResult{\n        uint256[5] numquestionWon;\n        uint256[5] numquestionLost;\n        uint256[5] amtQuestionWins;\n        uint256[5] amtQuestionLost;\n        uint256[5] amtQuestionWinBet;\n        uint256 totalWin;\n        uint256 totalLoose;\n        \n        \n    }\n    \n    uint256[5] public answers;\n    \n    MatchResult public matchResult;\n\n    uint256[5] public qPot;\n    uint256 public totalPot;\n    mapping(address => bool) public isBet;\n    mapping(address => Bet) public bets;\n    mapping(address => Result) public results;\n    \n    address[] public playerList;\n   \n    \n    bool public matchAbandon;\n    bool public matchEnd;\n    bool public calculateWinLost;\n    \n    event LogBet(uint indexed matchId,address indexed bettor, uint256 betAmount);\n    event LogBetReset(uint indexed matchId, address indexed bettor, address adminAddress);\n    event LogBetSwitch(uint indexed matchId, address adminAddress, bool isHalted);\n    event LogQuestionBetWin(uint indexed matchId,uint indexed questionId,address playerAddress,uint256 winningAmount,uint256 multiplier);\n    event LogQuestionBetLoose(uint indexed matchId,uint indexed questionId,address indexed playerAddress,uint256 loosingAmount);\n    event LogWin(uint indexed matchId,address indexed playerAddress,uint256 winningAmount,uint256 loosingAmount,uint256 toalBet);\n    event LogLoose(uint indexed matchId,address indexed playerAddress,uint256 winningAmount,uint256 loosingAmount,uint256 toalBet);\n    event LogDailyBonus(uint indexed matchId,address indexed playerAddress);\n    \n    function IPLMatch(uint _id, address _register, uint256 _dailyBonus, uint256 _threshold,address _tokenAddress){\n        matchId = _id;\n        register = RegistrationInterface(_register);\n        token =  EIP20Interface (_tokenAddress);\n        dailyBonus=_dailyBonus;\n        threshold=_threshold;\n        \n        \n    }\n\n    function bet(uint[5] _weight, uint[5] _option)\n        payable\n        onlyNotHalted\n        canBet\n        returns (bool ok)\n    {\n        require (!matchAbandon);\n        \n        if(!isBet[msg.sender]){\n            playerList.push(msg.sender);\n        }\n        \n        uint256 sum = 0;\n        uint i;\n        for(i=0;i<5;i++){\n            bets[msg.sender].weight[i] = _weight[i];\n            qPot[i] += _weight[i];\n            bets[msg.sender].option[i] = _option[i];\n            sum += _weight[i];\n        }\n        bets[msg.sender].totalBet = sum;\n        totalPot+= sum;\n        \n        require(token.balanceOf(msg.sender) >= sum);\n        token.minusTokens(msg.sender,sum);\n        isBet[msg.sender] = true;\n        \n        if(sum >= threshold)\n        {\n         token.addTokens(msg.sender,dailyBonus);\n         emit LogDailyBonus(matchId,msg.sender);\n        }\n        emit LogBet(matchId,msg.sender,sum);\n    \n        return true;\n    }\n   \n    \n    //\n    // frontend convenience getters\n    //\n\n   \n    function getBetLength()\n        constant\n        returns (uint betLength)\n    {\n        return playerList.length;\n    }\n    \n    //\n    // Utility Functions\n    //\n    \n    function calculateWinLoss(uint256[5] options) onlyAdmin onlyHalted returns (bool ok){\n        require(!matchEnd);\n        require(!matchAbandon);\n        require(!calculateWinLost);\n        \n        uint k;\n        for(k=0;k<5;k++){\n            answers[k] = options[k];\n        }\n        uint j;\n        for(j=0;j<playerList.length;j++){\n            address playerAddress = playerList[j];\n            Bet storage myBet = bets[playerAddress];\n            uint i;\n            for(i=0;i<5;i++){\n                if(myBet.option[i] == options[i]){\n                    results[playerAddress].wonLost[i]=1;\n                    matchResult.amtQuestionWinBet[i] += myBet.weight[i];\n                    matchResult.totalWin++;\n                }\n            }\n            if ((myBet.option[4] >= (options[4]-10)) && (myBet.option[4] <= (options[4]+10)) && (myBet.option[4] != options[4])){\n            \n                results[playerAddress].wonLost[4]=2;\n                matchResult.amtQuestionWinBet[4] += myBet.weight[4];\n            }\n        }\n        calculateWinLost = true;\n        return true;\n    }\n    \n    function endMatch() onlyAdmin onlyHalted returns (bool ok){\n        require(calculateWinLost);\n        require(!matchAbandon);\n        uint j;\n        for(j=0;j<playerList.length;j++){\n            address playerAddress = playerList[j];\n            Bet storage myBet = bets[playerAddress];\n            uint profitTokens;\n            profitTokens = 0;\n            uint i;\n            for(i=0; i<5;i++)\n            {\n                if(results[playerAddress].wonLost[i] == 1){\n                    uint amt;\n                    uint bet = myBet.weight[i];\n                    amt = 0;\n                    amt = ((bet * multiplier[i]) / 10) + bet + ((bet * qPot[i])/ matchResult.amtQuestionWinBet[i]);\n                    profitTokens+=amt;\n                }\n                \n            }\n            if(results[playerAddress].wonLost[4] == 2){\n                    uint amt1;\n                    uint bet1 = myBet.weight[4];\n                    amt1 = 0;\n                    amt1 = ((bet1 * multiplier[5]) / 10) + bet1 + ((bet1 * qPot[4])/ matchResult.amtQuestionWinBet[4]);\n                    profitTokens+=amt1;\n                }\n            token.addTokens(playerAddress,profitTokens);\n        \n        }\n        matchEnd = true;\n    }   \n    \n    /*\n            uint i;\n            \n            for (i=0; i<playerList.length; i++){\n                address playerAddress = playerList[i];\n                uint profitTokens;\n                Bet storage myBet = bets[msg.sender];\n                \n                for(i=0; i<5;i++){\n                    if(myBet.option[i] == options[i])\n                    {\n                        uint amt;\n                        amt = myBet.weight[i] * multiplier[i];\n                        profitTokens+=amt;\n                        results[playerAddress].win[i]=amt;\n                        results[playerAddress].totalWin+=amt;\n                       // emit LogQuestionBetWin(matchId,i,playerAddress,amt,multiplier[i]);\n                    }\n                    else\n                    {\n                        uint amt1 = myBet.weight[i];\n                        results[playerAddress].loose[i]=amt1;\n                        results[playerAddress].totalLoose += amt1;\n                        //emit LogQuestionBetLoose(matchId,i,playerAddress,amt1);\n                    }\n                }\n                if ((myBet.option[4] >= (options[4]-10)) && (myBet.option[4] <= (options[4]+10)) && (myBet.option[4] != options[4])){\n                    uint amt2 = myBet.option[4] * multiplier[5];\n                    profitTokens+= amt2;\n                    results[playerAddress].win[4]+=amt2;\n                    results[playerAddress].totalWin+=amt2;\n                    results[playerAddress].loose[4]=0;\n                        results[playerAddress].totalLoose -= myBet.weight[4];\n                   //emit LogQuestionBetWin(matchId,5,playerAddress,amt2,multiplier[5]);\n                    \n                }\n            }\n                //token.addTokens(playerAddress,profitTokens);\n                if(results[playerAddress].totalWin > results[playerAddress].totalLoose){\n                    emit LogWin(matchId,playerAddress,results[playerAddress].totalWin,results[playerAddress].totalLoose,myBet.totalBet);\n                }\n                else{\n                    emit LogLoose(matchId,playerAddress,results[playerAddress].totalWin,results[playerAddress].totalLoose,myBet.totalBet);\n                }\n                \n                \n            }\n                   \n           return true;\n    }\n    */\n    function abandonMatch() onlyAdmin {\n          \n        uint j;\n        for(j=0;j<playerList.length;j++){\n            address playerAddress = playerList[j];\n            Bet storage myBet = bets[playerAddress];\n            token.addTokens(playerAddress,myBet.totalBet);\n        }\n        matchAbandon = true;\n    }\n    \n    function getPlayerLength() view returns (uint len){\n        return playerList.length;\n    }\n    \n    function getPlayerList() view returns(address[] playerList){\n        return playerList;\n    }\n    \n    function getPlayerBet(address _playerAddress) view returns(  uint256[5] weight, uint256[5] option,uint256 totalBet){\n        uint256[5] memory _weight;\n        uint[5] memory _option;\n        _weight = bets[_playerAddress].weight;\n        _option = bets[_playerAddress].option;\n        return (_weight, _option, bets[_playerAddress].totalBet);\n    }\n    \n    function getAnswers() view returns(uint256[5] _answers){\n        return answers;\n    }\n    function resetBet(address _who,address _bettor) onlyAdmin returns (bool ok){\n        uint i;\n        uint256 sum;\n        \n        sum = bets[_bettor].totalBet;\n        for(i=0;i<5;i++){\n            qPot[i] -= bets[_bettor].weight[i];\n        }\n        delete bets[_bettor];\n        totalPot -= sum ;\n        token.addTokens(msg.sender,sum);\n        \n        emit LogBetReset (matchId, _bettor, _who);\n        return true;\n        \n        \n    }\n    function haltSwitch(bool _isHalted)\n        onlyAdmin\n        returns (bool ok)\n    {\n        require(isHalted != _isHalted);\n        isHalted = _isHalted;\n        emit LogBetSwitch(matchId,msg.sender, _isHalted);\n        return true;\n    }\n    \n    \n\n    // due to our multi-admin setup, it's probably useful to be able to specify the recipient\n    // of the destroyed contract's funds.\n    function kill(address recipient)\n        onlyAdmin\n        onlyHalted\n        returns (bool ok)\n    {\n        selfdestruct(recipient);\n        return true;\n    }\n\n    function getMultipler() view returns(uint[6] mulx){\n        uint[6] memory mult;\n        mult = multiplier;\n        return mult;\n    }\n    \n\n    function setMultiplier(uint256[6] mul) returns(bool ok){\n        uint i;\n        for(i=0;i<6;i++){\n            multiplier[i] = mul[i];\n        }\n        return true;\n    }\n    \n    function setTokenAddress(address _tokenAddress) onlyAdmin returns(bool ok){\n        token = EIP20Interface(_tokenAddress);\n        return true;\n    }\n    //\n    // modifiers\n    //\n\n    modifier onlyAdmin {\n        IPredictionMarket mkt = IPredictionMarket(owner);\n        require(mkt.isAdmin(msg.sender));\n        _;\n    }\n    \n    modifier canBet {\n        require(bets[msg.sender].totalBet == 0);\n        _;\n    }\n\n   \n}",
  "sourcePath": "/home/nitesh_ns19/abc-ipl/contracts/IPLMatch.sol",
  "compiler": {
    "name": "solc",
    "version": "0.4.24+commit.e67f0147.Emscripten.clang"
  },
  "schemaVersion": "2.0.1",
  "updatedAt": "2018-06-30T14:18:55.210Z"
}