{
  "contractName": "IPLMatch",
  "abi": [
    {
      "constant": true,
      "inputs": [
        {
          "name": "",
          "type": "uint256"
        }
      ],
      "name": "multiplier",
      "outputs": [
        {
          "name": "",
          "type": "uint256"
        }
      ],
      "payable": false,
      "stateMutability": "view",
      "type": "function"
    },
    {
      "constant": true,
      "inputs": [],
      "name": "totalPot",
      "outputs": [
        {
          "name": "",
          "type": "uint256"
        }
      ],
      "payable": false,
      "stateMutability": "view",
      "type": "function"
    },
    {
      "constant": true,
      "inputs": [
        {
          "name": "",
          "type": "uint256"
        }
      ],
      "name": "qPot",
      "outputs": [
        {
          "name": "",
          "type": "uint256"
        }
      ],
      "payable": false,
      "stateMutability": "view",
      "type": "function"
    },
    {
      "constant": true,
      "inputs": [],
      "name": "matchAbandon",
      "outputs": [
        {
          "name": "",
          "type": "bool"
        }
      ],
      "payable": false,
      "stateMutability": "view",
      "type": "function"
    },
    {
      "constant": true,
      "inputs": [],
      "name": "matchEnd",
      "outputs": [
        {
          "name": "",
          "type": "bool"
        }
      ],
      "payable": false,
      "stateMutability": "view",
      "type": "function"
    },
    {
      "constant": true,
      "inputs": [
        {
          "name": "",
          "type": "address"
        }
      ],
      "name": "bets",
      "outputs": [
        {
          "name": "totalBet",
          "type": "uint256"
        }
      ],
      "payable": false,
      "stateMutability": "view",
      "type": "function"
    },
    {
      "constant": true,
      "inputs": [],
      "name": "owner",
      "outputs": [
        {
          "name": "",
          "type": "address"
        }
      ],
      "payable": false,
      "stateMutability": "view",
      "type": "function"
    },
    {
      "constant": true,
      "inputs": [],
      "name": "matchId",
      "outputs": [
        {
          "name": "",
          "type": "uint256"
        }
      ],
      "payable": false,
      "stateMutability": "view",
      "type": "function"
    },
    {
      "constant": true,
      "inputs": [
        {
          "name": "",
          "type": "uint256"
        }
      ],
      "name": "playerList",
      "outputs": [
        {
          "name": "",
          "type": "address"
        }
      ],
      "payable": false,
      "stateMutability": "view",
      "type": "function"
    },
    {
      "constant": true,
      "inputs": [],
      "name": "isHalted",
      "outputs": [
        {
          "name": "",
          "type": "bool"
        }
      ],
      "payable": false,
      "stateMutability": "view",
      "type": "function"
    },
    {
      "constant": true,
      "inputs": [
        {
          "name": "",
          "type": "address"
        }
      ],
      "name": "results",
      "outputs": [
        {
          "name": "totalWin",
          "type": "uint256"
        },
        {
          "name": "totalLoose",
          "type": "uint256"
        }
      ],
      "payable": false,
      "stateMutability": "view",
      "type": "function"
    },
    {
      "constant": true,
      "inputs": [
        {
          "name": "",
          "type": "address"
        }
      ],
      "name": "isBet",
      "outputs": [
        {
          "name": "",
          "type": "bool"
        }
      ],
      "payable": false,
      "stateMutability": "view",
      "type": "function"
    },
    {
      "inputs": [
        {
          "name": "_id",
          "type": "uint256"
        },
        {
          "name": "_token",
          "type": "address"
        }
      ],
      "payable": false,
      "stateMutability": "nonpayable",
      "type": "constructor"
    },
    {
      "anonymous": false,
      "inputs": [
        {
          "indexed": false,
          "name": "matchId",
          "type": "uint256"
        },
        {
          "indexed": false,
          "name": "bettor",
          "type": "address"
        },
        {
          "indexed": false,
          "name": "betAmount",
          "type": "uint256"
        }
      ],
      "name": "LogBet",
      "type": "event"
    },
    {
      "anonymous": false,
      "inputs": [
        {
          "indexed": false,
          "name": "matchId",
          "type": "uint256"
        },
        {
          "indexed": false,
          "name": "bettor",
          "type": "address"
        },
        {
          "indexed": false,
          "name": "adminAddress",
          "type": "address"
        }
      ],
      "name": "LogBetReset",
      "type": "event"
    },
    {
      "anonymous": false,
      "inputs": [
        {
          "indexed": false,
          "name": "matchId",
          "type": "uint256"
        },
        {
          "indexed": false,
          "name": "adminAddress",
          "type": "address"
        },
        {
          "indexed": false,
          "name": "isHalted",
          "type": "bool"
        }
      ],
      "name": "LogBetSwitch",
      "type": "event"
    },
    {
      "anonymous": false,
      "inputs": [
        {
          "indexed": false,
          "name": "matchId",
          "type": "uint256"
        },
        {
          "indexed": false,
          "name": "questionId",
          "type": "uint256"
        },
        {
          "indexed": false,
          "name": "playerAddress",
          "type": "address"
        },
        {
          "indexed": false,
          "name": "winningAmount",
          "type": "uint256"
        },
        {
          "indexed": false,
          "name": "multiplier",
          "type": "uint256"
        }
      ],
      "name": "LogQuestionBetWin",
      "type": "event"
    },
    {
      "anonymous": false,
      "inputs": [
        {
          "indexed": false,
          "name": "matchId",
          "type": "uint256"
        },
        {
          "indexed": false,
          "name": "questionId",
          "type": "uint256"
        },
        {
          "indexed": false,
          "name": "playerAddress",
          "type": "address"
        },
        {
          "indexed": false,
          "name": "loosingAmount",
          "type": "uint256"
        }
      ],
      "name": "LogQuestionBetLoose",
      "type": "event"
    },
    {
      "anonymous": false,
      "inputs": [
        {
          "indexed": false,
          "name": "matchId",
          "type": "uint256"
        },
        {
          "indexed": false,
          "name": "playerAddress",
          "type": "address"
        },
        {
          "indexed": false,
          "name": "winningAmount",
          "type": "uint256"
        },
        {
          "indexed": false,
          "name": "loosingAmount",
          "type": "uint256"
        },
        {
          "indexed": false,
          "name": "toalBet",
          "type": "uint256"
        }
      ],
      "name": "LogWin",
      "type": "event"
    },
    {
      "anonymous": false,
      "inputs": [
        {
          "indexed": false,
          "name": "matchId",
          "type": "uint256"
        },
        {
          "indexed": false,
          "name": "playerAddress",
          "type": "address"
        },
        {
          "indexed": false,
          "name": "winningAmount",
          "type": "uint256"
        },
        {
          "indexed": false,
          "name": "loosingAmount",
          "type": "uint256"
        },
        {
          "indexed": false,
          "name": "toalBet",
          "type": "uint256"
        }
      ],
      "name": "LogLoose",
      "type": "event"
    },
    {
      "anonymous": false,
      "inputs": [
        {
          "indexed": false,
          "name": "who",
          "type": "address"
        },
        {
          "indexed": false,
          "name": "halted",
          "type": "bool"
        }
      ],
      "name": "LogHaltSwitch",
      "type": "event"
    },
    {
      "constant": false,
      "inputs": [
        {
          "name": "_weight",
          "type": "uint256[5]"
        },
        {
          "name": "_option",
          "type": "uint256[5]"
        }
      ],
      "name": "bet",
      "outputs": [
        {
          "name": "ok",
          "type": "bool"
        }
      ],
      "payable": true,
      "stateMutability": "payable",
      "type": "function"
    },
    {
      "constant": true,
      "inputs": [],
      "name": "getBetLength",
      "outputs": [
        {
          "name": "betLength",
          "type": "uint256"
        }
      ],
      "payable": false,
      "stateMutability": "view",
      "type": "function"
    },
    {
      "constant": false,
      "inputs": [
        {
          "name": "options",
          "type": "uint256[5]"
        }
      ],
      "name": "endMatch",
      "outputs": [
        {
          "name": "ok",
          "type": "bool"
        }
      ],
      "payable": false,
      "stateMutability": "nonpayable",
      "type": "function"
    },
    {
      "constant": false,
      "inputs": [],
      "name": "abandonMatch",
      "outputs": [],
      "payable": false,
      "stateMutability": "nonpayable",
      "type": "function"
    },
    {
      "constant": false,
      "inputs": [
        {
          "name": "_who",
          "type": "address"
        },
        {
          "name": "_bettor",
          "type": "address"
        }
      ],
      "name": "resetBet",
      "outputs": [
        {
          "name": "ok",
          "type": "bool"
        }
      ],
      "payable": false,
      "stateMutability": "nonpayable",
      "type": "function"
    },
    {
      "constant": false,
      "inputs": [
        {
          "name": "_who",
          "type": "address"
        },
        {
          "name": "_isHalted",
          "type": "bool"
        }
      ],
      "name": "haltSwitch",
      "outputs": [
        {
          "name": "ok",
          "type": "bool"
        }
      ],
      "payable": false,
      "stateMutability": "nonpayable",
      "type": "function"
    },
    {
      "constant": false,
      "inputs": [
        {
          "name": "recipient",
          "type": "address"
        }
      ],
      "name": "kill",
      "outputs": [
        {
          "name": "ok",
          "type": "bool"
        }
      ],
      "payable": false,
      "stateMutability": "nonpayable",
      "type": "function"
    },
    {
      "constant": false,
      "inputs": [],
      "name": "getMultipler",
      "outputs": [
        {
          "name": "mulx",
          "type": "uint256[6]"
        }
      ],
      "payable": false,
      "stateMutability": "nonpayable",
      "type": "function"
    },
    {
      "constant": false,
      "inputs": [
        {
          "name": "mul",
          "type": "uint256[6]"
        }
      ],
      "name": "setMultiplier",
      "outputs": [
        {
          "name": "ok",
          "type": "bool"
        }
      ],
      "payable": false,
      "stateMutability": "nonpayable",
      "type": "function"
    }
  ],
  "bytecode": "0x6060604052341561000f57600080fd5b6040516040806120558339810160405280805190602001909190805190602001909190505033600060016101000a81548173ffffffffffffffffffffffffffffffffffffffff021916908373ffffffffffffffffffffffffffffffffffffffff1602179055508160028190555080600160006101000a81548173ffffffffffffffffffffffffffffffffffffffff021916908373ffffffffffffffffffffffffffffffffffffffff1602179055505050611f87806100ce6000396000f30060606040526004361061011d576000357c0100000000000000000000000000000000000000000000000000000000900463ffffffff16806305e30f51146101225780630d8053ca14610159578063102dd66b1461018257806323abbf10146101f257806324b570a914610207578063286051c1146102305780633812258c1461026757806338330a7c146102c35780633a5d9a30146103425780635903d60d146103935780636dddcf46146103c057806389a78f1a146103ed5780638da5cb5b1461043a57806399892e471461048f578063aacc388e146104b8578063ae6d907314610516578063c517e81614610579578063c7ff1584146105d7578063cbf0b0c014610604578063ef378f6214610655578063f4786c12146106a9575b600080fd5b341561012d57600080fd5b61014360048080359060200190919050506106fa565b6040518082815260200191505060405180910390f35b341561016457600080fd5b61016c610714565b6040518082815260200191505060405180910390f35b341561018d57600080fd5b6101d8600480803573ffffffffffffffffffffffffffffffffffffffff1690602001909190803573ffffffffffffffffffffffffffffffffffffffff16906020019091905050610721565b604051808215151515815260200191505060405180910390f35b34156101fd57600080fd5b610205610a52565b005b341561021257600080fd5b61021a610ab0565b6040518082815260200191505060405180910390f35b341561023b57600080fd5b6102516004808035906020019091905050610ab6565b6040518082815260200191505060405180910390f35b341561027257600080fd5b6102a9600480803573ffffffffffffffffffffffffffffffffffffffff169060200190919080351515906020019091905050610ad0565b604051808215151515815260200191505060405180910390f35b6103286004808060a001906005806020026040519081016040528092919082600560200280828437820191505050505091908060a001906005806020026040519081016040528092919082600560200280828437820191505050505091905050610bea565b604051808215151515815260200191505060405180910390f35b341561034d57600080fd5b61035561114f565b6040518082600660200280838360005b83811015610380578082015181840152602081019050610365565b5050505090500191505060405180910390f35b341561039e57600080fd5b6103a6611202565b604051808215151515815260200191505060405180910390f35b34156103cb57600080fd5b6103d3611215565b604051808215151515815260200191505060405180910390f35b34156103f857600080fd5b610424600480803573ffffffffffffffffffffffffffffffffffffffff16906020019091905050611228565b6040518082815260200191505060405180910390f35b341561044557600080fd5b61044d611246565b604051808273ffffffffffffffffffffffffffffffffffffffff1673ffffffffffffffffffffffffffffffffffffffff16815260200191505060405180910390f35b341561049a57600080fd5b6104a261126c565b6040518082815260200191505060405180910390f35b34156104c357600080fd5b6104fc6004808060a001906005806020026040519081016040528092919082600560200280828437820191505050505091905050611272565b604051808215151515815260200191505060405180910390f35b341561052157600080fd5b6105376004808035906020019091905050611cef565b604051808273ffffffffffffffffffffffffffffffffffffffff1673ffffffffffffffffffffffffffffffffffffffff16815260200191505060405180910390f35b341561058457600080fd5b6105bd6004808060c001906006806020026040519081016040528092919082600660200280828437820191505050505091905050611d2e565b604051808215151515815260200191505060405180910390f35b34156105e257600080fd5b6105ea611dd9565b604051808215151515815260200191505060405180910390f35b341561060f57600080fd5b61063b600480803573ffffffffffffffffffffffffffffffffffffffff16906020019091905050611deb565b604051808215151515815260200191505060405180910390f35b341561066057600080fd5b61068c600480803573ffffffffffffffffffffffffffffffffffffffff16906020019091905050611e7b565b604051808381526020018281526020019250505060405180910390f35b34156106b457600080fd5b6106e0600480803573ffffffffffffffffffffffffffffffffffffffff16906020019091905050611e9f565b604051808215151515815260200191505060405180910390f35b60038160068110151561070957fe5b016000915090505481565b6000601280549050905090565b60008060008060019054906101000a900473ffffffffffffffffffffffffffffffffffffffff1673ffffffffffffffffffffffffffffffffffffffff163373ffffffffffffffffffffffffffffffffffffffff1614151561078157600080fd5b601060008573ffffffffffffffffffffffffffffffffffffffff1673ffffffffffffffffffffffffffffffffffffffff168152602001908152602001600020600a01549050600091505b600582101561084f57601060008573ffffffffffffffffffffffffffffffffffffffff1673ffffffffffffffffffffffffffffffffffffffff1681526020019081526020016000206000018260058110151561082357fe5b015460098360058110151561083457fe5b016000828254039250508190555081806001019250506107cb565b601060008573ffffffffffffffffffffffffffffffffffffffff1673ffffffffffffffffffffffffffffffffffffffff1681526020019081526020016000206000808201600061089f9190611ebf565b6005820160006108af9190611ebf565b600a820160009055505080600e60008282540392505081905550600160009054906101000a900473ffffffffffffffffffffffffffffffffffffffff1673ffffffffffffffffffffffffffffffffffffffff16636039fbdb33836040518363ffffffff167c0100000000000000000000000000000000000000000000000000000000028152600401808373ffffffffffffffffffffffffffffffffffffffff1673ffffffffffffffffffffffffffffffffffffffff16815260200182815260200192505050602060405180830381600087803b151561098d57600080fd5b5af1151561099a57600080fd5b50505060405180519050507fc5d526ff4c62cd704d82ca8358af8e37305b99fc4a1ce2420592633397d0afa36002548587604051808481526020018373ffffffffffffffffffffffffffffffffffffffff1673ffffffffffffffffffffffffffffffffffffffff1681526020018273ffffffffffffffffffffffffffffffffffffffff1673ffffffffffffffffffffffffffffffffffffffff168152602001935050505060405180910390a160019250505092915050565b600060019054906101000a900473ffffffffffffffffffffffffffffffffffffffff1673ffffffffffffffffffffffffffffffffffffffff163373ffffffffffffffffffffffffffffffffffffffff16141515610aae57600080fd5b565b600e5481565b600981600581101515610ac557fe5b016000915090505481565b60008060019054906101000a900473ffffffffffffffffffffffffffffffffffffffff1673ffffffffffffffffffffffffffffffffffffffff163373ffffffffffffffffffffffffffffffffffffffff16141515610b2d57600080fd5b8115156000809054906101000a900460ff16151514151515610b4e57600080fd5b816000806101000a81548160ff0219169083151502179055507f254518872c4cc0703b5cd922d710cffd6d4551803a00d0f9ed81c99751d29e546002548484604051808481526020018373ffffffffffffffffffffffffffffffffffffffff1673ffffffffffffffffffffffffffffffffffffffff16815260200182151515158152602001935050505060405180910390a16001905092915050565b60008060008060009054906101000a900460ff16151515610c0a57600080fd5b6000601060003373ffffffffffffffffffffffffffffffffffffffff1673ffffffffffffffffffffffffffffffffffffffff168152602001908152602001600020600a0154141515610c5b57600080fd5b601360009054906101000a900460ff16151515610c7757600080fd5b600f60003373ffffffffffffffffffffffffffffffffffffffff1673ffffffffffffffffffffffffffffffffffffffff16815260200190815260200160002060009054906101000a900460ff161515610d2e5760128054806001018281610cde9190611ee2565b9160005260206000209001600033909190916101000a81548173ffffffffffffffffffffffffffffffffffffffff021916908373ffffffffffffffffffffffffffffffffffffffff160217905550505b60009150600090505b6005811015610e62578481600581101515610d4e57fe5b6020020151601060003373ffffffffffffffffffffffffffffffffffffffff1673ffffffffffffffffffffffffffffffffffffffff16815260200190815260200160002060000182600581101515610da257fe5b01819055508481600581101515610db557fe5b6020020151600982600581101515610dc957fe5b01600082825401925050819055508381600581101515610de557fe5b6020020151601060003373ffffffffffffffffffffffffffffffffffffffff1673ffffffffffffffffffffffffffffffffffffffff16815260200190815260200160002060050182600581101515610e3957fe5b01819055508481600581101515610e4c57fe5b6020020151820191508080600101915050610d37565b81601060003373ffffffffffffffffffffffffffffffffffffffff1673ffffffffffffffffffffffffffffffffffffffff168152602001908152602001600020600a018190555081600e6000828254019250508190555081600160009054906101000a900473ffffffffffffffffffffffffffffffffffffffff1673ffffffffffffffffffffffffffffffffffffffff166370a08231336040518263ffffffff167c0100000000000000000000000000000000000000000000000000000000028152600401808273ffffffffffffffffffffffffffffffffffffffff1673ffffffffffffffffffffffffffffffffffffffff168152602001915050602060405180830381600087803b1515610f7657600080fd5b5af11515610f8357600080fd5b5050506040518051905010151515610f9a57600080fd5b600160009054906101000a900473ffffffffffffffffffffffffffffffffffffffff1673ffffffffffffffffffffffffffffffffffffffff16635851a7fe33846040518363ffffffff167c0100000000000000000000000000000000000000000000000000000000028152600401808373ffffffffffffffffffffffffffffffffffffffff1673ffffffffffffffffffffffffffffffffffffffff16815260200182815260200192505050602060405180830381600087803b151561105e57600080fd5b5af1151561106b57600080fd5b50505060405180519050506001600f60003373ffffffffffffffffffffffffffffffffffffffff1673ffffffffffffffffffffffffffffffffffffffff16815260200190815260200160002060006101000a81548160ff0219169083151502179055507f865cdc8d1bf8b43c96548347220fc458c21f36cda4b5c2ff7646c5f88b78aac66002543384604051808481526020018373ffffffffffffffffffffffffffffffffffffffff1673ffffffffffffffffffffffffffffffffffffffff168152602001828152602001935050505060405180910390a160019250505092915050565b611157611f0e565b61115f611f0e565b600060019054906101000a900473ffffffffffffffffffffffffffffffffffffffff1673ffffffffffffffffffffffffffffffffffffffff163373ffffffffffffffffffffffffffffffffffffffff161415156111bb57600080fd5b60036006806020026040519081016040528092919082600680156111f4576020028201915b8154815260200190600101908083116111e0575b505050505090508091505090565b601360009054906101000a900460ff1681565b601360019054906101000a900460ff1681565b601060205280600052604060002060009150905080600a0154905081565b600060019054906101000a900473ffffffffffffffffffffffffffffffffffffffff1681565b60025481565b600080600080600080600080600060019054906101000a900473ffffffffffffffffffffffffffffffffffffffff1673ffffffffffffffffffffffffffffffffffffffff163373ffffffffffffffffffffffffffffffffffffffff161415156112da57600080fd5b6000809054906101000a900460ff1615156112f457600080fd5b600096505b601280549050871015611cdf5760128781548110151561131557fe5b906000526020600020900160009054906101000a900473ffffffffffffffffffffffffffffffffffffffff169550601060003373ffffffffffffffffffffffffffffffffffffffff1673ffffffffffffffffffffffffffffffffffffffff1681526020019081526020016000209350603b84600a01541115611398576064850194505b600096505b60058710156116825788876005811015156113b457fe5b602002015184600501886005811015156113ca57fe5b0154141561153d576003876006811015156113e157fe5b015484600001886005811015156113f457fe5b0154029250828501945082601160008873ffffffffffffffffffffffffffffffffffffffff1673ffffffffffffffffffffffffffffffffffffffff1681526020019081526020016000206000018860058110151561144e57fe5b018190555082601160008873ffffffffffffffffffffffffffffffffffffffff1673ffffffffffffffffffffffffffffffffffffffff168152602001908152602001600020600a01600082825401925050819055507fcf50bcfb6f613cfa9085db48f2c967cc48a51f186a1ddbb3e77d3af503e02adb60025488888660038c6006811015156114d957fe5b0154604051808681526020018581526020018473ffffffffffffffffffffffffffffffffffffffff1673ffffffffffffffffffffffffffffffffffffffff1681526020018381526020018281526020019550505050505060405180910390a1611675565b836000018760058110151561154e57fe5b0154915081601160008873ffffffffffffffffffffffffffffffffffffffff1673ffffffffffffffffffffffffffffffffffffffff168152602001908152602001600020600501886005811015156115a257fe5b018190555081601160008873ffffffffffffffffffffffffffffffffffffffff1673ffffffffffffffffffffffffffffffffffffffff168152602001908152602001600020600b01600082825401925050819055507f9e4454b637a654217390e81819a12743726f087860edbbbf466be0a49cb5b68a600254888885604051808581526020018481526020018373ffffffffffffffffffffffffffffffffffffffff1673ffffffffffffffffffffffffffffffffffffffff16815260200182815260200194505050505060405180910390a15b868060010197505061139d565b600a89600460058110151561169357fe5b6020020151038460050160046005811015156116ab57fe5b0154101580156116e45750600a8960046005811015156116c757fe5b6020020151018460050160046005811015156116df57fe5b015411155b801561171657508860046005811015156116fa57fe5b602002015184600501600460058110151561171157fe5b015414155b1561194a576003600560068110151561172b57fe5b015484600501600460058110151561173f57fe5b0154029050808501945080601160008873ffffffffffffffffffffffffffffffffffffffff1673ffffffffffffffffffffffffffffffffffffffff168152602001908152602001600020600001600460058110151561179a57fe5b016000828254019250508190555080601160008873ffffffffffffffffffffffffffffffffffffffff1673ffffffffffffffffffffffffffffffffffffffff168152602001908152602001600020600a01600082825401925050819055506000601160008873ffffffffffffffffffffffffffffffffffffffff1673ffffffffffffffffffffffffffffffffffffffff168152602001908152602001600020600501600460058110151561184a57fe5b018190555083600001600460058110151561186157fe5b0154601160008873ffffffffffffffffffffffffffffffffffffffff1673ffffffffffffffffffffffffffffffffffffffff168152602001908152602001600020600b01600082825403925050819055507fcf50bcfb6f613cfa9085db48f2c967cc48a51f186a1ddbb3e77d3af503e02adb60025460058884600360056006811015156118ea57fe5b0154604051808681526020018581526020018473ffffffffffffffffffffffffffffffffffffffff1673ffffffffffffffffffffffffffffffffffffffff1681526020018381526020018281526020019550505050505060405180910390a15b600160009054906101000a900473ffffffffffffffffffffffffffffffffffffffff1673ffffffffffffffffffffffffffffffffffffffff16636039fbdb87876040518363ffffffff167c0100000000000000000000000000000000000000000000000000000000028152600401808373ffffffffffffffffffffffffffffffffffffffff1673ffffffffffffffffffffffffffffffffffffffff16815260200182815260200192505050602060405180830381600087803b1515611a0e57600080fd5b5af11515611a1b57600080fd5b5050506040518051905050601160008773ffffffffffffffffffffffffffffffffffffffff1673ffffffffffffffffffffffffffffffffffffffff168152602001908152602001600020600b0154601160008873ffffffffffffffffffffffffffffffffffffffff1673ffffffffffffffffffffffffffffffffffffffff168152602001908152602001600020600a01541115611bc4577f4554c9f87a1d2778b5a0febaa76e512f0673fb87508bae2c5656e9eec45e5a3260025487601160008a73ffffffffffffffffffffffffffffffffffffffff1673ffffffffffffffffffffffffffffffffffffffff168152602001908152602001600020600a0154601160008b73ffffffffffffffffffffffffffffffffffffffff1673ffffffffffffffffffffffffffffffffffffffff168152602001908152602001600020600b015488600a0154604051808681526020018573ffffffffffffffffffffffffffffffffffffffff1673ffffffffffffffffffffffffffffffffffffffff1681526020018481526020018381526020018281526020019550505050505060405180910390a1611cd2565b7f99999717a93bce61a6eb58e25f13239ba0ac9c86b48db5cc35c51f253bbb384260025487601160008a73ffffffffffffffffffffffffffffffffffffffff1673ffffffffffffffffffffffffffffffffffffffff168152602001908152602001600020600a0154601160008b73ffffffffffffffffffffffffffffffffffffffff1673ffffffffffffffffffffffffffffffffffffffff168152602001908152602001600020600b015488600a0154604051808681526020018573ffffffffffffffffffffffffffffffffffffffff1673ffffffffffffffffffffffffffffffffffffffff1681526020018481526020018381526020018281526020019550505050505060405180910390a15b86806001019750506112f9565b6001975050505050505050919050565b601281815481101515611cfe57fe5b90600052602060002090016000915054906101000a900473ffffffffffffffffffffffffffffffffffffffff1681565b600080600060019054906101000a900473ffffffffffffffffffffffffffffffffffffffff1673ffffffffffffffffffffffffffffffffffffffff163373ffffffffffffffffffffffffffffffffffffffff16141515611d8d57600080fd5b600090505b6005811015611dcf578281600681101515611da957fe5b6020020151600382600681101515611dbd57fe5b01819055508080600101915050611d92565b6001915050919050565b6000809054906101000a900460ff1681565b60008060019054906101000a900473ffffffffffffffffffffffffffffffffffffffff1673ffffffffffffffffffffffffffffffffffffffff163373ffffffffffffffffffffffffffffffffffffffff16141515611e4857600080fd5b6000809054906101000a900460ff161515611e6257600080fd5b8173ffffffffffffffffffffffffffffffffffffffff16ff5b601160205280600052604060002060009150905080600a01549080600b0154905082565b600f6020528060005260406000206000915054906101000a900460ff1681565b506000815560010160008155600101600081556001016000815560010160009055565b815481835581811511611f0957818360005260206000209182019101611f089190611f36565b5b505050565b60c0604051908101604052806006905b6000815260200190600190039081611f1e5790505090565b611f5891905b80821115611f54576000816000905550600101611f3c565b5090565b905600a165627a7a723058209615a62dbee13eeba47930d941eb9180cda5449e10ac223582f72d1c6e0292ee0029",
  "source": "pragma solidity ^0.4.15;\n\nimport './SafeMath.sol';\nimport './Interfaces.sol';\nimport './Ownable.sol';\nimport './Haltable.sol';\nimport './EIP20Interface.sol';\n\n\ncontract IPLMatch is Haltable, Ownable\n{\n    using SafeMath for uint;\n\n    EIP20Interface token;\n    \n    uint public matchId;\n    uint256[6] public multiplier;\n\n    struct Bet {\n       uint256[5] weight;\n       uint256[5] option;\n       uint256 totalBet;\n    }\n    \n    struct Result {\n        uint256[5] win;\n        uint256[5] loose;\n        uint256 totalWin;\n        uint256 totalLoose;\n    }\n\n    uint256[5] public qPot;\n    uint256 public totalPot;\n    mapping(address => bool) public isBet;\n    mapping(address => Bet) public bets;\n    mapping(address => Result) public results;\n    \n    address[] public playerList;\n    \n    bool public matchAbandon;\n    bool public matchEnd;\n    \n    event LogBet(uint matchId,address bettor, uint256 betAmount);\n    event LogBetReset(uint matchId, address bettor, address adminAddress);\n    event LogBetSwitch(uint matchId, address adminAddress, bool isHalted);\n    event LogQuestionBetWin(uint matchId,uint questionId,address playerAddress,uint256 winningAmount,uint256 multiplier);\n    event LogQuestionBetLoose(uint matchId,uint questionId,address playerAddress,uint256 loosingAmount);\n    event LogWin(uint matchId,address playerAddress,uint256 winningAmount,uint256 loosingAmount,uint256 toalBet);\n    event LogLoose(uint matchId,address playerAddress,uint256 winningAmount,uint256 loosingAmount,uint256 toalBet);\n    \n    function IPLMatch(uint _id, address _token){\n        matchId = _id;\n        token =  EIP20Interface (_token);\n    }\n\n    function bet(uint256[5] _weight, uint256[5] _option)\n        payable\n        onlyNotHalted\n        canBet\n        returns (bool ok)\n    {\n        require (!matchAbandon);\n        \n        if(!isBet[msg.sender]){\n            playerList.push(msg.sender);\n        }\n        \n        uint256 sum = 0;\n        uint i;\n        for(i=0;i<5;i++){\n            bets[msg.sender].weight[i] = _weight[i];\n            qPot[i] += _weight[i];\n            bets[msg.sender].option[i] = _option[i];\n            sum += _weight[i];\n        }\n        bets[msg.sender].totalBet = sum;\n        totalPot+= sum;\n        require(token.balanceOf(msg.sender) >= sum);\n        token.minusTokens(msg.sender,sum);\n        isBet[msg.sender] = true;\n        emit LogBet(matchId,msg.sender,sum);\n\n        return true;\n    }\n   \n    \n    //\n    // frontend convenience getters\n    //\n\n   \n    function getBetLength()\n        constant\n        returns (uint betLength)\n    {\n        return playerList.length;\n    }\n    \n    //\n    // Utility Functions\n    //\n    \n    function endMatch(uint[5] options) onlyOwner onlyHalted returns (bool ok){\n        \n            uint i;\n            \n            for (i=0; i<playerList.length; i++){\n                address playerAddress = playerList[i];\n                uint profitTokens;\n                Bet storage myBet = bets[msg.sender];\n                \n                //Send Regular Supply if totalBet > 60\n                if(myBet.totalBet >59)\n                {\n                    profitTokens += 100;\n                }\n                \n                for(i=0; i<5;i++){\n                    if(myBet.option[i] == options[i])\n                    {\n                        uint amt;\n                        amt = myBet.weight[i] * multiplier[i];\n                        profitTokens+=amt;\n                        results[playerAddress].win[i]=amt;\n                        results[playerAddress].totalWin+=amt;\n                        emit LogQuestionBetWin(matchId,i,playerAddress,amt,multiplier[i]);\n                    }\n                    else\n                    {\n                        uint amt1 = myBet.weight[i];\n                        results[playerAddress].loose[i]=amt1;\n                        results[playerAddress].totalLoose += amt1;\n                        emit LogQuestionBetLoose(matchId,i,playerAddress,amt1);\n                    }\n                }\n                if ((myBet.option[4] >= (options[4]-10)) && (myBet.option[4] <= (options[4]+10)) && (myBet.option[4] != options[4])){\n                    uint amt2 = myBet.option[4] * multiplier[5];\n                    profitTokens+= amt2;\n                    results[playerAddress].win[4]+=amt2;\n                    results[playerAddress].totalWin+=amt2;\n                    results[playerAddress].loose[4]=0;\n                        results[playerAddress].totalLoose -= myBet.weight[4];\n                   emit LogQuestionBetWin(matchId,5,playerAddress,amt2,multiplier[5]);\n                    \n                }\n                token.addTokens(playerAddress,profitTokens);\n                if(results[playerAddress].totalWin > results[playerAddress].totalLoose){\n                    emit LogWin(matchId,playerAddress,results[playerAddress].totalWin,results[playerAddress].totalLoose,myBet.totalBet);\n                }\n                else{\n                    emit LogLoose(matchId,playerAddress,results[playerAddress].totalWin,results[playerAddress].totalLoose,myBet.totalBet);\n                }\n                \n                \n            }\n                   \n           return true;\n    }\n    \n    function abandonMatch() onlyOwner {\n        \n    }\n    \n    function resetBet(address _who,address _bettor) onlyOwner returns (bool ok){\n        uint i;\n        uint256 sum;\n        \n        sum = bets[_bettor].totalBet;\n        for(i=0;i<5;i++){\n            qPot[i] -= bets[_bettor].weight[i];\n        }\n        delete bets[_bettor];\n        totalPot -= sum ;\n        token.addTokens(msg.sender,sum);\n        \n        emit LogBetReset (matchId, _bettor, _who);\n        return true;\n        \n        \n    }\n    function haltSwitch(address _who, bool _isHalted)\n        onlyOwner\n        returns (bool ok)\n    {\n        require(isHalted != _isHalted);\n        isHalted = _isHalted;\n        emit LogBetSwitch(matchId,_who, _isHalted);\n        return true;\n    }\n    \n    \n\n    // due to our multi-admin setup, it's probably useful to be able to specify the recipient\n    // of the destroyed contract's funds.\n    function kill(address recipient)\n        onlyOwner\n        onlyHalted\n        returns (bool ok)\n    {\n        selfdestruct(recipient);\n        return true;\n    }\n\n    function getMultipler() onlyOwner returns(uint[6] mulx){\n        uint[6] memory mult;\n        mult = multiplier;\n        return mult;\n    }\n    \n    function setMultiplier(uint256[6] mul) onlyOwner returns(bool ok){\n        uint i;\n        for(i=0;i<5;i++){\n            multiplier[i] = mul[i];\n        }\n        return true;\n    }\n    //\n    // modifiers\n    //\n\n    modifier onlyAdmin {\n        IPredictionMarket mkt = IPredictionMarket(owner);\n        require(mkt.isAdmin(msg.sender));\n        _;\n    }\n    \n    modifier canBet {\n        require(bets[msg.sender].totalBet == 0);\n        _;\n    }\n\n   \n}",
  "sourcePath": "/Users/punyampatnaik/Code Arena/Apps/abc-app/contracts/IPLMatch.sol",
  "compiler": {
    "name": "solc",
    "version": "0.4.21+commit.dfe3193c.Emscripten.clang"
  },
  "schemaVersion": "2.0.0",
  "updatedAt": "2018-04-04T09:15:48.072Z"
}