{
  "contractName": "IPredictionMarket",
  "abi": [
    {
      "constant": true,
      "inputs": [
        {
          "name": "",
          "type": "address"
        }
      ],
      "name": "isAdmin",
      "outputs": [
        {
          "name": "",
          "type": "bool"
        }
      ],
      "payable": false,
      "stateMutability": "view",
      "type": "function"
    }
  ],
  "bytecode": "0x608060405234801561001057600080fd5b5060e88061001f6000396000f300608060405260043610603f576000357c0100000000000000000000000000000000000000000000000000000000900463ffffffff16806324d7806c146044575b600080fd5b348015604f57600080fd5b506082600480360381019080803573ffffffffffffffffffffffffffffffffffffffff169060200190929190505050609c565b604051808215151515815260200191505060405180910390f35b60006020528060005260406000206000915054906101000a900460ff16815600a165627a7a7230582018da00bbd4408d2c138dcaee85e2f6b2147e59a289a0007ceb33d8c5217126020029",
  "source": "pragma solidity ^0.4.15;\n\n\ncontract IPredictionMarket {\n    mapping(address => bool) public isAdmin;\n}",
  "sourcePath": "/home/nitesh_ns19/abc-ipl/contracts/Interfaces.sol",
  "compiler": {
    "name": "solc",
    "version": "0.4.24+commit.e67f0147.Emscripten.clang"
  },
  "schemaVersion": "2.0.1",
  "updatedAt": "2018-06-30T14:18:55.186Z"
}