{
  "contractName": "MultiOwnable",
  "abi": [
    {
      "constant": true,
      "inputs": [
        {
          "name": "",
          "type": "address"
        }
      ],
      "name": "isAdmin",
      "outputs": [
        {
          "name": "",
          "type": "bool"
        }
      ],
      "payable": false,
      "stateMutability": "view",
      "type": "function"
    },
    {
      "anonymous": false,
      "inputs": [
        {
          "indexed": false,
          "name": "whoAdded",
          "type": "address"
        },
        {
          "indexed": false,
          "name": "newAdmin",
          "type": "address"
        }
      ],
      "name": "LogAddAdmin",
      "type": "event"
    },
    {
      "constant": false,
      "inputs": [
        {
          "name": "admin",
          "type": "address"
        }
      ],
      "name": "addAdmin",
      "outputs": [
        {
          "name": "ok",
          "type": "bool"
        }
      ],
      "payable": false,
      "stateMutability": "nonpayable",
      "type": "function"
    }
  ],
  "bytecode": "0x6060604052341561000f57600080fd5b6102ed8061001e6000396000f30060606040526004361061004c576000357c0100000000000000000000000000000000000000000000000000000000900463ffffffff16806324d7806c1461005157806370480275146100a2575b600080fd5b341561005c57600080fd5b610088600480803573ffffffffffffffffffffffffffffffffffffffff169060200190919050506100f3565b604051808215151515815260200191505060405180910390f35b34156100ad57600080fd5b6100d9600480803573ffffffffffffffffffffffffffffffffffffffff16906020019091905050610113565b604051808215151515815260200191505060405180910390f35b60006020528060005260406000206000915054906101000a900460ff1681565b60008060003373ffffffffffffffffffffffffffffffffffffffff1673ffffffffffffffffffffffffffffffffffffffff16815260200190815260200160002060009054906101000a900460ff16151561016c57600080fd5b600015156000808473ffffffffffffffffffffffffffffffffffffffff1673ffffffffffffffffffffffffffffffffffffffff16815260200190815260200160002060009054906101000a900460ff1615151415156101ca57600080fd5b60016000808473ffffffffffffffffffffffffffffffffffffffff1673ffffffffffffffffffffffffffffffffffffffff16815260200190815260200160002060006101000a81548160ff0219169083151502179055507fdf593c01aa2f7c955ab35aee0623fe0744c2117efb32343667f5b9660e9d50493383604051808373ffffffffffffffffffffffffffffffffffffffff1673ffffffffffffffffffffffffffffffffffffffff1681526020018273ffffffffffffffffffffffffffffffffffffffff1673ffffffffffffffffffffffffffffffffffffffff1681526020019250505060405180910390a1600190509190505600a165627a7a723058209d20cb2273c1c02a828b55094e59e701a8b14e34413f214a3952785ac651274c0029",
  "source": "pragma solidity ^0.4.15;\n\ncontract MultiOwnable\n{\n    mapping(address => bool) public isAdmin;\n\n    event LogAddAdmin(address whoAdded, address newAdmin);\n\n    function addAdmin(address admin)\n        onlyAdmin\n        returns (bool ok)\n    {\n        require(isAdmin[admin] == false);\n        isAdmin[admin] = true;\n\n        LogAddAdmin(msg.sender, admin);\n        return true;\n    }\n\n\n    modifier onlyAdmin {\n        require(isAdmin[msg.sender]);\n        _;\n    }\n}",
  "sourcePath": "/Users/punyampatnaik/Code Arena/Apps/abc-app/contracts/MultiOwnable.sol",
  "compiler": {
    "name": "solc",
    "version": "0.4.21+commit.dfe3193c.Emscripten.clang"
  },
  "schemaVersion": "2.0.0",
  "updatedAt": "2018-04-11T17:13:05.361Z"
}