{
  "contractName": "Registration",
  "abi": [
    {
      "constant": true,
      "inputs": [
        {
          "name": "",
          "type": "address"
        }
      ],
      "name": "playerType",
      "outputs": [
        {
          "name": "",
          "type": "uint256"
        }
      ],
      "payable": false,
      "stateMutability": "view",
      "type": "function"
    },
    {
      "constant": true,
      "inputs": [
        {
          "name": "",
          "type": "address"
        }
      ],
      "name": "isAdmin",
      "outputs": [
        {
          "name": "",
          "type": "bool"
        }
      ],
      "payable": false,
      "stateMutability": "view",
      "type": "function"
    },
    {
      "constant": true,
      "inputs": [],
      "name": "startingPoints",
      "outputs": [
        {
          "name": "",
          "type": "uint256"
        }
      ],
      "payable": false,
      "stateMutability": "view",
      "type": "function"
    },
    {
      "constant": true,
      "inputs": [
        {
          "name": "",
          "type": "uint256"
        }
      ],
      "name": "questionStats",
      "outputs": [
        {
          "name": "toalWinAmount",
          "type": "uint256"
        },
        {
          "name": "totalLooseAmount",
          "type": "uint256"
        },
        {
          "name": "totalWins",
          "type": "uint256"
        },
        {
          "name": "totalLoose",
          "type": "uint256"
        }
      ],
      "payable": false,
      "stateMutability": "view",
      "type": "function"
    },
    {
      "constant": true,
      "inputs": [
        {
          "name": "",
          "type": "address"
        }
      ],
      "name": "playerNames",
      "outputs": [
        {
          "name": "",
          "type": "string"
        }
      ],
      "payable": false,
      "stateMutability": "view",
      "type": "function"
    },
    {
      "constant": false,
      "inputs": [
        {
          "name": "admin",
          "type": "address"
        }
      ],
      "name": "addAdmin",
      "outputs": [
        {
          "name": "ok",
          "type": "bool"
        }
      ],
      "payable": false,
      "stateMutability": "nonpayable",
      "type": "function"
    },
    {
      "constant": true,
      "inputs": [
        {
          "name": "",
          "type": "uint256"
        }
      ],
      "name": "playerBalances",
      "outputs": [
        {
          "name": "",
          "type": "uint256"
        }
      ],
      "payable": false,
      "stateMutability": "view",
      "type": "function"
    },
    {
      "constant": true,
      "inputs": [
        {
          "name": "",
          "type": "address"
        }
      ],
      "name": "isPlayerFrozen",
      "outputs": [
        {
          "name": "",
          "type": "bool"
        }
      ],
      "payable": false,
      "stateMutability": "view",
      "type": "function"
    },
    {
      "constant": true,
      "inputs": [],
      "name": "tokenAddress",
      "outputs": [
        {
          "name": "",
          "type": "address"
        }
      ],
      "payable": false,
      "stateMutability": "view",
      "type": "function"
    },
    {
      "constant": true,
      "inputs": [
        {
          "name": "",
          "type": "address"
        }
      ],
      "name": "matchStats",
      "outputs": [
        {
          "name": "toalWinAmount",
          "type": "uint256"
        },
        {
          "name": "totalLooseAmount",
          "type": "uint256"
        },
        {
          "name": "totalWins",
          "type": "uint256"
        },
        {
          "name": "totalLoose",
          "type": "uint256"
        }
      ],
      "payable": false,
      "stateMutability": "view",
      "type": "function"
    },
    {
      "constant": true,
      "inputs": [
        {
          "name": "",
          "type": "uint256"
        }
      ],
      "name": "playerList",
      "outputs": [
        {
          "name": "",
          "type": "address"
        }
      ],
      "payable": false,
      "stateMutability": "view",
      "type": "function"
    },
    {
      "constant": true,
      "inputs": [
        {
          "name": "",
          "type": "address"
        }
      ],
      "name": "playerRank",
      "outputs": [
        {
          "name": "",
          "type": "uint256"
        }
      ],
      "payable": false,
      "stateMutability": "view",
      "type": "function"
    },
    {
      "constant": true,
      "inputs": [
        {
          "name": "",
          "type": "uint256"
        }
      ],
      "name": "playerTypes",
      "outputs": [
        {
          "name": "",
          "type": "uint256"
        }
      ],
      "payable": false,
      "stateMutability": "view",
      "type": "function"
    },
    {
      "constant": true,
      "inputs": [
        {
          "name": "",
          "type": "address"
        }
      ],
      "name": "playerStats",
      "outputs": [
        {
          "name": "toalWinAmount",
          "type": "uint256"
        },
        {
          "name": "totalLooseAmount",
          "type": "uint256"
        },
        {
          "name": "totalWins",
          "type": "uint256"
        },
        {
          "name": "totalLoose",
          "type": "uint256"
        }
      ],
      "payable": false,
      "stateMutability": "view",
      "type": "function"
    },
    {
      "constant": true,
      "inputs": [
        {
          "name": "",
          "type": "address"
        }
      ],
      "name": "isTrustedPlayer",
      "outputs": [
        {
          "name": "",
          "type": "bool"
        }
      ],
      "payable": false,
      "stateMutability": "view",
      "type": "function"
    },
    {
      "inputs": [
        {
          "name": "_tokenAddress",
          "type": "address"
        }
      ],
      "payable": false,
      "stateMutability": "nonpayable",
      "type": "constructor"
    },
    {
      "anonymous": false,
      "inputs": [
        {
          "indexed": true,
          "name": "playerAddress",
          "type": "address"
        },
        {
          "indexed": false,
          "name": "playerName",
          "type": "string"
        },
        {
          "indexed": false,
          "name": "playerType",
          "type": "uint256"
        }
      ],
      "name": "LogAddPlayer",
      "type": "event"
    },
    {
      "anonymous": false,
      "inputs": [
        {
          "indexed": false,
          "name": "oldPoints",
          "type": "uint256"
        },
        {
          "indexed": false,
          "name": "newPoints",
          "type": "uint256"
        }
      ],
      "name": "LogChangeStartingpoint",
      "type": "event"
    },
    {
      "anonymous": false,
      "inputs": [
        {
          "indexed": true,
          "name": "playerAddress",
          "type": "address"
        },
        {
          "indexed": false,
          "name": "freezeStatus",
          "type": "bool"
        }
      ],
      "name": "LogPlayerStatus",
      "type": "event"
    },
    {
      "anonymous": false,
      "inputs": [
        {
          "indexed": false,
          "name": "whoAdded",
          "type": "address"
        },
        {
          "indexed": false,
          "name": "newAdmin",
          "type": "address"
        }
      ],
      "name": "LogAddAdmin",
      "type": "event"
    },
    {
      "constant": false,
      "inputs": [
        {
          "name": "_playerAddress",
          "type": "address"
        },
        {
          "name": "playerName",
          "type": "string"
        },
        {
          "name": "_playerType",
          "type": "uint256"
        }
      ],
      "name": "addPlayer",
      "outputs": [
        {
          "name": "ok",
          "type": "bool"
        }
      ],
      "payable": false,
      "stateMutability": "nonpayable",
      "type": "function"
    },
    {
      "constant": false,
      "inputs": [
        {
          "name": "_playerAddress",
          "type": "address"
        },
        {
          "name": "freezeStatus",
          "type": "bool"
        }
      ],
      "name": "freezePlayer",
      "outputs": [
        {
          "name": "ok",
          "type": "bool"
        }
      ],
      "payable": false,
      "stateMutability": "nonpayable",
      "type": "function"
    },
    {
      "constant": true,
      "inputs": [],
      "name": "getPlayerList",
      "outputs": [
        {
          "name": "_playerList",
          "type": "address[]"
        }
      ],
      "payable": false,
      "stateMutability": "view",
      "type": "function"
    },
    {
      "constant": true,
      "inputs": [],
      "name": "getNumberPlayers",
      "outputs": [
        {
          "name": "numberPlayer",
          "type": "uint256"
        }
      ],
      "payable": false,
      "stateMutability": "view",
      "type": "function"
    },
    {
      "constant": true,
      "inputs": [
        {
          "name": "_playerAddress",
          "type": "address"
        }
      ],
      "name": "getPlayerBalance",
      "outputs": [
        {
          "name": "balance",
          "type": "uint256"
        }
      ],
      "payable": false,
      "stateMutability": "view",
      "type": "function"
    },
    {
      "constant": false,
      "inputs": [],
      "name": "getPlayerDetail",
      "outputs": [
        {
          "name": "_playerList",
          "type": "address[]"
        },
        {
          "name": "balance",
          "type": "uint256[]"
        },
        {
          "name": "_playerType",
          "type": "uint256[]"
        }
      ],
      "payable": false,
      "stateMutability": "nonpayable",
      "type": "function"
    },
    {
      "constant": false,
      "inputs": [
        {
          "name": "_newTokenAddress",
          "type": "address"
        }
      ],
      "name": "changeTokenAddress",
      "outputs": [
        {
          "name": "ok",
          "type": "bool"
        }
      ],
      "payable": false,
      "stateMutability": "nonpayable",
      "type": "function"
    },
    {
      "constant": false,
      "inputs": [
        {
          "name": "newPoints",
          "type": "uint256"
        }
      ],
      "name": "changeStartingPoints",
      "outputs": [
        {
          "name": "ok",
          "type": "bool"
        }
      ],
      "payable": false,
      "stateMutability": "nonpayable",
      "type": "function"
    },
    {
      "constant": false,
      "inputs": [
        {
          "name": "rankArray",
          "type": "uint256[]"
        },
        {
          "name": "addressArray",
          "type": "address[]"
        }
      ],
      "name": "setPlayerRank",
      "outputs": [
        {
          "name": "ok",
          "type": "bool"
        }
      ],
      "payable": false,
      "stateMutability": "nonpayable",
      "type": "function"
    }
  ],
  "bytecode": "0x6060604052341561000f57600080fd5b604051602080611d6f8339810160405280805190602001909190505080600860006101000a81548173ffffffffffffffffffffffffffffffffffffffff021916908373ffffffffffffffffffffffffffffffffffffffff16021790555080600960006101000a81548173ffffffffffffffffffffffffffffffffffffffff021916908373ffffffffffffffffffffffffffffffffffffffff160217905550606460078190555050611caa806100c56000396000f30060606040526004361061013d576000357c0100000000000000000000000000000000000000000000000000000000900463ffffffff1680625ed29e146101425780632027f5041461018f57806324d7806c146101eb5780632859a8251461023c578063306c4aa41461026557806337d31d40146102b15780633bdf94761461034e57806343b978b31461038957806362a63e291461043b57806370480275146104a557806380ca3627146104f65780638b20b1ab1461052d5780639d76ea581461057e578063abe9453a146105d3578063ada015da14610635578063ae6d90731461065e578063c344b710146106c1578063c355d31c1461070e578063c9cda91f14610745578063cdafbbb614610796578063d4150b5b146107f8578063d85364b814610849578063e2734c93146108fb578063ed45627b14610948575b600080fd5b341561014d57600080fd5b610179600480803573ffffffffffffffffffffffffffffffffffffffff16906020019091905050610a42565b6040518082815260200191505060405180910390f35b341561019a57600080fd5b6101d1600480803573ffffffffffffffffffffffffffffffffffffffff169060200190919080351515906020019091905050610a5a565b604051808215151515815260200191505060405180910390f35b34156101f657600080fd5b610222600480803573ffffffffffffffffffffffffffffffffffffffff16906020019091905050610bbe565b604051808215151515815260200191505060405180910390f35b341561024757600080fd5b61024f610bde565b6040518082815260200191505060405180910390f35b341561027057600080fd5b6102866004808035906020019091905050610be4565b6040518085815260200184815260200183815260200182815260200194505050505060405180910390f35b34156102bc57600080fd5b610334600480803573ffffffffffffffffffffffffffffffffffffffff1690602001909190803590602001908201803590602001908080601f01602080910402602001604051908101604052809392919081815260200183838082843782019150505050505091908035906020019091905050610c14565b604051808215151515815260200191505060405180910390f35b341561035957600080fd5b61036f6004808035906020019091905050611060565b604051808215151515815260200191505060405180910390f35b341561039457600080fd5b6103c0600480803573ffffffffffffffffffffffffffffffffffffffff1690602001909190505061110a565b6040518080602001828103825283818151815260200191508051906020019080838360005b838110156104005780820151818401526020810190506103e5565b50505050905090810190601f16801561042d5780820380516001836020036101000a031916815260200191505b509250505060405180910390f35b341561044657600080fd5b61044e6111ba565b6040518080602001828103825283818151815260200191508051906020019060200280838360005b83811015610491578082015181840152602081019050610476565b505050509050019250505060405180910390f35b34156104b057600080fd5b6104dc600480803573ffffffffffffffffffffffffffffffffffffffff1690602001909190505061124e565b604051808215151515815260200191505060405180910390f35b341561050157600080fd5b61051760048080359060200190919050506113fc565b6040518082815260200191505060405180910390f35b341561053857600080fd5b610564600480803573ffffffffffffffffffffffffffffffffffffffff16906020019091905050611420565b604051808215151515815260200191505060405180910390f35b341561058957600080fd5b610591611440565b604051808273ffffffffffffffffffffffffffffffffffffffff1673ffffffffffffffffffffffffffffffffffffffff16815260200191505060405180910390f35b34156105de57600080fd5b61060a600480803573ffffffffffffffffffffffffffffffffffffffff16906020019091905050611466565b6040518085815260200184815260200183815260200182815260200194505050505060405180910390f35b341561064057600080fd5b610648611496565b6040518082815260200191505060405180910390f35b341561066957600080fd5b61067f60048080359060200190919050506114a3565b604051808273ffffffffffffffffffffffffffffffffffffffff1673ffffffffffffffffffffffffffffffffffffffff16815260200191505060405180910390f35b34156106cc57600080fd5b6106f8600480803573ffffffffffffffffffffffffffffffffffffffff169060200190919050506114e2565b6040518082815260200191505060405180910390f35b341561071957600080fd5b61072f60048080359060200190919050506114fa565b6040518082815260200191505060405180910390f35b341561075057600080fd5b61077c600480803573ffffffffffffffffffffffffffffffffffffffff1690602001909190505061151e565b604051808215151515815260200191505060405180910390f35b34156107a157600080fd5b6107cd600480803573ffffffffffffffffffffffffffffffffffffffff16906020019091905050611602565b6040518085815260200184815260200183815260200182815260200194505050505060405180910390f35b341561080357600080fd5b61082f600480803573ffffffffffffffffffffffffffffffffffffffff16906020019091905050611632565b604051808215151515815260200191505060405180910390f35b341561085457600080fd5b6108e160048080359060200190820180359060200190808060200260200160405190810160405280939291908181526020018383602002808284378201915050505050509190803590602001908201803590602001908080602002602001604051908101604052809392919081815260200183836020028082843782019150505050505091905050611652565b604051808215151515815260200191505060405180910390f35b341561090657600080fd5b610932600480803573ffffffffffffffffffffffffffffffffffffffff16906020019091905050611744565b6040518082815260200191505060405180910390f35b341561095357600080fd5b61095b611820565b60405180806020018060200180602001848103845287818151815260200191508051906020019060200280838360005b838110156109a657808201518184015260208101905061098b565b50505050905001848103835286818151815260200191508051906020019060200280838360005b838110156109e85780820151818401526020810190506109cd565b50505050905001848103825285818151815260200191508051906020019060200280838360005b83811015610a2a578082015181840152602081019050610a0f565b50505050905001965050505050505060405180910390f35b600c6020528060005260406000206000915090505481565b60008060003373ffffffffffffffffffffffffffffffffffffffff1673ffffffffffffffffffffffffffffffffffffffff16815260200190815260200160002060009054906101000a900460ff161515610ab357600080fd5b600160008473ffffffffffffffffffffffffffffffffffffffff1673ffffffffffffffffffffffffffffffffffffffff16815260200190815260200160002060009054906101000a900460ff161515610b0b57600080fd5b81600260008573ffffffffffffffffffffffffffffffffffffffff1673ffffffffffffffffffffffffffffffffffffffff16815260200190815260200160002060006101000a81548160ff0219169083151502179055508273ffffffffffffffffffffffffffffffffffffffff167f3124ee569e45a7be2741b8be03f7b59ab19a486ba29c1c5a61a036cd6a96fbe183604051808215151515815260200191505060405180910390a26001905092915050565b60006020528060005260406000206000915054906101000a900460ff1681565b60075481565b600e6020528060005260406000206000915090508060000154908060010154908060020154908060030154905084565b6000600160008573ffffffffffffffffffffffffffffffffffffffff1673ffffffffffffffffffffffffffffffffffffffff16815260200190815260200160002060009054906101000a900460ff16151515610c6f57600080fd5b60018060008673ffffffffffffffffffffffffffffffffffffffff1673ffffffffffffffffffffffffffffffffffffffff16815260200190815260200160002060006101000a81548160ff021916908315150217905550600960009054906101000a900473ffffffffffffffffffffffffffffffffffffffff1673ffffffffffffffffffffffffffffffffffffffff16636039fbdb856007546040518363ffffffff167c0100000000000000000000000000000000000000000000000000000000028152600401808373ffffffffffffffffffffffffffffffffffffffff1673ffffffffffffffffffffffffffffffffffffffff16815260200182815260200192505050602060405180830381600087803b1515610d8c57600080fd5b5af11515610d9957600080fd5b505050604051805190505082600360008673ffffffffffffffffffffffffffffffffffffffff1673ffffffffffffffffffffffffffffffffffffffff1681526020019081526020016000209080519060200190610df7929190611b59565b5060048054806001018281610e0c9190611bd9565b9160005260206000209001600086909190916101000a81548173ffffffffffffffffffffffffffffffffffffffff021916908373ffffffffffffffffffffffffffffffffffffffff1602179055505060058054806001018281610e6f9190611c05565b91600052602060002090016000600960009054906101000a900473ffffffffffffffffffffffffffffffffffffffff1673ffffffffffffffffffffffffffffffffffffffff166370a08231886040518263ffffffff167c0100000000000000000000000000000000000000000000000000000000028152600401808273ffffffffffffffffffffffffffffffffffffffff1673ffffffffffffffffffffffffffffffffffffffff168152602001915050602060405180830381600087803b1515610f3857600080fd5b5af11515610f4557600080fd5b505050604051805190509091909150555081600c60008673ffffffffffffffffffffffffffffffffffffffff1673ffffffffffffffffffffffffffffffffffffffff168152602001908152602001600020819055508373ffffffffffffffffffffffffffffffffffffffff167f728a4b9d1a6a968d2219ee25ea03b19545af0bb0064c8469b54fda0fb96f96d084846040518080602001838152602001828103825284818151815260200191508051906020019080838360005b8381101561101a578082015181840152602081019050610fff565b50505050905090810190601f1680156110475780820380516001836020036101000a031916815260200191505b50935050505060405180910390a2600190509392505050565b60008060003373ffffffffffffffffffffffffffffffffffffffff1673ffffffffffffffffffffffffffffffffffffffff16815260200190815260200160002060009054906101000a900460ff1615156110b957600080fd5b7f8bf010ffee178a39d51fd9c688b1839590cb5e5f759d5ba9bc936ed159f887ca60075483604051808381526020018281526020019250505060405180910390a18160078190555060019050919050565b60036020528060005260406000206000915090508054600181600116156101000203166002900480601f0160208091040260200160405190810160405280929190818152602001828054600181600116156101000203166002900480156111b25780601f10611187576101008083540402835291602001916111b2565b820191906000526020600020905b81548152906001019060200180831161119557829003601f168201915b505050505081565b6111c2611c31565b600480548060200260200160405190810160405280929190818152602001828054801561124457602002820191906000526020600020905b8160009054906101000a900473ffffffffffffffffffffffffffffffffffffffff1673ffffffffffffffffffffffffffffffffffffffff16815260200190600101908083116111fa575b5050505050905090565b60008060003373ffffffffffffffffffffffffffffffffffffffff1673ffffffffffffffffffffffffffffffffffffffff16815260200190815260200160002060009054906101000a900460ff1615156112a757600080fd5b600015156000808473ffffffffffffffffffffffffffffffffffffffff1673ffffffffffffffffffffffffffffffffffffffff16815260200190815260200160002060009054906101000a900460ff16151514151561130557600080fd5b60016000808473ffffffffffffffffffffffffffffffffffffffff1673ffffffffffffffffffffffffffffffffffffffff16815260200190815260200160002060006101000a81548160ff0219169083151502179055507fdf593c01aa2f7c955ab35aee0623fe0744c2117efb32343667f5b9660e9d50493383604051808373ffffffffffffffffffffffffffffffffffffffff1673ffffffffffffffffffffffffffffffffffffffff1681526020018273ffffffffffffffffffffffffffffffffffffffff1673ffffffffffffffffffffffffffffffffffffffff1681526020019250505060405180910390a160019050919050565b60058181548110151561140b57fe5b90600052602060002090016000915090505481565b60026020528060005260406000206000915054906101000a900460ff1681565b600860009054906101000a900473ffffffffffffffffffffffffffffffffffffffff1681565b600d6020528060005260406000206000915090508060000154908060010154908060020154908060030154905084565b6000600480549050905090565b6004818154811015156114b257fe5b90600052602060002090016000915054906101000a900473ffffffffffffffffffffffffffffffffffffffff1681565b600a6020528060005260406000206000915090505481565b60068181548110151561150957fe5b90600052602060002090016000915090505481565b60008060003373ffffffffffffffffffffffffffffffffffffffff1673ffffffffffffffffffffffffffffffffffffffff16815260200190815260200160002060009054906101000a900460ff16151561157757600080fd5b81600860006101000a81548173ffffffffffffffffffffffffffffffffffffffff021916908373ffffffffffffffffffffffffffffffffffffffff16021790555081600960006101000a81548173ffffffffffffffffffffffffffffffffffffffff021916908373ffffffffffffffffffffffffffffffffffffffff16021790555060019050919050565b600b6020528060005260406000206000915090508060000154908060010154908060020154908060030154905084565b60016020528060005260406000206000915054906101000a900460ff1681565b6000806000803373ffffffffffffffffffffffffffffffffffffffff1673ffffffffffffffffffffffffffffffffffffffff16815260200190815260200160002060009054906101000a900460ff1615156116ac57600080fd5b600090505b82518110156117395783818151811015156116c857fe5b90602001906020020151600a600085848151811015156116e457fe5b9060200190602002015173ffffffffffffffffffffffffffffffffffffffff1673ffffffffffffffffffffffffffffffffffffffff1681526020019081526020016000208190555080806001019150506116b1565b600191505092915050565b6000600960009054906101000a900473ffffffffffffffffffffffffffffffffffffffff1673ffffffffffffffffffffffffffffffffffffffff166370a08231836040518263ffffffff167c0100000000000000000000000000000000000000000000000000000000028152600401808273ffffffffffffffffffffffffffffffffffffffff1673ffffffffffffffffffffffffffffffffffffffff168152602001915050602060405180830381600087803b151561180257600080fd5b5af1151561180f57600080fd5b505050604051805190509050919050565b611828611c31565b611830611c45565b611838611c45565b60008090505b600480549050811015611a1b57600960009054906101000a900473ffffffffffffffffffffffffffffffffffffffff1673ffffffffffffffffffffffffffffffffffffffff166370a0823160048381548110151561189857fe5b906000526020600020900160009054906101000a900473ffffffffffffffffffffffffffffffffffffffff166040518263ffffffff167c0100000000000000000000000000000000000000000000000000000000028152600401808273ffffffffffffffffffffffffffffffffffffffff1673ffffffffffffffffffffffffffffffffffffffff168152602001915050602060405180830381600087803b151561194157600080fd5b5af1151561194e57600080fd5b5050506040518051905060058281548110151561196757fe5b906000526020600020900181905550600c600060048381548110151561198957fe5b906000526020600020900160009054906101000a900473ffffffffffffffffffffffffffffffffffffffff1673ffffffffffffffffffffffffffffffffffffffff1673ffffffffffffffffffffffffffffffffffffffff168152602001908152602001600020546006828154811015156119ff57fe5b906000526020600020900181905550808060010191505061183e565b60046005600682805480602002602001604051908101604052809291908181526020018280548015611aa257602002820191906000526020600020905b8160009054906101000a900473ffffffffffffffffffffffffffffffffffffffff1673ffffffffffffffffffffffffffffffffffffffff1681526020019060010190808311611a58575b5050505050925081805480602002602001604051908101604052809291908181526020018280548015611af457602002820191906000526020600020905b815481526020019060010190808311611ae0575b5050505050915080805480602002602001604051908101604052809291908181526020018280548015611b4657602002820191906000526020600020905b815481526020019060010190808311611b32575b5050505050905093509350935050909192565b828054600181600116156101000203166002900490600052602060002090601f016020900481019282601f10611b9a57805160ff1916838001178555611bc8565b82800160010185558215611bc8579182015b82811115611bc7578251825591602001919060010190611bac565b5b509050611bd59190611c59565b5090565b815481835581811511611c0057818360005260206000209182019101611bff9190611c59565b5b505050565b815481835581811511611c2c57818360005260206000209182019101611c2b9190611c59565b5b505050565b602060405190810160405280600081525090565b602060405190810160405280600081525090565b611c7b91905b80821115611c77576000816000905550600101611c5f565b5090565b905600a165627a7a723058202b643fda62456e3ce7f5e3b1d042a7cbd4ecdc2facc633c800a19086d03c70040029",
  "source": "pragma solidity ^0.4.20;\n\nimport './MultiOwnable.sol';\nimport './EIP20Interface.sol';\nimport './RegistrationInterface.sol';\n\ncontract Registration is MultiOwnable, RegistrationInterface {\n    \n  \n    \n    function Registration(address _tokenAddress){\n        tokenAddress = _tokenAddress;\n        token = EIP20Interface(_tokenAddress);\n        startingPoints = 100;\n    \n    }\n    \n    //AdminFunctions\n    \n     function addPlayer(address _playerAddress, string playerName, uint _playerType)\n        public returns (bool ok)\n    {\n        \n        require(!isTrustedPlayer[_playerAddress]);\n        \n        isTrustedPlayer[_playerAddress] = true;\n        token.addTokens(_playerAddress,startingPoints);\n        playerNames[_playerAddress] = playerName;\n        playerList.push(_playerAddress);\n        playerBalances.push(token.balanceOf(_playerAddress));\n        playerType[_playerAddress]=_playerType;\n        \n        emit LogAddPlayer(_playerAddress, playerName, _playerType);\n        \n        return true;\n    }\n    \n    function freezePlayer(address _playerAddress, bool freezeStatus)\n    public onlyAdmin returns(bool ok){\n        \n        require(isTrustedPlayer[_playerAddress]);    \n        \n        isPlayerFrozen[_playerAddress] = freezeStatus;\n        \n        emit LogPlayerStatus(_playerAddress, freezeStatus) ;\n        return true;\n        \n    }\n    \n    //Utility Functions\n    \n    function getPlayerList() public view returns(address[] _playerList){\n        return playerList;\n    }\n    \n    function getNumberPlayers() public view returns (uint numberPlayer){\n        return playerList.length;\n    }\n    \n    function getPlayerBalance(address _playerAddress) public view returns (uint balance){\n        return token.balanceOf(_playerAddress);\n    }\n    \n    function getPlayerDetail() public returns(address[] _playerList, uint256[] balance, uint[] _playerType){\n        uint i;\n        for(i=0;i<playerList.length;i++){\n            playerBalances[i] = token.balanceOf(playerList[i]);\n            playerTypes[i]= playerType[playerList[i]];\n        }\n        \n        return (playerList,playerBalances,playerTypes);\n        \n    }\n   \n    function changeTokenAddress(address _newTokenAddress) public onlyAdmin returns(bool ok){\n        tokenAddress = _newTokenAddress;\n        token = EIP20Interface(_newTokenAddress);\n        \n        return true;\n    }\n    \n    function changeStartingPoints(uint256 newPoints) public onlyAdmin returns(bool ok){\n        \n        emit LogChangeStartingpoint(startingPoints,newPoints);\n        startingPoints = newPoints;\n        return true;\n    }\n    \n     function setPlayerRank(uint[] rankArray, address[] addressArray)\n        public\n        onlyAdmin\n        returns (bool ok)\n    {\n        uint i;\n        for(i=0;i<addressArray.length;i++){\n            playerRank[addressArray[i]] = rankArray[i];\n        }\n        \n        return true;\n        \n    }\n    \n    \n    \n}",
  "sourcePath": "/Users/punyampatnaik/Code Arena/Apps/abc-app/contracts/Registration.sol",
  "compiler": {
    "name": "solc",
    "version": "0.4.21+commit.dfe3193c.Emscripten.clang"
  },
  "schemaVersion": "2.0.0",
  "updatedAt": "2018-04-05T15:59:22.698Z"
}