{
  "contractName": "Registration",
  "abi": [
    {
      "constant": true,
      "inputs": [
        {
          "name": "",
          "type": "address"
        }
      ],
      "name": "playerType",
      "outputs": [
        {
          "name": "",
          "type": "uint256"
        }
      ],
      "payable": false,
      "stateMutability": "view",
      "type": "function"
    },
    {
      "constant": true,
      "inputs": [
        {
          "name": "",
          "type": "address"
        }
      ],
      "name": "isAdmin",
      "outputs": [
        {
          "name": "",
          "type": "bool"
        }
      ],
      "payable": false,
      "stateMutability": "view",
      "type": "function"
    },
    {
      "constant": true,
      "inputs": [],
      "name": "startingPoints",
      "outputs": [
        {
          "name": "",
          "type": "uint256"
        }
      ],
      "payable": false,
      "stateMutability": "view",
      "type": "function"
    },
    {
      "constant": true,
      "inputs": [
        {
          "name": "",
          "type": "uint256"
        }
      ],
      "name": "questionStats",
      "outputs": [
        {
          "name": "toalWinAmount",
          "type": "uint256"
        },
        {
          "name": "totalLooseAmount",
          "type": "uint256"
        },
        {
          "name": "totalWins",
          "type": "uint256"
        },
        {
          "name": "totalLoose",
          "type": "uint256"
        }
      ],
      "payable": false,
      "stateMutability": "view",
      "type": "function"
    },
    {
      "constant": true,
      "inputs": [
        {
          "name": "",
          "type": "address"
        }
      ],
      "name": "playerNames",
      "outputs": [
        {
          "name": "",
          "type": "string"
        }
      ],
      "payable": false,
      "stateMutability": "view",
      "type": "function"
    },
    {
      "constant": false,
      "inputs": [
        {
          "name": "admin",
          "type": "address"
        }
      ],
      "name": "addAdmin",
      "outputs": [
        {
          "name": "ok",
          "type": "bool"
        }
      ],
      "payable": false,
      "stateMutability": "nonpayable",
      "type": "function"
    },
    {
      "constant": true,
      "inputs": [
        {
          "name": "",
          "type": "uint256"
        }
      ],
      "name": "playerBalances",
      "outputs": [
        {
          "name": "",
          "type": "uint256"
        }
      ],
      "payable": false,
      "stateMutability": "view",
      "type": "function"
    },
    {
      "constant": true,
      "inputs": [
        {
          "name": "",
          "type": "address"
        }
      ],
      "name": "isPlayerFrozen",
      "outputs": [
        {
          "name": "",
          "type": "bool"
        }
      ],
      "payable": false,
      "stateMutability": "view",
      "type": "function"
    },
    {
      "constant": true,
      "inputs": [],
      "name": "tokenAddress",
      "outputs": [
        {
          "name": "",
          "type": "address"
        }
      ],
      "payable": false,
      "stateMutability": "view",
      "type": "function"
    },
    {
      "constant": true,
      "inputs": [
        {
          "name": "",
          "type": "address"
        }
      ],
      "name": "matchStats",
      "outputs": [
        {
          "name": "toalWinAmount",
          "type": "uint256"
        },
        {
          "name": "totalLooseAmount",
          "type": "uint256"
        },
        {
          "name": "totalWins",
          "type": "uint256"
        },
        {
          "name": "totalLoose",
          "type": "uint256"
        }
      ],
      "payable": false,
      "stateMutability": "view",
      "type": "function"
    },
    {
      "constant": true,
      "inputs": [
        {
          "name": "",
          "type": "uint256"
        }
      ],
      "name": "playerList",
      "outputs": [
        {
          "name": "",
          "type": "address"
        }
      ],
      "payable": false,
      "stateMutability": "view",
      "type": "function"
    },
    {
      "constant": true,
      "inputs": [
        {
          "name": "",
          "type": "address"
        }
      ],
      "name": "playerRank",
      "outputs": [
        {
          "name": "",
          "type": "uint256"
        }
      ],
      "payable": false,
      "stateMutability": "view",
      "type": "function"
    },
    {
      "constant": true,
      "inputs": [
        {
          "name": "",
          "type": "uint256"
        }
      ],
      "name": "playerTypes",
      "outputs": [
        {
          "name": "",
          "type": "uint256"
        }
      ],
      "payable": false,
      "stateMutability": "view",
      "type": "function"
    },
    {
      "constant": true,
      "inputs": [
        {
          "name": "",
          "type": "address"
        }
      ],
      "name": "playerStats",
      "outputs": [
        {
          "name": "toalWinAmount",
          "type": "uint256"
        },
        {
          "name": "totalLooseAmount",
          "type": "uint256"
        },
        {
          "name": "totalWins",
          "type": "uint256"
        },
        {
          "name": "totalLoose",
          "type": "uint256"
        }
      ],
      "payable": false,
      "stateMutability": "view",
      "type": "function"
    },
    {
      "constant": true,
      "inputs": [
        {
          "name": "",
          "type": "address"
        }
      ],
      "name": "isTrustedPlayer",
      "outputs": [
        {
          "name": "",
          "type": "bool"
        }
      ],
      "payable": false,
      "stateMutability": "view",
      "type": "function"
    },
    {
      "inputs": [
        {
          "name": "_tokenAddress",
          "type": "address"
        }
      ],
      "payable": false,
      "stateMutability": "nonpayable",
      "type": "constructor"
    },
    {
      "anonymous": false,
      "inputs": [
        {
          "indexed": true,
          "name": "playerAddress",
          "type": "address"
        },
        {
          "indexed": false,
          "name": "playerName",
          "type": "string"
        },
        {
          "indexed": false,
          "name": "playerType",
          "type": "uint256"
        }
      ],
      "name": "LogAddPlayer",
      "type": "event"
    },
    {
      "anonymous": false,
      "inputs": [
        {
          "indexed": false,
          "name": "oldPoints",
          "type": "uint256"
        },
        {
          "indexed": false,
          "name": "newPoints",
          "type": "uint256"
        }
      ],
      "name": "LogChangeStartingpoint",
      "type": "event"
    },
    {
      "anonymous": false,
      "inputs": [
        {
          "indexed": true,
          "name": "playerAddress",
          "type": "address"
        },
        {
          "indexed": false,
          "name": "freezeStatus",
          "type": "bool"
        }
      ],
      "name": "LogPlayerStatus",
      "type": "event"
    },
    {
      "anonymous": false,
      "inputs": [
        {
          "indexed": false,
          "name": "whoAdded",
          "type": "address"
        },
        {
          "indexed": false,
          "name": "newAdmin",
          "type": "address"
        }
      ],
      "name": "LogAddAdmin",
      "type": "event"
    },
    {
      "constant": false,
      "inputs": [
        {
          "name": "_playerAddress",
          "type": "address"
        },
        {
          "name": "playerName",
          "type": "string"
        },
        {
          "name": "_playerType",
          "type": "uint256"
        }
      ],
      "name": "addPlayer",
      "outputs": [
        {
          "name": "ok",
          "type": "bool"
        }
      ],
      "payable": false,
      "stateMutability": "nonpayable",
      "type": "function"
    },
    {
      "constant": false,
      "inputs": [
        {
          "name": "_playerAddress",
          "type": "address"
        },
        {
          "name": "freezeStatus",
          "type": "bool"
        }
      ],
      "name": "freezePlayer",
      "outputs": [
        {
          "name": "ok",
          "type": "bool"
        }
      ],
      "payable": false,
      "stateMutability": "nonpayable",
      "type": "function"
    },
    {
      "constant": true,
      "inputs": [],
      "name": "getPlayerList",
      "outputs": [
        {
          "name": "_playerList",
          "type": "address[]"
        }
      ],
      "payable": false,
      "stateMutability": "view",
      "type": "function"
    },
    {
      "constant": true,
      "inputs": [],
      "name": "getNumberPlayers",
      "outputs": [
        {
          "name": "numberPlayer",
          "type": "uint256"
        }
      ],
      "payable": false,
      "stateMutability": "view",
      "type": "function"
    },
    {
      "constant": true,
      "inputs": [
        {
          "name": "_playerAddress",
          "type": "address"
        }
      ],
      "name": "getPlayerBalance",
      "outputs": [
        {
          "name": "balance",
          "type": "uint256"
        }
      ],
      "payable": false,
      "stateMutability": "view",
      "type": "function"
    },
    {
      "constant": false,
      "inputs": [],
      "name": "getPlayerDetail",
      "outputs": [
        {
          "name": "_playerList",
          "type": "address[]"
        },
        {
          "name": "balance",
          "type": "uint256[]"
        },
        {
          "name": "_playerType",
          "type": "uint256[]"
        }
      ],
      "payable": false,
      "stateMutability": "nonpayable",
      "type": "function"
    },
    {
      "constant": true,
      "inputs": [],
      "name": "getLeaderBoard",
      "outputs": [
        {
          "name": "_playerList",
          "type": "address[]"
        },
        {
          "name": "balance",
          "type": "uint256[]"
        },
        {
          "name": "_playerType",
          "type": "uint256[]"
        }
      ],
      "payable": false,
      "stateMutability": "view",
      "type": "function"
    },
    {
      "constant": false,
      "inputs": [
        {
          "name": "_newTokenAddress",
          "type": "address"
        }
      ],
      "name": "changeTokenAddress",
      "outputs": [
        {
          "name": "ok",
          "type": "bool"
        }
      ],
      "payable": false,
      "stateMutability": "nonpayable",
      "type": "function"
    },
    {
      "constant": false,
      "inputs": [
        {
          "name": "newPoints",
          "type": "uint256"
        }
      ],
      "name": "changeStartingPoints",
      "outputs": [
        {
          "name": "ok",
          "type": "bool"
        }
      ],
      "payable": false,
      "stateMutability": "nonpayable",
      "type": "function"
    },
    {
      "constant": false,
      "inputs": [
        {
          "name": "rankArray",
          "type": "uint256[]"
        },
        {
          "name": "addressArray",
          "type": "address[]"
        }
      ],
      "name": "setPlayerRank",
      "outputs": [
        {
          "name": "ok",
          "type": "bool"
        }
      ],
      "payable": false,
      "stateMutability": "nonpayable",
      "type": "function"
    }
  ],
  "bytecode": "0x6060604052341561000f57600080fd5b604051602080611ff28339810160405280805190602001909190505080600860006101000a81548173ffffffffffffffffffffffffffffffffffffffff021916908373ffffffffffffffffffffffffffffffffffffffff16021790555080600960006101000a81548173ffffffffffffffffffffffffffffffffffffffff021916908373ffffffffffffffffffffffffffffffffffffffff160217905550606460078190555050611f2d806100c56000396000f300606060405260043610610148576000357c0100000000000000000000000000000000000000000000000000000000900463ffffffff1680625ed29e1461014d5780632027f5041461019a57806324d7806c146101f65780632859a82514610247578063306c4aa41461027057806337d31d40146102bc5780633bdf94761461035957806343b978b31461039457806362a63e291461044657806370480275146104b057806380ca3627146105015780638b20b1ab146105385780639d76ea5814610589578063abe9453a146105de578063ada015da14610640578063ae6d907314610669578063c29d72bc146106cc578063c344b710146107c6578063c355d31c14610813578063c9cda91f1461084a578063cdafbbb61461089b578063d4150b5b146108fd578063d85364b81461094e578063e2734c9314610a00578063ed45627b14610a4d575b600080fd5b341561015857600080fd5b610184600480803573ffffffffffffffffffffffffffffffffffffffff16906020019091905050610b47565b6040518082815260200191505060405180910390f35b34156101a557600080fd5b6101dc600480803573ffffffffffffffffffffffffffffffffffffffff169060200190919080351515906020019091905050610b5f565b604051808215151515815260200191505060405180910390f35b341561020157600080fd5b61022d600480803573ffffffffffffffffffffffffffffffffffffffff16906020019091905050610cc3565b604051808215151515815260200191505060405180910390f35b341561025257600080fd5b61025a610ce3565b6040518082815260200191505060405180910390f35b341561027b57600080fd5b6102916004808035906020019091905050610ce9565b6040518085815260200184815260200183815260200182815260200194505050505060405180910390f35b34156102c757600080fd5b61033f600480803573ffffffffffffffffffffffffffffffffffffffff1690602001909190803590602001908201803590602001908080601f01602080910402602001604051908101604052809392919081815260200183838082843782019150505050505091908035906020019091905050610d19565b604051808215151515815260200191505060405180910390f35b341561036457600080fd5b61037a600480803590602001909190505061118e565b604051808215151515815260200191505060405180910390f35b341561039f57600080fd5b6103cb600480803573ffffffffffffffffffffffffffffffffffffffff16906020019091905050611238565b6040518080602001828103825283818151815260200191508051906020019080838360005b8381101561040b5780820151818401526020810190506103f0565b50505050905090810190601f1680156104385780820380516001836020036101000a031916815260200191505b509250505060405180910390f35b341561045157600080fd5b6104596112e8565b6040518080602001828103825283818151815260200191508051906020019060200280838360005b8381101561049c578082015181840152602081019050610481565b505050509050019250505060405180910390f35b34156104bb57600080fd5b6104e7600480803573ffffffffffffffffffffffffffffffffffffffff1690602001909190505061137c565b604051808215151515815260200191505060405180910390f35b341561050c57600080fd5b610522600480803590602001909190505061152a565b6040518082815260200191505060405180910390f35b341561054357600080fd5b61056f600480803573ffffffffffffffffffffffffffffffffffffffff1690602001909190505061154e565b604051808215151515815260200191505060405180910390f35b341561059457600080fd5b61059c61156e565b604051808273ffffffffffffffffffffffffffffffffffffffff1673ffffffffffffffffffffffffffffffffffffffff16815260200191505060405180910390f35b34156105e957600080fd5b610615600480803573ffffffffffffffffffffffffffffffffffffffff16906020019091905050611594565b6040518085815260200184815260200183815260200182815260200194505050505060405180910390f35b341561064b57600080fd5b6106536115c4565b6040518082815260200191505060405180910390f35b341561067457600080fd5b61068a60048080359060200190919050506115d1565b604051808273ffffffffffffffffffffffffffffffffffffffff1673ffffffffffffffffffffffffffffffffffffffff16815260200191505060405180910390f35b34156106d757600080fd5b6106df611610565b60405180806020018060200180602001848103845287818151815260200191508051906020019060200280838360005b8381101561072a57808201518184015260208101905061070f565b50505050905001848103835286818151815260200191508051906020019060200280838360005b8381101561076c578082015181840152602081019050610751565b50505050905001848103825285818151815260200191508051906020019060200280838360005b838110156107ae578082015181840152602081019050610793565b50505050905001965050505050505060405180910390f35b34156107d157600080fd5b6107fd600480803573ffffffffffffffffffffffffffffffffffffffff16906020019091905050611765565b6040518082815260200191505060405180910390f35b341561081e57600080fd5b610834600480803590602001909190505061177d565b6040518082815260200191505060405180910390f35b341561085557600080fd5b610881600480803573ffffffffffffffffffffffffffffffffffffffff169060200190919050506117a1565b604051808215151515815260200191505060405180910390f35b34156108a657600080fd5b6108d2600480803573ffffffffffffffffffffffffffffffffffffffff16906020019091905050611885565b6040518085815260200184815260200183815260200182815260200194505050505060405180910390f35b341561090857600080fd5b610934600480803573ffffffffffffffffffffffffffffffffffffffff169060200190919050506118b5565b604051808215151515815260200191505060405180910390f35b341561095957600080fd5b6109e6600480803590602001908201803590602001908080602002602001604051908101604052809392919081815260200183836020028082843782019150505050505091908035906020019082018035906020019080806020026020016040519081016040528093929190818152602001838360200280828437820191505050505050919050506118d5565b604051808215151515815260200191505060405180910390f35b3415610a0b57600080fd5b610a37600480803573ffffffffffffffffffffffffffffffffffffffff169060200190919050506119c7565b6040518082815260200191505060405180910390f35b3415610a5857600080fd5b610a60611aa3565b60405180806020018060200180602001848103845287818151815260200191508051906020019060200280838360005b83811015610aab578082015181840152602081019050610a90565b50505050905001848103835286818151815260200191508051906020019060200280838360005b83811015610aed578082015181840152602081019050610ad2565b50505050905001848103825285818151815260200191508051906020019060200280838360005b83811015610b2f578082015181840152602081019050610b14565b50505050905001965050505050505060405180910390f35b600c6020528060005260406000206000915090505481565b60008060003373ffffffffffffffffffffffffffffffffffffffff1673ffffffffffffffffffffffffffffffffffffffff16815260200190815260200160002060009054906101000a900460ff161515610bb857600080fd5b600160008473ffffffffffffffffffffffffffffffffffffffff1673ffffffffffffffffffffffffffffffffffffffff16815260200190815260200160002060009054906101000a900460ff161515610c1057600080fd5b81600260008573ffffffffffffffffffffffffffffffffffffffff1673ffffffffffffffffffffffffffffffffffffffff16815260200190815260200160002060006101000a81548160ff0219169083151502179055508273ffffffffffffffffffffffffffffffffffffffff167f3124ee569e45a7be2741b8be03f7b59ab19a486ba29c1c5a61a036cd6a96fbe183604051808215151515815260200191505060405180910390a26001905092915050565b60006020528060005260406000206000915054906101000a900460ff1681565b60075481565b600e6020528060005260406000206000915090508060000154908060010154908060020154908060030154905084565b6000600160008573ffffffffffffffffffffffffffffffffffffffff1673ffffffffffffffffffffffffffffffffffffffff16815260200190815260200160002060009054906101000a900460ff16151515610d7457600080fd5b60018060008673ffffffffffffffffffffffffffffffffffffffff1673ffffffffffffffffffffffffffffffffffffffff16815260200190815260200160002060006101000a81548160ff021916908315150217905550600960009054906101000a900473ffffffffffffffffffffffffffffffffffffffff1673ffffffffffffffffffffffffffffffffffffffff16636039fbdb856007546040518363ffffffff167c0100000000000000000000000000000000000000000000000000000000028152600401808373ffffffffffffffffffffffffffffffffffffffff1673ffffffffffffffffffffffffffffffffffffffff16815260200182815260200192505050602060405180830381600087803b1515610e9157600080fd5b5af11515610e9e57600080fd5b505050604051805190505082600360008673ffffffffffffffffffffffffffffffffffffffff1673ffffffffffffffffffffffffffffffffffffffff1681526020019081526020016000209080519060200190610efc929190611ddc565b5081600c60008673ffffffffffffffffffffffffffffffffffffffff1673ffffffffffffffffffffffffffffffffffffffff1681526020019081526020016000208190555060048054806001018281610f559190611e5c565b9160005260206000209001600086909190916101000a81548173ffffffffffffffffffffffffffffffffffffffff021916908373ffffffffffffffffffffffffffffffffffffffff1602179055505060058054806001018281610fb89190611e88565b91600052602060002090016000600960009054906101000a900473ffffffffffffffffffffffffffffffffffffffff1673ffffffffffffffffffffffffffffffffffffffff166370a08231886040518263ffffffff167c0100000000000000000000000000000000000000000000000000000000028152600401808273ffffffffffffffffffffffffffffffffffffffff1673ffffffffffffffffffffffffffffffffffffffff168152602001915050602060405180830381600087803b151561108157600080fd5b5af1151561108e57600080fd5b5050506040518051905090919091505550600680548060010182816110b39190611e88565b9160005260206000209001600084909190915055508373ffffffffffffffffffffffffffffffffffffffff167f728a4b9d1a6a968d2219ee25ea03b19545af0bb0064c8469b54fda0fb96f96d084846040518080602001838152602001828103825284818151815260200191508051906020019080838360005b8381101561114857808201518184015260208101905061112d565b50505050905090810190601f1680156111755780820380516001836020036101000a031916815260200191505b50935050505060405180910390a2600190509392505050565b60008060003373ffffffffffffffffffffffffffffffffffffffff1673ffffffffffffffffffffffffffffffffffffffff16815260200190815260200160002060009054906101000a900460ff1615156111e757600080fd5b7f8bf010ffee178a39d51fd9c688b1839590cb5e5f759d5ba9bc936ed159f887ca60075483604051808381526020018281526020019250505060405180910390a18160078190555060019050919050565b60036020528060005260406000206000915090508054600181600116156101000203166002900480601f0160208091040260200160405190810160405280929190818152602001828054600181600116156101000203166002900480156112e05780601f106112b5576101008083540402835291602001916112e0565b820191906000526020600020905b8154815290600101906020018083116112c357829003601f168201915b505050505081565b6112f0611eb4565b600480548060200260200160405190810160405280929190818152602001828054801561137257602002820191906000526020600020905b8160009054906101000a900473ffffffffffffffffffffffffffffffffffffffff1673ffffffffffffffffffffffffffffffffffffffff1681526020019060010190808311611328575b5050505050905090565b60008060003373ffffffffffffffffffffffffffffffffffffffff1673ffffffffffffffffffffffffffffffffffffffff16815260200190815260200160002060009054906101000a900460ff1615156113d557600080fd5b600015156000808473ffffffffffffffffffffffffffffffffffffffff1673ffffffffffffffffffffffffffffffffffffffff16815260200190815260200160002060009054906101000a900460ff16151514151561143357600080fd5b60016000808473ffffffffffffffffffffffffffffffffffffffff1673ffffffffffffffffffffffffffffffffffffffff16815260200190815260200160002060006101000a81548160ff0219169083151502179055507fdf593c01aa2f7c955ab35aee0623fe0744c2117efb32343667f5b9660e9d50493383604051808373ffffffffffffffffffffffffffffffffffffffff1673ffffffffffffffffffffffffffffffffffffffff1681526020018273ffffffffffffffffffffffffffffffffffffffff1673ffffffffffffffffffffffffffffffffffffffff1681526020019250505060405180910390a160019050919050565b60058181548110151561153957fe5b90600052602060002090016000915090505481565b60026020528060005260406000206000915054906101000a900460ff1681565b600860009054906101000a900473ffffffffffffffffffffffffffffffffffffffff1681565b600d6020528060005260406000206000915090508060000154908060010154908060020154908060030154905084565b6000600480549050905090565b6004818154811015156115e057fe5b90600052602060002090016000915054906101000a900473ffffffffffffffffffffffffffffffffffffffff1681565b611618611eb4565b611620611ec8565b611628611ec8565b600460056006828054806020026020016040519081016040528092919081815260200182805480156116af57602002820191906000526020600020905b8160009054906101000a900473ffffffffffffffffffffffffffffffffffffffff1673ffffffffffffffffffffffffffffffffffffffff1681526020019060010190808311611665575b505050505092508180548060200260200160405190810160405280929190818152602001828054801561170157602002820191906000526020600020905b8154815260200190600101908083116116ed575b505050505091508080548060200260200160405190810160405280929190818152602001828054801561175357602002820191906000526020600020905b81548152602001906001019080831161173f575b50505050509050925092509250909192565b600a6020528060005260406000206000915090505481565b60068181548110151561178c57fe5b90600052602060002090016000915090505481565b60008060003373ffffffffffffffffffffffffffffffffffffffff1673ffffffffffffffffffffffffffffffffffffffff16815260200190815260200160002060009054906101000a900460ff1615156117fa57600080fd5b81600860006101000a81548173ffffffffffffffffffffffffffffffffffffffff021916908373ffffffffffffffffffffffffffffffffffffffff16021790555081600960006101000a81548173ffffffffffffffffffffffffffffffffffffffff021916908373ffffffffffffffffffffffffffffffffffffffff16021790555060019050919050565b600b6020528060005260406000206000915090508060000154908060010154908060020154908060030154905084565b60016020528060005260406000206000915054906101000a900460ff1681565b6000806000803373ffffffffffffffffffffffffffffffffffffffff1673ffffffffffffffffffffffffffffffffffffffff16815260200190815260200160002060009054906101000a900460ff16151561192f57600080fd5b600090505b82518110156119bc57838181518110151561194b57fe5b90602001906020020151600a6000858481518110151561196757fe5b9060200190602002015173ffffffffffffffffffffffffffffffffffffffff1673ffffffffffffffffffffffffffffffffffffffff168152602001908152602001600020819055508080600101915050611934565b600191505092915050565b6000600960009054906101000a900473ffffffffffffffffffffffffffffffffffffffff1673ffffffffffffffffffffffffffffffffffffffff166370a08231836040518263ffffffff167c0100000000000000000000000000000000000000000000000000000000028152600401808273ffffffffffffffffffffffffffffffffffffffff1673ffffffffffffffffffffffffffffffffffffffff168152602001915050602060405180830381600087803b1515611a8557600080fd5b5af11515611a9257600080fd5b505050604051805190509050919050565b611aab611eb4565b611ab3611ec8565b611abb611ec8565b60008090505b600480549050811015611c9e57600960009054906101000a900473ffffffffffffffffffffffffffffffffffffffff1673ffffffffffffffffffffffffffffffffffffffff166370a08231600483815481101515611b1b57fe5b906000526020600020900160009054906101000a900473ffffffffffffffffffffffffffffffffffffffff166040518263ffffffff167c0100000000000000000000000000000000000000000000000000000000028152600401808273ffffffffffffffffffffffffffffffffffffffff1673ffffffffffffffffffffffffffffffffffffffff168152602001915050602060405180830381600087803b1515611bc457600080fd5b5af11515611bd157600080fd5b50505060405180519050600582815481101515611bea57fe5b906000526020600020900181905550600c6000600483815481101515611c0c57fe5b906000526020600020900160009054906101000a900473ffffffffffffffffffffffffffffffffffffffff1673ffffffffffffffffffffffffffffffffffffffff1673ffffffffffffffffffffffffffffffffffffffff16815260200190815260200160002054600682815481101515611c8257fe5b9060005260206000209001819055508080600101915050611ac1565b60046005600682805480602002602001604051908101604052809291908181526020018280548015611d2557602002820191906000526020600020905b8160009054906101000a900473ffffffffffffffffffffffffffffffffffffffff1673ffffffffffffffffffffffffffffffffffffffff1681526020019060010190808311611cdb575b5050505050925081805480602002602001604051908101604052809291908181526020018280548015611d7757602002820191906000526020600020905b815481526020019060010190808311611d63575b5050505050915080805480602002602001604051908101604052809291908181526020018280548015611dc957602002820191906000526020600020905b815481526020019060010190808311611db5575b5050505050905093509350935050909192565b828054600181600116156101000203166002900490600052602060002090601f016020900481019282601f10611e1d57805160ff1916838001178555611e4b565b82800160010185558215611e4b579182015b82811115611e4a578251825591602001919060010190611e2f565b5b509050611e589190611edc565b5090565b815481835581811511611e8357818360005260206000209182019101611e829190611edc565b5b505050565b815481835581811511611eaf57818360005260206000209182019101611eae9190611edc565b5b505050565b602060405190810160405280600081525090565b602060405190810160405280600081525090565b611efe91905b80821115611efa576000816000905550600101611ee2565b5090565b905600a165627a7a7230582049d24b195a39f4e0f79649e16c57c2edce8299caa2c021814fb88258d46c8d800029",
  "source": "pragma solidity ^0.4.20;\n\nimport './MultiOwnable.sol';\nimport './EIP20Interface.sol';\nimport './RegistrationInterface.sol';\n\ncontract Registration is MultiOwnable, RegistrationInterface {\n    \n  \n    \n    function Registration(address _tokenAddress){\n        tokenAddress = _tokenAddress;\n        token = EIP20Interface(_tokenAddress);\n        startingPoints = 100;\n    \n    }\n    \n    //AdminFunctions\n    \n     function addPlayer(address _playerAddress, string playerName, uint _playerType)\n        public returns (bool ok)\n    {\n        \n        require(!isTrustedPlayer[_playerAddress]);\n        \n        isTrustedPlayer[_playerAddress] = true;\n        token.addTokens(_playerAddress,startingPoints);\n        playerNames[_playerAddress] = playerName;\n        playerType[_playerAddress]=_playerType;\n        playerList.push(_playerAddress);\n        playerBalances.push(token.balanceOf(_playerAddress));\n        playerTypes.push(_playerType);\n        \n        emit LogAddPlayer(_playerAddress, playerName, _playerType);\n        \n        return true;\n    }\n    \n    function freezePlayer(address _playerAddress, bool freezeStatus)\n    public onlyAdmin returns(bool ok){\n        \n        require(isTrustedPlayer[_playerAddress]);    \n        \n        isPlayerFrozen[_playerAddress] = freezeStatus;\n        \n        emit LogPlayerStatus(_playerAddress, freezeStatus) ;\n        return true;\n        \n    }\n    \n    //Utility Functions\n    \n    function getPlayerList() public view returns(address[] _playerList){\n        return playerList;\n    }\n    \n    function getNumberPlayers() public view returns (uint numberPlayer){\n        return playerList.length;\n    }\n    \n    function getPlayerBalance(address _playerAddress) public view returns (uint balance){\n        return token.balanceOf(_playerAddress);\n    }\n    \n    function getPlayerDetail() public returns(address[] _playerList, uint256[] balance, uint[] _playerType){\n        uint i;\n        for(i=0;i<playerList.length;i++){\n            playerBalances[i] = token.balanceOf(playerList[i]);\n            playerTypes[i]= playerType[playerList[i]];\n        }\n        \n        return (playerList,playerBalances,playerTypes);\n        \n    }\n    function getLeaderBoard() constant returns(address[] _playerList, uint256[] balance, uint[] _playerType){\n        return (playerList,playerBalances,playerTypes);\n    }\n   \n    function changeTokenAddress(address _newTokenAddress) public onlyAdmin returns(bool ok){\n        tokenAddress = _newTokenAddress;\n        token = EIP20Interface(_newTokenAddress);\n        \n        return true;\n    }\n    \n    function changeStartingPoints(uint256 newPoints) public onlyAdmin returns(bool ok){\n        \n        emit LogChangeStartingpoint(startingPoints,newPoints);\n        startingPoints = newPoints;\n        return true;\n    }\n    \n     function setPlayerRank(uint[] rankArray, address[] addressArray)\n        public\n        onlyAdmin\n        returns (bool ok)\n    {\n        uint i;\n        for(i=0;i<addressArray.length;i++){\n            playerRank[addressArray[i]] = rankArray[i];\n        }\n        \n        return true;\n        \n    }\n    \n    \n    \n}\n",
  "sourcePath": "/Users/punyampatnaik/Code Arena/Apps/abc-app/contracts/Registration.sol",
  "compiler": {
    "name": "solc",
    "version": "0.4.21+commit.dfe3193c.Emscripten.clang"
  },
  "schemaVersion": "2.0.0",
  "updatedAt": "2018-04-06T17:44:10.263Z"
}