{
  "contractName": "Registration",
  "abi": [
    {
      "constant": true,
      "inputs": [
        {
          "name": "",
          "type": "address"
        }
      ],
      "name": "playerType",
      "outputs": [
        {
          "name": "",
          "type": "uint256"
        }
      ],
      "payable": false,
      "stateMutability": "view",
      "type": "function"
    },
    {
      "constant": true,
      "inputs": [
        {
          "name": "",
          "type": "address"
        }
      ],
      "name": "isAdmin",
      "outputs": [
        {
          "name": "",
          "type": "bool"
        }
      ],
      "payable": false,
      "stateMutability": "view",
      "type": "function"
    },
    {
      "constant": true,
      "inputs": [],
      "name": "startingPoints",
      "outputs": [
        {
          "name": "",
          "type": "uint256"
        }
      ],
      "payable": false,
      "stateMutability": "view",
      "type": "function"
    },
    {
      "constant": true,
      "inputs": [
        {
          "name": "",
          "type": "uint256"
        }
      ],
      "name": "questionStats",
      "outputs": [
        {
          "name": "toalWinAmount",
          "type": "uint256"
        },
        {
          "name": "totalLooseAmount",
          "type": "uint256"
        },
        {
          "name": "totalWins",
          "type": "uint256"
        },
        {
          "name": "totalLoose",
          "type": "uint256"
        }
      ],
      "payable": false,
      "stateMutability": "view",
      "type": "function"
    },
    {
      "constant": true,
      "inputs": [
        {
          "name": "",
          "type": "address"
        }
      ],
      "name": "playerNames",
      "outputs": [
        {
          "name": "",
          "type": "string"
        }
      ],
      "payable": false,
      "stateMutability": "view",
      "type": "function"
    },
    {
      "constant": false,
      "inputs": [
        {
          "name": "admin",
          "type": "address"
        }
      ],
      "name": "addAdmin",
      "outputs": [
        {
          "name": "ok",
          "type": "bool"
        }
      ],
      "payable": false,
      "stateMutability": "nonpayable",
      "type": "function"
    },
    {
      "constant": true,
      "inputs": [
        {
          "name": "",
          "type": "uint256"
        }
      ],
      "name": "playerBalances",
      "outputs": [
        {
          "name": "",
          "type": "uint256"
        }
      ],
      "payable": false,
      "stateMutability": "view",
      "type": "function"
    },
    {
      "constant": true,
      "inputs": [
        {
          "name": "",
          "type": "address"
        }
      ],
      "name": "isPlayerFrozen",
      "outputs": [
        {
          "name": "",
          "type": "bool"
        }
      ],
      "payable": false,
      "stateMutability": "view",
      "type": "function"
    },
    {
      "constant": true,
      "inputs": [],
      "name": "tokenAddress",
      "outputs": [
        {
          "name": "",
          "type": "address"
        }
      ],
      "payable": false,
      "stateMutability": "view",
      "type": "function"
    },
    {
      "constant": true,
      "inputs": [
        {
          "name": "",
          "type": "address"
        }
      ],
      "name": "matchStats",
      "outputs": [
        {
          "name": "toalWinAmount",
          "type": "uint256"
        },
        {
          "name": "totalLooseAmount",
          "type": "uint256"
        },
        {
          "name": "totalWins",
          "type": "uint256"
        },
        {
          "name": "totalLoose",
          "type": "uint256"
        }
      ],
      "payable": false,
      "stateMutability": "view",
      "type": "function"
    },
    {
      "constant": true,
      "inputs": [
        {
          "name": "",
          "type": "uint256"
        }
      ],
      "name": "playerList",
      "outputs": [
        {
          "name": "",
          "type": "address"
        }
      ],
      "payable": false,
      "stateMutability": "view",
      "type": "function"
    },
    {
      "constant": true,
      "inputs": [
        {
          "name": "",
          "type": "address"
        }
      ],
      "name": "playerRank",
      "outputs": [
        {
          "name": "",
          "type": "uint256"
        }
      ],
      "payable": false,
      "stateMutability": "view",
      "type": "function"
    },
    {
      "constant": true,
      "inputs": [
        {
          "name": "",
          "type": "uint256"
        }
      ],
      "name": "playerTypes",
      "outputs": [
        {
          "name": "",
          "type": "uint256"
        }
      ],
      "payable": false,
      "stateMutability": "view",
      "type": "function"
    },
    {
      "constant": true,
      "inputs": [
        {
          "name": "",
          "type": "address"
        }
      ],
      "name": "playerStats",
      "outputs": [
        {
          "name": "toalWinAmount",
          "type": "uint256"
        },
        {
          "name": "totalLooseAmount",
          "type": "uint256"
        },
        {
          "name": "totalWins",
          "type": "uint256"
        },
        {
          "name": "totalLoose",
          "type": "uint256"
        }
      ],
      "payable": false,
      "stateMutability": "view",
      "type": "function"
    },
    {
      "constant": true,
      "inputs": [
        {
          "name": "",
          "type": "address"
        }
      ],
      "name": "isTrustedPlayer",
      "outputs": [
        {
          "name": "",
          "type": "bool"
        }
      ],
      "payable": false,
      "stateMutability": "view",
      "type": "function"
    },
    {
      "inputs": [
        {
          "name": "_tokenAddress",
          "type": "address"
        }
      ],
      "payable": false,
      "stateMutability": "nonpayable",
      "type": "constructor"
    },
    {
      "anonymous": false,
      "inputs": [
        {
          "indexed": true,
          "name": "playerAddress",
          "type": "address"
        },
        {
          "indexed": false,
          "name": "playerName",
          "type": "string"
        },
        {
          "indexed": false,
          "name": "playerType",
          "type": "uint256"
        }
      ],
      "name": "LogAddPlayer",
      "type": "event"
    },
    {
      "anonymous": false,
      "inputs": [
        {
          "indexed": false,
          "name": "oldPoints",
          "type": "uint256"
        },
        {
          "indexed": false,
          "name": "newPoints",
          "type": "uint256"
        }
      ],
      "name": "LogChangeStartingpoint",
      "type": "event"
    },
    {
      "anonymous": false,
      "inputs": [
        {
          "indexed": true,
          "name": "playerAddress",
          "type": "address"
        },
        {
          "indexed": false,
          "name": "freezeStatus",
          "type": "bool"
        }
      ],
      "name": "LogPlayerStatus",
      "type": "event"
    },
    {
      "anonymous": false,
      "inputs": [
        {
          "indexed": false,
          "name": "whoAdded",
          "type": "address"
        },
        {
          "indexed": false,
          "name": "newAdmin",
          "type": "address"
        }
      ],
      "name": "LogAddAdmin",
      "type": "event"
    },
    {
      "constant": false,
      "inputs": [
        {
          "name": "_playerAddress",
          "type": "address"
        },
        {
          "name": "playerName",
          "type": "string"
        },
        {
          "name": "_playerType",
          "type": "uint256"
        }
      ],
      "name": "addPlayer",
      "outputs": [
        {
          "name": "ok",
          "type": "bool"
        }
      ],
      "payable": false,
      "stateMutability": "nonpayable",
      "type": "function"
    },
    {
      "constant": false,
      "inputs": [
        {
          "name": "_playerAddress",
          "type": "address"
        },
        {
          "name": "freezeStatus",
          "type": "bool"
        }
      ],
      "name": "freezePlayer",
      "outputs": [
        {
          "name": "ok",
          "type": "bool"
        }
      ],
      "payable": false,
      "stateMutability": "nonpayable",
      "type": "function"
    },
    {
      "constant": true,
      "inputs": [],
      "name": "getPlayerList",
      "outputs": [
        {
          "name": "_playerList",
          "type": "address[]"
        }
      ],
      "payable": false,
      "stateMutability": "view",
      "type": "function"
    },
    {
      "constant": true,
      "inputs": [],
      "name": "getNumberPlayers",
      "outputs": [
        {
          "name": "numberPlayer",
          "type": "uint256"
        }
      ],
      "payable": false,
      "stateMutability": "view",
      "type": "function"
    },
    {
      "constant": true,
      "inputs": [
        {
          "name": "_playerAddress",
          "type": "address"
        }
      ],
      "name": "getPlayerBalance",
      "outputs": [
        {
          "name": "balance",
          "type": "uint256"
        }
      ],
      "payable": false,
      "stateMutability": "view",
      "type": "function"
    },
    {
      "constant": false,
      "inputs": [],
      "name": "getPlayerDetail",
      "outputs": [
        {
          "name": "_playerList",
          "type": "address[]"
        },
        {
          "name": "balance",
          "type": "uint256[]"
        },
        {
          "name": "_playerType",
          "type": "uint256[]"
        }
      ],
      "payable": false,
      "stateMutability": "nonpayable",
      "type": "function"
    },
    {
      "constant": false,
      "inputs": [
        {
          "name": "_playerAddress",
          "type": "address"
        },
        {
          "name": "_type",
          "type": "uint256"
        }
      ],
      "name": "changePlayerType",
      "outputs": [
        {
          "name": "ok",
          "type": "bool"
        }
      ],
      "payable": false,
      "stateMutability": "nonpayable",
      "type": "function"
    },
    {
      "constant": true,
      "inputs": [],
      "name": "getLeaderBoard",
      "outputs": [
        {
          "name": "_playerList",
          "type": "address[]"
        },
        {
          "name": "balance",
          "type": "uint256[]"
        },
        {
          "name": "_playerType",
          "type": "uint256[]"
        }
      ],
      "payable": false,
      "stateMutability": "view",
      "type": "function"
    },
    {
      "constant": false,
      "inputs": [
        {
          "name": "_newTokenAddress",
          "type": "address"
        }
      ],
      "name": "changeTokenAddress",
      "outputs": [
        {
          "name": "ok",
          "type": "bool"
        }
      ],
      "payable": false,
      "stateMutability": "nonpayable",
      "type": "function"
    },
    {
      "constant": false,
      "inputs": [
        {
          "name": "newPoints",
          "type": "uint256"
        }
      ],
      "name": "changeStartingPoints",
      "outputs": [
        {
          "name": "ok",
          "type": "bool"
        }
      ],
      "payable": false,
      "stateMutability": "nonpayable",
      "type": "function"
    },
    {
      "constant": false,
      "inputs": [
        {
          "name": "rankArray",
          "type": "uint256[]"
        },
        {
          "name": "addressArray",
          "type": "address[]"
        }
      ],
      "name": "setPlayerRank",
      "outputs": [
        {
          "name": "ok",
          "type": "bool"
        }
      ],
      "payable": false,
      "stateMutability": "nonpayable",
      "type": "function"
    }
  ],
  "bytecode": "0x608060405234801561001057600080fd5b506040516020806121cf8339810180604052810190808051906020019092919050505080600860006101000a81548173ffffffffffffffffffffffffffffffffffffffff021916908373ffffffffffffffffffffffffffffffffffffffff16021790555080600960006101000a81548173ffffffffffffffffffffffffffffffffffffffff021916908373ffffffffffffffffffffffffffffffffffffffff160217905550606460078190555050612102806100cd6000396000f300608060405260043610610153576000357c0100000000000000000000000000000000000000000000000000000000900463ffffffff1680625ed29e146101585780632027f504146101af57806324d7806c146102165780632859a82514610271578063306c4aa41461029c57806337d31d40146102f25780633bdf94761461039d57806343b978b3146103e257806362a63e291461049e578063704802751461050a57806380ca3627146105655780638b20b1ab146105a65780639d76ea5814610601578063abe9453a14610658578063ada015da146106c4578063ae6d9073146106ef578063c29d72bc1461075c578063c31c003e14610858578063c344b710146108bd578063c355d31c14610914578063c9cda91f14610955578063cdafbbb6146109b0578063d4150b5b14610a1c578063d85364b814610a77578063e2734c9314610b38578063ed45627b14610b8f575b600080fd5b34801561016457600080fd5b50610199600480360381019080803573ffffffffffffffffffffffffffffffffffffffff169060200190929190505050610c8b565b6040518082815260200191505060405180910390f35b3480156101bb57600080fd5b506101fc600480360381019080803573ffffffffffffffffffffffffffffffffffffffff169060200190929190803515159060200190929190505050610ca3565b604051808215151515815260200191505060405180910390f35b34801561022257600080fd5b50610257600480360381019080803573ffffffffffffffffffffffffffffffffffffffff169060200190929190505050610e07565b604051808215151515815260200191505060405180910390f35b34801561027d57600080fd5b50610286610e27565b6040518082815260200191505060405180910390f35b3480156102a857600080fd5b506102c760048036038101908080359060200190929190505050610e2d565b6040518085815260200184815260200183815260200182815260200194505050505060405180910390f35b3480156102fe57600080fd5b50610383600480360381019080803573ffffffffffffffffffffffffffffffffffffffff169060200190929190803590602001908201803590602001908080601f016020809104026020016040519081016040528093929190818152602001838380828437820191505050505050919291929080359060200190929190505050610e5d565b604051808215151515815260200191505060405180910390f35b3480156103a957600080fd5b506103c860048036038101908080359060200190929190505050611325565b604051808215151515815260200191505060405180910390f35b3480156103ee57600080fd5b50610423600480360381019080803573ffffffffffffffffffffffffffffffffffffffff1690602001909291905050506113cf565b6040518080602001828103825283818151815260200191508051906020019080838360005b83811015610463578082015181840152602081019050610448565b50505050905090810190601f1680156104905780820380516001836020036101000a031916815260200191505b509250505060405180910390f35b3480156104aa57600080fd5b506104b361147f565b6040518080602001828103825283818151815260200191508051906020019060200280838360005b838110156104f65780820151818401526020810190506104db565b505050509050019250505060405180910390f35b34801561051657600080fd5b5061054b600480360381019080803573ffffffffffffffffffffffffffffffffffffffff16906020019092919050505061150d565b604051808215151515815260200191505060405180910390f35b34801561057157600080fd5b50610590600480360381019080803590602001909291905050506116bb565b6040518082815260200191505060405180910390f35b3480156105b257600080fd5b506105e7600480360381019080803573ffffffffffffffffffffffffffffffffffffffff1690602001909291905050506116de565b604051808215151515815260200191505060405180910390f35b34801561060d57600080fd5b506106166116fe565b604051808273ffffffffffffffffffffffffffffffffffffffff1673ffffffffffffffffffffffffffffffffffffffff16815260200191505060405180910390f35b34801561066457600080fd5b50610699600480360381019080803573ffffffffffffffffffffffffffffffffffffffff169060200190929190505050611724565b6040518085815260200184815260200183815260200182815260200194505050505060405180910390f35b3480156106d057600080fd5b506106d9611754565b6040518082815260200191505060405180910390f35b3480156106fb57600080fd5b5061071a60048036038101908080359060200190929190505050611761565b604051808273ffffffffffffffffffffffffffffffffffffffff1673ffffffffffffffffffffffffffffffffffffffff16815260200191505060405180910390f35b34801561076857600080fd5b5061077161179f565b60405180806020018060200180602001848103845287818151815260200191508051906020019060200280838360005b838110156107bc5780820151818401526020810190506107a1565b50505050905001848103835286818151815260200191508051906020019060200280838360005b838110156107fe5780820151818401526020810190506107e3565b50505050905001848103825285818151815260200191508051906020019060200280838360005b83811015610840578082015181840152602081019050610825565b50505050905001965050505050505060405180910390f35b34801561086457600080fd5b506108a3600480360381019080803573ffffffffffffffffffffffffffffffffffffffff169060200190929190803590602001909291905050506118e1565b604051808215151515815260200191505060405180910390f35b3480156108c957600080fd5b506108fe600480360381019080803573ffffffffffffffffffffffffffffffffffffffff169060200190929190505050611988565b6040518082815260200191505060405180910390f35b34801561092057600080fd5b5061093f600480360381019080803590602001909291905050506119a0565b6040518082815260200191505060405180910390f35b34801561096157600080fd5b50610996600480360381019080803573ffffffffffffffffffffffffffffffffffffffff1690602001909291905050506119c3565b604051808215151515815260200191505060405180910390f35b3480156109bc57600080fd5b506109f1600480360381019080803573ffffffffffffffffffffffffffffffffffffffff169060200190929190505050611aa7565b6040518085815260200184815260200183815260200182815260200194505050505060405180910390f35b348015610a2857600080fd5b50610a5d600480360381019080803573ffffffffffffffffffffffffffffffffffffffff169060200190929190505050611ad7565b604051808215151515815260200191505060405180910390f35b348015610a8357600080fd5b50610b1e6004803603810190808035906020019082018035906020019080806020026020016040519081016040528093929190818152602001838360200280828437820191505050505050919291929080359060200190820180359060200190808060200260200160405190810160405280939291908181526020018383602002808284378201915050505050509192919290505050611af7565b604051808215151515815260200191505060405180910390f35b348015610b4457600080fd5b50610b79600480360381019080803573ffffffffffffffffffffffffffffffffffffffff169060200190929190505050611be9565b6040518082815260200191505060405180910390f35b348015610b9b57600080fd5b50610ba4611cea565b60405180806020018060200180602001848103845287818151815260200191508051906020019060200280838360005b83811015610bef578082015181840152602081019050610bd4565b50505050905001848103835286818151815260200191508051906020019060200280838360005b83811015610c31578082015181840152602081019050610c16565b50505050905001848103825285818151815260200191508051906020019060200280838360005b83811015610c73578082015181840152602081019050610c58565b50505050905001965050505050505060405180910390f35b600c6020528060005260406000206000915090505481565b60008060003373ffffffffffffffffffffffffffffffffffffffff1673ffffffffffffffffffffffffffffffffffffffff16815260200190815260200160002060009054906101000a900460ff161515610cfc57600080fd5b600160008473ffffffffffffffffffffffffffffffffffffffff1673ffffffffffffffffffffffffffffffffffffffff16815260200190815260200160002060009054906101000a900460ff161515610d5457600080fd5b81600260008573ffffffffffffffffffffffffffffffffffffffff1673ffffffffffffffffffffffffffffffffffffffff16815260200190815260200160002060006101000a81548160ff0219169083151502179055508273ffffffffffffffffffffffffffffffffffffffff167f3124ee569e45a7be2741b8be03f7b59ab19a486ba29c1c5a61a036cd6a96fbe183604051808215151515815260200191505060405180910390a26001905092915050565b60006020528060005260406000206000915054906101000a900460ff1681565b60075481565b600e6020528060005260406000206000915090508060000154908060010154908060020154908060030154905084565b6000600160008573ffffffffffffffffffffffffffffffffffffffff1673ffffffffffffffffffffffffffffffffffffffff16815260200190815260200160002060009054906101000a900460ff16151515610eb857600080fd5b60018060008673ffffffffffffffffffffffffffffffffffffffff1673ffffffffffffffffffffffffffffffffffffffff16815260200190815260200160002060006101000a81548160ff021916908315150217905550600960009054906101000a900473ffffffffffffffffffffffffffffffffffffffff1673ffffffffffffffffffffffffffffffffffffffff16636039fbdb856007546040518363ffffffff167c0100000000000000000000000000000000000000000000000000000000028152600401808373ffffffffffffffffffffffffffffffffffffffff1673ffffffffffffffffffffffffffffffffffffffff16815260200182815260200192505050602060405180830381600087803b158015610fd657600080fd5b505af1158015610fea573d6000803e3d6000fd5b505050506040513d602081101561100057600080fd5b81019080805190602001909291905050505082600360008673ffffffffffffffffffffffffffffffffffffffff1673ffffffffffffffffffffffffffffffffffffffff1681526020019081526020016000209080519060200190611065929190612031565b5081600c60008673ffffffffffffffffffffffffffffffffffffffff1673ffffffffffffffffffffffffffffffffffffffff1681526020019081526020016000208190555060048490806001815401808255809150509060018203906000526020600020016000909192909190916101000a81548173ffffffffffffffffffffffffffffffffffffffff021916908373ffffffffffffffffffffffffffffffffffffffff160217905550506005600960009054906101000a900473ffffffffffffffffffffffffffffffffffffffff1673ffffffffffffffffffffffffffffffffffffffff166370a08231866040518263ffffffff167c0100000000000000000000000000000000000000000000000000000000028152600401808273ffffffffffffffffffffffffffffffffffffffff1673ffffffffffffffffffffffffffffffffffffffff168152602001915050602060405180830381600087803b1580156111cf57600080fd5b505af11580156111e3573d6000803e3d6000fd5b505050506040513d60208110156111f957600080fd5b8101908080519060200190929190505050908060018154018082558091505090600182039060005260206000200160009091929091909150555060068290806001815401808255809150509060018203906000526020600020016000909192909190915055508373ffffffffffffffffffffffffffffffffffffffff167f728a4b9d1a6a968d2219ee25ea03b19545af0bb0064c8469b54fda0fb96f96d084846040518080602001838152602001828103825284818151815260200191508051906020019080838360005b838110156112df5780820151818401526020810190506112c4565b50505050905090810190601f16801561130c5780820380516001836020036101000a031916815260200191505b50935050505060405180910390a2600190509392505050565b60008060003373ffffffffffffffffffffffffffffffffffffffff1673ffffffffffffffffffffffffffffffffffffffff16815260200190815260200160002060009054906101000a900460ff16151561137e57600080fd5b7f8bf010ffee178a39d51fd9c688b1839590cb5e5f759d5ba9bc936ed159f887ca60075483604051808381526020018281526020019250505060405180910390a18160078190555060019050919050565b60036020528060005260406000206000915090508054600181600116156101000203166002900480601f0160208091040260200160405190810160405280929190818152602001828054600181600116156101000203166002900480156114775780601f1061144c57610100808354040283529160200191611477565b820191906000526020600020905b81548152906001019060200180831161145a57829003601f168201915b505050505081565b6060600480548060200260200160405190810160405280929190818152602001828054801561150357602002820191906000526020600020905b8160009054906101000a900473ffffffffffffffffffffffffffffffffffffffff1673ffffffffffffffffffffffffffffffffffffffff16815260200190600101908083116114b9575b5050505050905090565b60008060003373ffffffffffffffffffffffffffffffffffffffff1673ffffffffffffffffffffffffffffffffffffffff16815260200190815260200160002060009054906101000a900460ff16151561156657600080fd5b600015156000808473ffffffffffffffffffffffffffffffffffffffff1673ffffffffffffffffffffffffffffffffffffffff16815260200190815260200160002060009054906101000a900460ff1615151415156115c457600080fd5b60016000808473ffffffffffffffffffffffffffffffffffffffff1673ffffffffffffffffffffffffffffffffffffffff16815260200190815260200160002060006101000a81548160ff0219169083151502179055507fdf593c01aa2f7c955ab35aee0623fe0744c2117efb32343667f5b9660e9d50493383604051808373ffffffffffffffffffffffffffffffffffffffff1673ffffffffffffffffffffffffffffffffffffffff1681526020018273ffffffffffffffffffffffffffffffffffffffff1673ffffffffffffffffffffffffffffffffffffffff1681526020019250505060405180910390a160019050919050565b6005818154811015156116ca57fe5b906000526020600020016000915090505481565b60026020528060005260406000206000915054906101000a900460ff1681565b600860009054906101000a900473ffffffffffffffffffffffffffffffffffffffff1681565b600d6020528060005260406000206000915090508060000154908060010154908060020154908060030154905084565b6000600480549050905090565b60048181548110151561177057fe5b906000526020600020016000915054906101000a900473ffffffffffffffffffffffffffffffffffffffff1681565b60608060606004600560068280548060200260200160405190810160405280929190818152602001828054801561182b57602002820191906000526020600020905b8160009054906101000a900473ffffffffffffffffffffffffffffffffffffffff1673ffffffffffffffffffffffffffffffffffffffff16815260200190600101908083116117e1575b505050505092508180548060200260200160405190810160405280929190818152602001828054801561187d57602002820191906000526020600020905b815481526020019060010190808311611869575b50505050509150808054806020026020016040519081016040528092919081815260200182805480156118cf57602002820191906000526020600020905b8154815260200190600101908083116118bb575b50505050509050925092509250909192565b60008060003373ffffffffffffffffffffffffffffffffffffffff1673ffffffffffffffffffffffffffffffffffffffff16815260200190815260200160002060009054906101000a900460ff16151561193a57600080fd5b81600c60008573ffffffffffffffffffffffffffffffffffffffff1673ffffffffffffffffffffffffffffffffffffffff168152602001908152602001600020819055506001905092915050565b600a6020528060005260406000206000915090505481565b6006818154811015156119af57fe5b906000526020600020016000915090505481565b60008060003373ffffffffffffffffffffffffffffffffffffffff1673ffffffffffffffffffffffffffffffffffffffff16815260200190815260200160002060009054906101000a900460ff161515611a1c57600080fd5b81600860006101000a81548173ffffffffffffffffffffffffffffffffffffffff021916908373ffffffffffffffffffffffffffffffffffffffff16021790555081600960006101000a81548173ffffffffffffffffffffffffffffffffffffffff021916908373ffffffffffffffffffffffffffffffffffffffff16021790555060019050919050565b600b6020528060005260406000206000915090508060000154908060010154908060020154908060030154905084565b60016020528060005260406000206000915054906101000a900460ff1681565b6000806000803373ffffffffffffffffffffffffffffffffffffffff1673ffffffffffffffffffffffffffffffffffffffff16815260200190815260200160002060009054906101000a900460ff161515611b5157600080fd5b600090505b8251811015611bde578381815181101515611b6d57fe5b90602001906020020151600a60008584815181101515611b8957fe5b9060200190602002015173ffffffffffffffffffffffffffffffffffffffff1673ffffffffffffffffffffffffffffffffffffffff168152602001908152602001600020819055508080600101915050611b56565b600191505092915050565b6000600960009054906101000a900473ffffffffffffffffffffffffffffffffffffffff1673ffffffffffffffffffffffffffffffffffffffff166370a08231836040518263ffffffff167c0100000000000000000000000000000000000000000000000000000000028152600401808273ffffffffffffffffffffffffffffffffffffffff1673ffffffffffffffffffffffffffffffffffffffff168152602001915050602060405180830381600087803b158015611ca857600080fd5b505af1158015611cbc573d6000803e3d6000fd5b505050506040513d6020811015611cd257600080fd5b81019080805190602001909291905050509050919050565b606080606060008090505b600480549050811015611ef357600960009054906101000a900473ffffffffffffffffffffffffffffffffffffffff1673ffffffffffffffffffffffffffffffffffffffff166370a08231600483815481101515611d4f57fe5b9060005260206000200160009054906101000a900473ffffffffffffffffffffffffffffffffffffffff166040518263ffffffff167c0100000000000000000000000000000000000000000000000000000000028152600401808273ffffffffffffffffffffffffffffffffffffffff1673ffffffffffffffffffffffffffffffffffffffff168152602001915050602060405180830381600087803b158015611df857600080fd5b505af1158015611e0c573d6000803e3d6000fd5b505050506040513d6020811015611e2257600080fd5b8101908080519060200190929190505050600582815481101515611e4257fe5b9060005260206000200181905550600c6000600483815481101515611e6357fe5b9060005260206000200160009054906101000a900473ffffffffffffffffffffffffffffffffffffffff1673ffffffffffffffffffffffffffffffffffffffff1673ffffffffffffffffffffffffffffffffffffffff16815260200190815260200160002054600682815481101515611ed857fe5b90600052602060002001819055508080600101915050611cf5565b60046005600682805480602002602001604051908101604052809291908181526020018280548015611f7a57602002820191906000526020600020905b8160009054906101000a900473ffffffffffffffffffffffffffffffffffffffff1673ffffffffffffffffffffffffffffffffffffffff1681526020019060010190808311611f30575b5050505050925081805480602002602001604051908101604052809291908181526020018280548015611fcc57602002820191906000526020600020905b815481526020019060010190808311611fb8575b505050505091508080548060200260200160405190810160405280929190818152602001828054801561201e57602002820191906000526020600020905b81548152602001906001019080831161200a575b5050505050905093509350935050909192565b828054600181600116156101000203166002900490600052602060002090601f016020900481019282601f1061207257805160ff19168380011785556120a0565b828001600101855582156120a0579182015b8281111561209f578251825591602001919060010190612084565b5b5090506120ad91906120b1565b5090565b6120d391905b808211156120cf5760008160009055506001016120b7565b5090565b905600a165627a7a723058205d18d993ff038b3195518ae1f71452970139dce1883a3643e9e94d9f04a26c6d0029",
  "source": "pragma solidity ^0.4.20;\n\nimport './MultiOwnable.sol';\nimport './EIP20Interface.sol';\nimport './RegistrationInterface.sol';\n\ncontract Registration is MultiOwnable, RegistrationInterface {\n    \n  \n    \n    function Registration(address _tokenAddress){\n        tokenAddress = _tokenAddress;\n        token = EIP20Interface(_tokenAddress);\n        startingPoints = 100;\n    \n    }\n    \n    //AdminFunctions\n    \n     function addPlayer(address _playerAddress, string playerName, uint _playerType)\n        public returns (bool ok)\n    {\n        \n        require(!isTrustedPlayer[_playerAddress]);\n        \n        isTrustedPlayer[_playerAddress] = true;\n        token.addTokens(_playerAddress,startingPoints);\n        playerNames[_playerAddress] = playerName;\n        playerType[_playerAddress]=_playerType;\n        playerList.push(_playerAddress);\n        playerBalances.push(token.balanceOf(_playerAddress));\n        playerTypes.push(_playerType);\n        \n        emit LogAddPlayer(_playerAddress, playerName, _playerType);\n        \n        return true;\n    }\n    \n    function freezePlayer(address _playerAddress, bool freezeStatus)\n    public onlyAdmin returns(bool ok){\n        \n        require(isTrustedPlayer[_playerAddress]);    \n        \n        isPlayerFrozen[_playerAddress] = freezeStatus;\n        \n        emit LogPlayerStatus(_playerAddress, freezeStatus) ;\n        return true;\n        \n    }\n    \n    //Utility Functions\n    \n    function getPlayerList() public view returns(address[] _playerList){\n        return playerList;\n    }\n    \n    function getNumberPlayers() public view returns (uint numberPlayer){\n        return playerList.length;\n    }\n    \n    function getPlayerBalance(address _playerAddress) public view returns (uint balance){\n        return token.balanceOf(_playerAddress);\n    }\n    \n    function getPlayerDetail() public returns(address[] _playerList, uint256[] balance, uint[] _playerType){\n        uint i;\n        for(i=0;i<playerList.length;i++){\n            playerBalances[i] = token.balanceOf(playerList[i]);\n            playerTypes[i]= playerType[playerList[i]];\n        }\n        \n        return (playerList,playerBalances,playerTypes);\n        \n    }\n    function changePlayerType(address _playerAddress, uint _type) public onlyAdmin returns(bool ok){\n        playerType[_playerAddress] = _type;\n        return true;\n    }\n    \n    function getLeaderBoard() constant returns(address[] _playerList, uint256[] balance, uint[] _playerType){\n        return (playerList,playerBalances,playerTypes);\n    }\n   \n    function changeTokenAddress(address _newTokenAddress) public onlyAdmin returns(bool ok){\n        tokenAddress = _newTokenAddress;\n        token = EIP20Interface(_newTokenAddress);\n        \n        return true;\n    }\n    \n    function changeStartingPoints(uint256 newPoints) public onlyAdmin returns(bool ok){\n        \n        emit LogChangeStartingpoint(startingPoints,newPoints);\n        startingPoints = newPoints;\n        return true;\n    }\n    \n     function setPlayerRank(uint[] rankArray, address[] addressArray)\n        public\n        onlyAdmin\n        returns (bool ok)\n    {\n        uint i;\n        for(i=0;i<addressArray.length;i++){\n            playerRank[addressArray[i]] = rankArray[i];\n        }\n        \n        return true;\n        \n    }\n    \n    \n    \n}",
  "sourcePath": "/home/nitesh_ns19/abc-ipl/contracts/Registration.sol",
  "compiler": {
    "name": "solc",
    "version": "0.4.24+commit.e67f0147.Emscripten.clang"
  },
  "schemaVersion": "2.0.1",
  "updatedAt": "2018-06-30T14:25:32.643Z"
}